8=FIXT.1.1|9=84|35=A|34=1|49=INITIATOR|52=20231201-07:07:16.918|56=ACCEPTOR|98=0|108=1|141=Y|1137=7|10=146|8=FIXT.1.1|9=60|35=0|34=2|49=INITIATOR|52=20231201-07:07:17.918|56=ACCEPTOR|10=040|8=FIXT.1.1|9=60|35=0|34=3|49=INITIATOR|52=20231201-07:07:18.917|56=ACCEPTOR|10=041|8=FIXT.1.1|9=60|35=0|34=4|49=INITIATOR|52=20231201-07:07:19.916|56=ACCEPTOR|10=042|8=FIXT.1.1|9=60|35=0|34=5|49=INITIATOR|52=20231201-07:07:20.915|56=ACCEPTOR|10=034|8=FIXT.1.1|9=60|35=0|34=6|49=INITIATOR|52=20231201-07:07:21.913|56=ACCEPTOR|10=034|8=FIXT.1.1|9=60|35=0|34=7|49=INITIATOR|52=20231201-07:07:22.911|56=ACCEPTOR|10=034|8=FIXT.1.1|9=60|35=0|34=8|49=INITIATOR|52=20231201-07:07:23.908|56=ACCEPTOR|10=042|8=FIXT.1.1|9=60|35=0|34=9|49=INITIATOR|52=20231201-07:07:24.904|56=ACCEPTOR|10=040|8=FIXT.1.1|9=61|35=0|34=10|49=INITIATOR|52=20231201-07:07:25.900|56=ACCEPTOR|10=078|8=FIXT.1.1|9=61|35=0|34=11|49=INITIATOR|52=20231201-07:07:26.895|56=ACCEPTOR|10=093|8=FIXT.1.1|9=61|35=0|34=12|49=INITIATOR|52=20231201-07:07:27.889|56=ACCEPTOR|10=098|8=FIXT.1.1|9=61|35=0|34=13|49=INITIATOR|52=20231201-07:07:28.882|56=ACCEPTOR|10=093|8=FIXT.1.1|9=61|35=0|34=14|49=INITIATOR|52=20231201-07:07:29.874|56=ACCEPTOR|10=096|8=FIXT.1.1|9=61|35=0|34=15|49=INITIATOR|52=20231201-07:07:30.864|56=ACCEPTOR|10=088|8=FIXT.1.1|9=61|35=0|34=16|49=INITIATOR|52=20231201-07:07:31.854|56=ACCEPTOR|10=089|8=FIXT.1.1|9=61|35=0|34=17|49=INITIATOR|52=20231201-07:07:32.843|56=ACCEPTOR|10=089|8=FIXT.1.1|9=61|35=0|34=18|49=INITIATOR|52=20231201-07:07:33.830|56=ACCEPTOR|10=087|8=FIXT.1.1|9=61|35=0|34=19|49=INITIATOR|52=20231201-07:07:34.817|56=ACCEPTOR|10=094|8=FIXT.1.1|9=61|35=0|34=20|49=INITIATOR|52=20231201-07:07:35.802|56=ACCEPTOR|10=081|8=FIXT.1.1|9=61|35=0|34=21|49=INITIATOR|52=20231201-07:07:36.787|56=ACCEPTOR|10=095|8=FIXT.1.1|9=61|35=0|34=22|49=INITIATOR|52=20231201-07:07:37.772|56=ACCEPTOR|10=091|8=FIXT.1.1|9=61|35=0|34=23|49=INITIATOR|52=20231201-07:07:38.756|56=ACCEPTOR|10=095|8=FIXT.1.1|9=61|35=0|34=24|49=INITIATOR|52=20231201-07:07:39.739|56=ACCEPTOR|10=098|8=FIXT.1.1|9=61|35=0|34=25|49=INITIATOR|52=20231201-07:07:40.721|56=ACCEPTOR|10=082|8=FIXT.1.1|9=61|35=0|34=26|49=INITIATOR|52=20231201-07:07:41.702|56=ACCEPTOR|10=083|8=FIXT.1.1|9=61|35=0|34=27|49=INITIATOR|52=20231201-07:07:42.682|56=ACCEPTOR|10=092|8=FIXT.1.1|9=61|35=0|34=28|49=INITIATOR|52=20231201-07:07:43.661|56=ACCEPTOR|10=091|8=FIXT.1.1|9=61|35=0|34=29|49=INITIATOR|52=20231201-07:07:44.638|56=ACCEPTOR|10=097|8=FIXT.1.1|9=61|35=0|34=30|49=INITIATOR|52=20231201-07:07:45.614|56=ACCEPTOR|10=084|8=FIXT.1.1|9=61|35=0|34=31|49=INITIATOR|52=20231201-07:07:46.590|56=ACCEPTOR|10=089|8=FIXT.1.1|9=61|35=0|34=32|49=INITIATOR|52=20231201-07:07:47.566|56=ACCEPTOR|10=094|8=FIXT.1.1|9=61|35=0|34=33|49=INITIATOR|52=20231201-07:07:48.541|56=ACCEPTOR|10=089|8=FIXT.1.1|9=61|35=0|34=34|49=INITIATOR|52=20231201-07:07:49.515|56=ACCEPTOR|10=092|8=FIXT.1.1|9=61|35=0|34=35|49=INITIATOR|52=20231201-07:07:50.489|56=ACCEPTOR|10=095|8=FIXT.1.1|9=61|35=0|34=36|49=INITIATOR|52=20231201-07:07:51.462|56=ACCEPTOR|10=088|8=FIXT.1.1|9=61|35=0|34=37|49=INITIATOR|52=20231201-07:07:52.433|56=ACCEPTOR|10=088|8=FIXT.1.1|9=61|35=0|34=38|49=INITIATOR|52=20231201-07:07:53.405|56=ACCEPTOR|10=089|8=FIXT.1.1|9=61|35=0|34=39|49=INITIATOR|52=20231201-07:07:54.376|56=ACCEPTOR|10=098|8=FIXT.1.1|9=61|35=0|34=40|49=INITIATOR|52=20231201-07:07:55.347|56=ACCEPTOR|10=089|8=FIXT.1.1|9=61|35=0|34=41|49=INITIATOR|52=20231201-07:07:56.318|56=ACCEPTOR|10=089|8=FIXT.1.1|9=61|35=0|34=42|49=INITIATOR|52=20231201-07:07:57.288|56=ACCEPTOR|10=097|8=FIXT.1.1|9=61|35=0|34=43|49=INITIATOR|52=20231201-07:07:58.256|56=ACCEPTOR|10=094|8=FIXT.1.1|9=61|35=0|34=44|49=INITIATOR|52=20231201-07:07:59.224|56=ACCEPTOR|10=091|8=FIXT.1.1|9=61|35=0|34=45|49=INITIATOR|52=20231201-07:08:00.192|56=ACCEPTOR|10=083|8=FIXT.1.1|9=61|35=0|34=46|49=INITIATOR|52=20231201-07:08:01.158|56=ACCEPTOR|10=087|8=FIXT.1.1|9=61|35=0|34=47|49=INITIATOR|52=20231201-07:08:02.124|56=ACCEPTOR|10=082|8=FIXT.1.1|9=61|35=0|34=48|49=INITIATOR|52=20231201-07:08:03.090|56=ACCEPTOR|10=086|