8=FIXT.1.1|9=84|35=A|34=1|49=INITIATOR|52=20231201-06:28:53.710|56=ACCEPTOR|98=0|108=1|141=Y|1137=7|10=139|8=FIXT.1.1|9=60|35=0|34=2|49=INITIATOR|52=20231201-06:28:54.707|56=ACCEPTOR|10=039|8=FIXT.1.1|9=60|35=0|34=3|49=INITIATOR|52=20231201-06:28:55.703|56=ACCEPTOR|10=037|8=FIXT.1.1|9=60|35=0|34=4|49=INITIATOR|52=20231201-06:28:56.698|56=ACCEPTOR|10=052|8=FIXT.1.1|9=60|35=0|34=5|49=INITIATOR|52=20231201-06:28:57.693|56=ACCEPTOR|10=049|8=FIXT.1.1|9=60|35=0|34=6|49=INITIATOR|52=20231201-06:28:58.687|56=ACCEPTOR|10=054|8=FIXT.1.1|9=60|35=0|34=7|49=INITIATOR|52=20231201-06:28:59.680|56=ACCEPTOR|10=049|8=FIXT.1.1|9=60|35=0|34=8|49=INITIATOR|52=20231201-06:29:00.674|56=ACCEPTOR|10=040|8=FIXT.1.1|9=60|35=0|34=9|49=INITIATOR|52=20231201-06:29:01.666|56=ACCEPTOR|10=043|8=FIXT.1.1|9=61|35=0|34=10|49=INITIATOR|52=20231201-06:29:02.658|56=ACCEPTOR|10=086|8=FIXT.1.1|9=61|35=0|34=11|49=INITIATOR|52=20231201-06:29:03.649|56=ACCEPTOR|10=088|8=FIXT.1.1|9=61|35=0|34=12|49=INITIATOR|52=20231201-06:29:04.639|56=ACCEPTOR|10=089|8=FIXT.1.1|9=61|35=0|34=13|49=INITIATOR|52=20231201-06:29:05.629|56=ACCEPTOR|10=090|8=FIXT.1.1|9=61|35=0|34=14|49=INITIATOR|52=20231201-06:29:06.618|56=ACCEPTOR|10=090|8=FIXT.1.1|9=61|35=0|34=15|49=INITIATOR|52=20231201-06:29:07.606|56=ACCEPTOR|10=089|8=FIXT.1.1|9=61|35=0|34=16|49=INITIATOR|52=20231201-06:29:08.593|56=ACCEPTOR|10=096|8=FIXT.1.1|9=61|35=0|34=17|49=INITIATOR|52=20231201-06:29:09.579|56=ACCEPTOR|10=102|8=FIXT.1.1|9=61|35=0|34=18|49=INITIATOR|52=20231201-06:29:10.563|56=ACCEPTOR|10=088|8=FIXT.1.1|9=61|35=0|34=19|49=INITIATOR|52=20231201-06:29:11.548|56=ACCEPTOR|10=093|8=FIXT.1.1|9=61|35=0|34=20|49=INITIATOR|52=20231201-06:29:12.531|56=ACCEPTOR|10=078|8=FIXT.1.1|9=61|35=0|34=21|49=INITIATOR|52=20231201-06:29:13.513|56=ACCEPTOR|10=080|