8=FIX.4.2|9=72|35=A|34=1|49=INITIATOR|52=20231129-04:03:10.852|56=ACCEPTOR|98=0|108=30|10=252|8=FIX.4.2|9=60|35=0|34=2|49=INITIATOR|52=20231129-04:03:40.764|56=ACCEPTOR|10=213|8=FIX.4.2|9=60|35=0|34=3|49=INITIATOR|52=20231129-04:04:10.529|56=ACCEPTOR|10=211|8=FIX.4.2|9=60|35=0|34=4|49=INITIATOR|52=20231129-04:04:40.155|56=ACCEPTOR|10=210|8=FIX.4.2|9=60|35=0|34=5|49=INITIATOR|52=20231129-04:05:10.667|56=ACCEPTOR|10=217|8=FIX.4.2|9=60|35=0|34=6|49=INITIATOR|52=20231129-04:05:40.083|56=ACCEPTOR|10=213|8=FIX.4.2|9=60|35=0|34=7|49=INITIATOR|52=20231129-04:06:10.382|56=ACCEPTOR|10=214|8=FIX.4.2|9=60|35=0|34=8|49=INITIATOR|52=20231129-04:06:40.568|56=ACCEPTOR|10=224|8=FIX.4.2|9=60|35=0|34=9|49=INITIATOR|52=20231129-04:07:10.595|56=ACCEPTOR|10=223|8=FIX.4.2|9=61|35=0|34=10|49=INITIATOR|52=20231129-04:07:40.498|56=ACCEPTOR|10=013|8=FIX.4.2|9=61|35=0|34=11|49=INITIATOR|52=20231129-04:08:10.262|56=ACCEPTOR|10=001|8=FIX.4.2|9=61|35=0|34=12|49=INITIATOR|52=20231129-04:08:40.096|56=ACCEPTOR|10=010|8=FIX.4.2|9=61|35=0|34=13|49=INITIATOR|52=20231129-04:09:10.559|56=ACCEPTOR|10=013|8=FIX.4.2|9=61|35=0|34=14|49=INITIATOR|52=20231129-04:09:40.119|56=ACCEPTOR|10=009|8=FIX.4.2|9=61|35=0|34=15|49=INITIATOR|52=20231129-04:10:10.301|56=ACCEPTOR|10=248|8=FIX.4.2|9=61|35=0|34=16|49=INITIATOR|52=20231129-04:10:40.332|56=ACCEPTOR|10=000|8=FIX.4.2|9=61|35=0|34=17|49=INITIATOR|52=20231129-04:11:10.222|56=ACCEPTOR|10=253|8=FIX.4.2|9=61|35=0|34=18|49=INITIATOR|52=20231129-04:11:40.217|56=ACCEPTOR|10=005|8=FIX.4.2|9=61|35=0|34=19|49=INITIATOR|52=20231129-04:12:10.069|56=ACCEPTOR|10=009|8=FIX.4.2|9=61|35=0|34=20|49=INITIATOR|52=20231129-04:12:40.435|56=ACCEPTOR|10=001|8=FIX.4.2|9=73|35=A|34=21|49=INITIATOR|52=20231129-04:13:25.669|56=ACCEPTOR|98=0|108=30|10=060|8=FIX.4.2|9=73|35=A|34=22|49=INITIATOR|52=20231129-04:13:40.010|56=ACCEPTOR|98=0|108=30|10=038|8=FIX.4.2|9=61|35=0|34=23|49=INITIATOR|52=20231129-04:14:10.785|56=ACCEPTOR|10=011|8=FIX.4.2|9=61|35=0|34=24|49=INITIATOR|52=20231129-04:14:40.595|56=ACCEPTOR|10=014|8=FIX.4.2|9=61|35=0|34=25|49=INITIATOR|52=20231129-04:15:10.300|56=ACCEPTOR|10=253|8=FIX.4.2|9=61|35=0|34=26|49=INITIATOR|52=20231129-04:15:40.819|56=ACCEPTOR|10=016|8=FIX.4.2|9=61|35=0|34=27|49=INITIATOR|52=20231129-04:16:10.245|56=ACCEPTOR|10=008|8=FIX.4.2|9=61|35=0|34=28|49=INITIATOR|52=20231129-04:16:40.550|56=ACCEPTOR|10=011|8=FIX.4.2|9=61|35=0|34=29|49=INITIATOR|52=20231129-04:17:10.733|56=ACCEPTOR|10=013|8=FIX.4.2|9=61|35=0|34=30|49=INITIATOR|52=20231129-04:17:40.772|56=ACCEPTOR|10=011|8=FIX.4.2|9=61|35=0|34=31|49=INITIATOR|52=20231129-04:18:10.702|56=ACCEPTOR|10=003|8=FIX.4.2|9=61|35=0|34=32|49=INITIATOR|52=20231129-04:18:40.488|56=ACCEPTOR|10=018|8=FIX.4.2|9=61|35=0|34=33|49=INITIATOR|52=20231129-04:19:10.169|56=ACCEPTOR|10=013|8=FIX.4.2|9=61|35=0|34=34|49=INITIATOR|52=20231129-04:19:40.668|56=ACCEPTOR|10=021|8=FIX.4.2|9=61|35=0|34=35|49=INITIATOR|52=20231129-04:20:10.106|56=ACCEPTOR|10=254|8=FIX.4.2|9=61|35=0|34=36|49=INITIATOR|52=20231129-04:20:40.368|56=ACCEPTOR|10=012|8=FIX.4.2|9=61|35=0|34=37|49=INITIATOR|52=20231129-04:21:10.510|56=ACCEPTOR|10=000|8=FIX.4.2|9=61|35=0|34=38|49=INITIATOR|52=20231129-04:21:40.537|56=ACCEPTOR|10=013|8=FIX.4.2|9=61|35=0|34=39|49=INITIATOR|52=20231129-04:22:10.430|56=ACCEPTOR|10=004|8=FIX.4.2|9=61|35=0|34=40|49=INITIATOR|52=20231129-04:22:40.197|56=ACCEPTOR|10=009|8=FIX.4.2|9=61|35=0|34=41|49=INITIATOR|52=20231129-04:23:10.033|56=ACCEPTOR|10=253|8=FIX.4.2|9=61|35=0|34=42|49=INITIATOR|52=20231129-04:23:40.481|56=ACCEPTOR|10=008|8=FIX.4.2|9=61|35=0|34=43|49=INITIATOR|52=20231129-04:24:10.086|56=ACCEPTOR|10=008|8=FIX.4.2|9=61|35=0|34=44|49=INITIATOR|52=20231129-04:24:40.270|56=ACCEPTOR|10=007|8=FIX.4.2|9=61|35=0|34=45|49=INITIATOR|52=20231129-04:25:10.326|56=ACCEPTOR|10=008|8=FIX.4.2|9=61|35=0|34=46|49=INITIATOR|52=20231129-04:25:40.233|56=ACCEPTOR|10=009|8=FIX.4.2|9=61|35=0|34=47|49=INITIATOR|52=20231129-04:26:10.258|56=ACCEPTOR|10=015|8=FIX.4.2|9=61|35=0|34=48|49=INITIATOR|52=20231129-04:26:40.152|56=ACCEPTOR|10=012|8=FIX.4.2|9=61|35=0|34=49|49=INITIATOR|52=20231129-04:27:10.500|56=ACCEPTOR|10=008|8=FIX.4.2|9=61|35=0|34=50|49=INITIATOR|52=20231129-04:27:40.175|56=ACCEPTOR|10=011|8=FIX.4.2|9=61|35=0|34=51|49=INITIATOR|52=20231129-04:28:10.289|56=ACCEPTOR|10=016|8=FIX.4.2|9=61|35=0|34=52|49=INITIATOR|52=20231129-04:28:40.292|56=ACCEPTOR|10=014|8=FIX.4.2|9=61|35=0|34=53|49=INITIATOR|52=20231129-04:29:10.179|56=ACCEPTOR|10=017|8=FIX.4.2|9=61|35=0|34=54|49=INITIATOR|52=20231129-04:29:40.334|56=ACCEPTOR|10=014|8=FIX.4.2|9=61|35=0|34=55|49=INITIATOR|52=20231129-04:30:10.366|56=ACCEPTOR|10=009|8=FIX.4.2|9=61|35=0|34=56|49=INITIATOR|52=20231129-04:30:40.264|56=ACCEPTOR|10=010|8=FIX.4.2|9=61|35=0|34=57|49=INITIATOR|52=20231129-04:31:10.033|56=ACCEPTOR|10=003|8=FIX.4.2|9=61|35=0|34=58|49=INITIATOR|52=20231129-04:31:40.161|56=ACCEPTOR|10=009|8=FIX.4.2|9=61|35=0|34=59|49=INITIATOR|52=20231129-04:32:10.112|56=ACCEPTOR|10=004|8=FIX.4.2|9=73|35=A|34=60|49=INITIATOR|52=20231129-04:32:29.433|56=ACCEPTOR|98=0|108=30|10=057|8=FIX.4.2|9=61|35=5|34=61|49=INITIATOR|52=20231129-04:32:29.434|56=ACCEPTOR|10=019|8=FIX.4.2|9=73|35=A|34=62|49=INITIATOR|52=20231129-04:32:29.434|56=ACCEPTOR|98=0|108=30|10=060|8=FIX.4.2|9=73|35=A|34=63|49=INITIATOR|52=20231129-04:33:03.922|56=ACCEPTOR|98=0|108=30|10=056|8=FIX.4.2|9=61|35=5|34=64|49=INITIATOR|52=20231129-04:33:03.922|56=ACCEPTOR|10=017|8=FIX.4.2|9=73|35=A|34=65|49=INITIATOR|52=20231129-04:33:03.922|56=ACCEPTOR|98=0|108=30|10=058|8=FIX.4.2|9=73|35=A|34=66|49=INITIATOR|52=20231129-04:33:55.354|56=ACCEPTOR|98=0|108=30|10=065|8=FIX.4.2|9=73|35=A|34=67|49=INITIATOR|52=20231129-04:34:36.209|56=ACCEPTOR|98=0|108=30|10=065|8=FIX.4.2|9=73|35=A|34=68|49=INITIATOR|52=20231129-04:35:36.920|56=ACCEPTOR|98=0|108=30|10=067|8=FIX.4.2|9=61|35=5|34=69|49=INITIATOR|52=20231129-04:35:36.920|56=ACCEPTOR|10=028|8=FIX.4.2|9=73|35=A|34=70|49=INITIATOR|52=20231129-04:35:36.920|56=ACCEPTOR|98=0|108=30|10=060|8=FIX.4.2|9=73|35=A|34=71|49=INITIATOR|52=20231129-04:36:02.536|56=ACCEPTOR|98=0|108=30|10=058|8=FIX.4.2|9=73|35=A|34=72|49=INITIATOR|52=20231129-04:36:47.158|56=ACCEPTOR|98=0|108=30|10=068|8=FIX.4.2|9=61|35=5|34=73|49=INITIATOR|52=20231129-04:36:47.159|56=ACCEPTOR|10=030|8=FIX.4.2|9=73|35=A|34=74|49=INITIATOR|52=20231129-04:36:47.159|56=ACCEPTOR|98=0|108=30|10=071|8=FIX.4.2|9=73|35=A|34=75|49=INITIATOR|52=20231129-04:38:15.443|56=ACCEPTOR|98=0|108=30|10=065|8=FIX.4.2|9=61|35=0|34=76|49=INITIATOR|52=20231129-04:38:45.366|56=ACCEPTOR|10=028|8=FIX.4.2|9=61|35=0|34=77|49=INITIATOR|52=20231129-04:39:15.190|56=ACCEPTOR|10=022|8=FIX.4.2|9=61|35=0|34=78|49=INITIATOR|52=20231129-04:39:45.882|56=ACCEPTOR|10=034|8=FIX.4.2|9=61|35=0|34=79|49=INITIATOR|52=20231129-04:40:15.425|56=ACCEPTOR|10=017|8=FIX.4.2|9=61|35=0|34=80|49=INITIATOR|52=20231129-04:40:45.832|56=ACCEPTOR|10=014|8=FIX.4.2|9=61|35=0|34=81|49=INITIATOR|52=20231129-04:41:15.168|56=ACCEPTOR|10=015|8=FIX.4.2|9=61|35=0|34=82|49=INITIATOR|52=20231129-04:41:45.362|56=ACCEPTOR|10=015|8=FIX.4.2|9=61|35=0|34=83|49=INITIATOR|52=20231129-04:42:15.436|56=ACCEPTOR|10=016|