8=FIXT.1.1|9=79|35=A|34=1|49=INITIATOR|52=20231129-04:50:56.064|56=ACCEPTOR|98=0|108=30|1137=7|10=155|8=FIXT.1.1|9=60|35=0|34=2|49=INITIATOR|52=20231129-04:51:26.020|56=ACCEPTOR|10=029|8=FIXT.1.1|9=60|35=0|34=3|49=INITIATOR|52=20231129-04:51:56.724|56=ACCEPTOR|10=044|8=FIXT.1.1|9=60|35=0|34=4|49=INITIATOR|52=20231129-04:52:26.278|56=ACCEPTOR|10=047|8=FIXT.1.1|9=60|35=0|34=5|49=INITIATOR|52=20231129-04:52:56.682|56=ACCEPTOR|10=050|8=FIXT.1.1|9=60|35=0|34=6|49=INITIATOR|52=20231129-04:53:26.155|56=ACCEPTOR|10=044|