8=FIXT.1.1|9=84|35=A|34=1|49=INITIATOR|52=20231130-08:23:15.640|56=ACCEPTOR|98=0|108=1|141=Y|1137=7|10=137|8=FIXT.1.1|9=60|35=0|34=2|49=INITIATOR|52=20231130-08:23:16.639|56=ACCEPTOR|10=039|8=FIXT.1.1|9=60|35=0|34=3|49=INITIATOR|52=20231130-08:23:17.638|56=ACCEPTOR|10=040|8=FIXT.1.1|9=60|35=0|34=4|49=INITIATOR|52=20231130-08:23:18.636|56=ACCEPTOR|10=040|8=FIXT.1.1|9=60|35=0|34=5|49=INITIATOR|52=20231130-08:23:19.633|56=ACCEPTOR|10=039|8=FIXT.1.1|9=60|35=0|34=6|49=INITIATOR|52=20231130-08:23:20.629|56=ACCEPTOR|10=037|8=FIXT.1.1|9=60|35=0|34=7|49=INITIATOR|52=20231130-08:23:21.624|56=ACCEPTOR|10=034|8=FIXT.1.1|9=60|35=0|34=8|49=INITIATOR|52=20231130-08:23:22.619|56=ACCEPTOR|10=040|8=FIXT.1.1|9=60|35=0|34=9|49=INITIATOR|52=20231130-08:23:23.612|56=ACCEPTOR|10=035|8=FIXT.1.1|9=61|35=0|34=10|49=INITIATOR|52=20231130-08:23:24.604|56=ACCEPTOR|10=078|8=FIXT.1.1|9=61|35=0|34=11|49=INITIATOR|52=20231130-08:23:25.594|56=ACCEPTOR|10=088|8=FIXT.1.1|9=61|35=0|34=12|49=INITIATOR|52=20231130-08:23:26.583|56=ACCEPTOR|10=088|8=FIXT.1.1|9=61|35=0|34=13|49=INITIATOR|52=20231130-08:23:27.571|56=ACCEPTOR|10=087|8=FIXT.1.1|9=61|35=0|34=14|49=INITIATOR|52=20231130-08:23:28.558|56=ACCEPTOR|10=094|8=FIXT.1.1|9=61|35=0|34=15|49=INITIATOR|52=20231130-08:23:29.545|56=ACCEPTOR|10=092|8=FIXT.1.1|9=61|35=0|34=16|49=INITIATOR|52=20231130-08:23:30.530|56=ACCEPTOR|10=079|8=FIXT.1.1|9=61|35=0|34=17|49=INITIATOR|52=20231130-08:23:31.515|56=ACCEPTOR|10=084|8=FIXT.1.1|9=61|35=0|34=18|49=INITIATOR|52=20231130-08:23:32.498|56=ACCEPTOR|10=096|8=FIXT.1.1|9=61|35=0|34=19|49=INITIATOR|52=20231130-08:23:33.480|56=ACCEPTOR|10=089|8=FIXT.1.1|9=61|35=0|34=20|49=INITIATOR|52=20231130-08:23:34.461|56=ACCEPTOR|10=081|8=FIXT.1.1|9=61|35=0|34=21|49=INITIATOR|52=20231130-08:23:35.440|56=ACCEPTOR|10=080|8=FIXT.1.1|9=61|35=0|34=22|49=INITIATOR|52=20231130-08:23:36.418|56=ACCEPTOR|10=087|8=FIXT.1.1|9=61|35=0|34=23|49=INITIATOR|52=20231130-08:23:37.395|56=ACCEPTOR|10=093|8=FIXT.1.1|9=61|35=0|34=24|49=INITIATOR|52=20231130-08:23:38.372|56=ACCEPTOR|10=090|8=FIXT.1.1|9=61|35=0|34=25|49=INITIATOR|52=20231130-08:23:39.348|56=ACCEPTOR|10=095|8=FIXT.1.1|9=61|35=0|34=26|49=INITIATOR|52=20231130-08:23:40.323|56=ACCEPTOR|10=081|8=FIXT.1.1|9=61|35=0|34=27|49=INITIATOR|52=20231130-08:23:41.297|56=ACCEPTOR|10=093|8=FIXT.1.1|9=61|35=0|34=28|49=INITIATOR|52=20231130-08:23:42.270|56=ACCEPTOR|10=086|8=FIXT.1.1|9=61|35=0|34=29|49=INITIATOR|52=20231130-08:23:43.241|56=ACCEPTOR|10=086|8=FIXT.1.1|9=61|35=0|34=30|49=INITIATOR|52=20231130-08:23:44.211|56=ACCEPTOR|10=076|8=FIXT.1.1|9=61|35=0|34=31|49=INITIATOR|52=20231130-08:23:45.180|56=ACCEPTOR|10=083|8=FIXT.1.1|9=61|35=0|34=32|49=INITIATOR|52=20231130-08:23:46.148|56=ACCEPTOR|10=089|8=FIXT.1.1|9=61|35=0|34=33|49=INITIATOR|52=20231130-08:23:47.113|56=ACCEPTOR|10=083|8=FIXT.1.1|9=61|35=0|34=34|49=INITIATOR|52=20231130-08:23:48.078|56=ACCEPTOR|10=095|8=FIXT.1.1|9=61|35=0|34=35|49=INITIATOR|52=20231130-08:23:49.043|56=ACCEPTOR|10=089|8=FIXT.1.1|9=61|35=0|34=36|49=INITIATOR|52=20231130-08:23:50.006|56=ACCEPTOR|10=081|8=FIXT.1.1|9=61|35=0|34=37|49=INITIATOR|52=20231130-08:23:51.927|56=ACCEPTOR|10=095|8=FIXT.1.1|9=61|35=0|34=38|49=INITIATOR|52=20231130-08:23:52.886|56=ACCEPTOR|10=101|8=FIXT.1.1|9=61|35=0|34=39|49=INITIATOR|52=20231130-08:23:53.844|56=ACCEPTOR|10=097|8=FIXT.1.1|9=61|35=0|34=40|49=INITIATOR|52=20231130-08:23:54.803|56=ACCEPTOR|10=085|8=FIXT.1.1|9=61|35=0|34=41|49=INITIATOR|52=20231130-08:23:55.761|56=ACCEPTOR|10=090|8=FIXT.1.1|9=61|35=0|34=42|49=INITIATOR|52=20231130-08:23:56.718|56=ACCEPTOR|10=094|8=FIXT.1.1|9=61|35=0|34=43|49=INITIATOR|52=20231130-08:23:57.673|56=ACCEPTOR|10=096|8=FIXT.1.1|9=61|35=0|34=44|49=INITIATOR|52=20231130-08:23:58.626|56=ACCEPTOR|10=096|8=FIXT.1.1|9=61|35=0|34=45|49=INITIATOR|52=20231130-08:23:59.578|56=ACCEPTOR|10=104|8=FIXT.1.1|9=61|35=0|34=46|49=INITIATOR|52=20231130-08:24:00.529|56=ACCEPTOR|10=088|8=FIXT.1.1|9=61|35=0|34=47|49=INITIATOR|52=20231130-08:24:01.478|56=ACCEPTOR|10=093|8=FIXT.1.1|9=61|35=0|34=48|49=INITIATOR|52=20231130-08:24:02.426|56=ACCEPTOR|10=088|8=FIXT.1.1|9=61|35=0|34=49|49=INITIATOR|52=20231130-08:24:03.374|56=ACCEPTOR|10=092|8=FIXT.1.1|9=61|35=0|34=50|49=INITIATOR|52=20231130-08:24:04.321|56=ACCEPTOR|10=077|8=FIXT.1.1|9=61|35=0|34=51|49=INITIATOR|52=20231130-08:24:05.267|56=ACCEPTOR|10=088|8=FIXT.1.1|9=61|35=0|34=52|49=INITIATOR|52=20231130-08:24:06.210|56=ACCEPTOR|10=078|8=FIXT.1.1|9=61|35=0|34=53|49=INITIATOR|52=20231130-08:24:07.153|56=ACCEPTOR|10=086|8=FIXT.1.1|9=61|35=0|34=54|49=INITIATOR|52=20231130-08:24:08.095|56=ACCEPTOR|10=093|8=FIXT.1.1|9=61|35=0|34=55|49=INITIATOR|52=20231130-08:24:09.035|56=ACCEPTOR|10=089|8=FIXT.1.1|9=61|35=0|34=56|49=INITIATOR|52=20231130-08:24:10.915|56=ACCEPTOR|10=089|8=FIXT.1.1|9=61|35=0|34=57|49=INITIATOR|52=20231130-08:24:11.854|56=ACCEPTOR|10=093|8=FIXT.1.1|9=61|35=0|34=58|49=INITIATOR|52=20231130-08:24:12.791|56=ACCEPTOR|10=095|8=FIXT.1.1|9=61|35=0|34=59|49=INITIATOR|52=20231130-08:24:13.729|56=ACCEPTOR|10=098|8=FIXT.1.1|9=61|35=0|34=60|49=INITIATOR|52=20231130-08:24:14.665|56=ACCEPTOR|10=090|8=FIXT.1.1|9=61|35=0|34=61|49=INITIATOR|52=20231130-08:24:15.602|56=ACCEPTOR|10=083|8=FIXT.1.1|9=61|35=0|34=62|49=INITIATOR|52=20231130-08:24:16.537|56=ACCEPTOR|10=092|8=FIXT.1.1|9=61|35=0|34=63|49=INITIATOR|52=20231130-08:24:17.473|56=ACCEPTOR|10=093|8=FIXT.1.1|9=61|35=0|34=64|49=INITIATOR|52=20231130-08:24:18.408|56=ACCEPTOR|10=093|8=FIXT.1.1|9=61|35=0|34=65|49=INITIATOR|52=20231130-08:24:19.342|56=ACCEPTOR|10=092|8=FIXT.1.1|9=61|35=0|34=66|49=INITIATOR|52=20231130-08:24:20.275|56=ACCEPTOR|10=090|8=FIXT.1.1|9=61|35=0|34=67|49=INITIATOR|52=20231130-08:24:21.207|56=ACCEPTOR|10=087|8=FIXT.1.1|9=61|35=0|34=68|49=INITIATOR|52=20231130-08:24:22.137|56=ACCEPTOR|10=091|8=FIXT.1.1|9=61|35=0|34=69|49=INITIATOR|52=20231130-08:24:23.066|56=ACCEPTOR|10=094|8=FIXT.1.1|9=61|35=0|34=70|49=INITIATOR|52=20231130-08:24:24.010|56=ACCEPTOR|10=076|8=FIXT.1.1|9=61|35=0|34=71|49=INITIATOR|52=20231130-08:24:25.863|56=ACCEPTOR|10=094|8=FIXT.1.1|9=61|35=0|34=72|49=INITIATOR|52=20231130-08:24:26.789|56=ACCEPTOR|10=103|8=FIXT.1.1|9=61|35=0|34=73|49=INITIATOR|52=20231130-08:24:27.714|56=ACCEPTOR|10=093|8=FIXT.1.1|9=61|35=0|34=74|49=INITIATOR|52=20231130-08:24:28.638|56=ACCEPTOR|10=100|8=FIXT.1.1|9=61|35=0|34=75|49=INITIATOR|52=20231130-08:24:29.562|56=ACCEPTOR|10=098|8=FIXT.1.1|9=61|35=0|34=76|49=INITIATOR|52=20231130-08:24:30.484|56=ACCEPTOR|10=094|8=FIXT.1.1|9=61|35=0|34=77|49=INITIATOR|52=20231130-08:24:31.405|56=ACCEPTOR|10=089|8=FIXT.1.1|9=61|35=0|34=78|49=INITIATOR|52=20231130-08:24:32.326|56=ACCEPTOR|10=093|8=FIXT.1.1|9=61|35=0|34=79|49=INITIATOR|52=20231130-08:24:33.246|56=ACCEPTOR|10=096|8=FIXT.1.1|9=61|35=0|34=80|49=INITIATOR|52=20231130-08:24:34.164|56=ACCEPTOR|10=088|8=FIXT.1.1|9=61|35=0|34=81|49=INITIATOR|52=20231130-08:24:35.081|56=ACCEPTOR|10=088|8=FIXT.1.1|9=61|35=0|34=82|49=INITIATOR|52=20231130-08:24:36.015|56=ACCEPTOR|10=087|8=FIXT.1.1|9=61|35=0|34=83|49=INITIATOR|52=20231130-08:24:37.841|56=ACCEPTOR|10=096|8=FIXT.1.1|9=61|35=0|34=84|49=INITIATOR|52=20231130-08:24:38.753|56=ACCEPTOR|10=100|8=FIXT.1.1|9=61|35=0|34=85|49=INITIATOR|52=20231130-08:24:39.664|56=ACCEPTOR|10=103|8=FIXT.1.1|9=61|35=0|34=86|49=INITIATOR|52=20231130-08:24:40.575|56=ACCEPTOR|10=097|8=FIXT.1.1|9=61|35=0|34=87|49=INITIATOR|52=20231130-08:24:41.484|56=ACCEPTOR|10=098|8=FIXT.1.1|9=61|35=0|34=88|49=INITIATOR|52=20231130-08:24:42.392|56=ACCEPTOR|10=098|8=FIXT.1.1|9=61|35=0|34=89|49=INITIATOR|52=20231130-08:24:43.300|56=ACCEPTOR|10=089|8=FIXT.1.1|9=61|35=0|34=90|49=INITIATOR|52=20231130-08:24:44.207|56=ACCEPTOR|10=088|8=FIXT.1.1|9=61|35=0|34=91|49=INITIATOR|52=20231130-08:24:45.111|56=ACCEPTOR|10=084|8=FIXT.1.1|9=61|35=0|34=92|49=INITIATOR|52=20231130-08:24:46.015|56=ACCEPTOR|10=089|8=FIXT.1.1|9=61|35=0|34=93|49=INITIATOR|52=20231130-08:24:47.817|56=ACCEPTOR|10=101|8=FIXT.1.1|9=61|35=0|34=94|49=INITIATOR|52=20231130-08:24:48.718|56=ACCEPTOR|10=103|8=FIXT.1.1|9=61|35=0|34=95|49=INITIATOR|52=20231130-08:24:49.616|56=ACCEPTOR|10=102|8=FIXT.1.1|9=61|35=0|34=96|49=INITIATOR|52=20231130-08:24:50.514|56=ACCEPTOR|10=092|8=FIXT.1.1|9=61|35=0|34=97|49=INITIATOR|52=20231130-08:24:51.411|56=ACCEPTOR|10=090|8=FIXT.1.1|9=61|35=0|34=98|49=INITIATOR|52=20231130-08:24:52.307|56=ACCEPTOR|10=096|8=FIXT.1.1|9=61|35=0|34=99|49=INITIATOR|52=20231130-08:24:53.200|56=ACCEPTOR|10=090|8=FIXT.1.1|9=62|35=0|34=100|49=INITIATOR|52=20231130-08:24:54.093|56=ACCEPTOR|10=133|8=FIXT.1.1|9=62|35=0|34=101|49=INITIATOR|52=20231130-08:24:55.007|56=ACCEPTOR|10=130|8=FIXT.1.1|9=62|35=0|34=102|49=INITIATOR|52=20231130-08:24:56.787|56=ACCEPTOR|10=147|8=FIXT.1.1|9=62|35=0|34=103|49=INITIATOR|52=20231130-08:24:57.677|56=ACCEPTOR|10=147|8=FIXT.1.1|9=62|35=0|34=104|49=INITIATOR|52=20231130-08:24:58.566|56=ACCEPTOR|10=146|8=FIXT.1.1|9=62|35=0|34=105|49=INITIATOR|52=20231130-08:24:59.451|56=ACCEPTOR|10=141|8=FIXT.1.1|9=62|35=0|34=106|49=INITIATOR|52=20231130-08:25:00.334|56=ACCEPTOR|10=129|8=FIXT.1.1|9=62|35=0|34=107|49=INITIATOR|52=20231130-08:25:01.219|56=ACCEPTOR|10=133|8=FIXT.1.1|9=62|35=0|34=108|49=INITIATOR|52=20231130-08:25:02.101|56=ACCEPTOR|10=125|8=FIXT.1.1|9=62|35=0|34=109|49=INITIATOR|52=20231130-08:25:03.008|56=ACCEPTOR|10=133|8=FIXT.1.1|9=62|35=0|34=110|49=INITIATOR|52=20231130-08:25:04.768|56=ACCEPTOR|10=139|8=FIXT.1.1|9=62|35=0|34=111|49=INITIATOR|52=20231130-08:25:05.648|56=ACCEPTOR|10=138|8=FIXT.1.1|9=62|35=0|34=112|49=INITIATOR|52=20231130-08:25:06.526|56=ACCEPTOR|10=135|8=FIXT.1.1|9=62|35=0|34=113|49=INITIATOR|52=20231130-08:25:07.403|56=ACCEPTOR|10=131|8=FIXT.1.1|9=62|35=0|34=114|49=INITIATOR|52=20231130-08:25:08.278|56=ACCEPTOR|10=143|8=FIXT.1.1|9=62|35=0|34=115|49=INITIATOR|52=20231130-08:25:09.152|56=ACCEPTOR|10=136|8=FIXT.1.1|9=62|35=0|34=116|49=INITIATOR|52=20231130-08:25:10.025|56=ACCEPTOR|10=128|8=FIXT.1.1|9=62|35=0|34=117|49=INITIATOR|52=20231130-08:25:11.769|56=ACCEPTOR|10=145|8=FIXT.1.1|9=62|35=0|34=118|49=INITIATOR|52=20231130-08:25:12.642|56=ACCEPTOR|10=137|8=FIXT.1.1|9=62|35=0|34=119|49=INITIATOR|52=20231130-08:25:13.513|56=ACCEPTOR|10=136|8=FIXT.1.1|9=62|35=0|34=120|49=INITIATOR|52=20231130-08:25:14.383|56=ACCEPTOR|10=134|8=FIXT.1.1|9=62|35=0|34=121|49=INITIATOR|52=20231130-08:25:15.252|56=ACCEPTOR|10=131|8=FIXT.1.1|9=62|35=0|34=122|49=INITIATOR|52=20231130-08:25:16.119|56=ACCEPTOR|10=135|8=FIXT.1.1|9=62|35=0|34=123|49=INITIATOR|52=20231130-08:25:17.014|56=ACCEPTOR|10=131|8=FIXT.1.1|9=62|35=0|34=124|49=INITIATOR|52=20231130-08:25:18.741|56=ACCEPTOR|10=140|8=FIXT.1.1|9=62|35=0|34=125|49=INITIATOR|52=20231130-08:25:19.604|56=ACCEPTOR|10=140|8=FIXT.1.1|9=62|35=0|34=126|49=INITIATOR|52=20231130-08:25:20.466|56=ACCEPTOR|10=139|8=FIXT.1.1|9=62|35=0|34=127|49=INITIATOR|52=20231130-08:25:21.328|56=ACCEPTOR|10=138|8=FIXT.1.1|9=62|35=0|34=128|49=INITIATOR|52=20231130-08:25:22.189|56=ACCEPTOR|10=145|8=FIXT.1.1|9=62|35=0|34=129|49=INITIATOR|52=20231130-08:25:23.049|56=ACCEPTOR|10=142|8=FIXT.1.1|9=62|35=0|34=130|49=INITIATOR|52=20231130-08:25:24.766|56=ACCEPTOR|10=141|8=FIXT.1.1|9=62|35=0|34=131|49=INITIATOR|52=20231130-08:25:25.623|56=ACCEPTOR|10=135|8=FIXT.1.1|9=62|35=0|34=132|49=INITIATOR|52=20231130-08:25:26.480|56=ACCEPTOR|10=138|8=FIXT.1.1|9=62|35=0|34=133|49=INITIATOR|52=20231130-08:25:27.336|56=ACCEPTOR|10=140|8=FIXT.1.1|9=62|35=0|34=134|49=INITIATOR|52=20231130-08:25:28.192|56=ACCEPTOR|10=142|8=FIXT.1.1|9=62|35=0|34=135|49=INITIATOR|52=20231130-08:25:29.046|56=ACCEPTOR|10=142|8=FIXT.1.1|9=62|35=0|34=136|49=INITIATOR|52=20231130-08:25:30.750|56=ACCEPTOR|10=137|8=FIXT.1.1|9=62|35=0|34=137|49=INITIATOR|52=20231130-08:25:31.600|56=ACCEPTOR|10=133|8=FIXT.1.1|9=62|35=0|34=138|49=INITIATOR|52=20231130-08:25:32.450|56=ACCEPTOR|10=138|8=FIXT.1.1|9=62|35=0|34=139|49=INITIATOR|52=20231130-08:25:33.299|56=ACCEPTOR|10=151|8=FIXT.1.1|9=62|35=0|34=140|49=INITIATOR|52=20231130-08:25:34.147|56=ACCEPTOR|10=136|8=FIXT.1.1|9=62|35=0|34=141|49=INITIATOR|52=20231130-08:25:35.025|56=ACCEPTOR|10=133|8=FIXT.1.1|9=62|35=0|34=142|49=INITIATOR|52=20231130-08:25:36.714|56=ACCEPTOR|10=140|8=FIXT.1.1|9=62|35=0|34=143|49=INITIATOR|52=20231130-08:25:37.557|56=ACCEPTOR|10=147|8=FIXT.1.1|9=62|35=0|34=144|49=INITIATOR|52=20231130-08:25:38.399|56=ACCEPTOR|10=153|8=FIXT.1.1|9=62|35=0|34=145|49=INITIATOR|52=20231130-08:25:39.240|56=ACCEPTOR|10=140|8=FIXT.1.1|9=62|35=0|34=146|49=INITIATOR|52=20231130-08:25:40.081|56=ACCEPTOR|10=136|8=FIXT.1.1|9=62|35=0|34=147|49=INITIATOR|52=20231130-08:25:41.757|56=ACCEPTOR|10=148|8=FIXT.1.1|9=62|35=0|34=148|49=INITIATOR|52=20231130-08:25:42.595|56=ACCEPTOR|10=150|8=FIXT.1.1|9=62|35=0|34=149|49=INITIATOR|52=20231130-08:25:43.430|56=ACCEPTOR|10=140|8=FIXT.1.1|9=62|35=0|34=150|49=INITIATOR|52=20231130-08:25:44.265|56=ACCEPTOR|10=139|8=FIXT.1.1|9=62|35=0|34=151|49=INITIATOR|52=20231130-08:25:45.099|56=ACCEPTOR|10=146|8=FIXT.1.1|9=62|35=0|34=152|49=INITIATOR|52=20231130-08:25:46.763|56=ACCEPTOR|10=146|8=FIXT.1.1|9=62|35=0|34=153|49=INITIATOR|52=20231130-08:25:47.595|56=ACCEPTOR|10=151|8=FIXT.1.1|9=62|35=0|34=154|49=INITIATOR|52=20231130-08:25:48.427|56=ACCEPTOR|10=147|8=FIXT.1.1|9=62|35=0|34=155|49=INITIATOR|52=20231130-08:25:49.256|56=ACCEPTOR|10=149|8=FIXT.1.1|9=62|35=0|34=156|49=INITIATOR|52=20231130-08:25:50.085|56=ACCEPTOR|10=142|8=FIXT.1.1|9=62|35=0|34=157|49=INITIATOR|52=20231130-08:25:51.740|56=ACCEPTOR|10=142|8=FIXT.1.1|9=62|35=0|34=158|49=INITIATOR|52=20231130-08:25:52.567|56=ACCEPTOR|10=151|8=FIXT.1.1|9=62|35=0|34=159|49=INITIATOR|52=20231130-08:25:53.391|56=ACCEPTOR|10=148|8=FIXT.1.1|9=62|35=0|34=160|49=INITIATOR|52=20231130-08:25:54.214|56=ACCEPTOR|10=135|8=FIXT.1.1|9=62|35=0|34=161|49=INITIATOR|52=20231130-08:25:55.038|56=ACCEPTOR|10=141|8=FIXT.1.1|9=62|35=0|34=162|49=INITIATOR|52=20231130-08:25:56.683|56=ACCEPTOR|10=149|8=FIXT.1.1|9=62|35=0|34=163|49=INITIATOR|52=20231130-08:25:57.505|56=ACCEPTOR|10=144|8=FIXT.1.1|9=62|35=0|34=164|49=INITIATOR|52=20231130-08:25:58.326|56=ACCEPTOR|10=147|8=FIXT.1.1|9=62|35=0|34=165|49=INITIATOR|52=20231130-08:25:59.145|56=ACCEPTOR|10=148|8=FIXT.1.1|9=62|35=0|34=166|49=INITIATOR|52=20231130-08:26:00.002|56=ACCEPTOR|10=128|8=FIXT.1.1|9=62|35=0|34=167|49=INITIATOR|52=20231130-08:26:01.633|56=ACCEPTOR|10=140|8=FIXT.1.1|9=62|35=0|34=168|49=INITIATOR|52=20231130-08:26:02.449|56=ACCEPTOR|10=147|8=FIXT.1.1|9=62|35=0|34=169|49=INITIATOR|52=20231130-08:26:03.263|56=ACCEPTOR|10=143|8=FIXT.1.1|9=62|35=0|34=170|49=INITIATOR|52=20231130-08:26:04.076|56=ACCEPTOR|10=138|8=FIXT.1.1|9=62|35=0|34=171|49=INITIATOR|52=20231130-08:26:05.697|56=ACCEPTOR|10=149|8=FIXT.1.1|9=62|35=0|34=172|49=INITIATOR|52=20231130-08:26:06.507|56=ACCEPTOR|10=141|8=FIXT.1.1|9=62|35=0|34=173|49=INITIATOR|52=20231130-08:26:07.315|56=ACCEPTOR|10=140|8=FIXT.1.1|9=62|35=0|34=174|49=INITIATOR|52=20231130-08:26:08.121|56=ACCEPTOR|10=137|8=FIXT.1.1|9=62|35=0|34=175|49=INITIATOR|52=20231130-08:26:09.732|56=ACCEPTOR|10=147|8=FIXT.1.1|9=62|35=0|34=176|49=INITIATOR|52=20231130-08:26:10.536|56=ACCEPTOR|10=142|8=FIXT.1.1|9=62|35=0|34=177|49=INITIATOR|52=20231130-08:26:11.340|56=ACCEPTOR|10=137|8=FIXT.1.1|9=62|35=0|34=178|49=INITIATOR|52=20231130-08:26:12.142|56=ACCEPTOR|10=139|8=FIXT.1.1|9=62|35=0|34=179|49=INITIATOR|52=20231130-08:26:13.740|56=ACCEPTOR|10=145|8=FIXT.1.1|9=62|35=0|34=180|49=INITIATOR|52=20231130-08:26:14.538|56=ACCEPTOR|10=143|8=FIXT.1.1|9=62|35=0|34=181|49=INITIATOR|52=20231130-08:26:15.336|56=ACCEPTOR|10=141|8=FIXT.1.1|9=62|35=0|34=182|49=INITIATOR|52=20231130-08:26:16.133|56=ACCEPTOR|10=138|8=FIXT.1.1|9=62|35=0|34=183|49=INITIATOR|52=20231130-08:26:17.724|56=ACCEPTOR|10=146|8=FIXT.1.1|9=62|35=0|34=184|49=INITIATOR|52=20231130-08:26:18.519|56=ACCEPTOR|10=150|8=FIXT.1.1|9=62|35=0|34=185|49=INITIATOR|52=20231130-08:26:19.312|56=ACCEPTOR|10=143|8=FIXT.1.1|9=62|35=0|34=186|49=INITIATOR|52=20231130-08:26:20.104|56=ACCEPTOR|10=135|8=FIXT.1.1|9=62|35=0|34=187|49=INITIATOR|52=20231130-08:26:21.683|56=ACCEPTOR|10=149|8=FIXT.1.1|9=62|35=0|34=188|49=INITIATOR|52=20231130-08:26:22.471|56=ACCEPTOR|10=146|8=FIXT.1.1|9=62|35=0|34=189|49=INITIATOR|52=20231130-08:26:23.258|56=ACCEPTOR|10=151|8=FIXT.1.1|9=62|35=0|34=190|49=INITIATOR|52=20231130-08:26:24.044|56=ACCEPTOR|10=137|8=FIXT.1.1|9=62|35=0|34=191|49=INITIATOR|52=20231130-08:26:25.613|56=ACCEPTOR|10=141|8=FIXT.1.1|9=62|35=0|34=192|49=INITIATOR|52=20231130-08:26:26.397|56=ACCEPTOR|10=152|8=FIXT.1.1|9=62|35=0|34=193|49=INITIATOR|52=20231130-08:26:27.180|56=ACCEPTOR|10=144|8=FIXT.1.1|9=62|35=0|34=194|49=INITIATOR|52=20231130-08:26:28.008|56=ACCEPTOR|10=145|8=FIXT.1.1|9=62|35=0|34=195|49=INITIATOR|52=20231130-08:26:29.570|56=ACCEPTOR|10=151|8=FIXT.1.1|9=62|35=0|34=196|49=INITIATOR|52=20231130-08:26:30.351|56=ACCEPTOR|10=141|8=FIXT.1.1|9=62|35=0|34=197|49=INITIATOR|52=20231130-08:26:31.130|56=ACCEPTOR|10=138|8=FIXT.1.1|9=62|35=0|34=198|49=INITIATOR|52=20231130-08:26:32.684|56=ACCEPTOR|10=154|8=FIXT.1.1|9=62|35=0|34=199|49=INITIATOR|52=20231130-08:26:33.460|56=ACCEPTOR|10=148|8=FIXT.1.1|9=62|35=0|34=200|49=INITIATOR|52=20231130-08:26:34.234|56=ACCEPTOR|10=131|8=FIXT.1.1|9=62|35=0|34=201|49=INITIATOR|52=20231130-08:26:35.008|56=ACCEPTOR|10=132|8=FIXT.1.1|9=62|35=0|34=202|49=INITIATOR|52=20231130-08:26:36.549|56=ACCEPTOR|10=144|8=FIXT.1.1|9=62|35=0|34=203|49=INITIATOR|52=20231130-08:26:37.320|56=ACCEPTOR|10=133|8=FIXT.1.1|9=62|35=0|34=204|49=INITIATOR|52=20231130-08:26:38.088|56=ACCEPTOR|10=146|8=FIXT.1.1|9=62|35=0|34=205|49=INITIATOR|52=20231130-08:26:39.622|56=ACCEPTOR|10=142|8=FIXT.1.1|9=62|35=0|34=206|49=INITIATOR|52=20231130-08:26:40.389|56=ACCEPTOR|10=145|8=FIXT.1.1|9=62|35=0|34=207|49=INITIATOR|52=20231130-08:26:41.156|56=ACCEPTOR|10=139|8=FIXT.1.1|9=62|35=0|34=208|49=INITIATOR|52=20231130-08:26:42.683|56=ACCEPTOR|10=146|8=FIXT.1.1|9=62|35=0|34=209|49=INITIATOR|52=20231130-08:26:43.447|56=ACCEPTOR|10=146|8=FIXT.1.1|9=62|35=0|34=210|49=INITIATOR|52=20231130-08:26:44.209|56=ACCEPTOR|10=135|8=FIXT.1.1|9=62|35=0|34=211|49=INITIATOR|52=20231130-08:26:45.019|56=ACCEPTOR|10=136|8=FIXT.1.1|9=62|35=0|34=212|49=INITIATOR|52=20231130-08:26:46.537|56=ACCEPTOR|10=143|8=FIXT.1.1|9=62|35=0|34=213|49=INITIATOR|52=20231130-08:26:47.294|56=ACCEPTOR|10=145|8=FIXT.1.1|9=62|35=0|34=214|49=INITIATOR|52=20231130-08:26:48.050|56=ACCEPTOR|10=137|8=FIXT.1.1|9=62|35=0|34=215|49=INITIATOR|52=20231130-08:26:49.559|56=ACCEPTOR|10=153|8=FIXT.1.1|9=62|35=0|34=216|49=INITIATOR|52=20231130-08:26:50.313|56=ACCEPTOR|10=134|8=FIXT.1.1|9=62|35=0|34=217|49=INITIATOR|52=20231130-08:26:51.066|56=ACCEPTOR|10=141|8=FIXT.1.1|9=62|35=0|34=218|49=INITIATOR|52=20231130-08:26:52.567|56=ACCEPTOR|10=149|8=FIXT.1.1|9=62|35=0|34=219|49=INITIATOR|52=20231130-08:26:53.316|56=ACCEPTOR|10=143|8=FIXT.1.1|9=62|35=0|34=220|49=INITIATOR|52=20231130-08:26:54.065|56=ACCEPTOR|10=137|8=FIXT.1.1|9=62|35=0|34=221|49=INITIATOR|52=20231130-08:26:55.559|56=ACCEPTOR|10=147|8=FIXT.1.1|9=62|35=0|34=222|49=INITIATOR|52=20231130-08:26:56.305|56=ACCEPTOR|10=138|8=FIXT.1.1|9=62|35=0|34=223|49=INITIATOR|52=20231130-08:26:57.049|56=ACCEPTOR|10=145|8=FIXT.1.1|9=62|35=0|34=224|49=INITIATOR|52=20231130-08:26:58.536|56=ACCEPTOR|10=148|8=FIXT.1.1|9=62|35=0|34=225|49=INITIATOR|52=20231130-08:26:59.281|56=ACCEPTOR|10=147|8=FIXT.1.1|9=62|35=0|34=226|49=INITIATOR|52=20231130-08:27:00.023|56=ACCEPTOR|10=129|8=FIXT.1.1|9=62|35=0|34=227|49=INITIATOR|52=20231130-08:27:01.505|56=ACCEPTOR|10=136|8=FIXT.1.1|9=62|35=0|34=228|49=INITIATOR|52=20231130-08:27:02.246|56=ACCEPTOR|10=140|8=FIXT.1.1|9=62|35=0|34=229|49=INITIATOR|52=20231130-08:27:03.040|56=ACCEPTOR|10=134|8=FIXT.1.1|9=62|35=0|34=230|49=INITIATOR|52=20231130-08:27:04.514|56=ACCEPTOR|10=133|8=FIXT.1.1|9=62|35=0|34=231|49=INITIATOR|52=20231130-08:27:05.250|56=ACCEPTOR|10=132|8=FIXT.1.1|9=62|35=0|34=232|49=INITIATOR|52=20231130-08:27:06.041|56=ACCEPTOR|10=132|8=FIXT.1.1|9=62|35=0|34=233|49=INITIATOR|52=20231130-08:27:07.510|56=ACCEPTOR|10=135|8=FIXT.1.1|9=62|35=0|34=234|49=INITIATOR|52=20231130-08:27:08.244|56=ACCEPTOR|10=141|8=FIXT.1.1|9=62|35=0|34=235|49=INITIATOR|52=20231130-08:27:09.032|56=ACCEPTOR|10=138|8=FIXT.1.1|9=62|35=0|34=236|49=INITIATOR|52=20231130-08:27:10.495|56=ACCEPTOR|10=144|8=FIXT.1.1|9=62|35=0|34=237|49=INITIATOR|52=20231130-08:27:11.226|56=ACCEPTOR|10=138|8=FIXT.1.1|9=62|35=0|34=238|49=INITIATOR|52=20231130-08:27:12.012|56=ACCEPTOR|10=133|8=FIXT.1.1|9=62|35=0|34=239|49=INITIATOR|52=20231130-08:27:13.470|56=ACCEPTOR|10=143|8=FIXT.1.1|9=62|35=0|34=240|49=INITIATOR|52=20231130-08:27:14.200|56=ACCEPTOR|10=127|8=FIXT.1.1|9=62|35=0|34=241|49=INITIATOR|52=20231130-08:27:15.655|56=ACCEPTOR|10=143|8=FIXT.1.1|9=62|35=0|34=242|49=INITIATOR|52=20231130-08:27:16.382|56=ACCEPTOR|10=142|8=FIXT.1.1|9=62|35=0|34=243|49=INITIATOR|52=20231130-08:27:17.108|56=ACCEPTOR|10=140|8=FIXT.1.1|9=62|35=0|34=244|49=INITIATOR|52=20231130-08:27:18.557|56=ACCEPTOR|10=150|8=FIXT.1.1|9=62|35=0|34=245|49=INITIATOR|52=20231130-08:27:19.281|56=ACCEPTOR|10=146|8=FIXT.1.1|9=62|35=0|34=246|49=INITIATOR|52=20231130-08:27:20.004|56=ACCEPTOR|10=132|8=FIXT.1.1|9=62|35=0|34=247|49=INITIATOR|52=20231130-08:27:21.444|56=ACCEPTOR|10=142|8=FIXT.1.1|9=62|35=0|34=248|49=INITIATOR|52=20231130-08:27:22.164|56=ACCEPTOR|10=143|8=FIXT.1.1|9=62|35=0|34=249|49=INITIATOR|52=20231130-08:27:23.598|56=ACCEPTOR|10=156|8=FIXT.1.1|9=62|35=0|34=250|49=INITIATOR|52=20231130-08:27:24.315|56=ACCEPTOR|10=136|8=FIXT.1.1|9=62|35=0|34=251|49=INITIATOR|52=20231130-08:27:25.030|56=ACCEPTOR|10=132|8=FIXT.1.1|9=62|35=0|34=252|49=INITIATOR|52=20231130-08:27:26.456|56=ACCEPTOR|10=146|8=FIXT.1.1|9=62|35=0|34=253|49=INITIATOR|52=20231130-08:27:27.167|56=ACCEPTOR|10=147|8=FIXT.1.1|9=62|35=0|34=254|49=INITIATOR|52=20231130-08:27:28.588|56=ACCEPTOR|10=156|8=FIXT.1.1|9=62|35=0|34=255|49=INITIATOR|52=20231130-08:27:29.297|56=ACCEPTOR|10=155|8=FIXT.1.1|9=62|35=0|34=256|49=INITIATOR|52=20231130-08:27:30.006|56=ACCEPTOR|10=136|8=FIXT.1.1|9=62|35=0|34=257|49=INITIATOR|52=20231130-08:27:31.424|56=ACCEPTOR|10=142|8=FIXT.1.1|9=62|35=0|34=258|49=INITIATOR|52=20231130-08:27:32.132|56=ACCEPTOR|10=140|8=FIXT.1.1|9=62|35=0|34=259|49=INITIATOR|52=20231130-08:27:33.547|56=ACCEPTOR|10=152|8=FIXT.1.1|9=62|35=0|34=260|49=INITIATOR|52=20231130-08:27:34.255|56=ACCEPTOR|10=141|8=FIXT.1.1|9=62|35=0|34=261|49=INITIATOR|52=20231130-08:27:35.021|56=ACCEPTOR|10=134|8=FIXT.1.1|9=62|35=0|34=262|49=INITIATOR|52=20231130-08:27:36.429|56=ACCEPTOR|10=148|8=FIXT.1.1|9=62|35=0|34=263|49=INITIATOR|52=20231130-08:27:37.131|56=ACCEPTOR|10=140|8=FIXT.1.1|9=62|35=0|34=264|49=INITIATOR|52=20231130-08:27:38.533|56=ACCEPTOR|10=148|8=FIXT.1.1|9=62|35=0|34=265|49=INITIATOR|52=20231130-08:27:39.233|56=ACCEPTOR|10=147|8=FIXT.1.1|9=62|35=0|34=266|49=INITIATOR|52=20231130-08:27:40.630|56=ACCEPTOR|10=141|8=FIXT.1.1|9=62|35=0|34=267|49=INITIATOR|52=20231130-08:27:41.327|56=ACCEPTOR|10=146|8=FIXT.1.1|9=62|35=0|34=268|49=INITIATOR|52=20231130-08:27:42.025|56=ACCEPTOR|10=143|8=FIXT.1.1|9=62|35=0|34=269|49=INITIATOR|52=20231130-08:27:43.417|56=ACCEPTOR|10=150|8=FIXT.1.1|9=62|35=0|34=270|49=INITIATOR|52=20231130-08:27:44.113|56=ACCEPTOR|10=136|8=FIXT.1.1|9=62|35=0|34=271|49=INITIATOR|52=20231130-08:27:45.499|56=ACCEPTOR|10=155|8=FIXT.1.1|9=62|35=0|34=272|49=INITIATOR|52=20231130-08:27:46.192|56=ACCEPTOR|10=147|8=FIXT.1.1|9=62|35=0|34=273|49=INITIATOR|52=20231130-08:27:47.574|56=ACCEPTOR|10=153|8=FIXT.1.1|9=62|35=0|34=274|49=INITIATOR|52=20231130-08:27:48.264|56=ACCEPTOR|10=151|8=FIXT.1.1|9=62|35=0|34=275|49=INITIATOR|52=20231130-08:27:49.018|56=ACCEPTOR|10=150|8=FIXT.1.1|9=62|35=0|34=276|49=INITIATOR|52=20231130-08:27:50.398|56=ACCEPTOR|10=154|8=FIXT.1.1|9=62|35=0|34=277|49=INITIATOR|52=20231130-08:27:51.086|56=ACCEPTOR|10=150|8=FIXT.1.1|9=62|35=0|34=278|49=INITIATOR|52=20231130-08:27:52.460|56=ACCEPTOR|10=148|8=FIXT.1.1|9=62|35=0|34=279|49=INITIATOR|52=20231130-08:27:53.148|56=ACCEPTOR|10=153|8=FIXT.1.1|9=62|35=0|34=280|49=INITIATOR|52=20231130-08:27:54.520|56=ACCEPTOR|10=140|8=FIXT.1.1|9=62|35=0|34=281|49=INITIATOR|52=20231130-08:27:55.206|56=ACCEPTOR|10=143|8=FIXT.1.1|9=62|35=0|34=282|49=INITIATOR|52=20231130-08:27:56.575|56=ACCEPTOR|10=154|8=FIXT.1.1|9=62|35=0|34=283|49=INITIATOR|52=20231130-08:27:57.260|56=ACCEPTOR|10=147|8=FIXT.1.1|9=62|35=0|34=284|49=INITIATOR|52=20231130-08:27:58.007|56=ACCEPTOR|10=148|8=FIXT.1.1|9=62|35=0|34=285|49=INITIATOR|52=20231130-08:27:59.369|56=ACCEPTOR|10=161|8=FIXT.1.1|9=62|35=0|34=286|49=INITIATOR|52=20231130-08:28:00.049|56=ACCEPTOR|10=144|8=FIXT.1.1|9=62|35=0|34=287|49=INITIATOR|52=20231130-08:28:01.406|56=ACCEPTOR|10=143|8=FIXT.1.1|9=62|35=0|34=288|49=INITIATOR|52=20231130-08:28:02.083|56=ACCEPTOR|10=146|8=FIXT.1.1|9=62|35=0|34=289|49=INITIATOR|52=20231130-08:28:03.435|56=ACCEPTOR|10=149|8=FIXT.1.1|9=62|35=0|34=290|49=INITIATOR|52=20231130-08:28:04.109|56=ACCEPTOR|10=140|8=FIXT.1.1|9=62|35=0|34=291|49=INITIATOR|52=20231130-08:28:05.456|56=ACCEPTOR|10=147|8=FIXT.1.1|9=62|35=0|34=292|49=INITIATOR|52=20231130-08:28:06.129|56=ACCEPTOR|10=146|8=FIXT.1.1|9=62|35=0|34=293|49=INITIATOR|52=20231130-08:28:07.474|56=ACCEPTOR|10=151|8=FIXT.1.1|9=62|35=0|34=294|49=INITIATOR|52=20231130-08:28:08.147|56=ACCEPTOR|10=150|8=FIXT.1.1|9=62|35=0|34=295|49=INITIATOR|52=20231130-08:28:09.489|56=ACCEPTOR|10=161|8=FIXT.1.1|9=62|35=0|34=296|49=INITIATOR|52=20231130-08:28:10.159|56=ACCEPTOR|10=148|8=FIXT.1.1|9=62|35=0|34=297|49=INITIATOR|52=20231130-08:28:11.498|56=ACCEPTOR|10=156|8=FIXT.1.1|9=62|35=0|34=298|49=INITIATOR|52=20231130-08:28:12.167|56=ACCEPTOR|10=151|8=FIXT.1.1|9=62|35=0|34=299|49=INITIATOR|52=20231130-08:28:13.502|56=ACCEPTOR|10=146|8=FIXT.1.1|9=62|35=0|34=300|49=INITIATOR|52=20231130-08:28:14.169|56=ACCEPTOR|10=139|8=FIXT.1.1|9=62|35=0|34=301|49=INITIATOR|52=20231130-08:28:15.499|56=ACCEPTOR|10=147|8=FIXT.1.1|9=62|35=0|34=302|49=INITIATOR|52=20231130-08:28:16.163|56=ACCEPTOR|10=137|8=FIXT.1.1|9=62|35=0|34=303|49=INITIATOR|52=20231130-08:28:17.490|56=ACCEPTOR|10=142|8=FIXT.1.1|9=62|35=0|34=304|49=INITIATOR|52=20231130-08:28:18.153|56=ACCEPTOR|10=140|8=FIXT.1.1|9=62|35=0|34=305|49=INITIATOR|52=20231130-08:28:19.476|56=ACCEPTOR|10=150|8=FIXT.1.1|9=62|35=0|34=306|49=INITIATOR|52=20231130-08:28:20.136|56=ACCEPTOR|10=136|8=FIXT.1.1|9=62|35=0|34=307|49=INITIATOR|52=20231130-08:28:21.453|56=ACCEPTOR|10=140|8=FIXT.1.1|9=62|35=0|34=308|49=INITIATOR|52=20231130-08:28:22.111|56=ACCEPTOR|10=133|8=FIXT.1.1|9=62|35=0|34=309|49=INITIATOR|52=20231130-08:28:23.423|56=ACCEPTOR|10=141|8=FIXT.1.1|9=62|35=0|34=310|49=INITIATOR|52=20231130-08:28:24.078|56=ACCEPTOR|10=140|8=FIXT.1.1|9=62|35=0|34=311|49=INITIATOR|52=20231130-08:28:25.386|56=ACCEPTOR|10=144|8=FIXT.1.1|9=62|35=0|34=312|49=INITIATOR|52=20231130-08:28:26.038|56=ACCEPTOR|10=140|8=FIXT.1.1|9=62|35=0|34=313|49=INITIATOR|52=20231130-08:28:27.340|56=ACCEPTOR|10=138|8=FIXT.1.1|9=62|35=0|34=314|49=INITIATOR|52=20231130-08:28:28.061|56=ACCEPTOR|10=140|8=FIXT.1.1|9=62|35=0|34=315|49=INITIATOR|52=20231130-08:28:29.362|56=ACCEPTOR|10=146|8=FIXT.1.1|9=62|35=0|34=316|49=INITIATOR|52=20231130-08:28:30.011|56=ACCEPTOR|10=130|8=FIXT.1.1|9=62|35=0|34=317|49=INITIATOR|52=20231130-08:28:31.306|56=ACCEPTOR|10=139|8=FIXT.1.1|9=62|35=0|34=318|49=INITIATOR|52=20231130-08:28:32.024|56=ACCEPTOR|10=138|8=FIXT.1.1|9=62|35=0|34=319|49=INITIATOR|52=20231130-08:28:33.314|56=ACCEPTOR|10=142|8=FIXT.1.1|9=62|35=0|34=320|49=INITIATOR|52=20231130-08:28:34.029|56=ACCEPTOR|10=138|8=FIXT.1.1|9=62|35=0|34=321|49=INITIATOR|52=20231130-08:28:35.315|56=ACCEPTOR|10=138|8=FIXT.1.1|9=62|35=0|34=322|49=INITIATOR|52=20231130-08:28:36.028|56=ACCEPTOR|10=141|8=FIXT.1.1|9=62|35=0|34=323|49=INITIATOR|52=20231130-08:28:37.312|56=ACCEPTOR|10=139|8=FIXT.1.1|9=62|35=0|34=324|49=INITIATOR|52=20231130-08:28:38.025|56=ACCEPTOR|10=142|8=FIXT.1.1|9=62|35=0|34=325|49=INITIATOR|52=20231130-08:28:39.308|56=ACCEPTOR|10=148|8=FIXT.1.1|9=62|35=0|34=326|49=INITIATOR|52=20231130-08:28:40.019|56=ACCEPTOR|10=140|8=FIXT.1.1|9=62|35=0|34=327|49=INITIATOR|52=20231130-08:28:41.298|56=ACCEPTOR|10=151|8=FIXT.1.1|9=62|35=0|34=328|49=INITIATOR|52=20231130-08:28:42.007|56=ACCEPTOR|10=141|8=FIXT.1.1|9=62|35=0|34=329|49=INITIATOR|52=20231130-08:28:43.282|56=ACCEPTOR|10=148|8=FIXT.1.1|9=62|35=0|34=330|49=INITIATOR|52=20231130-08:28:44.554|56=ACCEPTOR|10=143|8=FIXT.1.1|9=62|35=0|34=331|49=INITIATOR|52=20231130-08:28:45.191|56=ACCEPTOR|10=142|8=FIXT.1.1|9=62|35=0|34=332|49=INITIATOR|52=20231130-08:28:46.460|56=ACCEPTOR|10=143|8=FIXT.1.1|9=62|35=0|34=333|49=INITIATOR|52=20231130-08:28:47.095|56=ACCEPTOR|10=149|8=FIXT.1.1|9=62|35=0|34=334|49=INITIATOR|52=20231130-08:28:48.361|56=ACCEPTOR|10=147|8=FIXT.1.1|9=62|35=0|34=335|49=INITIATOR|52=20231130-08:28:49.065|56=ACCEPTOR|10=150|8=FIXT.1.1|9=62|35=0|34=336|49=INITIATOR|52=20231130-08:28:50.328|56=ACCEPTOR|10=145|8=FIXT.1.1|9=62|35=0|34=337|49=INITIATOR|52=20231130-08:28:51.029|56=ACCEPTOR|10=145|8=FIXT.1.1|9=62|35=0|34=338|49=INITIATOR|52=20231130-08:28:52.290|56=ACCEPTOR|10=147|8=FIXT.1.1|9=62|35=0|34=339|49=INITIATOR|52=20231130-08:28:53.548|56=ACCEPTOR|10=155|8=FIXT.1.1|9=62|35=0|34=340|49=INITIATOR|52=20231130-08:28:54.177|56=ACCEPTOR|10=146|8=FIXT.1.1|9=62|35=0|34=341|49=INITIATOR|52=20231130-08:28:55.432|56=ACCEPTOR|10=142|8=FIXT.1.1|9=62|35=0|34=342|49=INITIATOR|52=20231130-08:28:56.058|56=ACCEPTOR|10=148|8=FIXT.1.1|9=62|35=0|34=343|49=INITIATOR|52=20231130-08:28:57.309|56=ACCEPTOR|10=149|8=FIXT.1.1|9=62|35=0|34=344|49=INITIATOR|52=20231130-08:28:58.007|56=ACCEPTOR|10=146|8=FIXT.1.1|9=62|35=0|34=345|49=INITIATOR|52=20231130-08:28:59.254|56=ACCEPTOR|10=152|8=FIXT.1.1|9=62|35=0|34=346|49=INITIATOR|52=20231130-08:29:00.500|56=ACCEPTOR|10=134|8=FIXT.1.1|9=62|35=0|34=347|49=INITIATOR|52=20231130-08:29:01.123|56=ACCEPTOR|10=137|8=FIXT.1.1|9=62|35=0|34=348|49=INITIATOR|52=20231130-08:29:02.365|56=ACCEPTOR|10=147|8=FIXT.1.1|9=62|35=0|34=349|49=INITIATOR|52=20231130-08:29:03.058|56=ACCEPTOR|10=148|8=FIXT.1.1|9=62|35=0|34=350|49=INITIATOR|52=20231130-08:29:04.294|56=ACCEPTOR|10=143|8=FIXT.1.1|9=62|35=0|34=351|49=INITIATOR|52=20231130-08:29:05.529|56=ACCEPTOR|10=146|8=FIXT.1.1|9=62|35=0|34=352|49=INITIATOR|52=20231130-08:29:06.147|56=ACCEPTOR|10=144|8=FIXT.1.1|9=62|35=0|34=353|49=INITIATOR|52=20231130-08:29:07.376|56=ACCEPTOR|10=150|8=FIXT.1.1|9=62|35=0|34=354|49=INITIATOR|52=20231130-08:29:08.064|56=ACCEPTOR|10=146|8=FIXT.1.1|9=62|35=0|34=355|49=INITIATOR|52=20231130-08:29:09.289|56=ACCEPTOR|10=157|8=FIXT.1.1|9=62|35=0|34=356|49=INITIATOR|52=20231130-08:29:10.511|56=ACCEPTOR|10=138|8=FIXT.1.1|9=62|35=0|34=357|49=INITIATOR|52=20231130-08:29:11.122|56=ACCEPTOR|10=138|8=FIXT.1.1|9=62|35=0|34=358|49=INITIATOR|52=20231130-08:29:12.343|56=ACCEPTOR|10=145|8=FIXT.1.1|9=62|35=0|34=359|49=INITIATOR|52=20231130-08:29:13.028|56=ACCEPTOR|10=147|8=FIXT.1.1|9=62|35=0|34=360|49=INITIATOR|52=20231130-08:29:14.243|56=ACCEPTOR|10=139|8=FIXT.1.1|9=62|35=0|34=361|49=INITIATOR|52=20231130-08:29:15.457|56=ACCEPTOR|10=148|8=FIXT.1.1|9=62|35=0|34=362|49=INITIATOR|52=20231130-08:29:16.063|56=ACCEPTOR|10=143|8=FIXT.1.1|9=62|35=0|34=363|49=INITIATOR|52=20231130-08:29:17.273|56=ACCEPTOR|10=148|8=FIXT.1.1|9=62|35=0|34=364|49=INITIATOR|52=20231130-08:29:18.479|56=ACCEPTOR|10=158|8=FIXT.1.1|9=62|35=0|34=365|49=INITIATOR|52=20231130-08:29:19.157|56=ACCEPTOR|10=153|8=FIXT.1.1|9=62|35=0|34=366|49=INITIATOR|52=20231130-08:29:20.351|56=ACCEPTOR|10=142|8=FIXT.1.1|9=62|35=0|34=367|49=INITIATOR|52=20231130-08:29:21.029|56=ACCEPTOR|10=146|8=FIXT.1.1|9=62|35=0|34=368|49=INITIATOR|52=20231130-08:29:22.226|56=ACCEPTOR|10=147|8=FIXT.1.1|9=62|35=0|34=369|49=INITIATOR|52=20231130-08:29:23.420|56=ACCEPTOR|10=145|8=FIXT.1.1|9=62|35=0|34=370|49=INITIATOR|52=20231130-08:29:24.017|56=ACCEPTOR|10=140|8=FIXT.1.1|9=62|35=0|34=371|49=INITIATOR|52=20231130-08:29:25.207|56=ACCEPTOR|10=143|8=FIXT.1.1|9=62|35=0|34=372|49=INITIATOR|52=20231130-08:29:26.395|56=ACCEPTOR|10=153|8=FIXT.1.1|9=62|35=0|34=373|49=INITIATOR|52=20231130-08:29:27.066|56=ACCEPTOR|10=150|8=FIXT.1.1|9=62|35=0|34=374|49=INITIATOR|52=20231130-08:29:28.248|56=ACCEPTOR|10=154|8=FIXT.1.1|9=62|35=0|34=375|49=INITIATOR|52=20231130-08:29:29.427|56=ACCEPTOR|10=155|8=FIXT.1.1|9=62|35=0|34=376|49=INITIATOR|52=20231130-08:29:30.014|56=ACCEPTOR|10=140|8=FIXT.1.1|9=62|35=0|34=377|49=INITIATOR|52=20231130-08:29:31.188|56=ACCEPTOR|10=154|8=FIXT.1.1|9=62|35=0|34=378|49=INITIATOR|52=20231130-08:29:32.361|56=ACCEPTOR|10=149|8=FIXT.1.1|9=62|35=0|34=379|49=INITIATOR|52=20231130-08:29:33.026|56=ACCEPTOR|10=149|8=FIXT.1.1|9=62|35=0|34=380|49=INITIATOR|52=20231130-08:29:34.194|56=ACCEPTOR|10=148|8=FIXT.1.1|9=62|35=0|34=381|49=INITIATOR|52=20231130-08:29:35.359|56=ACCEPTOR|10=153|8=FIXT.1.1|9=62|35=0|34=382|49=INITIATOR|52=20231130-08:29:36.020|56=ACCEPTOR|10=140|8=FIXT.1.1|9=62|35=0|34=383|49=INITIATOR|52=20231130-08:29:37.180|56=ACCEPTOR|10=149|8=FIXT.1.1|9=62|35=0|34=384|49=INITIATOR|52=20231130-08:29:38.336|56=ACCEPTOR|10=154|8=FIXT.1.1|9=62|35=0|34=385|49=INITIATOR|52=20231130-08:29:39.491|56=ACCEPTOR|10=158|8=FIXT.1.1|9=62|35=0|34=386|49=INITIATOR|52=20231130-08:29:40.068|56=ACCEPTOR|10=151|8=FIXT.1.1|9=62|35=0|34=387|49=INITIATOR|52=20231130-08:29:41.217|56=ACCEPTOR|10=149|8=FIXT.1.1|9=62|35=0|34=388|49=INITIATOR|52=20231130-08:29:42.362|56=ACCEPTOR|10=152|8=FIXT.1.1|9=62|35=0|34=389|49=INITIATOR|52=20231130-08:29:43.017|56=ACCEPTOR|10=151|8=FIXT.1.1|9=62|35=0|34=390|49=INITIATOR|52=20231130-08:29:44.163|56=ACCEPTOR|10=146|8=FIXT.1.1|9=62|35=0|34=391|49=INITIATOR|52=20231130-08:29:45.307|56=ACCEPTOR|10=148|8=FIXT.1.1|9=62|35=0|34=392|49=INITIATOR|52=20231130-08:29:46.449|56=ACCEPTOR|10=157|8=FIXT.1.1|9=62|35=0|34=393|49=INITIATOR|52=20231130-08:29:47.020|56=ACCEPTOR|10=144|8=FIXT.1.1|9=62|35=0|34=394|49=INITIATOR|52=20231130-08:29:48.157|56=ACCEPTOR|10=157|8=FIXT.1.1|9=62|35=0|34=395|49=INITIATOR|52=20231130-08:29:49.290|56=ACCEPTOR|10=157|8=FIXT.1.1|9=62|35=0|34=396|49=INITIATOR|52=20231130-08:29:50.421|56=ACCEPTOR|10=146|8=FIXT.1.1|9=62|35=0|34=397|49=INITIATOR|52=20231130-08:29:51.069|56=ACCEPTOR|10=156|8=FIXT.1.1|9=62|35=0|34=398|49=INITIATOR|52=20231130-08:29:52.194|56=ACCEPTOR|10=157|8=FIXT.1.1|9=62|35=0|34=399|49=INITIATOR|52=20231130-08:29:53.315|56=ACCEPTOR|10=154|8=FIXT.1.1|9=62|35=0|34=400|49=INITIATOR|52=20231130-08:29:54.434|56=ACCEPTOR|10=140|8=FIXT.1.1|9=62|35=0|34=401|49=INITIATOR|52=20231130-08:29:55.077|56=ACCEPTOR|10=145|8=FIXT.1.1|9=62|35=0|34=402|49=INITIATOR|52=20231130-08:29:56.191|56=ACCEPTOR|10=144|8=FIXT.1.1|9=62|35=0|34=403|49=INITIATOR|52=20231130-08:29:57.302|56=ACCEPTOR|10=140|8=FIXT.1.1|9=62|35=0|34=404|49=INITIATOR|52=20231130-08:29:58.408|56=ACCEPTOR|10=149|8=FIXT.1.1|9=62|35=0|34=405|49=INITIATOR|52=20231130-08:29:59.046|56=ACCEPTOR|10=149|8=FIXT.1.1|9=62|35=0|34=406|49=INITIATOR|52=20231130-08:30:00.150|56=ACCEPTOR|10=124|8=FIXT.1.1|9=62|35=0|34=407|49=INITIATOR|52=20231130-08:30:01.250|56=ACCEPTOR|10=127|8=FIXT.1.1|9=62|35=0|34=408|49=INITIATOR|52=20231130-08:30:02.347|56=ACCEPTOR|10=136|8=FIXT.1.1|9=62|35=0|34=409|49=INITIATOR|52=20231130-08:30:03.441|56=ACCEPTOR|10=133|8=FIXT.1.1|9=62|35=0|34=410|49=INITIATOR|52=20231130-08:30:04.073|56=ACCEPTOR|10=127|8=FIXT.1.1|9=62|35=0|34=411|49=INITIATOR|52=20231130-08:30:05.163|56=ACCEPTOR|10=129|8=FIXT.1.1|9=62|35=0|34=412|49=INITIATOR|52=20231130-08:30:06.251|56=ACCEPTOR|10=129|8=FIXT.1.1|9=62|35=0|34=413|49=INITIATOR|52=20231130-08:30:07.335|56=ACCEPTOR|10=134|8=FIXT.1.1|9=62|35=0|34=414|49=INITIATOR|52=20231130-08:30:08.415|56=ACCEPTOR|10=135|8=FIXT.1.1|9=62|35=0|34=415|49=INITIATOR|52=20231130-08:30:09.042|56=ACCEPTOR|10=133|8=FIXT.1.1|9=62|35=0|34=416|49=INITIATOR|52=20231130-08:30:10.121|56=ACCEPTOR|10=124|8=FIXT.1.1|9=62|35=0|34=417|49=INITIATOR|52=20231130-08:30:11.195|56=ACCEPTOR|10=137|8=FIXT.1.1|9=62|35=0|34=418|49=INITIATOR|52=20231130-08:30:12.265|56=ACCEPTOR|10=137|8=FIXT.1.1|9=62|35=0|34=419|49=INITIATOR|52=20231130-08:30:13.334|56=ACCEPTOR|10=136|8=FIXT.1.1|9=62|35=0|34=420|49=INITIATOR|52=20231130-08:30:14.400|56=ACCEPTOR|10=123|8=FIXT.1.1|9=62|35=0|34=421|49=INITIATOR|52=20231130-08:30:15.020|56=ACCEPTOR|10=123|8=FIXT.1.1|9=62|35=0|34=422|49=INITIATOR|52=20231130-08:30:16.081|56=ACCEPTOR|10=132|8=FIXT.1.1|9=62|35=0|34=423|49=INITIATOR|52=20231130-08:30:17.138|56=ACCEPTOR|10=137|8=FIXT.1.1|9=62|35=0|34=424|49=INITIATOR|52=20231130-08:30:18.193|56=ACCEPTOR|10=140|8=FIXT.1.1|9=62|35=0|34=425|49=INITIATOR|52=20231130-08:30:19.243|56=ACCEPTOR|10=138|8=FIXT.1.1|9=62|35=0|34=426|49=INITIATOR|52=20231130-08:30:20.292|56=ACCEPTOR|10=135|8=FIXT.1.1|9=62|35=0|34=427|49=INITIATOR|52=20231130-08:30:21.337|56=ACCEPTOR|10=137|8=FIXT.1.1|9=62|35=0|34=428|49=INITIATOR|52=20231130-08:30:22.382|56=ACCEPTOR|10=139|8=FIXT.1.1|9=62|35=0|34=429|49=INITIATOR|52=20231130-08:30:23.422|56=ACCEPTOR|10=136|8=FIXT.1.1|9=62|35=0|34=430|49=INITIATOR|52=20231130-08:30:24.033|56=ACCEPTOR|10=127|8=FIXT.1.1|9=62|35=0|34=431|49=INITIATOR|52=20231130-08:30:25.072|56=ACCEPTOR|10=132|8=FIXT.1.1|9=62|35=0|34=432|49=INITIATOR|52=20231130-08:30:26.107|56=ACCEPTOR|10=133|8=FIXT.1.1|9=62|35=0|34=433|49=INITIATOR|52=20231130-08:30:27.139|56=ACCEPTOR|10=140|8=FIXT.1.1|9=62|35=0|34=434|49=INITIATOR|52=20231130-08:30:28.168|56=ACCEPTOR|10=144|8=FIXT.1.1|9=62|35=0|34=435|49=INITIATOR|52=20231130-08:30:29.194|56=ACCEPTOR|10=145|8=FIXT.1.1|9=62|35=0|34=436|49=INITIATOR|52=20231130-08:30:30.218|56=ACCEPTOR|10=135|8=FIXT.1.1|9=62|35=0|34=437|49=INITIATOR|52=20231130-08:30:31.236|56=ACCEPTOR|10=137|8=FIXT.1.1|9=62|35=0|34=438|49=INITIATOR|52=20231130-08:30:32.251|56=ACCEPTOR|10=136|8=FIXT.1.1|9=62|35=0|34=439|49=INITIATOR|52=20231130-08:30:33.263|56=ACCEPTOR|10=141|8=FIXT.1.1|9=62|35=0|34=440|49=INITIATOR|52=20231130-08:30:34.272|56=ACCEPTOR|10=134|8=FIXT.1.1|9=62|35=0|34=441|49=INITIATOR|52=20231130-08:30:35.279|56=ACCEPTOR|10=143|8=FIXT.1.1|9=62|35=0|34=442|49=INITIATOR|52=20231130-08:30:36.282|56=ACCEPTOR|10=139|8=FIXT.1.1|9=62|35=0|34=443|49=INITIATOR|52=20231130-08:30:37.283|56=ACCEPTOR|10=142|8=FIXT.1.1|9=62|35=0|34=444|49=INITIATOR|52=20231130-08:30:38.281|56=ACCEPTOR|10=142|8=FIXT.1.1|9=62|35=0|34=445|49=INITIATOR|52=20231130-08:30:39.274|56=ACCEPTOR|10=146|8=FIXT.1.1|9=62|35=0|34=446|49=INITIATOR|52=20231130-08:30:40.265|56=ACCEPTOR|10=139|8=FIXT.1.1|9=62|35=0|34=447|49=INITIATOR|52=20231130-08:30:41.252|56=ACCEPTOR|10=137|8=FIXT.1.1|9=62|35=0|34=448|49=INITIATOR|52=20231130-08:30:42.235|56=ACCEPTOR|10=140|8=FIXT.1.1|9=62|35=0|34=449|49=INITIATOR|52=20231130-08:30:43.215|56=ACCEPTOR|10=140|8=FIXT.1.1|9=62|35=0|34=450|49=INITIATOR|52=20231130-08:30:44.192|56=ACCEPTOR|10=137|8=FIXT.1.1|9=62|35=0|34=451|49=INITIATOR|52=20231130-08:30:45.167|56=ACCEPTOR|10=141|8=FIXT.1.1|9=62|35=0|34=452|49=INITIATOR|52=20231130-08:30:46.138|56=ACCEPTOR|10=141|8=FIXT.1.1|9=62|35=0|34=453|49=INITIATOR|52=20231130-08:30:47.107|56=ACCEPTOR|10=139|8=FIXT.1.1|9=62|35=0|34=454|49=INITIATOR|52=20231130-08:30:48.071|56=ACCEPTOR|10=141|8=FIXT.1.1|9=62|35=0|34=455|49=INITIATOR|52=20231130-08:30:49.043|56=ACCEPTOR|10=142|8=FIXT.1.1|9=62|35=0|34=456|49=INITIATOR|52=20231130-08:30:50.003|56=ACCEPTOR|10=131|8=FIXT.1.1|9=62|35=0|34=457|49=INITIATOR|52=20231130-08:30:51.161|56=ACCEPTOR|10=138|8=FIXT.1.1|9=62|35=0|34=458|49=INITIATOR|52=20231130-08:30:52.120|56=ACCEPTOR|10=135|8=FIXT.1.1|9=62|35=0|34=459|49=INITIATOR|52=20231130-08:30:53.077|56=ACCEPTOR|10=148|8=FIXT.1.1|9=62|35=0|34=460|49=INITIATOR|52=20231130-08:30:54.032|56=ACCEPTOR|10=132|8=FIXT.1.1|9=62|35=0|34=461|49=INITIATOR|52=20231130-08:30:55.184|56=ACCEPTOR|10=142|8=FIXT.1.1|9=62|35=0|34=462|49=INITIATOR|52=20231130-08:30:56.132|56=ACCEPTOR|10=137|8=FIXT.1.1|9=62|35=0|34=463|49=INITIATOR|52=20231130-08:30:57.079|56=ACCEPTOR|10=149|8=FIXT.1.1|9=62|35=0|34=464|49=INITIATOR|52=20231130-08:30:58.024|56=ACCEPTOR|10=141|8=FIXT.1.1|9=62|35=0|34=465|49=INITIATOR|52=20231130-08:30:59.166|56=ACCEPTOR|10=150|8=FIXT.1.1|9=62|35=0|34=466|49=INITIATOR|52=20231130-08:31:00.107|56=ACCEPTOR|10=133|8=FIXT.1.1|9=62|35=0|34=467|49=INITIATOR|52=20231130-08:31:01.044|56=ACCEPTOR|10=135|8=FIXT.1.1|9=62|35=0|34=468|49=INITIATOR|52=20231130-08:31:02.179|56=ACCEPTOR|10=146|8=FIXT.1.1|9=62|35=0|34=469|49=INITIATOR|52=20231130-08:31:03.111|56=ACCEPTOR|10=134|8=FIXT.1.1|9=62|35=0|34=470|49=INITIATOR|52=20231130-08:31:04.039|56=ACCEPTOR|10=136|8=FIXT.1.1|9=62|35=0|34=471|49=INITIATOR|52=20231130-08:31:05.167|56=ACCEPTOR|10=140|8=FIXT.1.1|9=62|35=0|34=472|49=INITIATOR|52=20231130-08:31:06.090|56=ACCEPTOR|10=137|8=FIXT.1.1|9=62|35=0|34=473|49=INITIATOR|52=20231130-08:31:07.009|56=ACCEPTOR|10=139|8=FIXT.1.1|9=62|35=0|34=474|49=INITIATOR|52=20231130-08:31:08.130|56=ACCEPTOR|10=136|8=FIXT.1.1|9=62|35=0|34=475|49=INITIATOR|52=20231130-08:31:09.044|56=ACCEPTOR|10=142|8=FIXT.1.1|9=62|35=0|34=476|49=INITIATOR|52=20231130-08:31:10.160|56=ACCEPTOR|10=134|8=FIXT.1.1|9=62|35=0|34=477|49=INITIATOR|52=20231130-08:31:11.068|56=ACCEPTOR|10=143|8=FIXT.1.1|9=62|35=0|34=478|49=INITIATOR|52=20231130-08:31:12.179|56=ACCEPTOR|10=148|8=FIXT.1.1|9=62|35=0|34=479|49=INITIATOR|52=20231130-08:31:13.082|56=ACCEPTOR|10=143|8=FIXT.1.1|9=62|35=0|34=480|49=INITIATOR|52=20231130-08:31:14.190|56=ACCEPTOR|10=136|8=FIXT.1.1|9=62|35=0|34=481|49=INITIATOR|52=20231130-08:31:15.087|56=ACCEPTOR|10=143|8=FIXT.1.1|9=62|35=0|34=482|49=INITIATOR|52=20231130-08:31:16.189|56=ACCEPTOR|10=148|8=FIXT.1.1|9=62|35=0|34=483|49=INITIATOR|52=20231130-08:31:17.080|56=ACCEPTOR|10=140|8=FIXT.1.1|9=62|35=0|34=484|49=INITIATOR|52=20231130-08:31:18.176|56=ACCEPTOR|10=148|8=FIXT.1.1|9=62|35=0|34=485|49=INITIATOR|52=20231130-08:31:19.062|56=ACCEPTOR|10=144|8=FIXT.1.1|9=62|35=0|34=486|49=INITIATOR|52=20231130-08:31:20.154|56=ACCEPTOR|10=139|8=FIXT.1.1|9=62|35=0|34=487|49=INITIATOR|52=20231130-08:31:21.039|56=ACCEPTOR|10=143|8=FIXT.1.1|9=62|35=0|34=488|49=INITIATOR|52=20231130-08:31:22.125|56=ACCEPTOR|10=141|8=FIXT.1.1|9=62|35=0|34=489|49=INITIATOR|52=20231130-08:31:23.209|56=ACCEPTOR|10=146|8=FIXT.1.1|9=62|35=0|34=490|49=INITIATOR|52=20231130-08:31:24.081|56=ACCEPTOR|10=137|8=FIXT.1.1|9=62|35=0|34=491|49=INITIATOR|52=20231130-08:31:25.162|56=ACCEPTOR|10=139|8=FIXT.1.1|9=62|35=0|34=492|49=INITIATOR|52=20231130-08:31:26.040|56=ACCEPTOR|10=136|8=FIXT.1.1|9=62|35=0|34=493|49=INITIATOR|52=20231130-08:31:27.116|56=ACCEPTOR|10=142|8=FIXT.1.1|9=62|35=0|34=494|49=INITIATOR|52=20231130-08:31:28.190|56=ACCEPTOR|10=146|8=FIXT.1.1|9=62|35=0|34=495|49=INITIATOR|52=20231130-08:31:29.051|56=ACCEPTOR|10=144|8=FIXT.1.1|9=62|35=0|34=496|49=INITIATOR|52=20231130-08:31:30.123|56=ACCEPTOR|10=137|8=FIXT.1.1|9=62|35=0|34=497|49=INITIATOR|52=20231130-08:31:31.195|56=ACCEPTOR|10=148|8=FIXT.1.1|9=62|35=0|34=498|49=INITIATOR|52=20231130-08:31:32.052|56=ACCEPTOR|10=142|8=FIXT.1.1|9=62|35=0|34=499|49=INITIATOR|52=20231130-08:31:33.122|56=ACCEPTOR|10=142|8=FIXT.1.1|9=62|35=0|34=500|49=INITIATOR|52=20231130-08:31:34.190|56=ACCEPTOR|10=131|8=FIXT.1.1|9=62|35=0|34=501|49=INITIATOR|52=20231130-08:31:35.043|56=ACCEPTOR|10=130|8=FIXT.1.1|9=62|35=0|34=502|49=INITIATOR|52=20231130-08:31:36.109|56=ACCEPTOR|10=135|8=FIXT.1.1|9=62|35=0|34=503|49=INITIATOR|52=20231130-08:31:37.173|56=ACCEPTOR|10=138|8=FIXT.1.1|9=62|35=0|34=504|49=INITIATOR|52=20231130-08:31:38.021|56=ACCEPTOR|10=132|8=FIXT.1.1|9=62|35=0|34=505|49=INITIATOR|52=20231130-08:31:39.079|56=ACCEPTOR|10=147|8=FIXT.1.1|9=62|35=0|34=506|49=INITIATOR|52=20231130-08:31:40.135|56=ACCEPTOR|10=133|8=FIXT.1.1|9=62|35=0|34=507|49=INITIATOR|52=20231130-08:31:41.189|56=ACCEPTOR|10=144|8=FIXT.1.1|9=62|35=0|34=508|49=INITIATOR|52=20231130-08:31:42.026|56=ACCEPTOR|10=136|8=FIXT.1.1|9=62|35=0|34=509|49=INITIATOR|52=20231130-08:31:43.076|56=ACCEPTOR|10=143|8=FIXT.1.1|9=62|35=0|34=510|49=INITIATOR|52=20231130-08:31:44.122|56=ACCEPTOR|10=128|8=FIXT.1.1|9=62|35=0|34=511|49=INITIATOR|52=20231130-08:31:45.168|56=ACCEPTOR|10=140|8=FIXT.1.1|9=62|35=0|34=512|49=INITIATOR|52=20231130-08:31:46.210|56=ACCEPTOR|10=130|8=FIXT.1.1|9=62|35=0|34=513|49=INITIATOR|52=20231130-08:31:47.033|56=ACCEPTOR|10=135|8=FIXT.1.1|9=62|35=0|34=514|49=INITIATOR|52=20231130-08:31:48.070|56=ACCEPTOR|10=138|8=FIXT.1.1|9=62|35=0|34=515|49=INITIATOR|52=20231130-08:31:49.106|56=ACCEPTOR|10=140|8=FIXT.1.1|9=62|35=0|34=516|49=INITIATOR|52=20231130-08:31:50.140|56=ACCEPTOR|10=131|8=FIXT.1.1|9=62|35=0|34=517|49=INITIATOR|52=20231130-08:31:51.173|56=ACCEPTOR|10=139|8=FIXT.1.1|9=62|35=0|34=518|49=INITIATOR|52=20231130-08:31:52.204|56=ACCEPTOR|10=136|8=FIXT.1.1|9=62|35=0|34=519|49=INITIATOR|52=20231130-08:31:53.015|56=ACCEPTOR|10=138|8=FIXT.1.1|9=62|35=0|34=520|49=INITIATOR|52=20231130-08:31:54.044|56=ACCEPTOR|10=133|8=FIXT.1.1|9=62|35=0|34=521|49=INITIATOR|52=20231130-08:31:55.074|56=ACCEPTOR|10=138|8=FIXT.1.1|9=62|35=0|34=522|49=INITIATOR|52=20231130-08:31:56.103|56=ACCEPTOR|10=133|8=FIXT.1.1|9=62|35=0|34=523|49=INITIATOR|52=20231130-08:31:57.131|56=ACCEPTOR|10=136|8=FIXT.1.1|9=62|35=0|34=524|49=INITIATOR|52=20231130-08:31:58.159|56=ACCEPTOR|10=148|8=FIXT.1.1|9=62|35=0|34=525|49=INITIATOR|52=20231130-08:31:59.185|56=ACCEPTOR|10=149|8=FIXT.1.1|9=62|35=0|34=526|49=INITIATOR|52=20231130-08:32:00.209|56=ACCEPTOR|10=134|8=FIXT.1.1|9=62|35=0|34=527|49=INITIATOR|52=20231130-08:32:01.014|56=ACCEPTOR|10=130|8=FIXT.1.1|9=62|35=0|34=528|49=INITIATOR|52=20231130-08:32:02.033|56=ACCEPTOR|10=133|8=FIXT.1.1|9=62|35=0|34=529|49=INITIATOR|52=20231130-08:32:03.050|56=ACCEPTOR|10=134|8=FIXT.1.1|9=62|35=0|34=530|49=INITIATOR|52=20231130-08:32:04.065|56=ACCEPTOR|10=133|8=FIXT.1.1|9=62|35=0|34=531|49=INITIATOR|52=20231130-08:32:05.077|56=ACCEPTOR|10=138|8=FIXT.1.1|9=62|35=0|34=532|49=INITIATOR|52=20231130-08:32:06.086|56=ACCEPTOR|10=140|8=FIXT.1.1|9=62|35=0|34=533|49=INITIATOR|52=20231130-08:32:07.093|56=ACCEPTOR|10=140|8=FIXT.1.1|9=62|35=0|34=534|49=INITIATOR|52=20231130-08:32:08.098|56=ACCEPTOR|10=147|8=FIXT.1.1|9=62|35=0|34=535|49=INITIATOR|52=20231130-08:32:09.100|56=ACCEPTOR|10=133|8=FIXT.1.1|9=62|35=0|34=536|49=INITIATOR|52=20231130-08:32:10.101|56=ACCEPTOR|10=127|8=FIXT.1.1|9=62|35=0|34=537|49=INITIATOR|52=20231130-08:32:11.100|56=ACCEPTOR|10=128|8=FIXT.1.1|9=62|35=0|34=538|49=INITIATOR|52=20231130-08:32:12.098|56=ACCEPTOR|10=146|8=FIXT.1.1|9=62|35=0|34=539|49=INITIATOR|52=20231130-08:32:13.095|56=ACCEPTOR|10=145|8=FIXT.1.1|9=62|35=0|34=540|49=INITIATOR|52=20231130-08:32:14.085|56=ACCEPTOR|10=137|8=FIXT.1.1|9=62|35=0|34=541|49=INITIATOR|52=20231130-08:32:15.075|56=ACCEPTOR|10=138|8=FIXT.1.1|9=62|35=0|34=542|49=INITIATOR|52=20231130-08:32:16.061|56=ACCEPTOR|10=135|8=FIXT.1.1|9=62|35=0|34=543|49=INITIATOR|52=20231130-08:32:17.046|56=ACCEPTOR|10=140|8=FIXT.1.1|9=62|35=0|34=544|49=INITIATOR|52=20231130-08:32:18.027|56=ACCEPTOR|10=141|8=FIXT.1.1|9=62|35=0|34=545|49=INITIATOR|52=20231130-08:32:19.005|56=ACCEPTOR|10=139|8=FIXT.1.1|9=62|35=0|34=546|49=INITIATOR|52=20231130-08:32:20.134|56=ACCEPTOR|10=135|8=FIXT.1.1|9=62|35=0|34=547|49=INITIATOR|52=20231130-08:32:21.105|56=ACCEPTOR|10=135|8=FIXT.1.1|9=62|35=0|34=548|49=INITIATOR|52=20231130-08:32:22.077|56=ACCEPTOR|10=145|8=FIXT.1.1|9=62|35=0|34=549|49=INITIATOR|52=20231130-08:32:23.045|56=ACCEPTOR|10=142|8=FIXT.1.1|9=62|35=0|34=550|49=INITIATOR|52=20231130-08:32:24.010|56=ACCEPTOR|10=127|8=FIXT.1.1|9=62|35=0|34=551|49=INITIATOR|52=20231130-08:32:25.116|56=ACCEPTOR|10=136|8=FIXT.1.1|9=62|35=0|34=552|49=INITIATOR|52=20231130-08:32:26.075|56=ACCEPTOR|10=142|8=FIXT.1.1|9=62|35=0|34=553|49=INITIATOR|52=20231130-08:32:27.033|56=ACCEPTOR|10=138|8=FIXT.1.1|9=62|35=0|34=554|49=INITIATOR|52=20231130-08:32:28.127|56=ACCEPTOR|10=144|8=FIXT.1.1|9=62|35=0|34=555|49=INITIATOR|52=20231130-08:32:29.078|56=ACCEPTOR|10=151|8=FIXT.1.1|9=62|35=0|34=556|49=INITIATOR|52=20231130-08:32:30.029|56=ACCEPTOR|10=140|8=FIXT.1.1|9=62|35=0|34=557|49=INITIATOR|52=20231130-08:32:31.109|56=ACCEPTOR|10=141|8=FIXT.1.1|9=62|35=0|34=558|49=INITIATOR|52=20231130-08:32:32.054|56=ACCEPTOR|10=142|8=FIXT.1.1|9=62|35=0|34=559|49=INITIATOR|52=20231130-08:32:33.128|56=ACCEPTOR|10=146|8=FIXT.1.1|9=62|35=0|34=560|49=INITIATOR|52=20231130-08:32:34.070|56=ACCEPTOR|10=135|8=FIXT.1.1|9=62|35=0|34=561|49=INITIATOR|52=20231130-08:32:35.010|56=ACCEPTOR|10=131|8=FIXT.1.1|9=62|35=0|34=562|49=INITIATOR|52=20231130-08:32:36.073|56=ACCEPTOR|10=142|8=FIXT.1.1|9=62|35=0|34=563|49=INITIATOR|52=20231130-08:32:37.008|56=ACCEPTOR|10=142|8=FIXT.1.1|9=62|35=0|34=564|49=INITIATOR|52=20231130-08:32:38.064|56=ACCEPTOR|10=146|8=FIXT.1.1|9=62|35=0|34=565|49=INITIATOR|52=20231130-08:32:39.114|56=ACCEPTOR|10=144|8=FIXT.1.1|9=62|35=0|34=566|49=INITIATOR|52=20231130-08:32:40.042|56=ACCEPTOR|10=137|8=FIXT.1.1|9=62|35=0|34=567|49=INITIATOR|52=20231130-08:32:41.083|56=ACCEPTOR|10=144|8=FIXT.1.1|9=62|35=0|34=568|49=INITIATOR|52=20231130-08:32:42.007|56=ACCEPTOR|10=142|8=FIXT.1.1|9=62|35=0|34=569|49=INITIATOR|52=20231130-08:32:43.042|56=ACCEPTOR|10=143|8=FIXT.1.1|9=62|35=0|34=570|49=INITIATOR|52=20231130-08:32:44.073|56=ACCEPTOR|10=140|8=FIXT.1.1|9=62|35=0|34=571|49=INITIATOR|52=20231130-08:32:45.100|56=ACCEPTOR|10=133|8=FIXT.1.1|9=62|35=0|34=572|49=INITIATOR|52=20231130-08:32:46.015|56=ACCEPTOR|10=140|8=FIXT.1.1|9=62|35=0|34=573|49=INITIATOR|52=20231130-08:32:47.038|56=ACCEPTOR|10=147|8=FIXT.1.1|9=62|35=0|34=574|49=INITIATOR|52=20231130-08:32:48.057|56=ACCEPTOR|10=150|8=FIXT.1.1|9=62|35=0|34=575|49=INITIATOR|52=20231130-08:32:49.070|56=ACCEPTOR|10=147|8=FIXT.1.1|9=62|35=0|34=576|49=INITIATOR|52=20231130-08:32:50.081|56=ACCEPTOR|10=142|8=FIXT.1.1|9=62|35=0|34=577|49=INITIATOR|52=20231130-08:32:51.087|56=ACCEPTOR|10=150|8=FIXT.1.1|9=62|35=0|34=578|49=INITIATOR|52=20231130-08:32:52.092|56=ACCEPTOR|10=148|8=FIXT.1.1|9=62|35=0|34=579|49=INITIATOR|52=20231130-08:32:53.092|56=ACCEPTOR|10=150|8=FIXT.1.1|9=62|35=0|34=580|49=INITIATOR|52=20231130-08:32:54.088|56=ACCEPTOR|10=148|8=FIXT.1.1|9=62|35=0|34=581|49=INITIATOR|52=20231130-08:32:55.080|56=ACCEPTOR|10=142|8=FIXT.1.1|9=62|35=0|34=582|49=INITIATOR|52=20231130-08:32:56.067|56=ACCEPTOR|10=149|8=FIXT.1.1|9=62|35=0|34=583|49=INITIATOR|52=20231130-08:32:57.050|56=ACCEPTOR|10=143|8=FIXT.1.1|9=62|35=0|34=584|49=INITIATOR|52=20231130-08:32:58.030|56=ACCEPTOR|10=143|8=FIXT.1.1|9=62|35=0|34=585|49=INITIATOR|52=20231130-08:32:59.011|56=ACCEPTOR|10=144|8=FIXT.1.1|9=62|35=0|34=586|49=INITIATOR|52=20231130-08:33:00.314|56=ACCEPTOR|10=138|8=FIXT.1.1|9=62|35=0|34=587|49=INITIATOR|52=20231130-08:33:01.201|56=ACCEPTOR|10=135|8=FIXT.1.1|9=62|35=0|34=588|49=INITIATOR|52=20231130-08:33:02.087|56=ACCEPTOR|10=149|8=FIXT.1.1|9=62|35=0|34=589|49=INITIATOR|52=20231130-08:33:03.056|56=ACCEPTOR|10=147|8=FIXT.1.1|9=62|35=0|34=590|49=INITIATOR|52=20231130-08:33:04.019|56=ACCEPTOR|10=139|8=FIXT.1.1|9=62|35=0|34=591|49=INITIATOR|52=20231130-08:33:05.297|56=ACCEPTOR|10=149|8=FIXT.1.1|9=62|35=0|34=592|49=INITIATOR|52=20231130-08:33:06.173|56=ACCEPTOR|10=144|8=FIXT.1.1|9=62|35=0|34=593|49=INITIATOR|52=20231130-08:33:07.049|56=ACCEPTOR|10=148|8=FIXT.1.1|9=62|35=0|34=594|49=INITIATOR|52=20231130-08:33:08.309|56=ACCEPTOR|10=149|8=FIXT.1.1|9=62|35=0|34=595|49=INITIATOR|52=20231130-08:33:09.178|56=ACCEPTOR|10=155|8=FIXT.1.1|9=62|35=0|34=596|49=INITIATOR|52=20231130-08:33:10.046|56=ACCEPTOR|10=142|8=FIXT.1.1|9=62|35=0|34=597|49=INITIATOR|52=20231130-08:33:11.290|56=ACCEPTOR|10=145|8=FIXT.1.1|9=62|35=0|34=598|49=INITIATOR|52=20231130-08:33:12.154|56=ACCEPTOR|10=146|8=FIXT.1.1|9=62|35=0|34=599|49=INITIATOR|52=20231130-08:33:13.016|56=ACCEPTOR|10=145|8=FIXT.1.1|9=62|35=0|34=600|49=INITIATOR|52=20231130-08:33:14.243|56=ACCEPTOR|10=131|8=FIXT.1.1|9=62|35=0|34=601|49=INITIATOR|52=20231130-08:33:15.099|56=ACCEPTOR|10=142|8=FIXT.1.1|9=62|35=0|34=602|49=INITIATOR|52=20231130-08:33:16.017|56=ACCEPTOR|10=134|8=FIXT.1.1|9=62|35=0|34=603|49=INITIATOR|52=20231130-08:33:17.222|56=ACCEPTOR|10=134|8=FIXT.1.1|9=62|35=0|34=604|49=INITIATOR|52=20231130-08:33:18.069|56=ACCEPTOR|10=145|8=FIXT.1.1|9=62|35=0|34=605|49=INITIATOR|52=20231130-08:33:19.264|56=ACCEPTOR|10=144|8=FIXT.1.1|9=62|35=0|34=606|49=INITIATOR|52=20231130-08:33:20.106|56=ACCEPTOR|10=132|8=FIXT.1.1|9=62|35=0|34=607|49=INITIATOR|52=20231130-08:33:21.290|56=ACCEPTOR|10=138|8=FIXT.1.1|9=62|35=0|34=608|49=INITIATOR|52=20231130-08:33:22.127|56=ACCEPTOR|10=139|8=FIXT.1.1|9=62|35=0|34=609|49=INITIATOR|52=20231130-08:33:23.006|56=ACCEPTOR|10=137|8=FIXT.1.1|9=62|35=0|34=610|49=INITIATOR|52=20231130-08:33:24.173|56=ACCEPTOR|10=135|8=FIXT.1.1|9=62|35=0|34=611|49=INITIATOR|52=20231130-08:33:25.004|56=ACCEPTOR|10=130|8=FIXT.1.1|9=62|35=0|34=612|49=INITIATOR|52=20231130-08:33:26.165|56=ACCEPTOR|10=140|8=FIXT.1.1|9=62|35=0|34=613|49=INITIATOR|52=20231130-08:33:27.034|56=ACCEPTOR|10=137|8=FIXT.1.1|9=62|35=0|34=614|49=INITIATOR|52=20231130-08:33:28.185|56=ACCEPTOR|10=146|8=FIXT.1.1|9=62|35=0|34=615|49=INITIATOR|52=20231130-08:33:29.010|56=ACCEPTOR|10=135|8=FIXT.1.1|9=62|35=0|34=616|49=INITIATOR|52=20231130-08:33:30.155|56=ACCEPTOR|10=138|8=FIXT.1.1|9=62|35=0|34=617|49=INITIATOR|52=20231130-08:33:31.008|56=ACCEPTOR|10=137|8=FIXT.1.1|9=62|35=0|34=618|49=INITIATOR|52=20231130-08:33:32.138|56=ACCEPTOR|10=143|8=FIXT.1.1|9=62|35=0|34=619|49=INITIATOR|52=20231130-08:33:33.264|56=ACCEPTOR|10=145|8=FIXT.1.1|9=62|35=0|34=620|49=INITIATOR|52=20231130-08:33:34.079|56=ACCEPTOR|10=142|8=FIXT.1.1|9=62|35=0|34=621|49=INITIATOR|52=20231130-08:33:35.200|56=ACCEPTOR|10=130|8=FIXT.1.1|9=62|35=0|34=622|49=INITIATOR|52=20231130-08:33:36.012|56=ACCEPTOR|10=133|8=FIXT.1.1|9=62|35=0|34=623|49=INITIATOR|52=20231130-08:33:37.119|56=ACCEPTOR|10=143|8=FIXT.1.1|9=62|35=0|34=624|49=INITIATOR|52=20231130-08:33:38.219|56=ACCEPTOR|10=146|8=FIXT.1.1|9=62|35=0|34=625|49=INITIATOR|52=20231130-08:33:39.024|56=ACCEPTOR|10=142|8=FIXT.1.1|9=62|35=0|34=626|49=INITIATOR|52=20231130-08:33:40.119|56=ACCEPTOR|10=140|8=FIXT.1.1|9=62|35=0|34=627|49=INITIATOR|52=20231130-08:33:41.210|56=ACCEPTOR|10=134|8=FIXT.1.1|9=62|35=0|34=628|49=INITIATOR|52=20231130-08:33:42.009|56=ACCEPTOR|10=142|8=FIXT.1.1|9=62|35=0|34=629|49=INITIATOR|52=20231130-08:33:43.089|56=ACCEPTOR|10=152|8=FIXT.1.1|9=62|35=0|34=630|49=INITIATOR|52=20231130-08:33:44.164|56=ACCEPTOR|10=139|8=FIXT.1.1|9=62|35=0|34=631|49=INITIATOR|52=20231130-08:33:45.231|56=ACCEPTOR|10=136|8=FIXT.1.1|9=62|35=0|34=632|49=INITIATOR|52=20231130-08:33:46.023|56=ACCEPTOR|10=137|8=FIXT.1.1|9=62|35=0|34=633|49=INITIATOR|52=20231130-08:33:47.078|56=ACCEPTOR|10=149|8=FIXT.1.1|9=62|35=0|34=634|49=INITIATOR|52=20231130-08:33:48.130|56=ACCEPTOR|10=140|8=FIXT.1.1|9=62|35=0|34=635|49=INITIATOR|52=20231130-08:33:49.178|56=ACCEPTOR|10=154|8=FIXT.1.1|9=62|35=0|34=636|49=INITIATOR|52=20231130-08:33:50.216|56=ACCEPTOR|10=140|8=FIXT.1.1|9=62|35=0|34=637|49=INITIATOR|52=20231130-08:33:51.250|56=ACCEPTOR|10=140|8=FIXT.1.1|9=62|35=0|34=638|49=INITIATOR|52=20231130-08:33:52.025|56=ACCEPTOR|10=142|8=FIXT.1.1|9=62|35=0|34=639|49=INITIATOR|52=20231130-08:33:53.055|56=ACCEPTOR|10=147|8=FIXT.1.1|9=62|35=0|34=640|49=INITIATOR|52=20231130-08:33:54.078|56=ACCEPTOR|10=145|8=FIXT.1.1|9=62|35=0|34=641|49=INITIATOR|52=20231130-08:33:55.097|56=ACCEPTOR|10=148|8=FIXT.1.1|9=62|35=0|34=642|49=INITIATOR|52=20231130-08:33:56.111|56=ACCEPTOR|10=137|8=FIXT.1.1|9=62|35=0|34=643|49=INITIATOR|52=20231130-08:33:57.118|56=ACCEPTOR|10=146|8=FIXT.1.1|9=62|35=0|34=644|49=INITIATOR|52=20231130-08:33:58.120|56=ACCEPTOR|10=141|8=FIXT.1.1|9=62|35=0|34=645|49=INITIATOR|52=20231130-08:33:59.119|56=ACCEPTOR|10=151|8=FIXT.1.1|9=62|35=0|34=646|49=INITIATOR|52=20231130-08:34:00.111|56=ACCEPTOR|10=131|8=FIXT.1.1|9=62|35=0|34=647|49=INITIATOR|52=20231130-08:34:01.098|56=ACCEPTOR|10=147|8=FIXT.1.1|9=62|35=0|34=648|49=INITIATOR|52=20231130-08:34:02.080|56=ACCEPTOR|10=140|8=FIXT.1.1|9=62|35=0|34=649|49=INITIATOR|52=20231130-08:34:03.055|56=ACCEPTOR|10=144|8=FIXT.1.1|9=62|35=0|34=650|49=INITIATOR|52=20231130-08:34:04.026|56=ACCEPTOR|10=135|8=FIXT.1.1|9=62|35=0|34=651|49=INITIATOR|52=20231130-08:34:05.157|56=ACCEPTOR|10=142|8=FIXT.1.1|9=62|35=0|34=652|49=INITIATOR|52=20231130-08:34:06.125|56=ACCEPTOR|10=139|8=FIXT.1.1|9=62|35=0|34=653|49=INITIATOR|52=20231130-08:34:07.090|56=ACCEPTOR|10=142|8=FIXT.1.1|9=62|35=0|34=654|49=INITIATOR|52=20231130-08:34:08.053|56=ACCEPTOR|10=143|8=FIXT.1.1|9=62|35=0|34=655|49=INITIATOR|52=20231130-08:34:09.011|56=ACCEPTOR|10=139|8=FIXT.1.1|9=62|35=0|34=656|49=INITIATOR|52=20231130-08:34:10.132|56=ACCEPTOR|10=136|8=FIXT.1.1|9=62|35=0|34=657|49=INITIATOR|52=20231130-08:34:11.085|56=ACCEPTOR|10=145|8=FIXT.1.1|9=62|35=0|34=658|49=INITIATOR|52=20231130-08:34:12.032|56=ACCEPTOR|10=139|8=FIXT.1.1|9=62|35=0|34=659|49=INITIATOR|52=20231130-08:34:13.146|56=ACCEPTOR|10=147|8=FIXT.1.1|9=62|35=0|34=660|49=INITIATOR|52=20231130-08:34:14.088|56=ACCEPTOR|10=145|8=FIXT.1.1|9=62|35=0|34=661|49=INITIATOR|52=20231130-08:34:15.026|56=ACCEPTOR|10=139|8=FIXT.1.1|9=62|35=0|34=662|49=INITIATOR|52=20231130-08:34:16.136|56=ACCEPTOR|10=143|8=FIXT.1.1|9=62|35=0|34=663|49=INITIATOR|52=20231130-08:34:17.071|56=ACCEPTOR|10=143|8=FIXT.1.1|9=62|35=0|34=664|49=INITIATOR|52=20231130-08:34:18.177|56=ACCEPTOR|10=152|8=FIXT.1.1|9=62|35=0|34=665|49=INITIATOR|52=20231130-08:34:19.098|56=ACCEPTOR|10=156|8=FIXT.1.1|9=62|35=0|34=666|49=INITIATOR|52=20231130-08:34:20.012|56=ACCEPTOR|10=135|8=FIXT.1.1|9=62|35=0|34=667|49=INITIATOR|52=20231130-08:34:21.106|56=ACCEPTOR|10=141|8=FIXT.1.1|9=62|35=0|34=668|49=INITIATOR|52=20231130-08:34:22.007|56=ACCEPTOR|10=143|8=FIXT.1.1|9=62|35=0|34=669|49=INITIATOR|52=20231130-08:34:23.095|56=ACCEPTOR|10=152|8=FIXT.1.1|9=62|35=0|34=670|49=INITIATOR|52=20231130-08:34:24.182|56=ACCEPTOR|10=142|8=FIXT.1.1|9=62|35=0|34=671|49=INITIATOR|52=20231130-08:34:25.071|56=ACCEPTOR|10=141|8=FIXT.1.1|9=62|35=0|34=672|49=INITIATOR|52=20231130-08:34:26.150|56=ACCEPTOR|10=141|8=FIXT.1.1|9=62|35=0|34=673|49=INITIATOR|52=20231130-08:34:27.027|56=ACCEPTOR|10=146|8=FIXT.1.1|9=62|35=0|34=674|49=INITIATOR|52=20231130-08:34:28.100|56=ACCEPTOR|10=140|8=FIXT.1.1|9=62|35=0|34=675|49=INITIATOR|52=20231130-08:34:29.178|56=ACCEPTOR|10=157|