8=FIXT.1.1|9=79|35=A|34=1|49=INITIATOR|52=20231129-04:50:56.064|56=ACCEPTOR|98=0|108=30|1137=7|10=155|8=FIXT.1.1|9=60|35=0|34=2|49=INITIATOR|52=20231129-04:51:26.020|56=ACCEPTOR|10=029|8=FIXT.1.1|9=60|35=0|34=3|49=INITIATOR|52=20231129-04:51:56.724|56=ACCEPTOR|10=044|8=FIXT.1.1|9=60|35=0|34=4|49=INITIATOR|52=20231129-04:52:26.278|56=ACCEPTOR|10=047|8=FIXT.1.1|9=60|35=0|34=5|49=INITIATOR|52=20231129-04:52:56.682|56=ACCEPTOR|10=050|8=FIXT.1.1|9=60|35=0|34=6|49=INITIATOR|52=20231129-04:53:26.155|56=ACCEPTOR|10=044|8=FIXT.1.1|9=60|35=0|34=7|49=INITIATOR|52=20231129-04:53:56.304|56=ACCEPTOR|10=044|8=FIXT.1.1|9=60|35=0|34=8|49=INITIATOR|52=20231129-04:54:26.351|56=ACCEPTOR|10=045|8=FIXT.1.1|9=60|35=0|34=9|49=INITIATOR|52=20231129-04:54:56.263|56=ACCEPTOR|10=051|8=FIXT.1.1|9=61|35=0|34=10|49=INITIATOR|52=20231129-04:55:26.056|56=ACCEPTOR|10=090|8=FIXT.1.1|9=61|35=0|34=11|49=INITIATOR|52=20231129-04:55:56.647|56=ACCEPTOR|10=100|8=FIXT.1.1|9=61|35=0|34=12|49=INITIATOR|52=20231129-04:56:26.130|56=ACCEPTOR|10=086|8=FIXT.1.1|9=61|35=0|34=13|49=INITIATOR|52=20231129-04:56:56.437|56=ACCEPTOR|10=100|8=FIXT.1.1|9=61|35=0|34=14|49=INITIATOR|52=20231129-04:57:26.605|56=ACCEPTOR|10=096|8=FIXT.1.1|9=61|35=0|34=15|49=INITIATOR|52=20231129-04:57:56.654|56=ACCEPTOR|10=104|8=FIXT.1.1|9=61|35=0|34=16|49=INITIATOR|52=20231129-04:58:26.599|56=ACCEPTOR|10=111|8=FIXT.1.1|9=61|35=0|34=17|49=INITIATOR|52=20231129-04:58:56.420|56=ACCEPTOR|10=098|8=FIXT.1.1|9=61|35=0|34=18|49=INITIATOR|52=20231129-04:59:26.093|56=ACCEPTOR|10=103|8=FIXT.1.1|9=61|35=0|34=19|49=INITIATOR|52=20231129-04:59:56.543|56=ACCEPTOR|10=107|8=FIXT.1.1|9=61|35=0|34=20|49=INITIATOR|52=20231129-05:00:26.274|56=ACCEPTOR|10=084|8=FIXT.1.1|9=61|35=0|34=21|49=INITIATOR|52=20231129-05:00:56.443|56=ACCEPTOR|10=086|8=FIXT.1.1|9=61|35=0|34=22|49=INITIATOR|52=20231129-05:01:26.464|56=ACCEPTOR|10=088|8=FIXT.1.1|9=61|35=0|34=23|49=INITIATOR|52=20231129-05:01:56.336|56=ACCEPTOR|10=090|8=FIXT.1.1|9=61|35=0|34=24|49=INITIATOR|52=20231129-05:02:26.050|56=ACCEPTOR|10=082|8=FIXT.1.1|9=61|35=0|34=25|49=INITIATOR|52=20231129-05:02:56.028|56=ACCEPTOR|10=091|8=FIXT.1.1|9=61|35=0|34=26|49=INITIATOR|52=20231129-05:03:26.353|56=ACCEPTOR|10=091|8=FIXT.1.1|9=61|35=0|34=27|49=INITIATOR|52=20231129-05:03:56.085|56=ACCEPTOR|10=097|8=FIXT.1.1|9=61|35=0|34=28|49=INITIATOR|52=20231129-05:04:26.188|56=ACCEPTOR|10=100|8=FIXT.1.1|9=61|35=0|34=29|49=INITIATOR|52=20231129-05:04:56.121|56=ACCEPTOR|10=091|8=FIXT.1.1|9=61|35=0|34=30|49=INITIATOR|52=20231129-05:05:26.349|56=ACCEPTOR|10=093|8=FIXT.1.1|9=61|35=0|34=31|49=INITIATOR|52=20231129-05:05:56.412|56=ACCEPTOR|10=088|8=FIXT.1.1|9=61|35=0|34=32|49=INITIATOR|52=20231129-05:06:26.335|56=ACCEPTOR|10=091|8=FIXT.1.1|9=61|35=0|34=33|49=INITIATOR|52=20231129-05:06:56.086|56=ACCEPTOR|10=098|8=FIXT.1.1|9=61|35=0|34=34|49=INITIATOR|52=20231129-05:07:26.529|56=ACCEPTOR|10=099|8=FIXT.1.1|9=61|35=0|34=35|49=INITIATOR|52=20231129-05:07:56.294|56=ACCEPTOR|10=102|8=FIXT.1.1|9=61|35=0|34=36|49=INITIATOR|52=20231129-05:08:26.479|56=ACCEPTOR|10=106|8=FIXT.1.1|9=61|35=0|34=37|49=INITIATOR|52=20231129-05:08:56.532|56=ACCEPTOR|10=100|8=FIXT.1.1|9=61|35=0|34=38|49=INITIATOR|52=20231129-05:09:26.447|56=ACCEPTOR|10=104|8=FIXT.1.1|9=61|35=0|34=39|49=INITIATOR|52=20231129-05:09:56.226|56=ACCEPTOR|10=103|8=FIXT.1.1|9=61|35=0|34=40|49=INITIATOR|52=20231129-05:10:26.126|56=ACCEPTOR|10=083|8=FIXT.1.1|9=61|35=0|34=41|49=INITIATOR|52=20231129-05:10:56.470|56=ACCEPTOR|10=089|8=FIXT.1.1|9=61|35=0|34=42|49=INITIATOR|52=20231129-05:11:26.093|56=ACCEPTOR|10=089|8=FIXT.1.1|9=61|35=0|34=43|49=INITIATOR|52=20231129-05:11:56.200|56=ACCEPTOR|10=083|8=FIXT.1.1|9=61|35=0|34=44|49=INITIATOR|52=20231129-05:12:26.165|56=ACCEPTOR|10=092|8=FIXT.1.1|9=61|35=0|34=45|49=INITIATOR|52=20231129-05:12:56.143|56=ACCEPTOR|10=092|8=FIXT.1.1|9=61|35=0|34=46|49=INITIATOR|52=20231129-05:13:26.639|56=ACCEPTOR|10=101|8=FIXT.1.1|9=61|35=0|34=47|49=INITIATOR|52=20231129-05:13:56.141|56=ACCEPTOR|10=093|8=FIXT.1.1|9=61|35=0|34=48|49=INITIATOR|52=20231129-05:14:26.299|56=ACCEPTOR|10=106|8=FIXT.1.1|9=61|35=0|34=49|49=INITIATOR|52=20231129-05:14:56.265|56=ACCEPTOR|10=103|8=FIXT.1.1|9=61|35=0|34=50|49=INITIATOR|52=20231129-05:15:26.057|56=ACCEPTOR|10=092|8=FIXT.1.1|9=61|35=0|34=51|49=INITIATOR|52=20231129-05:15:56.458|56=ACCEPTOR|10=101|8=FIXT.1.1|9=61|35=0|34=52|49=INITIATOR|52=20231129-05:16:26.659|56=ACCEPTOR|10=103|8=FIXT.1.1|9=61|35=0|34=53|49=INITIATOR|52=20231129-05:16:56.641|56=ACCEPTOR|10=098|8=FIXT.1.1|9=61|35=0|34=54|49=INITIATOR|52=20231129-05:17:26.437|56=ACCEPTOR|10=100|8=FIXT.1.1|9=61|35=0|34=55|49=INITIATOR|52=20231129-05:17:56.026|56=ACCEPTOR|10=098|8=FIXT.1.1|9=61|35=0|34=56|49=INITIATOR|52=20231129-05:18:26.145|56=ACCEPTOR|10=099|8=FIXT.1.1|9=61|35=0|34=57|49=INITIATOR|52=20231129-05:18:56.035|56=ACCEPTOR|10=101|8=FIXT.1.1|9=61|35=0|34=58|49=INITIATOR|52=20231129-05:19:26.461|56=ACCEPTOR|10=103|8=FIXT.1.1|9=61|35=0|34=59|49=INITIATOR|52=20231129-05:19:56.070|56=ACCEPTOR|10=103|8=FIXT.1.1|9=61|35=0|34=60|49=INITIATOR|52=20231129-05:20:26.068|56=ACCEPTOR|10=091|8=FIXT.1.1|9=61|35=0|34=61|49=INITIATOR|52=20231129-05:20:56.539|56=ACCEPTOR|10=098|8=FIXT.1.1|9=61|35=0|34=62|49=INITIATOR|52=20231129-05:21:26.038|56=ACCEPTOR|10=091|8=FIXT.1.1|9=61|35=0|34=63|49=INITIATOR|52=20231129-05:21:56.031|56=ACCEPTOR|10=088|8=FIXT.1.1|9=61|35=0|34=64|49=INITIATOR|52=20231129-05:22:26.059|56=ACCEPTOR|10=097|8=FIXT.1.1|9=61|35=0|34=65|49=INITIATOR|52=20231129-05:22:56.240|56=ACCEPTOR|10=093|8=FIXT.1.1|9=61|35=0|34=66|49=INITIATOR|52=20231129-05:23:26.160|56=ACCEPTOR|10=093|8=FIXT.1.1|9=61|35=0|34=67|49=INITIATOR|52=20231129-05:23:56.208|56=ACCEPTOR|10=100|8=FIXT.1.1|9=61|35=0|34=68|49=INITIATOR|52=20231129-05:24:26.032|56=ACCEPTOR|10=094|8=FIXT.1.1|9=61|35=0|34=69|49=INITIATOR|52=20231129-05:24:56.314|56=ACCEPTOR|10=101|8=FIXT.1.1|9=61|35=0|34=70|49=INITIATOR|52=20231129-05:25:26.364|56=ACCEPTOR|10=096|8=FIXT.1.1|9=61|35=0|34=71|49=INITIATOR|52=20231129-05:25:56.160|56=ACCEPTOR|10=094|8=FIXT.1.1|9=61|35=0|34=72|49=INITIATOR|52=20231129-05:26:26.405|56=ACCEPTOR|10=095|8=FIXT.1.1|9=61|35=0|34=73|49=INITIATOR|52=20231129-05:26:56.370|56=ACCEPTOR|10=100|8=FIXT.1.1|9=61|35=0|34=74|49=INITIATOR|52=20231129-05:27:26.110|56=ACCEPTOR|10=091|8=FIXT.1.1|9=61|35=0|34=75|49=INITIATOR|52=20231129-05:27:56.229|56=ACCEPTOR|10=106|8=FIXT.1.1|9=61|35=0|34=76|49=INITIATOR|52=20231129-05:28:26.058|56=ACCEPTOR|10=105|8=FIXT.1.1|9=61|35=0|34=77|49=INITIATOR|52=20231129-05:28:56.172|56=ACCEPTOR|10=106|8=FIXT.1.1|9=61|35=0|34=78|49=INITIATOR|52=20231129-05:29:26.118|56=ACCEPTOR|10=105|8=FIXT.1.1|9=61|35=0|34=79|49=INITIATOR|52=20231129-05:29:56.213|56=ACCEPTOR|10=105|8=FIXT.1.1|9=61|35=0|34=80|49=INITIATOR|52=20231129-05:30:26.006|56=ACCEPTOR|10=086|8=FIXT.1.1|9=61|35=0|34=81|49=INITIATOR|52=20231129-05:30:56.076|56=ACCEPTOR|10=097|8=FIXT.1.1|9=61|35=0|34=82|49=INITIATOR|52=20231129-05:31:26.165|56=ACCEPTOR|10=095|8=FIXT.1.1|9=61|35=0|34=83|49=INITIATOR|52=20231129-05:31:56.120|56=ACCEPTOR|10=090|8=FIXT.1.1|9=61|35=0|34=84|49=INITIATOR|52=20231129-05:32:26.198|56=ACCEPTOR|10=104|8=FIXT.1.1|9=61|35=0|34=85|49=INITIATOR|52=20231129-05:32:56.541|56=ACCEPTOR|10=100|8=FIXT.1.1|9=61|35=0|34=86|49=INITIATOR|52=20231129-05:33:26.524|56=ACCEPTOR|10=100|8=FIXT.1.1|9=61|35=0|34=87|49=INITIATOR|52=20231129-05:33:56.135|56=ACCEPTOR|10=102|8=FIXT.1.1|9=61|35=0|34=88|49=INITIATOR|52=20231129-05:34:26.072|56=ACCEPTOR|10=101|8=FIXT.1.1|9=61|35=0|34=89|49=INITIATOR|52=20231129-05:34:56.011|56=ACCEPTOR|10=098|8=FIXT.1.1|9=61|35=0|34=90|49=INITIATOR|52=20231129-05:35:26.096|56=ACCEPTOR|10=101|8=FIXT.1.1|9=61|35=0|34=91|49=INITIATOR|52=20231129-05:35:56.167|56=ACCEPTOR|10=104|8=FIXT.1.1|9=61|35=0|34=92|49=INITIATOR|52=20231129-05:36:26.423|56=ACCEPTOR|10=098|8=FIXT.1.1|9=61|35=0|34=93|49=INITIATOR|52=20231129-05:36:56.290|56=ACCEPTOR|10=104|8=FIXT.1.1|9=61|35=0|34=94|49=INITIATOR|52=20231129-05:37:26.311|56=ACCEPTOR|10=097|8=FIXT.1.1|9=61|35=0|34=95|49=INITIATOR|52=20231129-05:37:56.032|56=ACCEPTOR|10=101|8=FIXT.1.1|9=61|35=0|34=96|49=INITIATOR|52=20231129-05:38:26.148|56=ACCEPTOR|10=108|8=FIXT.1.1|9=61|35=0|34=97|49=INITIATOR|52=20231129-05:38:56.185|56=ACCEPTOR|10=113|8=FIXT.1.1|9=61|35=0|34=98|49=INITIATOR|52=20231129-05:39:26.268|56=ACCEPTOR|10=114|8=FIXT.1.1|9=61|35=0|34=99|49=INITIATOR|52=20231129-05:39:56.290|56=ACCEPTOR|10=113|8=FIXT.1.1|9=62|35=0|34=100|49=INITIATOR|52=20231129-05:40:26.071|56=ACCEPTOR|10=131|8=FIXT.1.1|9=62|35=0|34=101|49=INITIATOR|52=20231129-05:40:56.401|56=ACCEPTOR|10=132|8=FIXT.1.1|9=62|35=0|34=102|49=INITIATOR|52=20231129-05:41:26.177|56=ACCEPTOR|10=141|8=FIXT.1.1|9=62|35=0|34=103|49=INITIATOR|52=20231129-05:41:56.069|56=ACCEPTOR|10=145|8=FIXT.1.1|9=62|35=0|34=104|49=INITIATOR|52=20231129-05:42:26.397|56=ACCEPTOR|10=148|8=FIXT.1.1|9=62|35=0|34=105|49=INITIATOR|52=20231129-05:42:56.070|56=ACCEPTOR|10=140|8=FIXT.1.1|9=62|35=0|34=106|49=INITIATOR|52=20231129-05:43:26.294|56=ACCEPTOR|10=147|8=FIXT.1.1|9=62|35=0|34=107|49=INITIATOR|52=20231129-05:43:56.148|56=ACCEPTOR|10=149|8=FIXT.1.1|9=62|35=0|34=108|49=INITIATOR|52=20231129-05:44:26.253|56=ACCEPTOR|10=145|8=FIXT.1.1|9=62|35=0|34=109|49=INITIATOR|52=20231129-05:44:56.001|56=ACCEPTOR|10=140|8=FIXT.1.1|9=62|35=0|34=110|49=INITIATOR|52=20231129-05:45:26.114|56=ACCEPTOR|10=135|8=FIXT.1.1|9=62|35=0|34=111|49=INITIATOR|52=20231129-05:45:56.139|56=ACCEPTOR|10=146|8=FIXT.1.1|9=62|35=0|34=112|49=INITIATOR|52=20231129-05:46:26.046|56=ACCEPTOR|10=142|8=FIXT.1.1|9=62|35=0|34=113|49=INITIATOR|52=20231129-05:46:56.123|56=ACCEPTOR|10=142|8=FIXT.1.1|9=81|35=A|34=114|49=INITIATOR|52=20231129-06:07:22.020|56=ACCEPTOR|98=0|108=30|1137=7|10=238|8=FIXT.1.1|9=62|35=0|34=115|49=INITIATOR|52=20231129-06:07:52.013|56=ACCEPTOR|10=136|8=FIXT.1.1|9=62|35=0|34=116|49=INITIATOR|52=20231129-06:08:22.009|56=ACCEPTOR|10=140|8=FIXT.1.1|9=62|35=0|34=117|49=INITIATOR|52=20231129-06:08:52.115|56=ACCEPTOR|10=142|8=FIXT.1.1|9=62|35=0|34=118|49=INITIATOR|52=20231129-06:09:22.215|56=ACCEPTOR|10=142|8=FIXT.1.1|9=62|35=0|34=119|49=INITIATOR|52=20231129-06:09:52.276|56=ACCEPTOR|10=153|8=FIXT.1.1|9=62|35=0|34=120|49=INITIATOR|52=20231129-06:10:22.059|56=ACCEPTOR|10=133|8=FIXT.1.1|9=62|35=0|34=121|49=INITIATOR|52=20231129-06:10:52.222|56=ACCEPTOR|10=129|8=FIXT.1.1|9=62|35=0|34=122|49=INITIATOR|52=20231129-06:11:22.016|56=ACCEPTOR|10=129|8=FIXT.1.1|9=62|35=0|34=123|49=INITIATOR|52=20231129-06:11:52.141|56=ACCEPTOR|10=132|8=FIXT.1.1|9=62|35=0|34=124|49=INITIATOR|52=20231129-06:12:22.148|56=ACCEPTOR|10=138|8=FIXT.1.1|9=62|35=0|34=125|49=INITIATOR|52=20231129-06:12:52.056|56=ACCEPTOR|10=140|8=FIXT.1.1|9=62|35=0|34=126|49=INITIATOR|52=20231129-06:13:22.081|56=ACCEPTOR|10=137|8=FIXT.1.1|9=62|35=0|34=127|49=INITIATOR|52=20231129-06:13:52.085|56=ACCEPTOR|10=145|8=FIXT.1.1|9=62|35=0|34=128|49=INITIATOR|52=20231129-06:14:22.094|56=ACCEPTOR|10=144|8=FIXT.1.1|9=62|35=0|34=129|49=INITIATOR|52=20231129-06:14:52.069|56=ACCEPTOR|10=150|8=FIXT.1.1|9=62|35=0|34=130|49=INITIATOR|52=20231129-06:15:22.081|56=ACCEPTOR|10=134|8=FIXT.1.1|9=62|35=0|34=131|49=INITIATOR|52=20231129-06:15:52.079|56=ACCEPTOR|10=145|8=FIXT.1.1|9=62|35=0|34=132|49=INITIATOR|52=20231129-06:16:22.003|56=ACCEPTOR|10=131|8=FIXT.1.1|9=62|35=0|34=133|49=INITIATOR|52=20231129-06:16:52.124|56=ACCEPTOR|10=139|8=FIXT.1.1|9=62|35=0|34=134|49=INITIATOR|52=20231129-06:17:22.033|56=ACCEPTOR|10=137|8=FIXT.1.1|9=62|35=0|34=135|49=INITIATOR|52=20231129-06:17:52.175|56=ACCEPTOR|10=148|8=FIXT.1.1|9=62|35=0|34=136|49=INITIATOR|52=20231129-06:18:22.104|56=ACCEPTOR|10=139|8=FIXT.1.1|9=62|35=0|34=137|49=INITIATOR|52=20231129-06:18:52.127|56=ACCEPTOR|10=148|8=FIXT.1.1|9=62|35=0|34=138|49=INITIATOR|52=20231129-06:19:22.054|56=ACCEPTOR|10=146|8=FIXT.1.1|9=62|35=0|34=139|49=INITIATOR|52=20231129-06:19:52.051|56=ACCEPTOR|10=147|8=FIXT.1.1|9=62|35=0|34=140|49=INITIATOR|52=20231129-06:20:22.059|56=ACCEPTOR|10=136|8=FIXT.1.1|9=62|35=0|34=141|49=INITIATOR|52=20231129-06:20:52.016|56=ACCEPTOR|10=133|8=FIXT.1.1|9=62|35=0|34=142|49=INITIATOR|52=20231129-06:21:22.741|56=ACCEPTOR|10=137|8=FIXT.1.1|9=62|35=0|34=143|49=INITIATOR|52=20231129-06:21:52.370|56=ACCEPTOR|10=139|8=FIXT.1.1|9=62|35=0|34=144|49=INITIATOR|52=20231129-06:22:22.179|56=ACCEPTOR|10=145|8=FIXT.1.1|9=62|35=0|34=145|49=INITIATOR|52=20231129-06:22:52.569|56=ACCEPTOR|10=152|8=FIXT.1.1|9=62|35=0|34=146|49=INITIATOR|52=20231129-06:23:22.227|56=ACCEPTOR|10=142|8=FIXT.1.1|9=62|35=0|34=147|49=INITIATOR|52=20231129-06:23:52.419|56=ACCEPTOR|10=149|8=FIXT.1.1|9=62|35=0|34=148|49=INITIATOR|52=20231129-06:24:22.465|56=ACCEPTOR|10=149|8=FIXT.1.1|9=62|35=0|34=149|49=INITIATOR|52=20231129-06:24:52.391|56=ACCEPTOR|10=151|8=FIXT.1.1|9=62|35=0|34=150|49=INITIATOR|52=20231129-06:25:22.214|56=ACCEPTOR|10=135|8=FIXT.1.1|9=62|35=0|34=151|49=INITIATOR|52=20231129-06:25:52.362|56=ACCEPTOR|10=143|8=FIXT.1.1|9=62|35=0|34=152|49=INITIATOR|52=20231129-06:26:22.374|56=ACCEPTOR|10=145|8=FIXT.1.1|9=62|35=0|34=153|49=INITIATOR|52=20231129-06:26:52.267|56=ACCEPTOR|10=150|8=FIXT.1.1|9=81|35=A|34=154|49=INITIATOR|52=20231129-07:40:21.710|56=ACCEPTOR|98=0|108=30|1137=7|10=245|8=FIXT.1.1|9=81|35=A|34=155|49=INITIATOR|52=20231129-07:41:21.604|56=ACCEPTOR|98=0|108=30|1137=7|10=249|8=FIXT.1.1|9=81|35=A|34=156|49=INITIATOR|52=20231129-07:41:55.002|56=ACCEPTOR|98=0|108=30|1137=7|10=249|8=FIXT.1.1|9=62|35=0|34=157|49=INITIATOR|52=20231129-07:42:25.910|56=ACCEPTOR|10=148|8=FIXT.1.1|9=62|35=0|34=158|49=INITIATOR|52=20231129-07:42:55.750|56=ACCEPTOR|10=154|8=FIXT.1.1|9=62|35=0|34=159|49=INITIATOR|52=20231129-07:43:25.502|56=ACCEPTOR|10=148|8=FIXT.1.1|9=62|35=0|34=160|49=INITIATOR|52=20231129-07:43:55.145|56=ACCEPTOR|10=146|8=FIXT.1.1|9=62|35=0|34=161|49=INITIATOR|52=20231129-07:44:25.658|56=ACCEPTOR|10=154|8=FIXT.1.1|9=62|35=0|34=162|49=INITIATOR|52=20231129-07:44:55.070|56=ACCEPTOR|10=146|8=FIXT.1.1|9=62|35=0|34=163|49=INITIATOR|52=20231129-07:45:25.347|56=ACCEPTOR|10=152|8=FIXT.1.1|9=62|35=0|34=164|49=INITIATOR|52=20231129-07:45:55.512|56=ACCEPTOR|10=150|8=FIXT.1.1|9=62|35=0|34=165|49=INITIATOR|52=20231129-07:46:25.548|56=ACCEPTOR|10=158|8=FIXT.1.1|9=62|35=0|34=166|49=INITIATOR|52=20231129-07:46:55.483|56=ACCEPTOR|10=160|8=FIXT.1.1|9=62|35=0|34=167|49=INITIATOR|52=20231129-07:47:25.309|56=ACCEPTOR|10=156|8=FIXT.1.1|9=62|35=0|34=168|49=INITIATOR|52=20231129-07:47:55.032|56=ACCEPTOR|10=153|8=FIXT.1.1|9=62|35=0|34=169|49=INITIATOR|52=20231129-07:48:25.607|56=ACCEPTOR|10=160|8=FIXT.1.1|9=62|35=0|34=170|49=INITIATOR|52=20231129-07:48:55.100|56=ACCEPTOR|10=143|8=FIXT.1.1|9=62|35=0|34=171|49=INITIATOR|52=20231129-07:49:25.419|56=ACCEPTOR|10=155|8=FIXT.1.1|9=62|35=0|34=172|49=INITIATOR|52=20231129-07:49:55.608|56=ACCEPTOR|10=159|8=FIXT.1.1|9=62|35=0|34=173|49=INITIATOR|52=20231129-07:50:25.663|56=ACCEPTOR|10=150|8=FIXT.1.1|9=62|35=0|34=174|49=INITIATOR|52=20231129-07:50:55.603|56=ACCEPTOR|10=148|8=FIXT.1.1|9=62|35=0|34=175|49=INITIATOR|52=20231129-07:51:25.431|56=ACCEPTOR|10=146|8=FIXT.1.1|9=62|35=0|34=176|49=INITIATOR|52=20231129-07:51:55.161|56=ACCEPTOR|10=150|8=FIXT.1.1|9=62|35=0|34=177|49=INITIATOR|52=20231129-07:52:25.089|56=ACCEPTOR|10=158|8=FIXT.1.1|9=62|35=0|34=178|49=INITIATOR|52=20231129-07:52:55.508|56=ACCEPTOR|10=158|8=FIXT.1.1|9=62|35=0|34=179|49=INITIATOR|52=20231129-07:53:25.231|56=ACCEPTOR|10=150|8=FIXT.1.1|9=62|35=0|34=180|49=INITIATOR|52=20231129-07:53:55.428|56=ACCEPTOR|10=153|8=FIXT.1.1|9=62|35=0|34=181|49=INITIATOR|52=20231129-07:54:25.511|56=ACCEPTOR|10=145|8=FIXT.1.1|9=62|35=0|34=182|49=INITIATOR|52=20231129-07:54:55.460|56=ACCEPTOR|10=152|8=FIXT.1.1|9=62|35=0|34=183|49=INITIATOR|52=20231129-07:55:25.269|56=ACCEPTOR|10=158|8=FIXT.1.1|9=62|35=0|34=184|49=INITIATOR|52=20231129-07:55:55.353|56=ACCEPTOR|10=156|8=FIXT.1.1|9=62|35=0|34=185|49=INITIATOR|52=20231129-07:56:25.316|56=ACCEPTOR|10=154|8=FIXT.1.1|9=62|35=0|34=186|49=INITIATOR|52=20231129-07:56:55.122|56=ACCEPTOR|10=153|8=FIXT.1.1|9=62|35=0|34=187|49=INITIATOR|52=20231129-07:57:25.319|56=ACCEPTOR|10=160|8=FIXT.1.1|9=62|35=0|34=188|49=INITIATOR|52=20231129-07:57:55.395|56=ACCEPTOR|10=168|8=FIXT.1.1|9=62|35=0|34=189|49=INITIATOR|52=20231129-07:58:25.334|56=ACCEPTOR|10=160|8=FIXT.1.1|9=62|35=0|34=190|49=INITIATOR|52=20231129-07:58:55.143|56=ACCEPTOR|10=153|8=FIXT.1.1|9=62|35=0|34=191|49=INITIATOR|52=20231129-07:59:25.256|56=ACCEPTOR|10=157|8=FIXT.1.1|9=62|35=0|34=192|49=INITIATOR|52=20231129-07:59:55.243|56=ACCEPTOR|10=157|8=FIXT.1.1|9=62|35=0|34=193|49=INITIATOR|52=20231129-08:00:25.118|56=ACCEPTOR|10=143|8=FIXT.1.1|9=62|35=0|34=194|49=INITIATOR|52=20231129-08:00:55.292|56=ACCEPTOR|10=150|8=FIXT.1.1|9=62|35=0|34=195|49=INITIATOR|52=20231129-08:01:25.327|56=ACCEPTOR|10=148|8=FIXT.1.1|9=62|35=0|34=196|49=INITIATOR|52=20231129-08:01:55.171|56=ACCEPTOR|10=149|8=FIXT.1.1|9=62|35=0|34=197|49=INITIATOR|52=20231129-08:02:25.393|56=ACCEPTOR|10=154|8=FIXT.1.1|9=62|35=0|34=198|49=INITIATOR|52=20231129-08:02:55.487|56=ACCEPTOR|10=162|8=FIXT.1.1|9=62|35=0|34=199|49=INITIATOR|52=20231129-08:03:25.444|56=ACCEPTOR|10=154|8=FIXT.1.1|9=62|35=0|34=200|49=INITIATOR|52=20231129-08:03:55.271|56=ACCEPTOR|10=138|8=FIXT.1.1|9=62|35=0|34=201|49=INITIATOR|52=20231129-08:04:25.311|56=ACCEPTOR|10=132|8=FIXT.1.1|9=62|35=0|34=202|49=INITIATOR|52=20231129-08:04:55.209|56=ACCEPTOR|10=142|8=FIXT.1.1|9=62|35=0|34=203|49=INITIATOR|52=20231129-08:05:25.531|56=ACCEPTOR|10=139|8=FIXT.1.1|9=62|35=0|34=204|49=INITIATOR|52=20231129-08:05:55.134|56=ACCEPTOR|10=142|8=FIXT.1.1|9=62|35=0|34=205|49=INITIATOR|52=20231129-08:06:25.192|56=ACCEPTOR|10=145|8=FIXT.1.1|9=62|35=0|34=206|49=INITIATOR|52=20231129-08:06:55.069|56=ACCEPTOR|10=152|8=FIXT.1.1|9=62|35=0|34=207|49=INITIATOR|52=20231129-08:07:25.023|56=ACCEPTOR|10=141|8=FIXT.1.1|9=62|35=0|34=208|49=INITIATOR|52=20231129-08:07:55.411|56=ACCEPTOR|10=146|8=FIXT.1.1|9=62|35=0|34=209|49=INITIATOR|52=20231129-08:08:25.043|56=ACCEPTOR|10=146|8=FIXT.1.1|9=62|35=0|34=210|49=INITIATOR|52=20231129-08:08:55.125|56=ACCEPTOR|10=142|8=FIXT.1.1|9=62|35=0|34=211|49=INITIATOR|52=20231129-08:09:25.074|56=ACCEPTOR|10=144|8=FIXT.1.1|9=62|35=0|34=212|49=INITIATOR|52=20231129-08:09:55.073|56=ACCEPTOR|10=147|8=FIXT.1.1|9=62|35=0|34=213|49=INITIATOR|52=20231129-08:10:25.517|56=ACCEPTOR|10=140|8=FIXT.1.1|9=62|35=0|34=214|49=INITIATOR|52=20231129-08:10:55.142|56=ACCEPTOR|10=138|8=FIXT.1.1|9=62|35=0|34=215|49=INITIATOR|52=20231129-08:11:25.260|56=ACCEPTOR|10=138|8=FIXT.1.1|9=62|35=0|34=216|49=INITIATOR|52=20231129-08:11:55.207|56=ACCEPTOR|10=143|8=FIXT.1.1|9=62|35=0|34=217|49=INITIATOR|52=20231129-08:12:25.086|56=ACCEPTOR|10=147|8=FIXT.1.1|9=62|35=0|34=218|49=INITIATOR|52=20231129-08:12:55.453|56=ACCEPTOR|10=149|8=FIXT.1.1|9=62|35=0|34=219|49=INITIATOR|52=20231129-08:13:25.638|56=ACCEPTOR|10=153|8=FIXT.1.1|9=62|35=0|34=220|49=INITIATOR|52=20231129-08:13:55.668|56=ACCEPTOR|10=151|8=FIXT.1.1|9=62|35=0|34=221|49=INITIATOR|52=20231129-08:14:25.531|56=ACCEPTOR|10=139|8=FIXT.1.1|9=62|35=0|34=222|49=INITIATOR|52=20231129-08:14:55.227|56=ACCEPTOR|10=145|8=FIXT.1.1|9=62|35=0|34=223|49=INITIATOR|52=20231129-08:15:25.486|56=ACCEPTOR|10=151|8=FIXT.1.1|9=62|35=0|34=224|49=INITIATOR|52=20231129-08:15:55.569|56=ACCEPTOR|10=157|8=FIXT.1.1|9=62|35=0|34=225|49=INITIATOR|52=20231129-08:16:25.454|56=ACCEPTOR|10=149|8=FIXT.1.1|9=62|35=0|34=226|49=INITIATOR|52=20231129-08:16:55.147|56=ACCEPTOR|10=152|8=FIXT.1.1|9=62|35=0|34=227|49=INITIATOR|52=20231129-08:17:25.376|56=ACCEPTOR|10=155|8=FIXT.1.1|9=62|35=0|34=228|49=INITIATOR|52=20231129-08:17:55.442|56=ACCEPTOR|10=153|8=FIXT.1.1|9=62|35=0|34=229|49=INITIATOR|52=20231129-08:18:25.354|56=ACCEPTOR|10=154|8=FIXT.1.1|9=62|35=0|34=230|49=INITIATOR|52=20231129-08:18:55.095|56=ACCEPTOR|10=151|8=FIXT.1.1|9=62|35=0|34=231|49=INITIATOR|52=20231129-08:19:25.337|56=ACCEPTOR|10=149|8=FIXT.1.1|9=62|35=0|34=232|49=INITIATOR|52=20231129-08:19:55.402|56=ACCEPTOR|10=146|8=FIXT.1.1|9=62|35=0|34=233|49=INITIATOR|52=20231129-08:20:25.259|56=ACCEPTOR|10=146|8=FIXT.1.1|9=62|35=0|34=234|49=INITIATOR|52=20231129-08:20:55.253|56=ACCEPTOR|10=144|8=FIXT.1.1|9=62|35=0|34=235|49=INITIATOR|52=20231129-08:21:25.073|56=ACCEPTOR|10=143|8=FIXT.1.1|9=62|35=0|34=236|49=INITIATOR|52=20231129-08:21:55.046|56=ACCEPTOR|10=147|8=FIXT.1.1|9=62|35=0|34=237|49=INITIATOR|52=20231129-08:22:25.275|56=ACCEPTOR|10=150|8=FIXT.1.1|9=62|35=0|34=238|49=INITIATOR|52=20231129-08:22:55.328|56=ACCEPTOR|10=153|8=FIXT.1.1|9=62|35=0|34=239|49=INITIATOR|52=20231129-08:23:25.186|56=ACCEPTOR|10=154|8=FIXT.1.1|9=62|35=0|34=240|49=INITIATOR|52=20231129-08:23:55.525|56=ACCEPTOR|10=146|8=FIXT.1.1|9=62|35=0|34=241|49=INITIATOR|52=20231129-08:24:25.113|56=ACCEPTOR|10=138|8=FIXT.1.1|9=62|35=0|34=242|49=INITIATOR|52=20231129-08:24:55.088|56=ACCEPTOR|10=153|8=FIXT.1.1|9=62|35=0|34=243|49=INITIATOR|52=20231129-08:25:25.551|56=ACCEPTOR|10=147|8=FIXT.1.1|9=62|35=0|34=244|49=INITIATOR|52=20231129-08:25:55.156|56=ACCEPTOR|10=152|8=FIXT.1.1|9=62|35=0|34=245|49=INITIATOR|52=20231129-08:26:25.245|56=ACCEPTOR|10=150|8=FIXT.1.1|9=62|35=0|34=246|49=INITIATOR|52=20231129-08:26:55.107|56=ACCEPTOR|10=151|8=FIXT.1.1|9=81|35=A|34=247|49=INITIATOR|52=20231129-08:39:28.629|56=ACCEPTOR|98=0|108=30|1137=7|10=017|8=FIXT.1.1|9=81|35=A|34=248|49=INITIATOR|52=20231129-08:41:10.550|56=ACCEPTOR|98=0|108=30|1137=7|10=251|8=FIXT.1.1|9=62|35=0|34=249|49=INITIATOR|52=20231129-08:41:40.457|56=ACCEPTOR|10=153|8=FIXT.1.1|9=62|35=0|34=250|49=INITIATOR|52=20231129-08:42:10.235|56=ACCEPTOR|10=137|8=FIXT.1.1|9=62|35=0|34=251|49=INITIATOR|52=20231129-08:42:40.845|56=ACCEPTOR|10=148|8=FIXT.1.1|9=62|35=0|34=252|49=INITIATOR|52=20231129-08:43:10.328|56=ACCEPTOR|10=143|8=FIXT.1.1|9=62|35=0|34=253|49=INITIATOR|52=20231129-08:43:40.655|56=ACCEPTOR|10=150|8=FIXT.1.1|9=81|35=A|34=254|49=INITIATOR|52=20231129-08:44:21.016|56=ACCEPTOR|98=0|108=30|1137=7|10=250|8=FIXT.1.1|9=62|35=0|34=255|49=INITIATOR|52=20231129-08:44:51.956|56=ACCEPTOR|10=159|8=FIXT.1.1|9=62|35=0|34=256|49=INITIATOR|52=20231129-08:45:21.730|56=ACCEPTOR|10=148|8=FIXT.1.1|9=62|35=0|34=257|49=INITIATOR|52=20231129-08:45:51.376|56=ACCEPTOR|10=158|8=FIXT.1.1|9=80|35=A|34=258|49=INITIATOR|52=20231129-08:46:29.019|56=ACCEPTOR|98=0|108=1|1137=7|10=216|8=FIXT.1.1|9=62|35=0|34=259|49=INITIATOR|52=20231129-08:46:30.020|56=ACCEPTOR|10=144|8=FIXT.1.1|9=62|35=0|34=260|49=INITIATOR|52=20231129-08:46:31.019|56=ACCEPTOR|10=145|8=FIXT.1.1|9=62|35=0|34=261|49=INITIATOR|52=20231129-08:46:32.020|56=ACCEPTOR|10=139|8=FIXT.1.1|9=62|35=0|34=262|49=INITIATOR|52=20231129-08:46:33.019|56=ACCEPTOR|10=149|8=FIXT.1.1|9=62|35=0|34=263|49=INITIATOR|52=20231129-08:46:34.018|56=ACCEPTOR|10=150|8=FIXT.1.1|9=62|35=0|34=264|49=INITIATOR|52=20231129-08:46:35.016|56=ACCEPTOR|10=150|8=FIXT.1.1|9=62|35=0|34=265|49=INITIATOR|52=20231129-08:46:36.012|56=ACCEPTOR|10=148|8=FIXT.1.1|9=62|35=0|34=266|49=INITIATOR|52=20231129-08:46:37.008|56=ACCEPTOR|10=155|8=FIXT.1.1|9=62|35=0|34=267|49=INITIATOR|52=20231129-08:46:38.004|56=ACCEPTOR|10=153|8=FIXT.1.1|9=62|35=0|34=268|49=INITIATOR|52=20231129-08:46:39.000|56=ACCEPTOR|10=151|8=FIXT.1.1|9=62|35=0|34=269|49=INITIATOR|52=20231129-08:46:40.986|56=ACCEPTOR|10=167|8=FIXT.1.1|9=62|35=0|34=270|49=INITIATOR|52=20231129-08:46:41.978|56=ACCEPTOR|10=161|8=FIXT.1.1|9=62|35=0|34=271|49=INITIATOR|52=20231129-08:46:42.970|56=ACCEPTOR|10=155|8=FIXT.1.1|9=62|35=0|34=272|49=INITIATOR|52=20231129-08:46:43.960|56=ACCEPTOR|10=156|8=FIXT.1.1|9=62|35=0|34=273|49=INITIATOR|52=20231129-08:46:44.950|56=ACCEPTOR|10=157|8=FIXT.1.1|9=80|35=A|34=274|49=INITIATOR|52=20231129-08:48:10.423|56=ACCEPTOR|98=0|108=1|1137=7|10=205|8=FIXT.1.1|9=62|35=0|34=275|49=INITIATOR|52=20231129-08:48:11.419|56=ACCEPTOR|10=155|8=FIXT.1.1|9=62|35=0|34=276|49=INITIATOR|52=20231129-08:48:12.415|56=ACCEPTOR|10=153|8=FIXT.1.1|9=62|35=0|34=277|49=INITIATOR|52=20231129-08:48:13.411|56=ACCEPTOR|10=151|8=FIXT.1.1|9=62|35=0|34=278|49=INITIATOR|52=20231129-08:48:14.405|56=ACCEPTOR|10=156|8=FIXT.1.1|9=62|35=0|34=279|49=INITIATOR|52=20231129-08:48:15.399|56=ACCEPTOR|10=170|8=FIXT.1.1|9=62|35=0|34=280|49=INITIATOR|52=20231129-08:48:16.392|56=ACCEPTOR|10=156|8=FIXT.1.1|9=62|35=0|34=281|49=INITIATOR|52=20231129-08:48:17.383|56=ACCEPTOR|10=158|8=FIXT.1.1|9=62|35=0|34=282|49=INITIATOR|52=20231129-08:48:18.374|56=ACCEPTOR|10=160|8=FIXT.1.1|9=62|35=0|34=283|49=INITIATOR|52=20231129-08:48:19.365|56=ACCEPTOR|10=162|8=FIXT.1.1|9=62|35=0|34=284|49=INITIATOR|52=20231129-08:48:20.355|56=ACCEPTOR|10=154|8=FIXT.1.1|9=62|35=0|34=285|49=INITIATOR|52=20231129-08:48:21.343|56=ACCEPTOR|10=153|8=FIXT.1.1|9=62|35=0|34=286|49=INITIATOR|52=20231129-08:48:22.331|56=ACCEPTOR|10=152|8=FIXT.1.1|9=62|35=0|34=287|49=INITIATOR|52=20231129-08:48:23.318|56=ACCEPTOR|10=159|8=FIXT.1.1|9=62|35=0|34=288|49=INITIATOR|52=20231129-08:48:24.303|56=ACCEPTOR|10=155|8=FIXT.1.1|9=62|35=0|34=289|49=INITIATOR|52=20231129-08:48:25.287|56=ACCEPTOR|10=168|8=FIXT.1.1|9=62|35=0|34=290|49=INITIATOR|52=20231129-08:48:26.270|56=ACCEPTOR|10=153|8=FIXT.1.1|9=62|35=0|34=291|49=INITIATOR|52=20231129-08:48:27.252|56=ACCEPTOR|10=155|8=FIXT.1.1|9=62|35=0|34=292|49=INITIATOR|52=20231129-08:48:28.232|56=ACCEPTOR|10=155|8=FIXT.1.1|9=62|35=0|34=293|49=INITIATOR|52=20231129-08:48:29.212|56=ACCEPTOR|10=155|8=FIXT.1.1|9=62|35=0|34=294|49=INITIATOR|52=20231129-08:48:30.191|56=ACCEPTOR|10=154|8=FIXT.1.1|9=62|35=0|34=295|49=INITIATOR|52=20231129-08:48:31.170|56=ACCEPTOR|10=153|8=FIXT.1.1|9=62|35=0|34=296|49=INITIATOR|52=20231129-08:48:32.148|56=ACCEPTOR|10=160|8=FIXT.1.1|9=62|35=0|34=297|49=INITIATOR|52=20231129-08:48:33.124|56=ACCEPTOR|10=156|8=FIXT.1.1|9=62|35=0|34=298|49=INITIATOR|52=20231129-08:48:34.100|56=ACCEPTOR|10=152|8=FIXT.1.1|9=62|35=0|34=299|49=INITIATOR|52=20231129-08:48:35.075|56=ACCEPTOR|10=165|8=FIXT.1.1|9=62|35=0|34=300|49=INITIATOR|52=20231129-08:48:36.049|56=ACCEPTOR|10=150|8=FIXT.1.1|9=62|35=0|34=301|49=INITIATOR|52=20231129-08:48:37.021|56=ACCEPTOR|10=142|8=FIXT.1.1|9=62|35=0|34=302|49=INITIATOR|52=20231129-08:48:38.003|56=ACCEPTOR|10=144|8=FIXT.1.1|9=62|35=0|34=303|49=INITIATOR|52=20231129-08:48:39.944|56=ACCEPTOR|10=160|8=FIXT.1.1|9=62|35=0|34=304|49=INITIATOR|52=20231129-08:48:40.914|56=ACCEPTOR|10=150|8=FIXT.1.1|9=62|35=0|34=305|49=INITIATOR|52=20231129-08:48:41.884|56=ACCEPTOR|10=158|8=FIXT.1.1|9=62|35=0|34=306|49=INITIATOR|52=20231129-08:48:42.853|56=ACCEPTOR|10=156|8=FIXT.1.1|9=62|35=0|34=307|49=INITIATOR|52=20231129-08:48:43.822|56=ACCEPTOR|10=154|8=FIXT.1.1|9=62|35=0|34=308|49=INITIATOR|52=20231129-08:48:44.790|56=ACCEPTOR|10=160|8=FIXT.1.1|9=62|35=0|34=309|49=INITIATOR|52=20231129-08:48:45.758|56=ACCEPTOR|10=166|8=FIXT.1.1|9=62|35=0|34=310|49=INITIATOR|52=20231129-08:48:46.725|56=ACCEPTOR|10=153|8=FIXT.1.1|9=62|35=0|34=311|49=INITIATOR|52=20231129-08:48:47.691|56=ACCEPTOR|10=157|8=FIXT.1.1|9=62|35=0|34=312|49=INITIATOR|52=20231129-08:48:48.657|56=ACCEPTOR|10=161|8=FIXT.1.1|9=62|35=0|34=313|49=INITIATOR|52=20231129-08:48:49.621|56=ACCEPTOR|10=154|8=FIXT.1.1|9=62|35=0|34=314|49=INITIATOR|52=20231129-08:48:50.585|56=ACCEPTOR|10=156|8=FIXT.1.1|9=62|35=0|34=315|49=INITIATOR|52=20231129-08:48:51.549|56=ACCEPTOR|10=158|8=FIXT.1.1|9=62|35=0|34=316|49=INITIATOR|52=20231129-08:48:52.511|56=ACCEPTOR|10=149|8=FIXT.1.1|9=62|35=0|34=317|49=INITIATOR|52=20231129-08:48:53.472|56=ACCEPTOR|10=157|8=FIXT.1.1|9=62|35=0|34=318|49=INITIATOR|52=20231129-08:48:54.433|56=ACCEPTOR|10=156|8=FIXT.1.1|9=62|35=0|34=319|49=INITIATOR|52=20231129-08:48:55.393|56=ACCEPTOR|10=163|8=FIXT.1.1|9=62|35=0|34=320|49=INITIATOR|52=20231129-08:48:56.355|56=ACCEPTOR|10=154|8=FIXT.1.1|9=62|35=0|34=321|49=INITIATOR|52=20231129-08:48:57.315|56=ACCEPTOR|10=152|8=FIXT.1.1|9=62|35=0|34=322|49=INITIATOR|52=20231129-08:48:58.273|56=ACCEPTOR|10=157|8=FIXT.1.1|9=62|35=0|34=323|49=INITIATOR|52=20231129-08:48:59.232|56=ACCEPTOR|10=154|8=FIXT.1.1|9=62|35=0|34=324|49=INITIATOR|52=20231129-08:49:00.191|56=ACCEPTOR|10=146|8=FIXT.1.1|9=62|35=0|34=325|49=INITIATOR|52=20231129-08:49:01.148|56=ACCEPTOR|10=150|8=FIXT.1.1|9=62|35=0|34=326|49=INITIATOR|52=20231129-08:49:02.105|56=ACCEPTOR|10=145|8=FIXT.1.1|9=62|35=0|34=327|49=INITIATOR|52=20231129-08:49:03.061|56=ACCEPTOR|10=148|8=FIXT.1.1|9=62|35=0|34=328|49=INITIATOR|52=20231129-08:49:04.018|56=ACCEPTOR|10=152|8=FIXT.1.1|9=62|35=0|34=329|49=INITIATOR|52=20231129-08:49:05.929|56=ACCEPTOR|10=165|8=FIXT.1.1|9=62|35=0|34=330|49=INITIATOR|52=20231129-08:49:06.885|56=ACCEPTOR|10=159|8=FIXT.1.1|9=62|35=0|34=331|49=INITIATOR|52=20231129-08:49:07.839|56=ACCEPTOR|10=160|8=FIXT.1.1|9=62|35=0|34=332|49=INITIATOR|52=20231129-08:49:08.794|56=ACCEPTOR|10=162|8=FIXT.1.1|9=62|35=0|34=333|49=INITIATOR|52=20231129-08:49:09.749|56=ACCEPTOR|10=164|8=FIXT.1.1|9=62|35=0|34=334|49=INITIATOR|52=20231129-08:49:10.702|56=ACCEPTOR|10=146|8=FIXT.1.1|9=62|35=0|34=335|49=INITIATOR|52=20231129-08:49:11.655|56=ACCEPTOR|10=155|8=FIXT.1.1|9=62|35=0|34=336|49=INITIATOR|52=20231129-08:49:12.607|56=ACCEPTOR|10=154|8=FIXT.1.1|9=62|35=0|34=337|49=INITIATOR|52=20231129-08:49:13.558|56=ACCEPTOR|10=161|8=FIXT.1.1|9=62|35=0|34=338|49=INITIATOR|52=20231129-08:49:14.509|56=ACCEPTOR|10=159|8=FIXT.1.1|9=62|35=0|34=339|49=INITIATOR|52=20231129-08:49:15.460|56=ACCEPTOR|10=157|8=FIXT.1.1|9=62|35=0|34=340|49=INITIATOR|52=20231129-08:49:16.409|56=ACCEPTOR|10=153|8=FIXT.1.1|9=62|35=0|34=341|49=INITIATOR|52=20231129-08:49:17.356|56=ACCEPTOR|10=156|8=FIXT.1.1|9=62|35=0|34=342|49=INITIATOR|52=20231129-08:49:18.303|56=ACCEPTOR|10=150|8=FIXT.1.1|9=62|35=0|34=343|49=INITIATOR|52=20231129-08:49:19.249|56=ACCEPTOR|10=161|8=FIXT.1.1|9=62|35=0|34=344|49=INITIATOR|52=20231129-08:49:20.195|56=ACCEPTOR|10=154|8=FIXT.1.1|9=62|35=0|34=345|49=INITIATOR|52=20231129-08:49:21.140|56=ACCEPTOR|10=146|8=FIXT.1.1|9=62|35=0|34=346|49=INITIATOR|52=20231129-08:49:22.085|56=ACCEPTOR|10=156|8=FIXT.1.1|9=62|35=0|34=347|49=INITIATOR|52=20231129-08:49:23.030|56=ACCEPTOR|10=148|8=FIXT.1.1|9=62|35=0|34=348|49=INITIATOR|52=20231129-08:49:24.915|56=ACCEPTOR|10=162|8=FIXT.1.1|9=62|35=0|34=349|49=INITIATOR|52=20231129-08:49:25.857|56=ACCEPTOR|10=169|8=FIXT.1.1|9=62|35=0|34=350|49=INITIATOR|52=20231129-08:49:26.799|56=ACCEPTOR|10=167|8=FIXT.1.1|9=62|35=0|34=351|49=INITIATOR|52=20231129-08:49:27.740|56=ACCEPTOR|10=155|8=FIXT.1.1|9=62|35=0|34=352|49=INITIATOR|52=20231129-08:49:28.680|56=ACCEPTOR|10=160|8=FIXT.1.1|9=62|35=0|34=353|49=INITIATOR|52=20231129-08:49:29.621|56=ACCEPTOR|10=157|8=FIXT.1.1|9=62|35=0|34=354|49=INITIATOR|52=20231129-08:49:30.561|56=ACCEPTOR|10=153|8=FIXT.1.1|9=62|35=0|34=355|49=INITIATOR|52=20231129-08:49:31.500|56=ACCEPTOR|10=148|8=FIXT.1.1|9=62|35=0|34=356|49=INITIATOR|52=20231129-08:49:32.440|56=ACCEPTOR|10=153|8=FIXT.1.1|9=62|35=0|34=357|49=INITIATOR|52=20231129-08:49:33.377|56=ACCEPTOR|10=164|8=FIXT.1.1|9=62|35=0|34=358|49=INITIATOR|52=20231129-08:49:34.315|56=ACCEPTOR|10=158|8=FIXT.1.1|9=62|35=0|34=359|49=INITIATOR|52=20231129-08:49:35.252|56=ACCEPTOR|10=160|8=FIXT.1.1|9=62|35=0|34=360|49=INITIATOR|52=20231129-08:49:36.188|56=ACCEPTOR|10=161|8=FIXT.1.1|9=62|35=0|34=361|49=INITIATOR|52=20231129-08:49:37.124|56=ACCEPTOR|10=153|8=FIXT.1.1|9=62|35=0|34=362|49=INITIATOR|52=20231129-08:49:38.060|56=ACCEPTOR|10=154|8=FIXT.1.1|9=62|35=0|34=363|49=INITIATOR|52=20231129-08:49:39.013|56=ACCEPTOR|10=154|8=FIXT.1.1|9=62|35=0|34=364|49=INITIATOR|52=20231129-08:49:40.880|56=ACCEPTOR|10=159|8=FIXT.1.1|9=62|35=0|34=365|49=INITIATOR|52=20231129-08:49:41.813|56=ACCEPTOR|10=157|8=FIXT.1.1|9=62|35=0|34=366|49=INITIATOR|52=20231129-08:49:42.746|56=ACCEPTOR|10=164|8=FIXT.1.1|9=62|35=0|34=367|49=INITIATOR|52=20231129-08:49:43.677|56=ACCEPTOR|10=169|8=FIXT.1.1|9=62|35=0|34=368|49=INITIATOR|52=20231129-08:49:44.609|56=ACCEPTOR|10=166|8=FIXT.1.1|9=62|35=0|34=369|49=INITIATOR|52=20231129-08:49:45.541|56=ACCEPTOR|10=163|8=FIXT.1.1|9=62|35=0|34=370|49=INITIATOR|52=20231129-08:49:46.471|56=ACCEPTOR|10=158|8=FIXT.1.1|9=62|35=0|34=371|49=INITIATOR|52=20231129-08:49:47.402|56=ACCEPTOR|10=154|8=FIXT.1.1|9=62|35=0|34=372|49=INITIATOR|52=20231129-08:49:48.331|56=ACCEPTOR|10=157|8=FIXT.1.1|9=62|35=0|34=373|49=INITIATOR|52=20231129-08:49:49.261|56=ACCEPTOR|10=161|8=FIXT.1.1|9=62|35=0|34=374|49=INITIATOR|52=20231129-08:49:50.190|56=ACCEPTOR|10=155|8=FIXT.1.1|9=62|35=0|34=375|49=INITIATOR|52=20231129-08:49:51.119|56=ACCEPTOR|10=158|8=FIXT.1.1|9=62|35=0|34=376|49=INITIATOR|52=20231129-08:49:52.047|56=ACCEPTOR|10=160|8=FIXT.1.1|9=62|35=0|34=377|49=INITIATOR|52=20231129-08:49:53.901|56=ACCEPTOR|10=161|8=FIXT.1.1|9=62|35=0|34=378|49=INITIATOR|52=20231129-08:49:54.828|56=ACCEPTOR|10=171|8=FIXT.1.1|9=62|35=0|34=379|49=INITIATOR|52=20231129-08:49:55.753|56=ACCEPTOR|10=170|8=FIXT.1.1|9=62|35=0|34=380|49=INITIATOR|52=20231129-08:49:56.677|56=ACCEPTOR|10=168|8=FIXT.1.1|9=62|35=0|34=381|49=INITIATOR|52=20231129-08:49:57.602|56=ACCEPTOR|10=158|8=FIXT.1.1|9=62|35=0|34=382|49=INITIATOR|52=20231129-08:49:58.525|56=ACCEPTOR|10=164|8=FIXT.1.1|9=62|35=0|34=383|49=INITIATOR|52=20231129-08:49:59.447|56=ACCEPTOR|10=169|8=FIXT.1.1|9=62|35=0|34=384|49=INITIATOR|52=20231129-08:50:00.369|56=ACCEPTOR|10=151|8=FIXT.1.1|9=62|35=0|34=385|49=INITIATOR|52=20231129-08:50:01.289|56=ACCEPTOR|10=154|8=FIXT.1.1|9=62|35=0|34=386|49=INITIATOR|52=20231129-08:50:02.209|56=ACCEPTOR|10=148|8=FIXT.1.1|9=62|35=0|34=387|49=INITIATOR|52=20231129-08:50:03.128|56=ACCEPTOR|10=150|8=FIXT.1.1|9=62|35=0|34=388|49=INITIATOR|52=20231129-08:50:04.046|56=ACCEPTOR|10=151|8=FIXT.1.1|9=62|35=0|34=389|49=INITIATOR|52=20231129-08:50:05.880|56=ACCEPTOR|10=159|8=FIXT.1.1|9=62|35=0|34=390|49=INITIATOR|52=20231129-08:50:06.796|56=ACCEPTOR|10=158|8=FIXT.1.1|9=62|35=0|34=391|49=INITIATOR|52=20231129-08:50:07.712|56=ACCEPTOR|10=148|8=FIXT.1.1|9=62|35=0|34=392|49=INITIATOR|52=20231129-08:50:08.627|56=ACCEPTOR|10=155|8=FIXT.1.1|9=62|35=0|34=393|49=INITIATOR|52=20231129-08:50:09.541|56=ACCEPTOR|10=152|8=FIXT.1.1|9=62|35=0|34=394|49=INITIATOR|52=20231129-08:50:10.454|56=ACCEPTOR|10=148|8=FIXT.1.1|9=62|35=0|34=395|49=INITIATOR|52=20231129-08:50:11.369|56=ACCEPTOR|10=155|8=FIXT.1.1|9=62|35=0|34=396|49=INITIATOR|52=20231129-08:50:12.281|56=ACCEPTOR|10=150|8=FIXT.1.1|9=62|35=0|34=397|49=INITIATOR|52=20231129-08:50:13.193|56=ACCEPTOR|10=154|8=FIXT.1.1|9=62|35=0|34=398|49=INITIATOR|52=20231129-08:50:14.104|56=ACCEPTOR|10=148|8=FIXT.1.1|9=62|35=0|34=399|49=INITIATOR|52=20231129-08:50:15.015|56=ACCEPTOR|10=151|8=FIXT.1.1|9=62|35=0|34=400|49=INITIATOR|52=20231129-08:50:16.834|56=ACCEPTOR|10=144|8=FIXT.1.1|9=62|35=0|34=401|49=INITIATOR|52=20231129-08:50:17.743|56=ACCEPTOR|10=145|8=FIXT.1.1|9=62|35=0|34=402|49=INITIATOR|52=20231129-08:50:18.652|56=ACCEPTOR|10=146|8=FIXT.1.1|9=62|35=0|34=403|49=INITIATOR|52=20231129-08:50:19.559|56=ACCEPTOR|10=154|8=FIXT.1.1|9=62|35=0|34=404|49=INITIATOR|52=20231129-08:50:20.467|56=ACCEPTOR|10=145|8=FIXT.1.1|9=62|35=0|34=405|49=INITIATOR|52=20231129-08:50:21.374|56=ACCEPTOR|10=144|8=FIXT.1.1|9=62|35=0|34=406|49=INITIATOR|52=20231129-08:50:22.280|56=ACCEPTOR|10=142|8=FIXT.1.1|9=62|35=0|34=407|49=INITIATOR|52=20231129-08:50:23.187|56=ACCEPTOR|10=150|8=FIXT.1.1|9=62|35=0|34=408|49=INITIATOR|52=20231129-08:50:24.093|56=ACCEPTOR|10=148|8=FIXT.1.1|9=62|35=0|34=409|49=INITIATOR|52=20231129-08:50:25.024|56=ACCEPTOR|10=144|8=FIXT.1.1|9=62|35=0|34=410|49=INITIATOR|52=20231129-08:50:26.831|56=ACCEPTOR|10=143|8=FIXT.1.1|9=62|35=0|34=411|49=INITIATOR|52=20231129-08:50:27.735|56=ACCEPTOR|10=148|8=FIXT.1.1|9=62|35=0|34=412|49=INITIATOR|52=20231129-08:50:28.638|56=ACCEPTOR|10=152|8=FIXT.1.1|9=62|35=0|34=413|49=INITIATOR|52=20231129-08:50:29.541|56=ACCEPTOR|10=147|8=FIXT.1.1|9=62|35=0|34=414|49=INITIATOR|52=20231129-08:50:30.442|56=ACCEPTOR|10=140|8=FIXT.1.1|9=62|35=0|34=415|49=INITIATOR|52=20231129-08:50:31.344|56=ACCEPTOR|10=143|8=FIXT.1.1|9=62|35=0|34=416|49=INITIATOR|52=20231129-08:50:32.246|56=ACCEPTOR|10=146|8=FIXT.1.1|9=62|35=0|34=417|49=INITIATOR|52=20231129-08:50:33.146|56=ACCEPTOR|10=147|8=FIXT.1.1|9=62|35=0|34=418|49=INITIATOR|52=20231129-08:50:34.045|56=ACCEPTOR|10=147|8=FIXT.1.1|9=62|35=0|34=419|49=INITIATOR|52=20231129-08:50:35.841|56=ACCEPTOR|10=153|8=FIXT.1.1|9=62|35=0|34=420|49=INITIATOR|52=20231129-08:50:36.738|56=ACCEPTOR|10=151|8=FIXT.1.1|9=62|35=0|34=421|49=INITIATOR|52=20231129-08:50:37.636|56=ACCEPTOR|10=150|8=FIXT.1.1|9=62|35=0|34=422|49=INITIATOR|52=20231129-08:50:38.534|56=ACCEPTOR|10=149|8=FIXT.1.1|9=62|35=0|34=423|49=INITIATOR|52=20231129-08:50:39.431|56=ACCEPTOR|10=147|8=FIXT.1.1|9=62|35=0|34=424|49=INITIATOR|52=20231129-08:50:40.327|56=ACCEPTOR|10=144|8=FIXT.1.1|9=62|35=0|34=425|49=INITIATOR|52=20231129-08:50:41.223|56=ACCEPTOR|10=141|8=FIXT.1.1|9=62|35=0|34=426|49=INITIATOR|52=20231129-08:50:42.118|56=ACCEPTOR|10=146|8=FIXT.1.1|9=62|35=0|34=427|49=INITIATOR|52=20231129-08:50:43.012|56=ACCEPTOR|10=141|8=FIXT.1.1|9=62|35=0|34=428|49=INITIATOR|52=20231129-08:50:44.798|56=ACCEPTOR|10=164|8=FIXT.1.1|9=62|35=0|34=429|49=INITIATOR|52=20231129-08:50:45.691|56=ACCEPTOR|10=158|8=FIXT.1.1|9=62|35=0|34=430|49=INITIATOR|52=20231129-08:50:46.584|56=ACCEPTOR|10=152|8=FIXT.1.1|9=62|35=0|34=431|49=INITIATOR|52=20231129-08:50:47.476|56=ACCEPTOR|10=154|8=FIXT.1.1|9=62|35=0|34=432|49=INITIATOR|52=20231129-08:50:48.368|56=ACCEPTOR|10=156|8=FIXT.1.1|9=62|35=0|34=433|49=INITIATOR|52=20231129-08:50:49.260|56=ACCEPTOR|10=149|8=FIXT.1.1|9=62|35=0|34=434|49=INITIATOR|52=20231129-08:50:50.151|56=ACCEPTOR|10=141|8=FIXT.1.1|9=62|35=0|34=435|49=INITIATOR|52=20231129-08:50:51.041|56=ACCEPTOR|10=141|8=FIXT.1.1|9=62|35=0|34=436|49=INITIATOR|52=20231129-08:50:52.820|56=ACCEPTOR|10=148|8=FIXT.1.1|9=62|35=0|34=437|49=INITIATOR|52=20231129-08:50:53.710|56=ACCEPTOR|10=148|8=FIXT.1.1|9=62|35=0|34=438|49=INITIATOR|52=20231129-08:50:54.600|56=ACCEPTOR|10=148|8=FIXT.1.1|9=62|35=0|34=439|49=INITIATOR|52=20231129-08:50:55.488|56=ACCEPTOR|10=164|8=FIXT.1.1|9=62|35=0|34=440|49=INITIATOR|52=20231129-08:50:56.375|56=ACCEPTOR|10=152|8=FIXT.1.1|9=62|35=0|34=441|49=INITIATOR|52=20231129-08:50:57.271|56=ACCEPTOR|10=149|8=FIXT.1.1|9=62|35=0|34=442|49=INITIATOR|52=20231129-08:50:58.158|56=ACCEPTOR|10=155|8=FIXT.1.1|9=62|35=0|34=443|49=INITIATOR|52=20231129-08:50:59.042|56=ACCEPTOR|10=149|8=FIXT.1.1|9=62|35=0|34=444|49=INITIATOR|52=20231129-08:51:00.809|56=ACCEPTOR|10=148|8=FIXT.1.1|9=62|35=0|34=445|49=INITIATOR|52=20231129-08:51:01.693|56=ACCEPTOR|10=151|8=FIXT.1.1|9=62|35=0|34=446|49=INITIATOR|52=20231129-08:51:02.576|56=ACCEPTOR|10=153|8=FIXT.1.1|9=62|35=0|34=447|49=INITIATOR|52=20231129-08:51:03.458|56=ACCEPTOR|10=154|8=FIXT.1.1|9=62|35=0|34=448|49=INITIATOR|52=20231129-08:51:04.338|56=ACCEPTOR|10=153|8=FIXT.1.1|9=62|35=0|34=449|49=INITIATOR|52=20231129-08:51:05.218|56=ACCEPTOR|10=152|8=FIXT.1.1|9=62|35=0|34=450|49=INITIATOR|52=20231129-08:51:06.096|56=ACCEPTOR|10=149|8=FIXT.1.1|9=62|35=0|34=451|49=INITIATOR|52=20231129-08:51:07.004|56=ACCEPTOR|10=140|8=FIXT.1.1|9=62|35=0|34=452|49=INITIATOR|52=20231129-08:51:08.755|56=ACCEPTOR|10=155|8=FIXT.1.1|9=62|35=0|34=453|49=INITIATOR|52=20231129-08:51:09.630|56=ACCEPTOR|10=149|8=FIXT.1.1|9=62|35=0|34=454|49=INITIATOR|52=20231129-08:51:10.504|56=ACCEPTOR|10=142|8=FIXT.1.1|9=62|35=0|34=455|49=INITIATOR|52=20231129-08:51:11.379|56=ACCEPTOR|10=154|8=FIXT.1.1|9=62|35=0|34=456|49=INITIATOR|52=20231129-08:51:12.251|56=ACCEPTOR|10=145|8=FIXT.1.1|9=62|35=0|34=457|49=INITIATOR|52=20231129-08:51:13.124|56=ACCEPTOR|10=146|8=FIXT.1.1|9=62|35=0|34=458|49=INITIATOR|52=20231129-08:51:14.027|56=ACCEPTOR|10=150|8=FIXT.1.1|9=62|35=0|34=459|49=INITIATOR|52=20231129-08:51:15.769|56=ACCEPTOR|10=165|8=FIXT.1.1|9=62|35=0|34=460|49=INITIATOR|52=20231129-08:51:16.639|56=ACCEPTOR|10=154|8=FIXT.1.1|9=62|35=0|34=461|49=INITIATOR|52=20231129-08:51:17.511|56=ACCEPTOR|10=145|8=FIXT.1.1|9=62|35=0|34=462|49=INITIATOR|52=20231129-08:51:18.381|56=ACCEPTOR|10=152|8=FIXT.1.1|9=62|35=0|34=463|49=INITIATOR|52=20231129-08:51:19.250|56=ACCEPTOR|10=149|8=FIXT.1.1|9=62|35=0|34=464|49=INITIATOR|52=20231129-08:51:20.118|56=ACCEPTOR|10=145|8=FIXT.1.1|9=62|35=0|34=465|49=INITIATOR|52=20231129-08:51:21.017|56=ACCEPTOR|10=145|8=FIXT.1.1|9=62|35=0|34=466|49=INITIATOR|52=20231129-08:51:22.751|56=ACCEPTOR|10=152|8=FIXT.1.1|9=62|35=0|34=467|49=INITIATOR|52=20231129-08:51:23.617|56=ACCEPTOR|10=155|8=FIXT.1.1|9=62|35=0|34=468|49=INITIATOR|52=20231129-08:51:24.483|56=ACCEPTOR|10=158|8=FIXT.1.1|9=62|35=0|34=469|49=INITIATOR|52=20231129-08:51:25.348|56=ACCEPTOR|10=160|8=FIXT.1.1|9=62|35=0|34=470|49=INITIATOR|52=20231129-08:51:26.212|56=ACCEPTOR|10=143|8=FIXT.1.1|9=62|35=0|34=471|49=INITIATOR|52=20231129-08:51:27.076|56=ACCEPTOR|10=153|8=FIXT.1.1|9=62|35=0|34=472|49=INITIATOR|52=20231129-08:51:28.801|56=ACCEPTOR|10=151|8=FIXT.1.1|9=62|35=0|34=473|49=INITIATOR|52=20231129-08:51:29.664|56=ACCEPTOR|10=160|8=FIXT.1.1|9=62|35=0|34=474|49=INITIATOR|52=20231129-08:51:30.526|56=ACCEPTOR|10=150|8=FIXT.1.1|9=62|35=0|34=475|49=INITIATOR|52=20231129-08:51:31.386|56=ACCEPTOR|10=156|8=FIXT.1.1|9=62|35=0|34=476|49=INITIATOR|52=20231129-08:51:32.245|56=ACCEPTOR|10=152|8=FIXT.1.1|9=62|35=0|34=477|49=INITIATOR|52=20231129-08:51:33.104|56=ACCEPTOR|10=148|8=FIXT.1.1|9=62|35=0|34=478|49=INITIATOR|52=20231129-08:51:34.820|56=ACCEPTOR|10=155|8=FIXT.1.1|9=62|35=0|34=479|49=INITIATOR|52=20231129-08:51:35.677|56=ACCEPTOR|10=167|8=FIXT.1.1|9=62|35=0|34=480|49=INITIATOR|52=20231129-08:51:36.533|56=ACCEPTOR|10=151|8=FIXT.1.1|9=62|35=0|34=481|49=INITIATOR|52=20231129-08:51:37.389|56=ACCEPTOR|10=162|8=FIXT.1.1|9=62|35=0|34=482|49=INITIATOR|52=20231129-08:51:38.243|56=ACCEPTOR|10=153|8=FIXT.1.1|9=62|35=0|34=483|49=INITIATOR|52=20231129-08:51:39.099|56=ACCEPTOR|10=164|8=FIXT.1.1|9=62|35=0|34=484|49=INITIATOR|52=20231129-08:51:40.806|56=ACCEPTOR|10=153|8=FIXT.1.1|9=62|35=0|34=485|49=INITIATOR|52=20231129-08:51:41.659|56=ACCEPTOR|10=161|8=FIXT.1.1|9=62|35=0|34=486|49=INITIATOR|52=20231129-08:51:42.512|56=ACCEPTOR|10=151|8=FIXT.1.1|9=62|35=0|34=487|49=INITIATOR|52=20231129-08:51:43.363|56=ACCEPTOR|10=157|8=FIXT.1.1|9=62|35=0|34=488|49=INITIATOR|52=20231129-08:51:44.215|56=ACCEPTOR|10=155|8=FIXT.1.1|9=62|35=0|34=489|49=INITIATOR|52=20231129-08:51:45.067|56=ACCEPTOR|10=162|8=FIXT.1.1|9=62|35=0|34=490|49=INITIATOR|52=20231129-08:51:46.767|56=ACCEPTOR|10=162|8=FIXT.1.1|9=62|35=0|34=491|49=INITIATOR|52=20231129-08:51:47.616|56=ACCEPTOR|10=157|8=FIXT.1.1|9=62|35=0|34=492|49=INITIATOR|52=20231129-08:51:48.463|56=ACCEPTOR|10=159|8=FIXT.1.1|9=62|35=0|34=493|49=INITIATOR|52=20231129-08:51:49.311|56=ACCEPTOR|10=153|8=FIXT.1.1|9=62|35=0|34=494|49=INITIATOR|52=20231129-08:51:50.157|56=ACCEPTOR|10=154|8=FIXT.1.1|9=62|35=0|34=495|49=INITIATOR|52=20231129-08:51:51.004|56=ACCEPTOR|10=147|8=FIXT.1.1|9=62|35=0|34=496|49=INITIATOR|52=20231129-08:51:52.695|56=ACCEPTOR|10=165|8=FIXT.1.1|9=62|35=0|34=497|49=INITIATOR|52=20231129-08:51:53.539|56=ACCEPTOR|10=164|8=FIXT.1.1|9=62|35=0|34=498|49=INITIATOR|52=20231129-08:51:54.384|56=ACCEPTOR|10=164|8=FIXT.1.1|9=62|35=0|34=499|49=INITIATOR|52=20231129-08:51:55.228|56=ACCEPTOR|10=163|8=FIXT.1.1|9=62|35=0|34=500|49=INITIATOR|52=20231129-08:51:56.072|56=ACCEPTOR|10=144|8=FIXT.1.1|9=62|35=0|34=501|49=INITIATOR|52=20231129-08:51:57.757|56=ACCEPTOR|10=156|8=FIXT.1.1|9=62|35=0|34=502|49=INITIATOR|52=20231129-08:51:58.600|56=ACCEPTOR|10=145|8=FIXT.1.1|9=62|35=0|34=503|49=INITIATOR|52=20231129-08:51:59.442|56=ACCEPTOR|10=151|8=FIXT.1.1|9=62|35=0|34=504|49=INITIATOR|52=20231129-08:52:00.283|56=ACCEPTOR|10=142|8=FIXT.1.1|9=62|35=0|34=505|49=INITIATOR|52=20231129-08:52:01.125|56=ACCEPTOR|10=139|8=FIXT.1.1|9=62|35=0|34=506|49=INITIATOR|52=20231129-08:52:02.002|56=ACCEPTOR|10=135|8=FIXT.1.1|9=62|35=0|34=507|49=INITIATOR|52=20231129-08:52:03.680|56=ACCEPTOR|10=149|8=FIXT.1.1|9=62|35=0|34=508|49=INITIATOR|52=20231129-08:52:04.519|56=ACCEPTOR|10=152|8=FIXT.1.1|9=62|35=0|34=509|49=INITIATOR|52=20231129-08:52:05.357|56=ACCEPTOR|10=154|8=FIXT.1.1|9=62|35=0|34=510|49=INITIATOR|52=20231129-08:52:06.193|56=ACCEPTOR|10=145|8=FIXT.1.1|9=62|35=0|34=511|49=INITIATOR|52=20231129-08:52:07.028|56=ACCEPTOR|10=144|8=FIXT.1.1|9=62|35=0|34=512|49=INITIATOR|52=20231129-08:52:08.696|56=ACCEPTOR|10=157|8=FIXT.1.1|9=62|35=0|34=513|49=INITIATOR|52=20231129-08:52:09.529|56=ACCEPTOR|10=154|8=FIXT.1.1|9=62|35=0|34=514|49=INITIATOR|52=20231129-08:52:10.363|56=ACCEPTOR|10=143|8=FIXT.1.1|9=62|35=0|34=515|49=INITIATOR|52=20231129-08:52:11.197|56=ACCEPTOR|10=150|8=FIXT.1.1|9=62|35=0|34=516|49=INITIATOR|52=20231129-08:52:12.029|56=ACCEPTOR|10=146|8=FIXT.1.1|9=62|35=0|34=517|49=INITIATOR|52=20231129-08:52:13.690|56=ACCEPTOR|10=152|8=FIXT.1.1|9=62|35=0|34=518|49=INITIATOR|52=20231129-08:52:14.520|56=ACCEPTOR|10=146|8=FIXT.1.1|9=62|35=0|34=519|49=INITIATOR|52=20231129-08:52:15.351|56=ACCEPTOR|10=150|8=FIXT.1.1|9=62|35=0|34=520|49=INITIATOR|52=20231129-08:52:16.180|56=ACCEPTOR|10=143|8=FIXT.1.1|9=62|35=0|34=521|49=INITIATOR|52=20231129-08:52:17.008|56=ACCEPTOR|10=144|8=FIXT.1.1|9=62|35=0|34=522|49=INITIATOR|52=20231129-08:52:18.661|56=ACCEPTOR|10=151|8=FIXT.1.1|9=62|35=0|34=523|49=INITIATOR|52=20231129-08:52:19.487|56=ACCEPTOR|10=159|8=FIXT.1.1|9=62|35=0|34=524|49=INITIATOR|52=20231129-08:52:20.313|56=ACCEPTOR|10=140|8=FIXT.1.1|9=62|35=0|34=525|49=INITIATOR|52=20231129-08:52:21.138|56=ACCEPTOR|10=147|8=FIXT.1.1|9=62|35=0|34=526|49=INITIATOR|52=20231129-08:52:22.005|56=ACCEPTOR|10=142|8=FIXT.1.1|9=62|35=0|34=527|49=INITIATOR|52=20231129-08:52:23.654|56=ACCEPTOR|10=154|8=FIXT.1.1|9=62|35=0|34=528|49=INITIATOR|52=20231129-08:52:24.478|56=ACCEPTOR|10=160|8=FIXT.1.1|9=62|35=0|34=529|49=INITIATOR|52=20231129-08:52:25.302|56=ACCEPTOR|10=148|8=FIXT.1.1|9=62|35=0|34=530|49=INITIATOR|52=20231129-08:52:26.124|56=ACCEPTOR|10=143|8=FIXT.1.1|9=62|35=0|34=531|49=INITIATOR|52=20231129-08:52:27.769|56=ACCEPTOR|10=160|8=FIXT.1.1|9=62|35=0|34=532|49=INITIATOR|52=20231129-08:52:28.590|56=ACCEPTOR|10=154|8=FIXT.1.1|9=62|35=0|34=533|49=INITIATOR|52=20231129-08:52:29.411|56=ACCEPTOR|10=148|8=FIXT.1.1|9=62|35=0|34=534|49=INITIATOR|52=20231129-08:52:30.232|56=ACCEPTOR|10=142|8=FIXT.1.1|9=62|35=0|34=535|49=INITIATOR|52=20231129-08:52:31.052|56=ACCEPTOR|10=144|8=FIXT.1.1|9=62|35=0|34=536|49=INITIATOR|52=20231129-08:52:32.689|56=ACCEPTOR|10=162|8=FIXT.1.1|9=62|35=0|34=537|49=INITIATOR|52=20231129-08:52:33.507|56=ACCEPTOR|10=153|8=FIXT.1.1|9=62|35=0|34=538|49=INITIATOR|52=20231129-08:52:34.326|56=ACCEPTOR|10=154|8=FIXT.1.1|9=62|35=0|34=539|49=INITIATOR|52=20231129-08:52:35.143|56=ACCEPTOR|10=153|8=FIXT.1.1|9=62|35=0|34=540|49=INITIATOR|52=20231129-08:52:36.002|56=ACCEPTOR|10=140|8=FIXT.1.1|9=62|35=0|34=541|49=INITIATOR|52=20231129-08:52:37.633|56=ACCEPTOR|10=152|8=FIXT.1.1|9=62|35=0|34=542|49=INITIATOR|52=20231129-08:52:38.447|56=ACCEPTOR|10=157|8=FIXT.1.1|9=62|35=0|34=543|49=INITIATOR|52=20231129-08:52:39.260|56=ACCEPTOR|10=152|8=FIXT.1.1|9=62|35=0|34=544|49=INITIATOR|52=20231129-08:52:40.072|56=ACCEPTOR|10=146|8=FIXT.1.1|9=62|35=0|34=545|49=INITIATOR|52=20231129-08:52:41.690|56=ACCEPTOR|10=154|8=FIXT.1.1|9=62|35=0|34=546|49=INITIATOR|52=20231129-08:52:42.500|56=ACCEPTOR|10=146|8=FIXT.1.1|9=62|35=0|34=547|49=INITIATOR|52=20231129-08:52:43.309|56=ACCEPTOR|10=155|8=FIXT.1.1|9=62|35=0|34=548|49=INITIATOR|52=20231129-08:52:44.117|56=ACCEPTOR|10=154|8=FIXT.1.1|9=62|35=0|34=549|49=INITIATOR|52=20231129-08:52:45.734|56=ACCEPTOR|10=161|8=FIXT.1.1|9=62|35=0|34=550|49=INITIATOR|52=20231129-08:52:46.542|56=ACCEPTOR|10=151|8=FIXT.1.1|9=62|35=0|34=551|49=INITIATOR|52=20231129-08:52:47.350|56=ACCEPTOR|10=150|8=FIXT.1.1|9=62|35=0|34=552|49=INITIATOR|52=20231129-08:52:48.158|56=ACCEPTOR|10=158|8=FIXT.1.1|9=62|35=0|34=553|49=INITIATOR|52=20231129-08:52:49.010|56=ACCEPTOR|10=147|8=FIXT.1.1|9=62|35=0|34=554|49=INITIATOR|52=20231129-08:52:50.624|56=ACCEPTOR|10=151|8=FIXT.1.1|9=62|35=0|34=555|49=INITIATOR|52=20231129-08:52:51.430|56=ACCEPTOR|10=148|8=FIXT.1.1|9=62|35=0|34=556|49=INITIATOR|52=20231129-08:52:52.237|56=ACCEPTOR|10=155|8=FIXT.1.1|9=62|35=0|34=557|49=INITIATOR|52=20231129-08:52:53.043|56=ACCEPTOR|10=152|8=FIXT.1.1|9=62|35=0|34=558|49=INITIATOR|52=20231129-08:52:54.654|56=ACCEPTOR|10=162|8=FIXT.1.1|9=62|35=0|34=559|49=INITIATOR|52=20231129-08:52:55.459|56=ACCEPTOR|10=167|8=FIXT.1.1|9=62|35=0|34=560|49=INITIATOR|52=20231129-08:52:56.264|56=ACCEPTOR|10=154|8=FIXT.1.1|9=62|35=0|34=561|49=INITIATOR|52=20231129-08:52:57.069|56=ACCEPTOR|10=159|8=FIXT.1.1|9=62|35=0|34=562|49=INITIATOR|52=20231129-08:52:58.674|56=ACCEPTOR|10=163|8=FIXT.1.1|9=62|35=0|34=563|49=INITIATOR|52=20231129-08:52:59.476|56=ACCEPTOR|10=165|8=FIXT.1.1|9=62|35=0|34=564|49=INITIATOR|52=20231129-08:53:00.278|56=ACCEPTOR|10=153|8=FIXT.1.1|9=62|35=0|34=565|49=INITIATOR|52=20231129-08:53:01.078|56=ACCEPTOR|10=153|8=FIXT.1.1|9=62|35=0|34=566|49=INITIATOR|52=20231129-08:53:02.675|56=ACCEPTOR|10=158|8=FIXT.1.1|9=62|35=0|34=567|49=INITIATOR|52=20231129-08:53:03.474|56=ACCEPTOR|10=157|8=FIXT.1.1|9=62|35=0|34=568|49=INITIATOR|52=20231129-08:53:04.273|56=ACCEPTOR|10=156|8=FIXT.1.1|9=62|35=0|34=569|49=INITIATOR|52=20231129-08:53:05.071|56=ACCEPTOR|10=154|8=FIXT.1.1|9=62|35=0|34=570|49=INITIATOR|52=20231129-08:53:06.664|56=ACCEPTOR|10=155|8=FIXT.1.1|9=62|35=0|34=571|49=INITIATOR|52=20231129-08:53:07.460|56=ACCEPTOR|10=151|8=FIXT.1.1|9=62|35=0|34=572|49=INITIATOR|52=20231129-08:53:08.255|56=ACCEPTOR|10=155|8=FIXT.1.1|9=62|35=0|34=573|49=INITIATOR|52=20231129-08:53:09.051|56=ACCEPTOR|10=151|8=FIXT.1.1|9=62|35=0|34=574|49=INITIATOR|52=20231129-08:53:10.637|56=ACCEPTOR|10=154|8=FIXT.1.1|9=62|35=0|34=575|49=INITIATOR|52=20231129-08:53:11.430|56=ACCEPTOR|10=147|8=FIXT.1.1|9=62|35=0|34=576|49=INITIATOR|52=20231129-08:53:12.221|56=ACCEPTOR|10=147|8=FIXT.1.1|9=62|35=0|34=577|49=INITIATOR|52=20231129-08:53:13.012|56=ACCEPTOR|10=147|8=FIXT.1.1|9=62|35=0|34=578|49=INITIATOR|52=20231129-08:53:14.590|56=ACCEPTOR|10=160|8=FIXT.1.1|9=62|35=0|34=579|49=INITIATOR|52=20231129-08:53:15.378|56=ACCEPTOR|10=166|8=FIXT.1.1|9=62|35=0|34=580|49=INITIATOR|52=20231129-08:53:16.166|56=ACCEPTOR|10=154|8=FIXT.1.1|9=62|35=0|34=581|49=INITIATOR|52=20231129-08:53:17.002|56=ACCEPTOR|10=145|8=FIXT.1.1|9=62|35=0|34=582|49=INITIATOR|52=20231129-08:53:18.574|56=ACCEPTOR|10=161|8=FIXT.1.1|9=62|35=0|34=583|49=INITIATOR|52=20231129-08:53:19.360|56=ACCEPTOR|10=156|8=FIXT.1.1|9=62|35=0|34=584|49=INITIATOR|52=20231129-08:53:20.144|56=ACCEPTOR|10=149|8=FIXT.1.1|9=62|35=0|34=585|49=INITIATOR|52=20231129-08:53:21.709|56=ACCEPTOR|10=158|8=FIXT.1.1|9=62|35=0|34=586|49=INITIATOR|52=20231129-08:53:22.492|56=ACCEPTOR|10=159|8=FIXT.1.1|9=62|35=0|34=587|49=INITIATOR|52=20231129-08:53:23.273|56=ACCEPTOR|10=158|8=FIXT.1.1|9=62|35=0|34=588|49=INITIATOR|52=20231129-08:53:24.055|56=ACCEPTOR|10=158|8=FIXT.1.1|9=62|35=0|34=589|49=INITIATOR|52=20231129-08:53:25.616|56=ACCEPTOR|10=163|8=FIXT.1.1|9=62|35=0|34=590|49=INITIATOR|52=20231129-08:53:26.396|56=ACCEPTOR|10=161|8=FIXT.1.1|9=62|35=0|34=591|49=INITIATOR|52=20231129-08:53:27.176|56=ACCEPTOR|10=159|8=FIXT.1.1|9=62|35=0|34=592|49=INITIATOR|52=20231129-08:53:28.006|56=ACCEPTOR|10=153|8=FIXT.1.1|9=62|35=0|34=593|49=INITIATOR|52=20231129-08:53:29.564|56=ACCEPTOR|10=164|8=FIXT.1.1|9=62|35=0|34=594|49=INITIATOR|52=20231129-08:53:30.342|56=ACCEPTOR|10=151|8=FIXT.1.1|9=62|35=0|34=595|49=INITIATOR|52=20231129-08:53:31.121|56=ACCEPTOR|10=148|8=FIXT.1.1|9=62|35=0|34=596|49=INITIATOR|52=20231129-08:53:32.674|56=ACCEPTOR|10=163|8=FIXT.1.1|9=62|35=0|34=597|49=INITIATOR|52=20231129-08:53:33.451|56=ACCEPTOR|10=158|8=FIXT.1.1|9=62|35=0|34=598|49=INITIATOR|52=20231129-08:53:34.226|56=ACCEPTOR|10=160|8=FIXT.1.1|9=62|35=0|34=599|49=INITIATOR|52=20231129-08:53:35.050|56=ACCEPTOR|10=157|8=FIXT.1.1|9=62|35=0|34=600|49=INITIATOR|52=20231129-08:53:36.596|56=ACCEPTOR|10=156|8=FIXT.1.1|9=62|35=0|34=601|49=INITIATOR|52=20231129-08:53:37.368|56=ACCEPTOR|10=155|8=FIXT.1.1|9=62|35=0|34=602|49=INITIATOR|52=20231129-08:53:38.139|56=ACCEPTOR|10=153|8=FIXT.1.1|9=62|35=0|34=603|49=INITIATOR|52=20231129-08:53:39.683|56=ACCEPTOR|10=159|8=FIXT.1.1|9=62|35=0|34=604|49=INITIATOR|52=20231129-08:53:40.454|56=ACCEPTOR|10=148|8=FIXT.1.1|9=62|35=0|34=605|49=INITIATOR|52=20231129-08:53:41.224|56=ACCEPTOR|10=145|8=FIXT.1.1|9=62|35=0|34=606|49=INITIATOR|52=20231129-08:53:42.044|56=ACCEPTOR|10=147|8=FIXT.1.1|9=62|35=0|34=607|49=INITIATOR|52=20231129-08:53:43.582|56=ACCEPTOR|10=156|8=FIXT.1.1|9=62|35=0|34=608|49=INITIATOR|52=20231129-08:53:44.349|56=ACCEPTOR|10=159|8=FIXT.1.1|9=62|35=0|34=609|49=INITIATOR|52=20231129-08:53:45.115|56=ACCEPTOR|10=152|8=FIXT.1.1|9=62|35=0|34=610|49=INITIATOR|52=20231129-08:53:46.648|56=ACCEPTOR|10=156|8=FIXT.1.1|9=62|35=0|34=611|49=INITIATOR|52=20231129-08:53:47.415|56=ACCEPTOR|10=150|8=FIXT.1.1|9=62|35=0|34=612|49=INITIATOR|52=20231129-08:53:48.180|56=ACCEPTOR|10=151|8=FIXT.1.1|9=62|35=0|34=613|49=INITIATOR|52=20231129-08:53:49.707|56=ACCEPTOR|10=158|8=FIXT.1.1|9=62|35=0|34=614|49=INITIATOR|52=20231129-08:53:50.471|56=ACCEPTOR|10=149|8=FIXT.1.1|9=62|35=0|34=615|49=INITIATOR|52=20231129-08:53:51.235|56=ACCEPTOR|10=149|8=FIXT.1.1|9=62|35=0|34=616|49=INITIATOR|52=20231129-08:53:52.049|56=ACCEPTOR|10=154|8=FIXT.1.1|9=62|35=0|34=617|49=INITIATOR|52=20231129-08:53:53.573|56=ACCEPTOR|10=158|8=FIXT.1.1|9=62|35=0|34=618|49=INITIATOR|52=20231129-08:53:54.335|56=ACCEPTOR|10=156|8=FIXT.1.1|9=62|35=0|34=619|49=INITIATOR|52=20231129-08:53:55.094|56=ACCEPTOR|10=160|8=FIXT.1.1|9=62|35=0|34=620|49=INITIATOR|52=20231129-08:53:56.611|56=ACCEPTOR|10=148|8=FIXT.1.1|9=62|35=0|34=621|49=INITIATOR|52=20231129-08:53:57.369|56=ACCEPTOR|10=160|8=FIXT.1.1|9=62|35=0|34=622|49=INITIATOR|52=20231129-08:53:58.126|56=ACCEPTOR|10=153|8=FIXT.1.1|9=62|35=0|34=623|49=INITIATOR|52=20231129-08:53:59.638|56=ACCEPTOR|10=163|8=FIXT.1.1|9=62|35=0|34=624|49=INITIATOR|52=20231129-08:54:00.393|56=ACCEPTOR|10=149|8=FIXT.1.1|9=62|35=0|34=625|49=INITIATOR|52=20231129-08:54:01.148|56=ACCEPTOR|10=149|8=FIXT.1.1|9=62|35=0|34=626|49=INITIATOR|52=20231129-08:54:02.654|56=ACCEPTOR|10=153|8=FIXT.1.1|9=62|35=0|34=627|49=INITIATOR|52=20231129-08:54:03.407|56=ACCEPTOR|10=151|8=FIXT.1.1|9=62|35=0|34=628|49=INITIATOR|52=20231129-08:54:04.159|56=ACCEPTOR|10=157|8=FIXT.1.1|9=62|35=0|34=629|49=INITIATOR|52=20231129-08:54:05.657|56=ACCEPTOR|10=162|8=FIXT.1.1|9=62|35=0|34=630|49=INITIATOR|52=20231129-08:54:06.406|56=ACCEPTOR|10=147|8=FIXT.1.1|9=62|35=0|34=631|49=INITIATOR|52=20231129-08:54:07.154|56=ACCEPTOR|10=149|8=FIXT.1.1|9=62|35=0|34=632|49=INITIATOR|52=20231129-08:54:08.645|56=ACCEPTOR|10=156|8=FIXT.1.1|9=62|35=0|34=633|49=INITIATOR|52=20231129-08:54:09.390|56=ACCEPTOR|10=155|8=FIXT.1.1|9=62|35=0|34=634|49=INITIATOR|52=20231129-08:54:10.135|56=ACCEPTOR|10=145|8=FIXT.1.1|9=62|35=0|34=635|49=INITIATOR|52=20231129-08:54:11.621|56=ACCEPTOR|10=147|8=FIXT.1.1|9=62|35=0|34=636|49=INITIATOR|52=20231129-08:54:12.365|56=ACCEPTOR|10=154|8=FIXT.1.1|9=62|35=0|34=637|49=INITIATOR|52=20231129-08:54:13.108|56=ACCEPTOR|10=151|8=FIXT.1.1|9=62|35=0|34=638|49=INITIATOR|52=20231129-08:54:14.591|56=ACCEPTOR|10=159|8=FIXT.1.1|9=62|35=0|34=639|49=INITIATOR|52=20231129-08:54:15.333|56=ACCEPTOR|10=155|8=FIXT.1.1|9=62|35=0|34=640|49=INITIATOR|52=20231129-08:54:16.073|56=ACCEPTOR|10=149|8=FIXT.1.1|9=62|35=0|34=641|49=INITIATOR|52=20231129-08:54:17.550|56=ACCEPTOR|10=151|8=FIXT.1.1|9=62|35=0|34=642|49=INITIATOR|52=20231129-08:54:18.289|56=ACCEPTOR|10=162|8=FIXT.1.1|9=62|35=0|34=643|49=INITIATOR|52=20231129-08:54:19.026|56=ACCEPTOR|10=153|8=FIXT.1.1|9=62|35=0|34=644|49=INITIATOR|52=20231129-08:54:20.499|56=ACCEPTOR|10=160|8=FIXT.1.1|9=62|35=0|34=645|49=INITIATOR|52=20231129-08:54:21.235|56=ACCEPTOR|10=150|8=FIXT.1.1|9=62|35=0|34=646|49=INITIATOR|52=20231129-08:54:22.028|56=ACCEPTOR|10=152|8=FIXT.1.1|9=62|35=0|34=647|49=INITIATOR|52=20231129-08:54:23.495|56=ACCEPTOR|10=162|8=FIXT.1.1|9=62|35=0|34=648|49=INITIATOR|52=20231129-08:54:24.228|56=ACCEPTOR|10=158|8=FIXT.1.1|9=62|35=0|34=649|49=INITIATOR|52=20231129-08:54:25.018|56=ACCEPTOR|10=157|8=FIXT.1.1|9=62|35=0|34=650|49=INITIATOR|52=20231129-08:54:26.482|56=ACCEPTOR|10=155|8=FIXT.1.1|9=62|35=0|34=651|49=INITIATOR|52=20231129-08:54:27.212|56=ACCEPTOR|10=148|8=FIXT.1.1|9=62|35=0|34=652|49=INITIATOR|52=20231129-08:54:28.000|56=ACCEPTOR|10=145|8=FIXT.1.1|9=62|35=0|34=653|49=INITIATOR|52=20231129-08:54:29.461|56=ACCEPTOR|10=158|8=FIXT.1.1|9=62|35=0|34=654|49=INITIATOR|52=20231129-08:54:30.190|56=ACCEPTOR|10=150|8=FIXT.1.1|9=62|35=0|34=655|49=INITIATOR|52=20231129-08:54:31.646|56=ACCEPTOR|10=158|8=FIXT.1.1|9=62|35=0|34=656|49=INITIATOR|52=20231129-08:54:32.374|56=ACCEPTOR|10=158|8=FIXT.1.1|9=62|35=0|34=657|49=INITIATOR|52=20231129-08:54:33.101|56=ACCEPTOR|10=148|8=FIXT.1.1|9=62|35=0|34=658|49=INITIATOR|52=20231129-08:54:34.555|56=ACCEPTOR|10=163|8=FIXT.1.1|9=62|35=0|34=659|49=INITIATOR|52=20231129-08:54:35.282|56=ACCEPTOR|10=162|8=FIXT.1.1|9=62|35=0|34=660|49=INITIATOR|52=20231129-08:54:36.009|56=ACCEPTOR|10=152|8=FIXT.1.1|9=62|35=0|34=661|49=INITIATOR|52=20231129-08:54:37.460|56=ACCEPTOR|10=155|8=FIXT.1.1|9=62|35=0|34=662|49=INITIATOR|52=20231129-08:54:38.184|56=ACCEPTOR|10=160|8=FIXT.1.1|9=62|35=0|34=663|49=INITIATOR|52=20231129-08:54:39.633|56=ACCEPTOR|10=161|8=FIXT.1.1|9=62|35=0|34=664|49=INITIATOR|52=20231129-08:54:40.358|56=ACCEPTOR|10=158|8=FIXT.1.1|9=62|35=0|34=665|49=INITIATOR|52=20231129-08:54:41.081|56=ACCEPTOR|10=153|8=FIXT.1.1|9=62|35=0|34=666|49=INITIATOR|52=20231129-08:54:42.524|56=ACCEPTOR|10=157|8=FIXT.1.1|9=62|35=0|34=667|49=INITIATOR|52=20231129-08:54:43.246|56=ACCEPTOR|10=160|8=FIXT.1.1|9=62|35=0|34=668|49=INITIATOR|52=20231129-08:54:44.026|56=ACCEPTOR|10=158|8=FIXT.1.1|9=62|35=0|34=669|49=INITIATOR|52=20231129-08:54:45.464|56=ACCEPTOR|10=166|8=FIXT.1.1|9=62|35=0|34=670|49=INITIATOR|52=20231129-08:54:46.182|56=ACCEPTOR|10=156|8=FIXT.1.1|9=62|35=0|34=671|49=INITIATOR|52=20231129-08:54:47.615|56=ACCEPTOR|10=159|8=FIXT.1.1|9=62|35=0|34=672|49=INITIATOR|52=20231129-08:54:48.332|56=ACCEPTOR|10=157|8=FIXT.1.1|9=62|35=0|34=673|49=INITIATOR|52=20231129-08:54:49.047|56=ACCEPTOR|10=162|8=FIXT.1.1|9=62|35=0|34=674|49=INITIATOR|52=20231129-08:54:50.473|56=ACCEPTOR|10=158|8=FIXT.1.1|9=62|35=0|34=675|49=INITIATOR|52=20231129-08:54:51.186|56=ACCEPTOR|10=161|8=FIXT.1.1|9=62|35=0|34=676|49=INITIATOR|52=20231129-08:54:52.607|56=ACCEPTOR|10=161|8=FIXT.1.1|9=62|35=0|34=677|49=INITIATOR|52=20231129-08:54:53.317|56=ACCEPTOR|10=161|8=FIXT.1.1|9=62|35=0|34=678|49=INITIATOR|52=20231129-08:54:54.027|56=ACCEPTOR|10=161|8=FIXT.1.1|9=62|35=0|34=679|49=INITIATOR|52=20231129-08:54:55.442|56=ACCEPTOR|10=164|8=FIXT.1.1|9=62|35=0|34=680|49=INITIATOR|52=20231129-08:54:56.150|56=ACCEPTOR|10=153|8=FIXT.1.1|9=62|35=0|34=681|49=INITIATOR|52=20231129-08:54:57.561|56=ACCEPTOR|10=161|8=FIXT.1.1|9=62|35=0|34=682|49=INITIATOR|52=20231129-08:54:58.266|56=ACCEPTOR|10=165|8=FIXT.1.1|9=62|35=0|34=683|49=INITIATOR|52=20231129-08:54:59.033|56=ACCEPTOR|10=159|8=FIXT.1.1|9=62|35=0|34=684|49=INITIATOR|52=20231129-08:55:00.441|56=ACCEPTOR|10=150|8=FIXT.1.1|9=62|35=0|34=685|49=INITIATOR|52=20231129-08:55:01.144|56=ACCEPTOR|10=152|8=FIXT.1.1|9=62|35=0|34=686|49=INITIATOR|52=20231129-08:55:02.547|56=ACCEPTOR|10=161|8=FIXT.1.1|9=62|35=0|34=687|49=INITIATOR|52=20231129-08:55:03.248|56=ACCEPTOR|10=161|8=FIXT.1.1|9=62|35=0|34=688|49=INITIATOR|52=20231129-08:55:04.012|56=ACCEPTOR|10=152|8=FIXT.1.1|9=62|35=0|34=689|49=INITIATOR|52=20231129-08:55:05.410|56=ACCEPTOR|10=156|8=FIXT.1.1|9=62|35=0|34=690|49=INITIATOR|52=20231129-08:55:06.108|56=ACCEPTOR|10=153|8=FIXT.1.1|9=62|35=0|34=691|49=INITIATOR|52=20231129-08:55:07.502|56=ACCEPTOR|10=153|8=FIXT.1.1|9=62|35=0|34=692|49=INITIATOR|52=20231129-08:55:08.199|56=ACCEPTOR|10=167|8=FIXT.1.1|9=62|35=0|34=693|49=INITIATOR|52=20231129-08:55:09.589|56=ACCEPTOR|10=172|8=FIXT.1.1|9=62|35=0|34=694|49=INITIATOR|52=20231129-08:55:10.284|56=ACCEPTOR|10=157|8=FIXT.1.1|9=62|35=0|34=695|49=INITIATOR|52=20231129-08:55:11.044|56=ACCEPTOR|10=153|8=FIXT.1.1|9=62|35=0|34=696|49=INITIATOR|52=20231129-08:55:12.429|56=ACCEPTOR|10=162|8=FIXT.1.1|9=62|35=0|34=697|49=INITIATOR|52=20231129-08:55:13.122|56=ACCEPTOR|10=154|8=FIXT.1.1|9=62|35=0|34=698|49=INITIATOR|52=20231129-08:55:14.505|56=ACCEPTOR|10=161|8=FIXT.1.1|9=62|35=0|34=699|49=INITIATOR|52=20231129-08:55:15.196|56=ACCEPTOR|10=169|8=FIXT.1.1|9=62|35=0|34=700|49=INITIATOR|52=20231129-08:55:16.575|56=ACCEPTOR|10=154|8=FIXT.1.1|9=62|35=0|34=701|49=INITIATOR|52=20231129-08:55:17.264|56=ACCEPTOR|10=151|8=FIXT.1.1|9=62|35=0|34=702|49=INITIATOR|52=20231129-08:55:18.019|56=ACCEPTOR|10=151|8=FIXT.1.1|9=62|35=0|34=703|49=INITIATOR|52=20231129-08:55:19.392|56=ACCEPTOR|10=157|8=FIXT.1.1|9=62|35=0|34=704|49=INITIATOR|52=20231129-08:55:20.079|56=ACCEPTOR|10=152|8=FIXT.1.1|9=62|35=0|34=705|49=INITIATOR|52=20231129-08:55:21.449|56=ACCEPTOR|10=155|8=FIXT.1.1|9=62|35=0|34=706|49=INITIATOR|52=20231129-08:55:22.134|56=ACCEPTOR|10=148|8=FIXT.1.1|9=62|35=0|34=707|49=INITIATOR|52=20231129-08:55:23.502|56=ACCEPTOR|10=149|8=FIXT.1.1|9=62|35=0|34=708|49=INITIATOR|52=20231129-08:55:24.185|56=ACCEPTOR|10=158|8=FIXT.1.1|9=62|35=0|34=709|49=INITIATOR|52=20231129-08:55:25.552|56=ACCEPTOR|10=158|8=FIXT.1.1|9=62|35=0|34=710|49=INITIATOR|52=20231129-08:55:26.234|56=ACCEPTOR|10=148|8=FIXT.1.1|9=62|35=0|34=711|49=INITIATOR|52=20231129-08:55:27.599|56=ACCEPTOR|10=164|8=FIXT.1.1|9=62|35=0|34=712|49=INITIATOR|52=20231129-08:55:28.281|56=ACCEPTOR|10=154|8=FIXT.1.1|9=62|35=0|34=713|49=INITIATOR|52=20231129-08:55:29.030|56=ACCEPTOR|10=148|8=FIXT.1.1|9=62|35=0|34=714|49=INITIATOR|52=20231129-08:55:30.389|56=ACCEPTOR|10=158|8=FIXT.1.1|9=62|35=0|34=715|49=INITIATOR|52=20231129-08:55:31.069|56=ACCEPTOR|10=155|8=FIXT.1.1|9=62|35=0|34=716|49=INITIATOR|52=20231129-08:55:32.426|56=ACCEPTOR|10=154|8=FIXT.1.1|9=62|35=0|34=717|49=INITIATOR|52=20231129-08:55:33.104|56=ACCEPTOR|10=149|8=FIXT.1.1|9=62|35=0|34=718|49=INITIATOR|52=20231129-08:55:34.457|56=ACCEPTOR|10=162|8=FIXT.1.1|9=62|35=0|34=719|49=INITIATOR|52=20231129-08:55:35.133|56=ACCEPTOR|10=155|8=FIXT.1.1|9=62|35=0|34=720|49=INITIATOR|52=20231129-08:55:36.484|56=ACCEPTOR|10=157|8=FIXT.1.1|9=62|35=0|34=721|49=INITIATOR|52=20231129-08:55:37.158|56=ACCEPTOR|10=157|8=FIXT.1.1|9=62|35=0|34=722|49=INITIATOR|52=20231129-08:55:38.506|56=ACCEPTOR|10=156|8=FIXT.1.1|9=62|35=0|34=723|49=INITIATOR|52=20231129-08:55:39.180|56=ACCEPTOR|10=156|8=FIXT.1.1|9=62|35=0|34=724|49=INITIATOR|52=20231129-08:55:40.526|56=ACCEPTOR|10=153|8=FIXT.1.1|9=62|35=0|34=725|49=INITIATOR|52=20231129-08:55:41.200|56=ACCEPTOR|10=144|8=FIXT.1.1|9=62|35=0|34=726|49=INITIATOR|52=20231129-08:55:42.545|56=ACCEPTOR|10=158|8=FIXT.1.1|9=62|35=0|34=727|49=INITIATOR|52=20231129-08:55:43.217|56=ACCEPTOR|10=156|8=FIXT.1.1|9=62|35=0|34=728|49=INITIATOR|52=20231129-08:55:44.558|56=ACCEPTOR|10=166|8=FIXT.1.1|9=62|35=0|34=729|49=INITIATOR|52=20231129-08:55:45.229|56=ACCEPTOR|10=163|8=FIXT.1.1|9=62|35=0|34=730|49=INITIATOR|52=20231129-08:55:46.565|56=ACCEPTOR|10=159|8=FIXT.1.1|9=62|35=0|34=731|49=INITIATOR|52=20231129-08:55:47.233|56=ACCEPTOR|10=153|8=FIXT.1.1|9=62|35=0|34=732|49=INITIATOR|52=20231129-08:55:48.567|56=ACCEPTOR|10=165|8=FIXT.1.1|9=62|35=0|34=733|49=INITIATOR|52=20231129-08:55:49.235|56=ACCEPTOR|10=159|8=FIXT.1.1|9=62|35=0|34=734|49=INITIATOR|52=20231129-08:55:50.568|56=ACCEPTOR|10=161|8=FIXT.1.1|9=62|35=0|34=735|49=INITIATOR|52=20231129-08:55:51.234|56=ACCEPTOR|10=153|8=FIXT.1.1|9=62|35=0|34=736|49=INITIATOR|52=20231129-08:55:52.564|56=ACCEPTOR|10=161|8=FIXT.1.1|9=62|35=0|34=737|49=INITIATOR|52=20231129-08:55:53.228|56=ACCEPTOR|10=160|8=FIXT.1.1|9=62|35=0|34=738|49=INITIATOR|52=20231129-08:55:54.556|56=ACCEPTOR|10=166|8=FIXT.1.1|9=62|35=0|34=739|49=INITIATOR|52=20231129-08:55:55.220|56=ACCEPTOR|10=156|8=FIXT.1.1|9=62|35=0|34=740|49=INITIATOR|52=20231129-08:55:56.546|56=ACCEPTOR|10=160|8=FIXT.1.1|9=62|35=0|34=741|49=INITIATOR|52=20231129-08:55:57.209|56=ACCEPTOR|10=158|8=FIXT.1.1|9=62|35=0|34=742|49=INITIATOR|52=20231129-08:55:58.532|56=ACCEPTOR|10=159|8=FIXT.1.1|9=62|35=0|34=743|49=INITIATOR|52=20231129-08:55:59.194|56=ACCEPTOR|10=165|8=FIXT.1.1|9=62|35=0|34=744|49=INITIATOR|52=20231129-08:56:00.514|56=ACCEPTOR|10=149|8=FIXT.1.1|9=62|35=0|34=745|49=INITIATOR|52=20231129-08:56:01.174|56=ACCEPTOR|10=153|8=FIXT.1.1|9=62|35=0|34=746|49=INITIATOR|52=20231129-08:56:02.491|56=ACCEPTOR|10=157|8=FIXT.1.1|9=62|35=0|34=747|49=INITIATOR|52=20231129-08:56:03.149|56=ACCEPTOR|10=159|8=FIXT.1.1|9=62|35=0|34=748|49=INITIATOR|52=20231129-08:56:04.463|56=ACCEPTOR|10=160|8=FIXT.1.1|9=62|35=0|34=749|49=INITIATOR|52=20231129-08:56:05.119|56=ACCEPTOR|10=160|8=FIXT.1.1|9=62|35=0|34=750|49=INITIATOR|52=20231129-08:56:06.428|56=ACCEPTOR|10=156|8=FIXT.1.1|9=62|35=0|34=751|49=INITIATOR|52=20231129-08:56:07.083|56=ACCEPTOR|10=155|8=FIXT.1.1|9=62|35=0|34=752|49=INITIATOR|52=20231129-08:56:08.387|56=ACCEPTOR|10=164|8=FIXT.1.1|9=62|35=0|34=753|49=INITIATOR|52=20231129-08:56:09.040|56=ACCEPTOR|10=152|8=FIXT.1.1|9=62|35=0|34=754|49=INITIATOR|52=20231129-08:56:10.340|56=ACCEPTOR|10=148|8=FIXT.1.1|9=62|35=0|34=755|49=INITIATOR|52=20231129-08:56:11.065|56=ACCEPTOR|10=154|8=FIXT.1.1|9=62|35=0|34=756|49=INITIATOR|52=20231129-08:56:12.365|56=ACCEPTOR|10=159|8=FIXT.1.1|9=62|35=0|34=757|49=INITIATOR|52=20231129-08:56:13.014|56=ACCEPTOR|10=152|8=FIXT.1.1|9=62|35=0|34=758|49=INITIATOR|52=20231129-08:56:14.308|56=ACCEPTOR|10=160|8=FIXT.1.1|9=62|35=0|34=759|49=INITIATOR|52=20231129-08:56:15.030|56=ACCEPTOR|10=154|8=FIXT.1.1|9=62|35=0|34=760|49=INITIATOR|52=20231129-08:56:16.321|56=ACCEPTOR|10=150|8=FIXT.1.1|9=62|35=0|34=761|49=INITIATOR|52=20231129-08:56:17.042|56=ACCEPTOR|10=152|8=FIXT.1.1|9=62|35=0|34=762|49=INITIATOR|52=20231129-08:56:18.330|56=ACCEPTOR|10=154|8=FIXT.1.1|9=62|35=0|34=763|49=INITIATOR|52=20231129-08:56:19.049|56=ACCEPTOR|10=163|8=FIXT.1.1|9=62|35=0|34=764|49=INITIATOR|52=20231129-08:56:20.333|56=ACCEPTOR|10=152|8=FIXT.1.1|9=62|35=0|34=765|49=INITIATOR|52=20231129-08:56:21.050|56=ACCEPTOR|10=150|8=FIXT.1.1|9=62|35=0|34=766|49=INITIATOR|52=20231129-08:56:22.330|56=ACCEPTOR|10=153|8=FIXT.1.1|9=62|35=0|34=767|49=INITIATOR|52=20231129-08:56:23.046|56=ACCEPTOR|10=159|8=FIXT.1.1|9=62|35=0|34=768|49=INITIATOR|52=20231129-08:56:24.319|56=ACCEPTOR|10=164|8=FIXT.1.1|9=62|35=0|34=769|49=INITIATOR|52=20231129-08:56:25.032|56=ACCEPTOR|10=158|8=FIXT.1.1|9=62|35=0|34=770|49=INITIATOR|52=20231129-08:56:26.304|56=ACCEPTOR|10=153|8=FIXT.1.1|9=62|35=0|34=771|49=INITIATOR|52=20231129-08:56:27.016|56=ACCEPTOR|10=155|8=FIXT.1.1|9=62|35=0|34=772|49=INITIATOR|52=20231129-08:56:28.284|56=ACCEPTOR|10=164|8=FIXT.1.1|9=62|35=0|34=773|49=INITIATOR|52=20231129-08:56:29.548|56=ACCEPTOR|10=169|8=FIXT.1.1|9=62|35=0|34=774|49=INITIATOR|52=20231129-08:56:30.180|56=ACCEPTOR|10=154|8=FIXT.1.1|9=62|35=0|34=775|49=INITIATOR|52=20231129-08:56:31.441|56=ACCEPTOR|10=156|8=FIXT.1.1|9=62|35=0|34=776|49=INITIATOR|52=20231129-08:56:32.071|56=ACCEPTOR|10=157|8=FIXT.1.1|9=62|35=0|34=777|49=INITIATOR|52=20231129-08:56:33.328|56=ACCEPTOR|10=164|8=FIXT.1.1|9=62|35=0|34=778|49=INITIATOR|52=20231129-08:56:34.034|56=ACCEPTOR|10=160|8=FIXT.1.1|9=62|35=0|34=779|49=INITIATOR|52=20231129-08:56:35.287|56=ACCEPTOR|10=172|8=FIXT.1.1|9=62|35=0|34=780|49=INITIATOR|52=20231129-08:56:36.539|56=ACCEPTOR|10=165|8=FIXT.1.1|9=62|35=0|34=781|49=INITIATOR|52=20231129-08:56:37.163|56=ACCEPTOR|10=160|8=FIXT.1.1|9=62|35=0|34=782|49=INITIATOR|52=20231129-08:56:38.412|56=ACCEPTOR|10=159|8=FIXT.1.1|9=62|35=0|34=783|49=INITIATOR|52=20231129-08:56:39.036|56=ACCEPTOR|10=163|8=FIXT.1.1|9=62|35=0|34=784|49=INITIATOR|52=20231129-08:56:40.281|56=ACCEPTOR|10=158|8=FIXT.1.1|9=62|35=0|34=785|49=INITIATOR|52=20231129-08:56:41.524|56=ACCEPTOR|10=160|8=FIXT.1.1|9=62|35=0|34=786|49=INITIATOR|52=20231129-08:56:42.145|56=ACCEPTOR|10=161|8=FIXT.1.1|9=62|35=0|34=787|49=INITIATOR|52=20231129-08:56:43.385|56=ACCEPTOR|10=169|8=FIXT.1.1|9=62|35=0|34=788|49=INITIATOR|52=20231129-08:56:44.005|56=ACCEPTOR|10=160|8=FIXT.1.1|9=62|35=0|34=789|49=INITIATOR|52=20231129-08:56:45.245|56=ACCEPTOR|10=168|8=FIXT.1.1|9=62|35=0|34=790|49=INITIATOR|52=20231129-08:56:46.483|56=ACCEPTOR|10=165|8=FIXT.1.1|9=62|35=0|34=791|49=INITIATOR|52=20231129-08:56:47.103|56=ACCEPTOR|10=156|8=FIXT.1.1|9=62|35=0|34=792|49=INITIATOR|52=20231129-08:56:48.339|56=ACCEPTOR|10=169|8=FIXT.1.1|9=62|35=0|34=793|49=INITIATOR|52=20231129-08:56:49.037|56=ACCEPTOR|10=166|8=FIXT.1.1|9=62|35=0|34=794|49=INITIATOR|52=20231129-08:56:50.273|56=ACCEPTOR|10=161|8=FIXT.1.1|9=62|35=0|34=795|49=INITIATOR|52=20231129-08:56:51.505|56=ACCEPTOR|10=161|8=FIXT.1.1|9=62|35=0|34=796|49=INITIATOR|52=20231129-08:56:52.121|56=ACCEPTOR|10=157|8=FIXT.1.1|9=62|35=0|34=797|49=INITIATOR|52=20231129-08:56:53.350|56=ACCEPTOR|10=163|8=FIXT.1.1|9=62|35=0|34=798|49=INITIATOR|52=20231129-08:56:54.045|56=ACCEPTOR|10=166|8=FIXT.1.1|9=62|35=0|34=799|49=INITIATOR|52=20231129-08:56:55.271|56=ACCEPTOR|10=169|8=FIXT.1.1|9=62|35=0|34=800|49=INITIATOR|52=20231129-08:56:56.493|56=ACCEPTOR|10=159|8=FIXT.1.1|9=62|35=0|34=801|49=INITIATOR|52=20231129-08:56:57.103|56=ACCEPTOR|10=149|8=FIXT.1.1|9=62|35=0|34=802|49=INITIATOR|52=20231129-08:56:58.324|56=ACCEPTOR|10=156|8=FIXT.1.1|9=62|35=0|34=803|49=INITIATOR|52=20231129-08:56:59.015|56=ACCEPTOR|10=155|8=FIXT.1.1|9=62|35=0|34=804|49=INITIATOR|52=20231129-08:57:00.232|56=ACCEPTOR|10=144|8=FIXT.1.1|9=62|35=0|34=805|49=INITIATOR|52=20231129-08:57:01.445|56=ACCEPTOR|10=152|8=FIXT.1.1|9=62|35=0|34=806|49=INITIATOR|52=20231129-08:57:02.051|56=ACCEPTOR|10=147|8=FIXT.1.1|9=62|35=0|34=807|49=INITIATOR|52=20231129-08:57:03.260|56=ACCEPTOR|10=151|8=FIXT.1.1|9=62|35=0|34=808|49=INITIATOR|52=20231129-08:57:04.467|56=ACCEPTOR|10=162|8=FIXT.1.1|9=62|35=0|34=809|49=INITIATOR|52=20231129-08:57:05.071|56=ACCEPTOR|10=155|8=FIXT.1.1|9=62|35=0|34=810|49=INITIATOR|52=20231129-08:57:06.274|56=ACCEPTOR|10=153|8=FIXT.1.1|9=62|35=0|34=811|49=INITIATOR|52=20231129-08:57:07.475|56=ACCEPTOR|10=158|8=FIXT.1.1|9=62|35=0|34=812|49=INITIATOR|52=20231129-08:57:08.075|56=ACCEPTOR|10=156|8=FIXT.1.1|9=62|35=0|34=813|49=INITIATOR|52=20231129-08:57:09.271|56=ACCEPTOR|10=156|8=FIXT.1.1|9=62|35=0|34=814|49=INITIATOR|52=20231129-08:57:10.467|56=ACCEPTOR|10=156|8=FIXT.1.1|9=62|35=0|34=815|49=INITIATOR|52=20231129-08:57:11.064|56=ACCEPTOR|10=151|8=FIXT.1.1|9=62|35=0|34=816|49=INITIATOR|52=20231129-08:57:12.258|56=ACCEPTOR|10=158|8=FIXT.1.1|9=62|35=0|34=817|49=INITIATOR|52=20231129-08:57:13.451|56=ACCEPTOR|10=155|8=FIXT.1.1|9=62|35=0|34=818|49=INITIATOR|52=20231129-08:57:14.048|56=ACCEPTOR|10=159|8=FIXT.1.1|9=62|35=0|34=819|49=INITIATOR|52=20231129-08:57:15.237|56=ACCEPTOR|10=161|8=FIXT.1.1|9=62|35=0|34=820|49=INITIATOR|52=20231129-08:57:16.425|56=ACCEPTOR|10=153|8=FIXT.1.1|9=62|35=0|34=821|49=INITIATOR|52=20231129-08:57:17.018|56=ACCEPTOR|10=153|8=FIXT.1.1|9=62|35=0|34=822|49=INITIATOR|52=20231129-08:57:18.199|56=ACCEPTOR|10=165|8=FIXT.1.1|9=62|35=0|34=823|49=INITIATOR|52=20231129-08:57:19.378|56=ACCEPTOR|10=166|8=FIXT.1.1|9=62|35=0|34=824|49=INITIATOR|52=20231129-08:57:20.054|56=ACCEPTOR|10=150|8=FIXT.1.1|9=62|35=0|34=825|49=INITIATOR|52=20231129-08:57:21.231|56=ACCEPTOR|10=149|8=FIXT.1.1|9=62|35=0|34=826|49=INITIATOR|52=20231129-08:57:22.405|56=ACCEPTOR|10=154|8=FIXT.1.1|9=62|35=0|34=827|49=INITIATOR|52=20231129-08:57:23.079|56=ACCEPTOR|10=163|8=FIXT.1.1|9=62|35=0|34=828|49=INITIATOR|52=20231129-08:57:24.252|56=ACCEPTOR|10=158|8=FIXT.1.1|9=62|35=0|34=829|49=INITIATOR|52=20231129-08:57:25.423|56=ACCEPTOR|10=160|8=FIXT.1.1|9=62|35=0|34=830|49=INITIATOR|52=20231129-08:57:26.008|56=ACCEPTOR|10=152|8=FIXT.1.1|9=62|35=0|34=831|49=INITIATOR|52=20231129-08:57:27.174|56=ACCEPTOR|10=158|8=FIXT.1.1|9=62|35=0|34=832|49=INITIATOR|52=20231129-08:57:28.341|56=ACCEPTOR|10=156|8=FIXT.1.1|9=62|35=0|34=833|49=INITIATOR|52=20231129-08:57:29.011|56=ACCEPTOR|10=152|8=FIXT.1.1|9=62|35=0|34=834|49=INITIATOR|52=20231129-08:57:30.175|56=ACCEPTOR|10=156|8=FIXT.1.1|9=62|35=0|34=835|49=INITIATOR|52=20231129-08:57:31.337|56=ACCEPTOR|10=158|8=FIXT.1.1|9=62|35=0|34=836|49=INITIATOR|52=20231129-08:57:32.006|56=ACCEPTOR|10=153|8=FIXT.1.1|9=62|35=0|34=837|49=INITIATOR|52=20231129-08:57:33.166|56=ACCEPTOR|10=162|8=FIXT.1.1|9=62|35=0|34=838|49=INITIATOR|52=20231129-08:57:34.326|56=ACCEPTOR|10=162|8=FIXT.1.1|9=62|35=0|34=839|49=INITIATOR|52=20231129-08:57:35.486|56=ACCEPTOR|10=171|8=FIXT.1.1|9=62|35=0|34=840|49=INITIATOR|52=20231129-08:57:36.066|56=ACCEPTOR|10=158|8=FIXT.1.1|9=62|35=0|34=841|49=INITIATOR|52=20231129-08:57:37.224|56=ACCEPTOR|10=156|8=FIXT.1.1|9=62|35=0|34=842|49=INITIATOR|52=20231129-08:57:38.380|56=ACCEPTOR|10=161|8=FIXT.1.1|9=62|35=0|34=843|49=INITIATOR|52=20231129-08:57:39.046|56=ACCEPTOR|10=162|8=FIXT.1.1|9=62|35=0|34=844|49=INITIATOR|52=20231129-08:57:40.201|56=ACCEPTOR|10=148|8=FIXT.1.1|9=62|35=0|34=845|49=INITIATOR|52=20231129-08:57:41.353|56=ACCEPTOR|10=158|8=FIXT.1.1|9=62|35=0|34=846|49=INITIATOR|52=20231129-08:57:42.017|56=ACCEPTOR|10=157|8=FIXT.1.1|9=62|35=0|34=847|49=INITIATOR|52=20231129-08:57:43.168|56=ACCEPTOR|10=166|8=FIXT.1.1|9=62|35=0|34=848|49=INITIATOR|52=20231129-08:57:44.317|56=ACCEPTOR|10=164|8=FIXT.1.1|9=62|35=0|34=849|49=INITIATOR|52=20231129-08:57:45.464|56=ACCEPTOR|10=169|8=FIXT.1.1|9=62|35=0|34=850|49=INITIATOR|52=20231129-08:57:46.036|56=ACCEPTOR|10=157|8=FIXT.1.1|9=62|35=0|34=851|49=INITIATOR|52=20231129-08:57:47.180|56=ACCEPTOR|10=159|8=FIXT.1.1|9=62|35=0|34=852|49=INITIATOR|52=20231129-08:57:48.324|56=ACCEPTOR|10=161|8=FIXT.1.1|9=62|35=0|34=853|49=INITIATOR|52=20231129-08:57:49.467|56=ACCEPTOR|10=171|8=FIXT.1.1|9=62|35=0|34=854|49=INITIATOR|52=20231129-08:57:50.038|56=ACCEPTOR|10=158|8=FIXT.1.1|9=62|35=0|34=855|49=INITIATOR|52=20231129-08:57:51.177|56=ACCEPTOR|10=164|8=FIXT.1.1|9=62|35=0|34=856|49=INITIATOR|52=20231129-08:57:52.317|56=ACCEPTOR|10=162|8=FIXT.1.1|9=62|35=0|34=857|49=INITIATOR|52=20231129-08:57:53.456|56=ACCEPTOR|10=168|8=FIXT.1.1|9=62|35=0|34=858|49=INITIATOR|52=20231129-08:57:54.026|56=ACCEPTOR|10=163|8=FIXT.1.1|9=62|35=0|34=859|49=INITIATOR|52=20231129-08:57:55.163|56=ACCEPTOR|10=167|8=FIXT.1.1|9=62|35=0|34=860|49=INITIATOR|52=20231129-08:57:56.298|56=ACCEPTOR|10=169|8=FIXT.1.1|9=62|35=0|34=861|49=INITIATOR|52=20231129-08:57:57.430|56=ACCEPTOR|10=159|8=FIXT.1.1|9=62|35=0|34=862|49=INITIATOR|52=20231129-08:57:58.086|56=ACCEPTOR|10=168|8=FIXT.1.1|9=62|35=0|34=863|49=INITIATOR|52=20231129-08:57:59.217|56=ACCEPTOR|10=166|8=FIXT.1.1|9=62|35=0|34=864|49=INITIATOR|52=20231129-08:58:00.346|56=ACCEPTOR|10=157|8=FIXT.1.1|9=62|35=0|34=865|49=INITIATOR|52=20231129-08:58:01.002|56=ACCEPTOR|10=148|8=FIXT.1.1|9=62|35=0|34=866|49=INITIATOR|52=20231129-08:58:02.131|56=ACCEPTOR|10=153|8=FIXT.1.1|9=62|35=0|34=867|49=INITIATOR|52=20231129-08:58:03.257|56=ACCEPTOR|10=164|8=FIXT.1.1|9=62|35=0|34=868|49=INITIATOR|52=20231129-08:58:04.382|56=ACCEPTOR|10=165|8=FIXT.1.1|9=62|35=0|34=869|49=INITIATOR|52=20231129-08:58:05.034|56=ACCEPTOR|10=161|8=FIXT.1.1|9=62|35=0|34=870|49=INITIATOR|52=20231129-08:58:06.156|56=ACCEPTOR|10=159|8=FIXT.1.1|9=62|35=0|34=871|49=INITIATOR|52=20231129-08:58:07.277|56=ACCEPTOR|10=165|8=FIXT.1.1|9=62|35=0|34=872|49=INITIATOR|52=20231129-08:58:08.397|56=ACCEPTOR|10=170|8=FIXT.1.1|9=62|35=0|34=873|49=INITIATOR|52=20231129-08:58:09.047|56=ACCEPTOR|10=164|8=FIXT.1.1|9=62|35=0|34=874|49=INITIATOR|52=20231129-08:58:10.163|56=ACCEPTOR|10=156|8=FIXT.1.1|9=62|35=0|34=875|49=INITIATOR|52=20231129-08:58:11.276|56=ACCEPTOR|10=163|8=FIXT.1.1|9=62|35=0|34=876|49=INITIATOR|52=20231129-08:58:12.387|56=ACCEPTOR|10=168|8=FIXT.1.1|9=62|35=0|34=877|49=INITIATOR|52=20231129-08:58:13.033|56=ACCEPTOR|10=158|8=FIXT.1.1|9=62|35=0|34=878|49=INITIATOR|52=20231129-08:58:14.140|56=ACCEPTOR|10=159|8=FIXT.1.1|9=62|35=0|34=879|49=INITIATOR|52=20231129-08:58:15.245|56=ACCEPTOR|10=167|8=FIXT.1.1|9=62|35=0|34=880|49=INITIATOR|52=20231129-08:58:16.348|56=ACCEPTOR|10=164|8=FIXT.1.1|9=62|35=0|34=881|49=INITIATOR|52=20231129-08:58:17.449|56=ACCEPTOR|10=168|8=FIXT.1.1|9=62|35=0|34=882|49=INITIATOR|52=20231129-08:58:18.092|56=ACCEPTOR|10=164|8=FIXT.1.1|9=62|35=0|34=883|49=INITIATOR|52=20231129-08:58:19.190|56=ACCEPTOR|10=165|8=FIXT.1.1|9=62|35=0|34=884|49=INITIATOR|52=20231129-08:58:20.286|56=ACCEPTOR|10=164|8=FIXT.1.1|9=62|35=0|34=885|49=INITIATOR|52=20231129-08:58:21.379|56=ACCEPTOR|10=169|8=FIXT.1.1|9=62|35=0|34=886|49=INITIATOR|52=20231129-08:58:22.019|56=ACCEPTOR|10=162|8=FIXT.1.1|9=62|35=0|34=887|49=INITIATOR|52=20231129-08:58:23.111|56=ACCEPTOR|10=157|8=FIXT.1.1|9=62|35=0|34=888|49=INITIATOR|52=20231129-08:58:24.200|56=ACCEPTOR|10=158|8=FIXT.1.1|9=62|35=0|34=889|49=INITIATOR|52=20231129-08:58:25.287|56=ACCEPTOR|10=175|8=FIXT.1.1|9=62|35=0|34=890|49=INITIATOR|52=20231129-08:58:26.369|56=ACCEPTOR|10=169|8=FIXT.1.1|9=62|35=0|34=891|49=INITIATOR|52=20231129-08:58:27.005|56=ACCEPTOR|10=158|8=FIXT.1.1|9=62|35=0|34=892|49=INITIATOR|52=20231129-08:58:28.086|56=ACCEPTOR|10=169|8=FIXT.1.1|9=62|35=0|34=893|49=INITIATOR|52=20231129-08:58:29.167|56=ACCEPTOR|10=171|8=FIXT.1.1|9=62|35=0|34=894|49=INITIATOR|52=20231129-08:58:30.245|56=ACCEPTOR|10=161|8=FIXT.1.1|9=62|35=0|34=895|49=INITIATOR|52=20231129-08:58:31.322|56=ACCEPTOR|10=159|8=FIXT.1.1|9=80|35=A|34=896|49=INITIATOR|52=20231129-08:58:33.646|56=ACCEPTOR|98=0|108=1|1137=7|10=228|8=FIXT.1.1|9=62|35=0|34=897|49=INITIATOR|52=20231129-08:58:34.183|56=ACCEPTOR|10=169|8=FIXT.1.1|9=62|35=0|34=898|49=INITIATOR|52=20231129-08:58:35.183|56=ACCEPTOR|10=171|8=FIXT.1.1|9=62|35=0|34=899|49=INITIATOR|52=20231129-08:58:36.182|56=ACCEPTOR|10=172|8=FIXT.1.1|9=62|35=0|34=900|49=INITIATOR|52=20231129-08:58:37.181|56=ACCEPTOR|10=155|8=FIXT.1.1|9=62|35=0|34=901|49=INITIATOR|52=20231129-08:58:38.179|56=ACCEPTOR|10=164|8=FIXT.1.1|9=62|35=0|34=902|49=INITIATOR|52=20231129-08:58:39.176|56=ACCEPTOR|10=163|8=FIXT.1.1|9=62|35=0|34=903|49=INITIATOR|52=20231129-08:58:40.173|56=ACCEPTOR|10=153|8=FIXT.1.1|9=62|35=0|34=904|49=INITIATOR|52=20231129-08:58:41.169|56=ACCEPTOR|10=160|8=FIXT.1.1|9=62|35=0|34=905|49=INITIATOR|52=20231129-08:58:42.164|56=ACCEPTOR|10=157|8=FIXT.1.1|9=62|35=0|34=906|49=INITIATOR|52=20231129-08:58:43.157|56=ACCEPTOR|10=161|8=FIXT.1.1|9=62|35=0|34=907|49=INITIATOR|52=20231129-08:58:44.150|56=ACCEPTOR|10=156|8=FIXT.1.1|9=62|35=0|34=908|49=INITIATOR|52=20231129-08:58:45.142|56=ACCEPTOR|10=159|8=FIXT.1.1|9=62|35=0|34=909|49=INITIATOR|52=20231129-08:58:46.134|56=ACCEPTOR|10=162|8=FIXT.1.1|9=62|35=0|34=910|49=INITIATOR|52=20231129-08:58:47.123|56=ACCEPTOR|10=153|8=FIXT.1.1|9=62|35=0|34=911|49=INITIATOR|52=20231129-08:58:48.110|56=ACCEPTOR|10=151|8=FIXT.1.1|9=62|35=0|34=912|49=INITIATOR|52=20231129-08:58:49.097|56=ACCEPTOR|10=167|8=FIXT.1.1|9=62|35=0|34=913|49=INITIATOR|52=20231129-08:58:50.084|56=ACCEPTOR|10=156|8=FIXT.1.1|9=62|35=0|34=914|49=INITIATOR|52=20231129-08:58:51.069|56=ACCEPTOR|10=161|8=FIXT.1.1|9=62|35=0|34=915|49=INITIATOR|52=20231129-08:58:52.052|56=ACCEPTOR|10=155|8=FIXT.1.1|9=62|35=0|34=916|49=INITIATOR|52=20231129-08:58:53.035|56=ACCEPTOR|10=158|8=FIXT.1.1|9=62|35=0|34=917|49=INITIATOR|52=20231129-08:58:54.017|56=ACCEPTOR|10=160|8=FIXT.1.1|9=62|35=0|34=918|49=INITIATOR|52=20231129-08:58:55.055|56=ACCEPTOR|10=164|8=FIXT.1.1|9=62|35=0|34=919|49=INITIATOR|52=20231129-08:58:56.035|56=ACCEPTOR|10=164|8=FIXT.1.1|9=62|35=0|34=920|49=INITIATOR|52=20231129-08:58:57.016|56=ACCEPTOR|10=156|8=FIXT.1.1|9=62|35=0|34=921|49=INITIATOR|52=20231129-08:58:58.053|56=ACCEPTOR|10=159|8=FIXT.1.1|9=62|35=0|34=922|49=INITIATOR|52=20231129-08:58:59.032|56=ACCEPTOR|10=158|8=FIXT.1.1|9=62|35=0|34=923|49=INITIATOR|52=20231129-08:59:00.011|56=ACCEPTOR|10=143|8=FIXT.1.1|9=62|35=0|34=924|49=INITIATOR|52=20231129-08:59:01.041|56=ACCEPTOR|10=148|8=FIXT.1.1|9=62|35=0|34=925|49=INITIATOR|52=20231129-08:59:02.018|56=ACCEPTOR|10=154|8=FIXT.1.1|9=62|35=0|34=926|49=INITIATOR|52=20231129-08:59:03.048|56=ACCEPTOR|10=159|8=FIXT.1.1|9=62|35=0|34=927|49=INITIATOR|52=20231129-08:59:04.022|56=ACCEPTOR|10=153|8=FIXT.1.1|9=62|35=0|34=928|49=INITIATOR|52=20231129-08:59:05.047|56=ACCEPTOR|10=162|8=FIXT.1.1|9=62|35=0|34=929|49=INITIATOR|52=20231129-08:59:06.019|56=ACCEPTOR|10=163|8=FIXT.1.1|9=62|35=0|34=930|49=INITIATOR|52=20231129-08:59:07.041|56=ACCEPTOR|10=151|8=FIXT.1.1|9=62|35=0|34=931|49=INITIATOR|52=20231129-08:59:08.012|56=ACCEPTOR|10=151|8=FIXT.1.1|9=62|35=0|34=932|49=INITIATOR|52=20231129-08:59:09.030|56=ACCEPTOR|10=153|8=FIXT.1.1|9=62|35=0|34=933|49=INITIATOR|52=20231129-08:59:10.000|56=ACCEPTOR|10=143|8=FIXT.1.1|9=62|35=0|34=934|49=INITIATOR|52=20231129-08:59:11.014|56=ACCEPTOR|10=150|8=FIXT.1.1|9=62|35=0|34=935|49=INITIATOR|52=20231129-08:59:12.022|56=ACCEPTOR|10=151|8=FIXT.1.1|9=62|35=0|34=936|49=INITIATOR|52=20231129-08:59:13.030|56=ACCEPTOR|10=152|8=FIXT.1.1|9=62|35=0|34=937|49=INITIATOR|52=20231129-08:59:14.037|56=ACCEPTOR|10=161|8=FIXT.1.1|9=62|35=0|34=938|49=INITIATOR|52=20231129-08:59:15.002|56=ACCEPTOR|10=155|8=FIXT.1.1|9=62|35=0|34=939|49=INITIATOR|52=20231129-08:59:16.005|56=ACCEPTOR|10=160|8=FIXT.1.1|9=62|35=0|34=940|49=INITIATOR|52=20231129-08:59:17.005|56=ACCEPTOR|10=153|8=FIXT.1.1|9=62|35=0|34=941|49=INITIATOR|52=20231129-08:59:18.004|56=ACCEPTOR|10=154|8=FIXT.1.1|9=62|35=0|34=942|49=INITIATOR|52=20231129-08:59:19.001|56=ACCEPTOR|10=153|8=FIXT.1.1|9=62|35=0|34=943|49=INITIATOR|52=20231129-08:59:20.492|56=ACCEPTOR|10=160|8=FIXT.1.1|9=62|35=0|34=944|49=INITIATOR|52=20231129-08:59:21.451|56=ACCEPTOR|10=157|8=FIXT.1.1|9=62|35=0|34=945|49=INITIATOR|52=20231129-08:59:22.411|56=ACCEPTOR|10=155|8=FIXT.1.1|9=62|35=0|34=946|49=INITIATOR|52=20231129-08:59:23.370|56=ACCEPTOR|10=161|8=FIXT.1.1|9=62|35=0|34=947|49=INITIATOR|52=20231129-08:59:24.327|56=ACCEPTOR|10=165|8=FIXT.1.1|9=62|35=0|34=948|49=INITIATOR|52=20231129-08:59:25.284|56=ACCEPTOR|10=169|8=FIXT.1.1|9=62|35=0|34=949|49=INITIATOR|52=20231129-08:59:26.240|56=ACCEPTOR|10=163|8=FIXT.1.1|9=62|35=0|34=950|49=INITIATOR|52=20231129-08:59:27.194|56=ACCEPTOR|10=164|8=FIXT.1.1|9=62|35=0|34=951|49=INITIATOR|52=20231129-08:59:28.148|56=ACCEPTOR|10=165|8=FIXT.1.1|9=62|35=0|34=952|49=INITIATOR|52=20231129-08:59:29.100|56=ACCEPTOR|10=155|8=FIXT.1.1|9=62|35=0|34=953|49=INITIATOR|52=20231129-08:59:30.051|56=ACCEPTOR|10=153|8=FIXT.1.1|9=62|35=0|34=954|49=INITIATOR|52=20231129-08:59:31.002|56=ACCEPTOR|10=151|8=FIXT.1.1|9=62|35=0|34=955|49=INITIATOR|52=20231129-08:59:32.462|56=ACCEPTOR|10=163|8=FIXT.1.1|9=62|35=0|34=956|49=INITIATOR|52=20231129-08:59:33.412|56=ACCEPTOR|10=160|8=FIXT.1.1|9=62|35=0|34=957|49=INITIATOR|52=20231129-08:59:34.361|56=ACCEPTOR|10=165|8=FIXT.1.1|9=62|35=0|34=958|49=INITIATOR|52=20231129-08:59:35.309|56=ACCEPTOR|10=169|8=FIXT.1.1|9=62|35=0|34=959|49=INITIATOR|52=20231129-08:59:36.258|56=ACCEPTOR|10=174|8=FIXT.1.1|9=62|35=0|34=960|49=INITIATOR|52=20231129-08:59:37.206|56=ACCEPTOR|10=160|8=FIXT.1.1|9=62|35=0|34=961|49=INITIATOR|52=20231129-08:59:38.152|56=ACCEPTOR|10=162|8=FIXT.1.1|9=62|35=0|34=962|49=INITIATOR|52=20231129-08:59:39.098|56=ACCEPTOR|10=173|8=FIXT.1.1|9=62|35=0|34=963|49=INITIATOR|52=20231129-08:59:40.042|56=ACCEPTOR|10=155|8=FIXT.1.1|9=62|35=0|34=964|49=INITIATOR|52=20231129-08:59:41.004|56=ACCEPTOR|10=155|8=FIXT.1.1|9=62|35=0|34=965|49=INITIATOR|52=20231129-08:59:42.441|56=ACCEPTOR|10=162|8=FIXT.1.1|9=62|35=0|34=966|49=INITIATOR|52=20231129-08:59:43.381|56=ACCEPTOR|10=167|8=FIXT.1.1|9=62|35=0|34=967|49=INITIATOR|52=20231129-08:59:44.322|56=ACCEPTOR|10=164|8=FIXT.1.1|9=62|35=0|34=968|49=INITIATOR|52=20231129-08:59:45.262|56=ACCEPTOR|10=169|8=FIXT.1.1|9=62|35=0|34=969|49=INITIATOR|52=20231129-08:59:46.201|56=ACCEPTOR|10=164|8=FIXT.1.1|9=62|35=0|34=970|49=INITIATOR|52=20231129-08:59:47.138|56=ACCEPTOR|10=166|8=FIXT.1.1|9=62|35=0|34=971|49=INITIATOR|52=20231129-08:59:48.075|56=ACCEPTOR|10=168|8=FIXT.1.1|9=62|35=0|34=972|49=INITIATOR|52=20231129-08:59:49.011|56=ACCEPTOR|10=160|8=FIXT.1.1|9=62|35=0|34=973|49=INITIATOR|52=20231129-08:59:50.427|56=ACCEPTOR|10=164|8=FIXT.1.1|9=62|35=0|34=974|49=INITIATOR|52=20231129-08:59:51.359|56=ACCEPTOR|10=170|8=FIXT.1.1|9=62|35=0|34=975|49=INITIATOR|52=20231129-08:59:52.292|56=ACCEPTOR|10=168|8=FIXT.1.1|9=62|35=0|34=976|49=INITIATOR|52=20231129-08:59:53.225|56=ACCEPTOR|10=166|8=FIXT.1.1|9=62|35=0|34=977|49=INITIATOR|52=20231129-08:59:54.156|56=ACCEPTOR|10=171|8=FIXT.1.1|9=62|35=0|34=978|49=INITIATOR|52=20231129-08:59:55.087|56=ACCEPTOR|10=176|8=FIXT.1.1|9=62|35=0|34=979|49=INITIATOR|52=20231129-08:59:56.017|56=ACCEPTOR|10=171|8=FIXT.1.1|9=62|35=0|34=980|49=INITIATOR|52=20231129-08:59:57.415|56=ACCEPTOR|10=166|8=FIXT.1.1|9=62|35=0|34=981|49=INITIATOR|52=20231129-08:59:58.343|56=ACCEPTOR|10=168|8=FIXT.1.1|9=62|35=0|34=982|49=INITIATOR|52=20231129-08:59:59.270|56=ACCEPTOR|10=169|8=FIXT.1.1|9=62|35=0|34=983|49=INITIATOR|52=20231129-09:00:00.195|56=ACCEPTOR|10=149|8=FIXT.1.1|9=62|35=0|34=984|49=INITIATOR|52=20231129-09:00:01.120|56=ACCEPTOR|10=139|8=FIXT.1.1|9=62|35=0|34=985|49=INITIATOR|52=20231129-09:00:02.045|56=ACCEPTOR|10=147|8=FIXT.1.1|9=62|35=0|34=986|49=INITIATOR|52=20231129-09:00:03.431|56=ACCEPTOR|10=148|8=FIXT.1.1|9=62|35=0|34=987|49=INITIATOR|52=20231129-09:00:04.354|56=ACCEPTOR|10=154|8=FIXT.1.1|9=62|35=0|34=988|49=INITIATOR|52=20231129-09:00:05.277|56=ACCEPTOR|10=160|8=FIXT.1.1|9=62|35=0|34=989|49=INITIATOR|52=20231129-09:00:06.199|56=ACCEPTOR|10=165|8=FIXT.1.1|9=62|35=0|34=990|49=INITIATOR|52=20231129-09:00:07.121|56=ACCEPTOR|10=143|8=FIXT.1.1|9=62|35=0|34=991|49=INITIATOR|52=20231129-09:00:08.041|56=ACCEPTOR|10=146|8=FIXT.1.1|9=62|35=0|34=992|49=INITIATOR|52=20231129-09:00:09.419|56=ACCEPTOR|10=157|8=FIXT.1.1|9=62|35=0|34=993|49=INITIATOR|52=20231129-09:00:10.335|56=ACCEPTOR|10=147|8=FIXT.1.1|9=62|35=0|34=994|49=INITIATOR|52=20231129-09:00:11.250|56=ACCEPTOR|10=145|8=FIXT.1.1|9=62|35=0|34=995|49=INITIATOR|52=20231129-09:00:12.164|56=ACCEPTOR|10=151|8=FIXT.1.1|9=62|35=0|34=996|49=INITIATOR|52=20231129-09:00:13.076|56=ACCEPTOR|10=155|8=FIXT.1.1|9=62|35=0|34=997|49=INITIATOR|52=20231129-09:00:14.441|56=ACCEPTOR|10=153|8=FIXT.1.1|9=62|35=0|34=998|49=INITIATOR|52=20231129-09:00:15.349|56=ACCEPTOR|10=162|8=FIXT.1.1|9=62|35=0|34=999|49=INITIATOR|52=20231129-09:00:16.255|56=ACCEPTOR|10=160|8=FIXT.1.1|9=63|35=0|34=1000|49=INITIATOR|52=20231129-09:00:17.158|56=ACCEPTOR|10=186|8=FIXT.1.1|9=63|35=0|34=1001|49=INITIATOR|52=20231129-09:00:18.059|56=ACCEPTOR|10=188|8=FIXT.1.1|9=63|35=0|34=1002|49=INITIATOR|52=20231129-09:00:19.407|56=ACCEPTOR|10=187|8=FIXT.1.1|9=63|35=0|34=1003|49=INITIATOR|52=20231129-09:00:20.303|56=ACCEPTOR|10=175|8=FIXT.1.1|9=63|35=0|34=1004|49=INITIATOR|52=20231129-09:00:21.199|56=ACCEPTOR|10=190|8=FIXT.1.1|9=63|35=0|34=1005|49=INITIATOR|52=20231129-09:00:22.092|56=ACCEPTOR|10=184|8=FIXT.1.1|9=63|35=0|34=1006|49=INITIATOR|52=20231129-09:00:23.004|56=ACCEPTOR|10=179|8=FIXT.1.1|9=63|35=0|34=1007|49=INITIATOR|52=20231129-09:00:24.337|56=ACCEPTOR|10=190|8=FIXT.1.1|9=63|35=0|34=1008|49=INITIATOR|52=20231129-09:00:25.223|56=ACCEPTOR|10=186|8=FIXT.1.1|9=63|35=0|34=1009|49=INITIATOR|52=20231129-09:00:26.108|56=ACCEPTOR|10=190|8=FIXT.1.1|9=63|35=0|34=1010|49=INITIATOR|52=20231129-09:00:27.017|56=ACCEPTOR|10=182|8=FIXT.1.1|9=63|35=0|34=1011|49=INITIATOR|52=20231129-09:00:28.338|56=ACCEPTOR|10=190|8=FIXT.1.1|9=63|35=0|34=1012|49=INITIATOR|52=20231129-09:00:29.216|56=ACCEPTOR|10=187|8=FIXT.1.1|9=63|35=0|34=1013|49=INITIATOR|52=20231129-09:00:30.093|56=ACCEPTOR|10=183|8=FIXT.1.1|9=63|35=0|34=1014|49=INITIATOR|52=20231129-09:00:31.404|56=ACCEPTOR|10=181|8=FIXT.1.1|9=63|35=0|34=1015|49=INITIATOR|52=20231129-09:00:32.277|56=ACCEPTOR|10=191|8=FIXT.1.1|9=63|35=0|34=1016|49=INITIATOR|52=20231129-09:00:33.148|56=ACCEPTOR|10=190|8=FIXT.1.1|9=63|35=0|34=1017|49=INITIATOR|52=20231129-09:00:34.016|56=ACCEPTOR|10=186|8=FIXT.1.1|9=63|35=0|34=1018|49=INITIATOR|52=20231129-09:00:35.316|56=ACCEPTOR|10=191|8=FIXT.1.1|9=63|35=0|34=1019|49=INITIATOR|52=20231129-09:00:36.181|56=ACCEPTOR|10=193|8=FIXT.1.1|9=63|35=0|34=1020|49=INITIATOR|52=20231129-09:00:37.044|56=ACCEPTOR|10=184|8=FIXT.1.1|9=63|35=0|34=1021|49=INITIATOR|52=20231129-09:00:38.333|56=ACCEPTOR|10=187|8=FIXT.1.1|9=63|35=0|34=1022|49=INITIATOR|52=20231129-09:00:39.189|56=ACCEPTOR|10=198|8=FIXT.1.1|9=63|35=0|34=1023|49=INITIATOR|52=20231129-09:00:40.044|56=ACCEPTOR|10=181|8=FIXT.1.1|9=63|35=0|34=1024|49=INITIATOR|52=20231129-09:00:41.323|56=ACCEPTOR|10=183|8=FIXT.1.1|9=63|35=0|34=1025|49=INITIATOR|52=20231129-09:00:42.174|56=ACCEPTOR|10=189|8=FIXT.1.1|9=63|35=0|34=1026|49=INITIATOR|52=20231129-09:00:43.022|56=ACCEPTOR|10=183|8=FIXT.1.1|9=63|35=0|34=1027|49=INITIATOR|52=20231129-09:00:44.291|56=ACCEPTOR|10=193|8=FIXT.1.1|9=63|35=0|34=1028|49=INITIATOR|52=20231129-09:00:45.134|56=ACCEPTOR|10=191|8=FIXT.1.1|9=63|35=0|34=1029|49=INITIATOR|52=20231129-09:00:46.027|56=ACCEPTOR|10=194|8=FIXT.1.1|9=63|35=0|34=1030|49=INITIATOR|52=20231129-09:00:47.284|56=ACCEPTOR|10=192|8=FIXT.1.1|9=63|35=0|34=1031|49=INITIATOR|52=20231129-09:00:48.121|56=ACCEPTOR|10=184|8=FIXT.1.1|9=63|35=0|34=1032|49=INITIATOR|52=20231129-09:00:49.012|56=ACCEPTOR|10=185|8=FIXT.1.1|9=63|35=0|34=1033|49=INITIATOR|52=20231129-09:00:50.261|56=ACCEPTOR|10=184|8=FIXT.1.1|9=63|35=0|34=1034|49=INITIATOR|52=20231129-09:00:51.092|56=ACCEPTOR|10=188|8=FIXT.1.1|9=63|35=0|34=1035|49=INITIATOR|52=20231129-09:00:52.331|56=ACCEPTOR|10=186|8=FIXT.1.1|9=63|35=0|34=1036|49=INITIATOR|52=20231129-09:00:53.156|56=ACCEPTOR|10=193|8=FIXT.1.1|9=63|35=0|34=1037|49=INITIATOR|52=20231129-09:00:54.042|56=ACCEPTOR|10=189|8=FIXT.1.1|9=63|35=0|34=1038|49=INITIATOR|52=20231129-09:00:55.274|56=ACCEPTOR|10=198|8=FIXT.1.1|9=63|35=0|34=1039|49=INITIATOR|52=20231129-09:00:56.092|56=ACCEPTOR|10=198|8=FIXT.1.1|9=63|35=0|34=1040|49=INITIATOR|52=20231129-09:00:57.317|56=ACCEPTOR|10=191|8=FIXT.1.1|9=63|35=0|34=1041|49=INITIATOR|52=20231129-09:00:58.132|56=ACCEPTOR|10=188|8=FIXT.1.1|9=63|35=0|34=1042|49=INITIATOR|52=20231129-09:00:59.014|56=ACCEPTOR|10=189|8=FIXT.1.1|9=63|35=0|34=1043|49=INITIATOR|52=20231129-09:01:00.229|56=ACCEPTOR|10=185|8=FIXT.1.1|9=63|35=0|34=1044|49=INITIATOR|52=20231129-09:01:01.036|56=ACCEPTOR|10=183|8=FIXT.1.1|9=63|35=0|34=1045|49=INITIATOR|52=20231129-09:01:02.243|56=ACCEPTOR|10=185|8=FIXT.1.1|9=63|35=0|34=1046|49=INITIATOR|52=20231129-09:01:03.046|56=ACCEPTOR|10=188|8=FIXT.1.1|9=63|35=0|34=1047|49=INITIATOR|52=20231129-09:01:04.245|56=ACCEPTOR|10=191|8=FIXT.1.1|9=63|35=0|34=1048|49=INITIATOR|52=20231129-09:01:05.043|56=ACCEPTOR|10=189|8=FIXT.1.1|9=63|35=0|34=1049|49=INITIATOR|52=20231129-09:01:06.237|56=ACCEPTOR|10=196|8=FIXT.1.1|9=63|35=0|34=1050|49=INITIATOR|52=20231129-09:01:07.031|56=ACCEPTOR|10=181|8=FIXT.1.1|9=63|35=0|34=1051|49=INITIATOR|52=20231129-09:01:08.219|56=ACCEPTOR|10=191|8=FIXT.1.1|9=63|35=0|34=1052|49=INITIATOR|52=20231129-09:01:09.010|56=ACCEPTOR|10=182|8=FIXT.1.1|9=63|35=0|34=1053|49=INITIATOR|52=20231129-09:01:10.193|56=ACCEPTOR|10=187|8=FIXT.1.1|9=63|35=0|34=1054|49=INITIATOR|52=20231129-09:01:11.065|56=ACCEPTOR|10=187|8=FIXT.1.1|9=63|35=0|34=1055|49=INITIATOR|52=20231129-09:01:12.242|56=ACCEPTOR|10=186|8=FIXT.1.1|9=63|35=0|34=1056|49=INITIATOR|52=20231129-09:01:13.025|56=ACCEPTOR|10=187|8=FIXT.1.1|9=63|35=0|34=1057|49=INITIATOR|52=20231129-09:01:14.194|56=ACCEPTOR|10=196|8=FIXT.1.1|9=63|35=0|34=1058|49=INITIATOR|52=20231129-09:01:15.063|56=ACCEPTOR|10=193|8=FIXT.1.1|9=63|35=0|34=1059|49=INITIATOR|52=20231129-09:01:16.228|56=ACCEPTOR|10=198|8=FIXT.1.1|9=63|35=0|34=1060|49=INITIATOR|52=20231129-09:01:17.003|56=ACCEPTOR|10=182|8=FIXT.1.1|9=63|35=0|34=1061|49=INITIATOR|52=20231129-09:01:18.161|56=ACCEPTOR|10=189|8=FIXT.1.1|9=63|35=0|34=1062|49=INITIATOR|52=20231129-09:01:19.028|56=ACCEPTOR|10=193|8=FIXT.1.1|9=63|35=0|34=1063|49=INITIATOR|52=20231129-09:01:20.180|56=ACCEPTOR|10=185|8=FIXT.1.1|9=63|35=0|34=1064|49=INITIATOR|52=20231129-09:01:21.045|56=ACCEPTOR|10=187|8=FIXT.1.1|9=63|35=0|34=1065|49=INITIATOR|52=20231129-09:01:22.192|56=ACCEPTOR|10=192|8=FIXT.1.1|9=63|35=0|34=1066|49=INITIATOR|52=20231129-09:01:23.056|56=ACCEPTOR|10=193|8=FIXT.1.1|9=63|35=0|34=1067|49=INITIATOR|52=20231129-09:01:24.198|56=ACCEPTOR|10=202|8=FIXT.1.1|9=63|35=0|34=1068|49=INITIATOR|52=20231129-09:01:25.060|56=ACCEPTOR|10=192|8=FIXT.1.1|9=63|35=0|34=1069|49=INITIATOR|52=20231129-09:01:26.197|56=ACCEPTOR|10=205|8=FIXT.1.1|9=63|35=0|34=1070|49=INITIATOR|52=20231129-09:01:27.058|56=ACCEPTOR|10=194|8=FIXT.1.1|9=63|35=0|34=1071|49=INITIATOR|52=20231129-09:01:28.189|56=ACCEPTOR|10=201|8=FIXT.1.1|9=63|35=0|34=1072|49=INITIATOR|52=20231129-09:01:29.047|56=ACCEPTOR|10=196|8=FIXT.1.1|9=63|35=0|34=1073|49=INITIATOR|52=20231129-09:01:30.173|56=ACCEPTOR|10=189|8=FIXT.1.1|9=63|35=0|34=1074|49=INITIATOR|52=20231129-09:01:31.031|56=ACCEPTOR|10=184|8=FIXT.1.1|9=63|35=0|34=1075|49=INITIATOR|52=20231129-09:01:32.150|56=ACCEPTOR|10=188|8=FIXT.1.1|9=63|35=0|34=1076|49=INITIATOR|52=20231129-09:01:33.005|56=ACCEPTOR|10=189|8=FIXT.1.1|9=63|35=0|34=1077|49=INITIATOR|52=20231129-09:01:34.120|56=ACCEPTOR|10=189|8=FIXT.1.1|9=63|35=0|34=1078|49=INITIATOR|52=20231129-09:01:35.230|56=ACCEPTOR|10=193|8=FIXT.1.1|9=63|35=0|34=1079|49=INITIATOR|52=20231129-09:01:36.083|56=ACCEPTOR|10=201|8=FIXT.1.1|9=63|35=0|34=1080|49=INITIATOR|52=20231129-09:01:37.188|56=ACCEPTOR|10=200|8=FIXT.1.1|9=63|35=0|34=1081|49=INITIATOR|52=20231129-09:01:38.040|56=ACCEPTOR|10=189|8=FIXT.1.1|9=63|35=0|34=1082|49=INITIATOR|52=20231129-09:01:39.139|56=ACCEPTOR|10=200|8=FIXT.1.1|9=63|35=0|34=1083|49=INITIATOR|52=20231129-09:01:40.233|56=ACCEPTOR|10=188|8=FIXT.1.1|9=63|35=0|34=1084|49=INITIATOR|52=20231129-09:01:41.082|56=ACCEPTOR|10=192|8=FIXT.1.1|9=63|35=0|34=1085|49=INITIATOR|52=20231129-09:01:42.170|56=ACCEPTOR|10=192|8=FIXT.1.1|9=63|35=0|34=1086|49=INITIATOR|52=20231129-09:01:43.017|56=ACCEPTOR|10=194|8=FIXT.1.1|9=63|35=0|34=1087|49=INITIATOR|52=20231129-09:01:44.098|56=ACCEPTOR|10=205|8=FIXT.1.1|9=63|35=0|34=1088|49=INITIATOR|52=20231129-09:01:45.176|56=ACCEPTOR|10=204|8=FIXT.1.1|9=63|35=0|34=1089|49=INITIATOR|52=20231129-09:01:46.019|56=ACCEPTOR|10=202|8=FIXT.1.1|9=63|35=0|34=1090|49=INITIATOR|52=20231129-09:01:47.091|56=ACCEPTOR|10=195|8=FIXT.1.1|9=63|35=0|34=1091|49=INITIATOR|52=20231129-09:01:48.158|56=ACCEPTOR|10=201|8=FIXT.1.1|9=63|35=0|34=1092|49=INITIATOR|52=20231129-09:01:49.220|56=ACCEPTOR|10=193|8=FIXT.1.1|9=63|35=0|34=1093|49=INITIATOR|52=20231129-09:01:50.060|56=ACCEPTOR|10=188|8=FIXT.1.1|9=63|35=0|34=1094|49=INITIATOR|52=20231129-09:01:51.119|56=ACCEPTOR|10=195|8=FIXT.1.1|9=63|35=0|34=1095|49=INITIATOR|52=20231129-09:01:52.173|56=ACCEPTOR|10=197|8=FIXT.1.1|9=63|35=0|34=1096|49=INITIATOR|52=20231129-09:01:53.011|56=ACCEPTOR|10=190|8=FIXT.1.1|9=63|35=0|34=1097|49=INITIATOR|52=20231129-09:01:54.061|56=ACCEPTOR|10=197|8=FIXT.1.1|9=63|35=0|34=1098|49=INITIATOR|52=20231129-09:01:55.107|56=ACCEPTOR|10=200|8=FIXT.1.1|9=63|35=0|34=1099|49=INITIATOR|52=20231129-09:01:56.153|56=ACCEPTOR|10=203|8=FIXT.1.1|9=63|35=0|34=1100|49=INITIATOR|52=20231129-09:01:57.194|56=ACCEPTOR|10=192|8=FIXT.1.1|9=63|35=0|34=1101|49=INITIATOR|52=20231129-09:01:58.029|56=ACCEPTOR|10=191|8=FIXT.1.1|9=63|35=0|34=1102|49=INITIATOR|52=20231129-09:01:59.065|56=ACCEPTOR|10=193|8=FIXT.1.1|9=63|35=0|34=1103|49=INITIATOR|52=20231129-09:02:00.096|56=ACCEPTOR|10=185|8=FIXT.1.1|9=63|35=0|34=1104|49=INITIATOR|52=20231129-09:02:01.125|56=ACCEPTOR|10=180|8=FIXT.1.1|9=63|35=0|34=1105|49=INITIATOR|52=20231129-09:02:02.152|56=ACCEPTOR|10=182|8=FIXT.1.1|9=63|35=0|34=1106|49=INITIATOR|52=20231129-09:02:03.173|56=ACCEPTOR|10=187|8=FIXT.1.1|9=63|35=0|34=1107|49=INITIATOR|52=20231129-09:02:04.003|56=ACCEPTOR|10=181|8=FIXT.1.1|9=63|35=0|34=1108|49=INITIATOR|52=20231129-09:02:05.018|56=ACCEPTOR|10=189|8=FIXT.1.1|9=63|35=0|34=1109|49=INITIATOR|52=20231129-09:02:06.028|56=ACCEPTOR|10=192|8=FIXT.1.1|9=63|35=0|34=1110|49=INITIATOR|52=20231129-09:02:07.036|56=ACCEPTOR|10=184|8=FIXT.1.1|9=63|35=0|34=1111|49=INITIATOR|52=20231129-09:02:08.040|56=ACCEPTOR|10=181|8=FIXT.1.1|9=63|35=0|34=1112|49=INITIATOR|52=20231129-09:02:09.042|56=ACCEPTOR|10=185|8=FIXT.1.1|9=63|35=0|34=1113|49=INITIATOR|52=20231129-09:02:10.041|56=ACCEPTOR|10=177|8=FIXT.1.1|9=63|35=0|34=1114|49=INITIATOR|52=20231129-09:02:11.036|56=ACCEPTOR|10=183|8=FIXT.1.1|9=63|35=0|34=1115|49=INITIATOR|52=20231129-09:02:12.028|56=ACCEPTOR|10=186|8=FIXT.1.1|9=63|35=0|34=1116|49=INITIATOR|52=20231129-09:02:13.020|56=ACCEPTOR|10=180|8=FIXT.1.1|9=63|35=0|34=1117|49=INITIATOR|52=20231129-09:02:14.010|56=ACCEPTOR|10=181|8=FIXT.1.1|9=63|35=0|34=1118|49=INITIATOR|52=20231129-09:02:15.325|56=ACCEPTOR|10=192|8=FIXT.1.1|9=63|35=0|34=1119|49=INITIATOR|52=20231129-09:02:16.146|56=ACCEPTOR|10=195|8=FIXT.1.1|9=63|35=0|34=1120|49=INITIATOR|52=20231129-09:02:17.130|56=ACCEPTOR|10=181|8=FIXT.1.1|9=63|35=0|34=1121|49=INITIATOR|52=20231129-09:02:18.108|56=ACCEPTOR|10=188|8=FIXT.1.1|9=63|35=0|34=1122|49=INITIATOR|52=20231129-09:02:19.083|56=ACCEPTOR|10=192|8=FIXT.1.1|9=63|35=0|34=1123|49=INITIATOR|52=20231129-09:02:20.055|56=ACCEPTOR|10=184|8=FIXT.1.1|9=63|35=0|34=1124|49=INITIATOR|52=20231129-09:02:21.023|56=ACCEPTOR|10=181|8=FIXT.1.1|9=63|35=0|34=1125|49=INITIATOR|52=20231129-09:02:22.313|56=ACCEPTOR|10=185|8=FIXT.1.1|9=63|35=0|34=1126|49=INITIATOR|52=20231129-09:02:23.129|56=ACCEPTOR|10=192|8=FIXT.1.1|9=63|35=0|34=1127|49=INITIATOR|52=20231129-09:02:24.093|56=ACCEPTOR|10=194|8=FIXT.1.1|9=63|35=0|34=1128|49=INITIATOR|52=20231129-09:02:25.052|56=ACCEPTOR|10=191|8=FIXT.1.1|9=63|35=0|34=1129|49=INITIATOR|52=20231129-09:02:26.008|56=ACCEPTOR|10=194|8=FIXT.1.1|9=63|35=0|34=1130|49=INITIATOR|52=20231129-09:02:27.278|56=ACCEPTOR|10=196|8=FIXT.1.1|9=63|35=0|34=1131|49=INITIATOR|52=20231129-09:02:28.091|56=ACCEPTOR|10=191|8=FIXT.1.1|9=63|35=0|34=1132|49=INITIATOR|52=20231129-09:02:29.041|56=ACCEPTOR|10=188|8=FIXT.1.1|9=63|35=0|34=1133|49=INITIATOR|52=20231129-09:02:30.301|56=ACCEPTOR|10=180|8=FIXT.1.1|9=63|35=0|34=1134|49=INITIATOR|52=20231129-09:02:31.112|56=ACCEPTOR|10=182|8=FIXT.1.1|9=63|35=0|34=1135|49=INITIATOR|52=20231129-09:02:32.054|56=ACCEPTOR|10=189|8=FIXT.1.1|9=63|35=0|34=1136|49=INITIATOR|52=20231129-09:02:33.304|56=ACCEPTOR|10=189|8=FIXT.1.1|9=63|35=0|34=1137|49=INITIATOR|52=20231129-09:02:34.112|56=ACCEPTOR|10=188|8=FIXT.1.1|9=63|35=0|34=1138|49=INITIATOR|52=20231129-09:02:35.047|56=ACCEPTOR|10=197|8=FIXT.1.1|9=63|35=0|34=1139|49=INITIATOR|52=20231129-09:02:36.289|56=ACCEPTOR|10=207|8=FIXT.1.1|9=63|35=0|34=1140|49=INITIATOR|52=20231129-09:02:37.095|56=ACCEPTOR|10=195|8=FIXT.1.1|9=63|35=0|34=1141|49=INITIATOR|52=20231129-09:02:38.022|56=ACCEPTOR|10=187|8=FIXT.1.1|9=63|35=0|34=1142|49=INITIATOR|52=20231129-09:02:39.253|56=ACCEPTOR|10=195|8=FIXT.1.1|9=63|35=0|34=1143|49=INITIATOR|52=20231129-09:02:40.057|56=ACCEPTOR|10=190|8=FIXT.1.1|9=63|35=0|34=1144|49=INITIATOR|52=20231129-09:02:41.282|56=ACCEPTOR|10=192|8=FIXT.1.1|9=63|35=0|34=1145|49=INITIATOR|52=20231129-09:02:42.085|56=ACCEPTOR|10=195|8=FIXT.1.1|9=63|35=0|34=1146|49=INITIATOR|52=20231129-09:02:43.301|56=ACCEPTOR|10=188|8=FIXT.1.1|9=63|35=0|34=1147|49=INITIATOR|52=20231129-09:02:44.103|56=ACCEPTOR|10=190|8=FIXT.1.1|9=63|35=0|34=1148|49=INITIATOR|52=20231129-09:02:45.010|56=ACCEPTOR|10=189|8=FIXT.1.1|9=63|35=0|34=1149|49=INITIATOR|52=20231129-09:02:46.213|56=ACCEPTOR|10=196|8=FIXT.1.1|9=63|35=0|34=1150|49=INITIATOR|52=20231129-09:02:47.012|56=ACCEPTOR|10=186|8=FIXT.1.1|9=63|35=0|34=1151|49=INITIATOR|52=20231129-09:02:48.208|56=ACCEPTOR|10=195|8=FIXT.1.1|9=63|35=0|34=1152|49=INITIATOR|52=20231129-09:02:49.006|56=ACCEPTOR|10=193|8=FIXT.1.1|9=63|35=0|34=1153|49=INITIATOR|52=20231129-09:02:50.194|56=ACCEPTOR|10=194|8=FIXT.1.1|9=63|35=0|34=1154|49=INITIATOR|52=20231129-09:02:51.081|56=ACCEPTOR|10=191|8=FIXT.1.1|9=63|35=0|34=1155|49=INITIATOR|52=20231129-09:02:52.260|56=ACCEPTOR|10=192|8=FIXT.1.1|9=63|35=0|34=1156|49=INITIATOR|52=20231129-09:02:53.055|56=ACCEPTOR|10=196|8=FIXT.1.1|9=63|35=0|34=1157|49=INITIATOR|52=20231129-09:02:54.230|56=ACCEPTOR|10=193|8=FIXT.1.1|9=63|35=0|34=1158|49=INITIATOR|52=20231129-09:02:55.023|56=ACCEPTOR|10=195|8=FIXT.1.1|9=63|35=0|34=1159|49=INITIATOR|52=20231129-09:02:56.191|56=ACCEPTOR|10=203|8=FIXT.1.1|9=63|35=0|34=1160|49=INITIATOR|52=20231129-09:02:57.064|56=ACCEPTOR|10=195|8=FIXT.1.1|9=63|35=0|34=1161|49=INITIATOR|52=20231129-09:02:58.219|56=ACCEPTOR|10=199|8=FIXT.1.1|9=63|35=0|34=1162|49=INITIATOR|52=20231129-09:02:59.010|56=ACCEPTOR|10=190|8=FIXT.1.1|9=63|35=0|34=1163|49=INITIATOR|52=20231129-09:03:00.159|56=ACCEPTOR|10=192|8=FIXT.1.1|9=63|35=0|34=1164|49=INITIATOR|52=20231129-09:03:01.013|56=ACCEPTOR|10=183|8=FIXT.1.1|9=63|35=0|34=1165|49=INITIATOR|52=20231129-09:03:02.150|56=ACCEPTOR|10=187|8=FIXT.1.1|9=63|35=0|34=1166|49=INITIATOR|52=20231129-09:03:03.280|56=ACCEPTOR|10=193|8=FIXT.1.1|9=63|35=0|34=1167|49=INITIATOR|52=20231129-09:03:04.066|56=ACCEPTOR|10=197|8=FIXT.1.1|9=63|35=0|34=1168|49=INITIATOR|52=20231129-09:03:05.190|56=ACCEPTOR|10=197|8=FIXT.1.1|9=63|35=0|34=1169|49=INITIATOR|52=20231129-09:03:06.030|56=ACCEPTOR|10=192|8=FIXT.1.1|9=63|35=0|34=1170|49=INITIATOR|52=20231129-09:03:07.146|56=ACCEPTOR|10=193|8=FIXT.1.1|9=63|35=0|34=1171|49=INITIATOR|52=20231129-09:03:08.255|56=ACCEPTOR|10=196|8=FIXT.1.1|9=63|35=0|34=1172|49=INITIATOR|52=20231129-09:03:09.037|56=ACCEPTOR|10=196|8=FIXT.1.1|9=63|35=0|34=1173|49=INITIATOR|52=20231129-09:03:10.138|56=ACCEPTOR|10=191|8=FIXT.1.1|9=63|35=0|34