8=FIXT.1.1|9=84|35=A|34=1|49=INITIATOR|52=20231201-06:17:31.686|56=ACCEPTOR|98=0|108=1|141=Y|1137=7|10=145|8=FIXT.1.1|9=60|35=0|34=2|49=INITIATOR|52=20231201-06:17:32.679|56=ACCEPTOR|10=041|8=FIXT.1.1|9=60|35=0|34=3|49=INITIATOR|52=20231201-06:17:33.672|56=ACCEPTOR|10=036|8=FIXT.1.1|9=60|35=0|34=4|49=INITIATOR|52=20231201-06:17:34.665|56=ACCEPTOR|10=040|8=FIXT.1.1|9=60|35=0|34=5|49=INITIATOR|52=20231201-06:17:35.655|56=ACCEPTOR|10=041|8=FIXT.1.1|9=60|35=0|34=6|49=INITIATOR|52=20231201-06:17:36.645|56=ACCEPTOR|10=042|8=FIXT.1.1|9=60|35=0|34=7|49=INITIATOR|52=20231201-06:17:37.633|56=ACCEPTOR|10=041|8=FIXT.1.1|9=60|35=0|34=8|49=INITIATOR|52=20231201-06:17:38.622|56=ACCEPTOR|10=041|8=FIXT.1.1|9=60|35=0|34=9|49=INITIATOR|52=20231201-06:17:39.610|56=ACCEPTOR|10=040|8=FIXT.1.1|9=61|35=0|34=10|49=INITIATOR|52=20231201-06:17:40.596|56=ACCEPTOR|10=086|8=FIXT.1.1|9=61|35=0|34=11|49=INITIATOR|52=20231201-06:17:41.580|56=ACCEPTOR|10=081|8=FIXT.1.1|9=61|35=0|34=12|49=INITIATOR|52=20231201-06:17:42.561|56=ACCEPTOR|10=082|8=FIXT.1.1|9=61|35=0|34=13|49=INITIATOR|52=20231201-06:17:43.544|56=ACCEPTOR|10=085|8=FIXT.1.1|9=61|35=0|34=14|49=INITIATOR|52=20231201-06:17:44.525|56=ACCEPTOR|10=086|8=FIXT.1.1|9=61|35=0|34=15|49=INITIATOR|52=20231201-06:17:45.508|56=ACCEPTOR|10=089|8=FIXT.1.1|9=61|35=0|34=16|49=INITIATOR|52=20231201-06:17:46.489|56=ACCEPTOR|10=099|8=FIXT.1.1|9=61|35=0|34=17|49=INITIATOR|52=20231201-06:17:47.469|56=ACCEPTOR|10=099|8=FIXT.1.1|9=61|35=0|34=18|49=INITIATOR|52=20231201-06:17:48.447|56=ACCEPTOR|10=097|8=FIXT.1.1|9=61|35=0|34=19|49=INITIATOR|52=20231201-06:17:49.426|56=ACCEPTOR|10=096|8=FIXT.1.1|9=61|35=0|34=20|49=INITIATOR|52=20231201-06:17:50.403|56=ACCEPTOR|10=075|8=FIXT.1.1|9=61|35=0|34=21|49=INITIATOR|52=20231201-06:17:51.379|56=ACCEPTOR|10=089|8=FIXT.1.1|9=61|35=0|34=22|49=INITIATOR|52=20231201-06:17:52.353|56=ACCEPTOR|10=083|8=FIXT.1.1|9=61|35=0|34=23|49=INITIATOR|52=20231201-06:17:53.326|56=ACCEPTOR|10=085|8=FIXT.1.1|9=61|35=0|34=24|49=INITIATOR|52=20231201-06:17:54.298|56=ACCEPTOR|10=095|8=FIXT.1.1|9=61|35=0|34=25|49=INITIATOR|52=20231201-06:17:55.271|56=ACCEPTOR|10=088|8=FIXT.1.1|9=61|35=0|34=26|49=INITIATOR|52=20231201-06:17:56.242|56=ACCEPTOR|10=088|8=FIXT.1.1|9=61|35=0|34=27|49=INITIATOR|52=20231201-06:17:57.215|56=ACCEPTOR|10=090|8=FIXT.1.1|9=61|35=0|34=28|49=INITIATOR|52=20231201-06:17:58.186|56=ACCEPTOR|10=099|8=FIXT.1.1|9=61|35=0|34=29|49=INITIATOR|52=20231201-06:17:59.155|56=ACCEPTOR|10=097|8=FIXT.1.1|9=61|35=0|34=30|49=INITIATOR|52=20231201-06:18:00.124|56=ACCEPTOR|10=072|8=FIXT.1.1|9=61|35=0|34=31|49=INITIATOR|52=20231201-06:18:01.090|56=ACCEPTOR|10=076|8=FIXT.1.1|9=61|35=0|34=32|49=INITIATOR|52=20231201-06:18:02.056|56=ACCEPTOR|10=080|8=FIXT.1.1|9=61|35=0|34=33|49=INITIATOR|52=20231201-06:18:03.021|56=ACCEPTOR|10=074|8=FIXT.1.1|9=61|35=0|34=34|49=INITIATOR|52=20231201-06:18:04.947|56=ACCEPTOR|10=093|8=FIXT.1.1|9=61|35=0|34=35|49=INITIATOR|52=20231201-06:18:05.910|56=ACCEPTOR|10=085|8=FIXT.1.1|9=61|35=0|34=36|49=INITIATOR|52=20231201-06:18:06.871|56=ACCEPTOR|10=093|8=FIXT.1.1|9=61|35=0|34=37|49=INITIATOR|52=20231201-06:18:07.831|56=ACCEPTOR|10=091|8=FIXT.1.1|9=61|35=0|34=38|49=INITIATOR|52=20231201-06:18:08.789|56=ACCEPTOR|10=105|8=FIXT.1.1|9=61|35=0|34=39|49=INITIATOR|52=20231201-06:18:09.747|56=ACCEPTOR|10=101|8=FIXT.1.1|9=61|35=0|34=40|49=INITIATOR|52=20231201-06:18:10.704|56=ACCEPTOR|10=078|8=FIXT.1.1|9=61|35=0|34=41|49=INITIATOR|52=20231201-06:18:11.658|56=ACCEPTOR|10=088|8=FIXT.1.1|9=61|35=0|34=42|49=INITIATOR|52=20231201-06:18:12.612|56=ACCEPTOR|10=080|8=FIXT.1.1|9=61|35=0|34=43|49=INITIATOR|52=20231201-06:18:13.565|56=ACCEPTOR|10=089|8=FIXT.1.1|9=61|35=0|34=44|49=INITIATOR|52=20231201-06:18:14.515|56=ACCEPTOR|10=086|8=FIXT.1.1|9=61|35=0|34=45|49=INITIATOR|52=20231201-06:18:15.464|56=ACCEPTOR|10=091|8=FIXT.1.1|9=61|35=0|34=46|49=INITIATOR|52=20231201-06:18:16.413|56=ACCEPTOR|10=087|8=FIXT.1.1|9=61|35=0|34=47|49=INITIATOR|52=20231201-06:18:17.362|56=ACCEPTOR|10=092|8=FIXT.1.1|9=61|35=0|34=48|49=INITIATOR|52=20231201-06:18:18.308|56=ACCEPTOR|10=094|8=FIXT.1.1|9=61|35=0|34=49|49=INITIATOR|52=20231201-06:18:19.255|56=ACCEPTOR|10=097|8=FIXT.1.1|9=61|35=0|34=50|49=INITIATOR|52=20231201-06:18:20.199|56=ACCEPTOR|10=088|8=FIXT.1.1|9=61|35=0|34=51|49=INITIATOR|52=20231201-06:18:21.142|56=ACCEPTOR|10=078|8=FIXT.1.1|9=61|35=0|34=52|49=INITIATOR|52=20231201-06:18:22.085|56=ACCEPTOR|10=086|8=FIXT.1.1|9=61|35=0|34=53|49=INITIATOR|52=20231201-06:18:23.026|56=ACCEPTOR|10=083|8=FIXT.1.1|9=61|35=0|34=54|49=INITIATOR|52=20231201-06:18:24.906|56=ACCEPTOR|10=092|8=FIXT.1.1|9=61|35=0|34=55|49=INITIATOR|52=20231201-06:18:25.846|56=ACCEPTOR|10=097|8=FIXT.1.1|9=61|35=0|34=56|49=INITIATOR|52=20231201-06:18:26.784|56=ACCEPTOR|10=100|8=FIXT.1.1|9=61|35=0|34=57|49=INITIATOR|52=20231201-06:18:27.720|56=ACCEPTOR|10=092|8=FIXT.1.1|9=61|35=0|34=58|49=INITIATOR|52=20231201-06:18:28.655|56=ACCEPTOR|10=101|8=FIXT.1.1|9=61|35=0|34=59|49=INITIATOR|52=20231201-06:18:29.589|56=ACCEPTOR|10=109|8=FIXT.1.1|9=61|35=0|34=60|49=INITIATOR|52=20231201-06:18:30.522|56=ACCEPTOR|10=080|8=FIXT.1.1|9=61|35=0|34=61|49=INITIATOR|52=20231201-06:18:31.455|56=ACCEPTOR|10=087|8=FIXT.1.1|9=61|35=0|34=62|49=INITIATOR|52=20231201-06:18:32.387|56=ACCEPTOR|10=093|8=FIXT.1.1|9=61|35=0|34=63|49=INITIATOR|52=20231201-06:18:33.319|56=ACCEPTOR|10=090|8=FIXT.1.1|9=61|35=0|34=64|49=INITIATOR|52=20231201-06:18:34.249|56=ACCEPTOR|10=094|8=FIXT.1.1|9=61|35=0|34=65|49=INITIATOR|52=20231201-06:18:35.178|56=ACCEPTOR|10=097|8=FIXT.1.1|9=61|35=0|34=66|49=INITIATOR|52=20231201-06:18:36.106|56=ACCEPTOR|10=090|8=FIXT.1.1|9=61|35=0|34=67|49=INITIATOR|52=20231201-06:18:37.032|56=ACCEPTOR|10=090|8=FIXT.1.1|9=61|35=0|34=68|49=INITIATOR|52=20231201-06:18:38.881|56=ACCEPTOR|10=104|8=FIXT.1.1|9=61|35=0|34=69|49=INITIATOR|52=20231201-06:18:39.805|56=ACCEPTOR|10=102|8=FIXT.1.1|9=61|35=0|34=70|49=INITIATOR|52=20231201-06:18:40.729|56=ACCEPTOR|10=091|8=FIXT.1.1|9=61|35=0|34=71|49=INITIATOR|52=20231201-06:18:41.651|56=ACCEPTOR|10=087|8=FIXT.1.1|9=61|35=0|34=72|49=INITIATOR|52=20231201-06:18:42.572|56=ACCEPTOR|10=091|8=FIXT.1.1|9=61|35=0|34=73|49=INITIATOR|52=20231201-06:18:43.492|56=ACCEPTOR|10=094|8=FIXT.1.1|9=61|35=0|34=74|49=INITIATOR|52=20231201-06:18:44.410|56=ACCEPTOR|10=086|8=FIXT.1.1|9=61|35=0|34=75|49=INITIATOR|52=20231201-06:18:45.327|56=ACCEPTOR|10=095|8=FIXT.1.1|9=61|35=0|34=76|49=INITIATOR|52=20231201-06:18:46.244|56=ACCEPTOR|10=095|8=FIXT.1.1|9=61|35=0|34=77|49=INITIATOR|52=20231201-06:18:47.159|56=ACCEPTOR|10=102|8=FIXT.1.1|9=61|35=0|34=78|49=INITIATOR|52=20231201-06:18:48.073|56=ACCEPTOR|10=099|8=FIXT.1.1|9=61|35=0|34=79|49=INITIATOR|52=20231201-06:18:49.004|56=ACCEPTOR|10=095|8=FIXT.1.1|9=61|35=0|34=80|49=INITIATOR|52=20231201-06:18:50.832|56=ACCEPTOR|10=088|8=FIXT.1.1|9=61|35=0|34=81|49=INITIATOR|52=20231201-06:18:51.745|56=ACCEPTOR|10=093|8=FIXT.1.1|9=61|35=0|34=82|49=INITIATOR|52=20231201-06:18:52.658|56=ACCEPTOR|10=098|8=FIXT.1.1|9=61|35=0|34=83|49=INITIATOR|52=20231201-06:18:53.571|56=ACCEPTOR|10=094|8=FIXT.1.1|9=61|35=0|34=84|49=INITIATOR|52=20231201-06:18:54.484|56=ACCEPTOR|10=099|8=FIXT.1.1|9=61|35=0|34=85|49=INITIATOR|52=20231201-06:18:55.397|56=ACCEPTOR|10=104|8=FIXT.1.1|9=61|35=0|34=86|49=INITIATOR|52=20231201-06:18:56.307|56=ACCEPTOR|10=097|8=FIXT.1.1|9=61|35=0|34=87|49=INITIATOR|52=20231201-06:18:57.216|56=ACCEPTOR|10=098|8=FIXT.1.1|9=61|35=0|34=88|49=INITIATOR|52=20231201-06:18:58.126|56=ACCEPTOR|10=100|8=FIXT.1.1|9=61|35=0|34=89|49=INITIATOR|52=20231201-06:18:59.034|56=ACCEPTOR|10=100|8=FIXT.1.1|9=61|35=0|34=90|49=INITIATOR|52=20231201-06:19:00.848|56=ACCEPTOR|10=092|8=FIXT.1.1|9=61|35=0|34=91|49=INITIATOR|52=20231201-06:19:01.753|56=ACCEPTOR|10=089|8=FIXT.1.1|9=61|35=0|34=92|49=INITIATOR|52=20231201-06:19:02.658|56=ACCEPTOR|10=095|8=FIXT.1.1|9=61|35=0|34=93|49=INITIATOR|52=20231201-06:19:03.563|56=ACCEPTOR|10=092|8=FIXT.1.1|9=61|35=0|34=94|49=INITIATOR|52=20231201-06:19:04.467|56=ACCEPTOR|10=097|8=FIXT.1.1|9=61|35=0|34=95|49=INITIATOR|52=20231201-06:19:05.372|56=ACCEPTOR|10=094|8=FIXT.1.1|9=61|35=0|34=96|49=INITIATOR|52=20231201-06:19:06.276|56=ACCEPTOR|10=099|8=FIXT.1.1|9=61|35=0|34=97|49=INITIATOR|52=20231201-06:19:07.177|56=ACCEPTOR|10=101|8=FIXT.1.1|9=61|35=0|34=98|49=INITIATOR|52=20231201-06:19:08.077|56=ACCEPTOR|10=102|8=FIXT.1.1|9=61|35=0|34=99|49=INITIATOR|52=20231201-06:19:09.877|56=ACCEPTOR|10=112|8=FIXT.1.1|9=62|35=0|34=100|49=INITIATOR|52=20231201-06:19:10.775|56=ACCEPTOR|10=133|8=FIXT.1.1|9=62|35=0|34=101|49=INITIATOR|52=20231201-06:19:11.673|56=ACCEPTOR|10=132|8=FIXT.1.1|9=62|35=0|34=102|49=INITIATOR|52=20231201-06:19:12.571|56=ACCEPTOR|10=131|8=FIXT.1.1|9=62|35=0|34=103|49=INITIATOR|52=20231201-06:19:13.468|56=ACCEPTOR|10=138|8=FIXT.1.1|9=62|35=0|34=104|49=INITIATOR|52=20231201-06:19:14.364|56=ACCEPTOR|10=135|8=FIXT.1.1|9=62|35=0|34=105|49=INITIATOR|52=20231201-06:19:15.258|56=ACCEPTOR|10=139|8=FIXT.1.1|9=62|35=0|34=106|49=INITIATOR|52=20231201-06:19:16.151|56=ACCEPTOR|10=133|8=FIXT.1.1|9=62|35=0|34=107|49=INITIATOR|52=20231201-06:19:17.043|56=ACCEPTOR|10=135|8=FIXT.1.1|9=62|35=0|34=108|49=INITIATOR|52=20231201-06:19:18.825|56=ACCEPTOR|10=145|8=FIXT.1.1|9=62|35=0|34=109|49=INITIATOR|52=20231201-06:19:19.715|56=ACCEPTOR|10=145|8=FIXT.1.1|9=62|35=0|34=110|49=INITIATOR|52=20231201-06:19:20.603|56=ACCEPTOR|10=125|8=FIXT.1.1|9=62|35=0|34=111|49=INITIATOR|52=20231201-06:19:21.491|56=ACCEPTOR|10=132|8=FIXT.1.1|9=62|35=0|34=112|49=INITIATOR|52=20231201-06:19:22.376|56=ACCEPTOR|10=136|8=FIXT.1.1|9=62|35=0|34=113|49=INITIATOR|52=20231201-06:19:23.261|56=ACCEPTOR|10=131|8=FIXT.1.1|9=62|35=0|34=114|49=INITIATOR|52=20231201-06:19:24.145|56=ACCEPTOR|10=134|8=FIXT.1.1|9=62|35=0|34=115|49=INITIATOR|52=20231201-06:19:25.029|56=ACCEPTOR|10=137|8=FIXT.1.1|9=62|35=0|34=116|49=INITIATOR|52=20231201-06:19:26.794|56=ACCEPTOR|10=148|8=FIXT.1.1|9=62|35=0|34=117|49=INITIATOR|52=20231201-06:19:27.677|56=ACCEPTOR|10=150|8=FIXT.1.1|9=62|35=0|34=118|49=INITIATOR|52=20231201-06:19:28.558|56=ACCEPTOR|10=150|8=FIXT.1.1|9=62|35=0|34=119|49=INITIATOR|52=20231201-06:19:29.438|56=ACCEPTOR|10=149|8=FIXT.1.1|9=62|35=0|34=120|49=INITIATOR|52=20231201-06:19:30.318|56=ACCEPTOR|10=130|8=FIXT.1.1|9=62|35=0|34=121|49=INITIATOR|52=20231201-06:19:31.196|56=ACCEPTOR|10=136|8=FIXT.1.1|9=62|35=0|34=122|49=INITIATOR|52=20231201-06:19:32.073|56=ACCEPTOR|10=132|8=FIXT.1.1|9=62|35=0|34=123|49=INITIATOR|52=20231201-06:19:33.826|56=ACCEPTOR|10=140|8=FIXT.1.1|9=62|35=0|34=124|49=INITIATOR|52=20231201-06:19:34.699|56=ACCEPTOR|10=150|8=FIXT.1.1|9=62|35=0|34=125|49=INITIATOR|52=20231201-06:19:35.571|56=ACCEPTOR|10=141|8=FIXT.1.1|9=62|35=0|34=126|49=INITIATOR|52=20231201-06:19:36.443|56=ACCEPTOR|10=141|8=FIXT.1.1|9=62|35=0|34=127|49=INITIATOR|52=20231201-06:19:37.313|56=ACCEPTOR|10=139|8=FIXT.1.1|9=62|35=0|34=128|49=INITIATOR|52=20231201-06:19:38.183|56=ACCEPTOR|10=146|8=FIXT.1.1|9=62|35=0|34=129|49=INITIATOR|52=20231201-06:19:39.051|56=ACCEPTOR|10=142|8=FIXT.1.1|9=62|35=0|34=130|49=INITIATOR|52=20231201-06:19:40.782|56=ACCEPTOR|10=137|8=FIXT.1.1|9=62|35=0|34=131|49=INITIATOR|52=20231201-06:19:41.647|56=ACCEPTOR|10=139|8=FIXT.1.1|9=62|35=0|34=132|49=INITIATOR|52=20231201-06:19:42.510|56=ACCEPTOR|10=130|8=FIXT.1.1|9=62|35=0|34=133|49=INITIATOR|52=20231201-06:19:43.373|56=ACCEPTOR|10=139|8=FIXT.1.1|9=62|35=0|34=134|49=INITIATOR|52=20231201-06:19:44.236|56=ACCEPTOR|10=139|8=FIXT.1.1|9=62|35=0|34=135|49=INITIATOR|52=20231201-06:19:45.098|56=ACCEPTOR|10=147|8=FIXT.1.1|9=62|35=0|34=136|49=INITIATOR|52=20231201-06:19:46.819|56=ACCEPTOR|10=150|8=FIXT.1.1|9=62|35=0|34=137|49=INITIATOR|52=20231201-06:19:47.679|56=ACCEPTOR|10=156|8=FIXT.1.1|9=62|35=0|34=138|49=INITIATOR|52=20231201-06:19:48.539|56=ACCEPTOR|10=153|8=FIXT.1.1|9=62|35=0|34=139|49=INITIATOR|52=20231201-06:19:49.397|56=ACCEPTOR|10=157|8=FIXT.1.1|9=62|35=0|34=140|49=INITIATOR|52=20231201-06:19:50.255|56=ACCEPTOR|10=134|8=FIXT.1.1|9=62|35=0|34=141|49=INITIATOR|52=20231201-06:19:51.111|56=ACCEPTOR|10=127|8=FIXT.1.1|9=62|35=0|34=142|49=INITIATOR|52=20231201-06:19:52.819|56=ACCEPTOR|10=144|8=FIXT.1.1|9=62|35=0|34=143|49=INITIATOR|52=20231201-06:19:53.672|56=ACCEPTOR|10=143|8=FIXT.1.1|9=62|35=0|34=144|49=INITIATOR|52=20231201-06:19:54.524|56=ACCEPTOR|10=141|8=FIXT.1.1|9=62|35=0|34=145|49=INITIATOR|52=20231201-06:19:55.376|56=ACCEPTOR|10=148|8=FIXT.1.1|9=62|35=0|34=146|49=INITIATOR|52=20231201-06:19:56.229|56=ACCEPTOR|10=147|8=FIXT.1.1|9=62|35=0|34=147|49=INITIATOR|52=20231201-06:19:57.080|56=ACCEPTOR|10=144|8=FIXT.1.1|9=62|35=0|34=148|49=INITIATOR|52=20231201-06:19:58.777|56=ACCEPTOR|10=159|8=FIXT.1.1|9=62|35=0|34=149|49=INITIATOR|52=20231201-06:19:59.626|56=ACCEPTOR|10=154|8=FIXT.1.1|9=62|35=0|34=150|49=INITIATOR|52=20231201-06:20:00.472|56=ACCEPTOR|10=123|8=FIXT.1.1|9=62|35=0|34=151|49=INITIATOR|52=20231201-06:20:01.318|56=ACCEPTOR|10=124|8=FIXT.1.1|9=62|35=0|34=152|49=INITIATOR|52=20231201-06:20:02.163|56=ACCEPTOR|10=124|8=FIXT.1.1|9=62|35=0|34=153|49=INITIATOR|52=20231201-06:20:03.009|56=ACCEPTOR|10=125|8=FIXT.1.1|9=62|35=0|34=154|49=INITIATOR|52=20231201-06:20:04.698|56=ACCEPTOR|10=141|8=FIXT.1.1|9=62|35=0|34=155|49=INITIATOR|52=20231201-06:20:05.542|56=ACCEPTOR|10=131|8=FIXT.1.1|9=62|35=0|34=156|49=INITIATOR|52=20231201-06:20:06.384|56=ACCEPTOR|10=137|8=FIXT.1.1|9=62|35=0|34=157|49=INITIATOR|52=20231201-06:20:07.232|56=ACCEPTOR|10=131|8=FIXT.1.1|9=62|35=0|34=158|49=INITIATOR|52=20231201-06:20:08.073|56=ACCEPTOR|10=136|8=FIXT.1.1|9=62|35=0|34=159|49=INITIATOR|52=20231201-06:20:09.756|56=ACCEPTOR|10=146|8=FIXT.1.1|9=62|35=0|34=160|49=INITIATOR|52=20231201-06:20:10.597|56=ACCEPTOR|10=133|8=FIXT.1.1|9=62|35=0|34=161|49=INITIATOR|52=20231201-06:20:11.437|56=ACCEPTOR|10=128|8=FIXT.1.1|9=62|35=0|34=162|49=INITIATOR|52=20231201-06:20:12.287|56=ACCEPTOR|10=133|8=FIXT.1.1|9=62|35=0|34=163|49=INITIATOR|52=20231201-06:20:13.125|56=ACCEPTOR|10=126|8=FIXT.1.1|9=62|35=0|34=164|49=INITIATOR|52=20231201-06:20:14.797|56=ACCEPTOR|10=143|8=FIXT.1.1|9=62|35=0|34=165|49=INITIATOR|52=20231201-06:20:15.632|56=ACCEPTOR|10=133|8=FIXT.1.1|9=62|35=0|34=166|49=INITIATOR|52=20231201-06:20:16.466|56=ACCEPTOR|10=140|8=FIXT.1.1|9=62|35=0|34=167|49=INITIATOR|52=20231201-06:20:17.308|56=ACCEPTOR|10=137|8=FIXT.1.1|9=62|35=0|34=168|49=INITIATOR|52=20231201-06:20:18.139|56=ACCEPTOR|10=141|8=FIXT.1.1|9=62|35=0|34=169|49=INITIATOR|52=20231201-06:20:19.799|56=ACCEPTOR|10=155|8=FIXT.1.1|9=62|35=0|34=170|49=INITIATOR|52=20231201-06:20:20.629|56=ACCEPTOR|10=131|8=FIXT.1.1|9=62|35=0|34=171|49=INITIATOR|52=20231201-06:20:21.457|56=ACCEPTOR|10=132|8=FIXT.1.1|9=62|35=0|34=172|49=INITIATOR|52=20231201-06:20:22.283|56=ACCEPTOR|10=131|8=FIXT.1.1|9=62|35=0|34=173|49=INITIATOR|52=20231201-06:20:23.107|56=ACCEPTOR|10=128|8=FIXT.1.1|9=62|35=0|34=174|49=INITIATOR|52=20231201-06:20:24.752|56=ACCEPTOR|10=136|8=FIXT.1.1|9=62|35=0|34=175|49=INITIATOR|52=20231201-06:20:25.575|56=ACCEPTOR|10=141|8=FIXT.1.1|9=62|35=0|34=176|49=INITIATOR|52=20231201-06:20:26.395|56=ACCEPTOR|10=143|8=FIXT.1.1|9=62|35=0|34=177|49=INITIATOR|52=20231201-06:20:27.215|56=ACCEPTOR|10=136|8=FIXT.1.1|9=62|35=0|34=178|49=INITIATOR|52=20231201-06:20:28.035|56=ACCEPTOR|10=138|8=FIXT.1.1|9=62|35=0|34=179|49=INITIATOR|52=20231201-06:20:29.668|56=ACCEPTOR|10=152|8=FIXT.1.1|9=62|35=0|34=180|49=INITIATOR|52=20231201-06:20:30.484|56=ACCEPTOR|10=132|8=FIXT.1.1|9=62|35=0|34=181|49=INITIATOR|52=20231201-06:20:31.300|56=ACCEPTOR|10=121|8=FIXT.1.1|9=62|35=0|34=182|49=INITIATOR|52=20231201-06:20:32.115|56=ACCEPTOR|10=127|8=FIXT.1.1|9=62|35=0|34=183|49=INITIATOR|52=20231201-06:20:33.740|56=ACCEPTOR|10=133|8=FIXT.1.1|9=62|35=0|34=184|49=INITIATOR|52=20231201-06:20:34.551|56=ACCEPTOR|10=135|8=FIXT.1.1|9=62|35=0|34=185|49=INITIATOR|52=20231201-06:20:35.362|56=ACCEPTOR|10=137|8=FIXT.1.1|9=62|35=0|34=186|49=INITIATOR|52=20231201-06:20:36.173|56=ACCEPTOR|10=139|8=FIXT.1.1|9=62|35=0|34=187|49=INITIATOR|52=20231201-06:20:37.015|56=ACCEPTOR|10=136|8=FIXT.1.1|9=62|35=0|34=188|49=INITIATOR|52=20231201-06:20:38.635|56=ACCEPTOR|10=146|8=FIXT.1.1|9=62|35=0|34=189|49=INITIATOR|52=20231201-06:20:39.445|56=ACCEPTOR|10=147|8=FIXT.1.1|9=62|35=0|34=190|49=INITIATOR|52=20231201-06:20:40.251|56=ACCEPTOR|10=126|8=FIXT.1.1|9=62|35=0|34=191|49=INITIATOR|52=20231201-06:20:41.058|56=ACCEPTOR|10=133|8=FIXT.1.1|9=62|35=0|34=192|49=INITIATOR|52=20231201-06:20:42.669|56=ACCEPTOR|10=143|8=FIXT.1.1|9=62|35=0|34=193|49=INITIATOR|52=20231201-06:20:43.474|56=ACCEPTOR|10=139|8=FIXT.1.1|9=62|35=0|34=194|49=INITIATOR|52=20231201-06:20:44.279|56=ACCEPTOR|10=144|8=FIXT.1.1|9=62|35=0|34=195|49=INITIATOR|52=20231201-06:20:45.082|56=ACCEPTOR|10=138|8=FIXT.1.1|9=62|35=0|34=196|49=INITIATOR|52=20231201-06:20:46.684|56=ACCEPTOR|10=148|8=FIXT.1.1|9=62|35=0|34=197|49=INITIATOR|52=20231201-06:20:47.485|56=ACCEPTOR|10=149|8=FIXT.1.1|9=62|35=0|34=198|49=INITIATOR|52=20231201-06:20:48.285|56=ACCEPTOR|10=149|8=FIXT.1.1|9=62|35=0|34=199|49=INITIATOR|52=20231201-06:20:49.085|56=ACCEPTOR|10=149|8=FIXT.1.1|9=62|35=0|34=200|49=INITIATOR|52=20231201-06:20:50.680|56=ACCEPTOR|10=125|8=FIXT.1.1|9=62|35=0|34=201|49=INITIATOR|52=20231201-06:20:51.477|56=ACCEPTOR|10=131|8=FIXT.1.1|9=62|35=0|34=202|49=INITIATOR|52=20231201-06:20:52.274|56=ACCEPTOR|10=128|8=FIXT.1.1|9=62|35=0|34=203|49=INITIATOR|52=20231201-06:20:53.069|56=ACCEPTOR|10=132|8=FIXT.1.1|9=62|35=0|34=204|49=INITIATOR|52=20231201-06:20:54.656|56=ACCEPTOR|10=136|8=FIXT.1.1|9=62|35=0|34=205|49=INITIATOR|52=20231201-06:20:55.448|56=ACCEPTOR|10=137|8=FIXT.1.1|9=62|35=0|34=206|49=INITIATOR|52=20231201-06:20:56.239|56=ACCEPTOR|10=137|8=FIXT.1.1|9=62|35=0|34=207|49=INITIATOR|52=20231201-06:20:57.032|56=ACCEPTOR|10=130|8=FIXT.1.1|9=62|35=0|34=208|49=INITIATOR|52=20231201-06:20:58.611|56=ACCEPTOR|10=135|8=FIXT.1.1|9=62|35=0|34=209|49=INITIATOR|52=20231201-06:20:59.401|56=ACCEPTOR|10=134|8=FIXT.1.1|9=62|35=0|34=210|49=INITIATOR|52=20231201-06:21:00.189|56=ACCEPTOR|10=126|8=FIXT.1.1|9=62|35=0|34=211|49=INITIATOR|52=20231201-06:21:01.012|56=ACCEPTOR|10=113|8=FIXT.1.1|9=62|35=0|34=212|49=INITIATOR|52=20231201-06:21:02.585|56=ACCEPTOR|10=130|8=FIXT.1.1|9=62|35=0|34=213|49=INITIATOR|52=20231201-06:21:03.371|56=ACCEPTOR|10=125|8=FIXT.1.1|9=62|35=0|34=214|49=INITIATOR|52=20231201-06:21:04.155|56=ACCEPTOR|10=127|8=FIXT.1.1|9=62|35=0|34=215|49=INITIATOR|52=20231201-06:21:05.719|56=ACCEPTOR|10=135|8=FIXT.1.1|9=62|35=0|34=216|49=INITIATOR|52=20231201-06:21:06.500|56=ACCEPTOR|10=125|8=FIXT.1.1|9=62|35=0|34=217|49=INITIATOR|52=20231201-06:21:07.281|56=ACCEPTOR|10=133|8=FIXT.1.1|9=62|35=0|34=218|49=INITIATOR|52=20231201-06:21:08.061|56=ACCEPTOR|10=131|8=FIXT.1.1|9=62|35=0|34=219|49=INITIATOR|52=20231201-06:21:09.617|56=ACCEPTOR|10=140|8=FIXT.1.1|9=62|35=0|34=220|49=INITIATOR|52=20231201-06:21:10.395|56=ACCEPTOR|10=127|8=FIXT.1.1|9=62|35=0|34=221|49=INITIATOR|52=20231201-06:21:11.173|56=ACCEPTOR|10=123|8=FIXT.1.1|9=62|35=0|34=222|49=INITIATOR|52=20231201-06:21:12.726|56=ACCEPTOR|10=129|8=FIXT.1.1|9=62|35=0|34=223|49=INITIATOR|52=20231201-06:21:13.502|56=ACCEPTOR|10=123|8=FIXT.1.1|9=62|35=0|34=224|49=INITIATOR|52=20231201-06:21:14.277|56=ACCEPTOR|10=134|8=FIXT.1.1|9=62|35=0|34=225|49=INITIATOR|52=20231201-06:21:15.050|56=ACCEPTOR|10=125|8=FIXT.1.1|9=62|35=0|34=226|49=INITIATOR|52=20231201-06:21:16.596|56=ACCEPTOR|10=142|8=FIXT.1.1|9=62|35=0|34=227|49=INITIATOR|52=20231201-06:21:17.369|56=ACCEPTOR|10=142|8=FIXT.1.1|9=62|35=0|34=228|49=INITIATOR|52=20231201-06:21:18.141|56=ACCEPTOR|10=132|8=FIXT.1.1|9=62|35=0|34=229|49=INITIATOR|52=20231201-06:21:19.678|56=ACCEPTOR|10=149|8=FIXT.1.1|9=62|35=0|34=230|49=INITIATOR|52=20231201-06:21:20.447|56=ACCEPTOR|10=127|8=FIXT.1.1|9=62|35=0|34=231|49=INITIATOR|52=20231201-06:21:21.213|56=ACCEPTOR|10=120|8=FIXT.1.1|9=62|35=0|34=232|49=INITIATOR|52=20231201-06:21:22.017|56=ACCEPTOR|10=124|8=FIXT.1.1|9=62|35=0|34=233|49=INITIATOR|52=20231201-06:21:23.547|56=ACCEPTOR|10=134|8=FIXT.1.1|9=62|35=0|34=234|49=INITIATOR|52=20231201-06:21:24.311|56=ACCEPTOR|10=125|8=FIXT.1.1|9=62|35=0|34=235|49=INITIATOR|52=20231201-06:21:25.073|56=ACCEPTOR|10=132|8=FIXT.1.1|9=62|35=0|34=236|49=INITIATOR|52=20231201-06:21:26.605|56=ACCEPTOR|10=135|8=FIXT.1.1|9=62|35=0|34=237|49=INITIATOR|52=20231201-06:21:27.367|56=ACCEPTOR|10=142|8=FIXT.1.1|9=62|35=0|34=238|49=INITIATOR|52=20231201-06:21:28.128|56=ACCEPTOR|10=139|8=FIXT.1.1|9=62|35=0|34=239|49=INITIATOR|52=20231201-06:21:29.645|56=ACCEPTOR|10=145|8=FIXT.1.1|9=62|35=0|34=240|49=INITIATOR|52=20231201-06:21:30.403|56=ACCEPTOR|10=121|8=FIXT.1.1|9=62|35=0|34=241|49=INITIATOR|52=20231201-06:21:31.159|56=ACCEPTOR|10=131|8=FIXT.1.1|9=62|35=0|34=242|49=INITIATOR|52=20231201-06:21:32.668|56=ACCEPTOR|10=138|8=FIXT.1.1|9=62|35=0|34=243|49=INITIATOR|52=20231201-06:21:33.421|56=ACCEPTOR|10=127|8=FIXT.1.1|9=62|35=0|34=244|49=INITIATOR|52=20231201-06:21:34.172|56=ACCEPTOR|10=132|8=FIXT.1.1|9=62|35=0|34=245|49=INITIATOR|52=20231201-06:21:35.674|56=ACCEPTOR|10=141|8=FIXT.1.1|9=62|35=0|34=246|49=INITIATOR|52=20231201-06:21:36.425|56=ACCEPTOR|10=137|8=FIXT.1.1|9=62|35=0|34=247|49=INITIATOR|52=20231201-06:21:37.176|56=ACCEPTOR|10=142|8=FIXT.1.1|9=62|35=0|34=248|49=INITIATOR|52=20231201-06:21:38.679|56=ACCEPTOR|10=152|8=FIXT.1.1|9=62|35=0|34=249|49=INITIATOR|52=20231201-06:21:39.427|56=ACCEPTOR|10=145|8=FIXT.1.1|9=62|35=0|34=250|49=INITIATOR|52=20231201-06:21:40.175|56=ACCEPTOR|10=129|8=FIXT.1.1|9=62|35=0|34=251|49=INITIATOR|52=20231201-06:21:41.669|56=ACCEPTOR|10=139|8=FIXT.1.1|9=62|35=0|34=252|49=INITIATOR|52=20231201-06:21:42.415|56=ACCEPTOR|10=130|8=FIXT.1.1|9=62|35=0|34=253|49=INITIATOR|52=20231201-06:21:43.161|56=ACCEPTOR|10=130|8=FIXT.1.1|9=62|35=0|34=254|49=INITIATOR|52=20231201-06:21:44.645|56=ACCEPTOR|10=139|8=FIXT.1.1|9=62|35=0|34=255|49=INITIATOR|52=20231201-06:21:45.387|56=ACCEPTOR|10=144|8=FIXT.1.1|9=62|35=0|34=256|49=INITIATOR|52=20231201-06:21:46.128|56=ACCEPTOR|10=139|8=FIXT.1.1|9=62|35=0|34=257|49=INITIATOR|52=20231201-06:21:47.608|56=ACCEPTOR|10=144|8=FIXT.1.1|9=62|35=0|34=258|49=INITIATOR|52=20231201-06:21:48.349|56=ACCEPTOR|10=148|8=FIXT.1.1|9=62|35=0|34=259|49=INITIATOR|52=20231201-06:21:49.088|56=ACCEPTOR|10=150|8=FIXT.1.1|9=62|35=0|34=260|49=INITIATOR|52=20231201-06:21:50.562|56=ACCEPTOR|10=131|8=FIXT.1.1|9=62|35=0|34=261|49=INITIATOR|52=20231201-06:21:51.299|56=ACCEPTOR|10=140|8=FIXT.1.1|9=62|35=0|34=262|49=INITIATOR|52=20231201-06:21:52.035|56=ACCEPTOR|10=130|8=FIXT.1.1|9=62|35=0|34=263|49=INITIATOR|52=20231201-06:21:53.504|56=ACCEPTOR|10=133|8=FIXT.1.1|9=62|35=0|34=264|49=INITIATOR|52=20231201-06:21:54.239|56=ACCEPTOR|10=140|8=FIXT.1.1|9=62|35=0|34=265|49=INITIATOR|52=20231201-06:21:55.014|56=ACCEPTOR|10=133|8=FIXT.1.1|9=62|35=0|34=266|49=INITIATOR|52=20231201-06:21:56.477|56=ACCEPTOR|10=148|8=FIXT.1.1|9=62|35=0|34=267|49=INITIATOR|52=20231201-06:21:57.208|56=ACCEPTOR|10=142|8=FIXT.1.1|9=62|35=0|34=268|49=INITIATOR|52=20231201-06:21:58.665|56=ACCEPTOR|10=151|8=FIXT.1.1|9=62|35=0|34=269|49=INITIATOR|52=20231201-06:21:59.394|56=ACCEPTOR|10=152|8=FIXT.1.1|9=62|35=0|34=270|49=INITIATOR|52=20231201-06:22:00.120|56=ACCEPTOR|10=118|8=FIXT.1.1|9=62|35=0|34=271|49=INITIATOR|52=20231201-06:22:01.570|56=ACCEPTOR|10=129|8=FIXT.1.1|9=62|35=0|34=272|49=INITIATOR|52=20231201-06:22:02.294|56=ACCEPTOR|10=134|8=FIXT.1.1|9=62|35=0|34=273|49=INITIATOR|52=20231201-06:22:03.018|56=ACCEPTOR|10=130|8=FIXT.1.1|9=62|35=0|34=274|49=INITIATOR|52=20231201-06:22:04.461|56=ACCEPTOR|10=134|8=FIXT.1.1|9=62|35=0|34=275|49=INITIATOR|52=20231201-06:22:05.181|56=ACCEPTOR|10=135|8=FIXT.1.1|9=62|35=0|34=276|49=INITIATOR|52=20231201-06:22:06.622|56=ACCEPTOR|10=137|8=FIXT.1.1|9=62|35=0|34=277|49=INITIATOR|52=20231201-06:22:07.342|56=ACCEPTOR|10=138|8=FIXT.1.1|9=62|35=0|34=278|49=INITIATOR|52=20231201-06:22:08.060|56=ACCEPTOR|10=137|8=FIXT.1.1|9=62|35=0|34=279|49=INITIATOR|52=20231201-06:22:09.493|56=ACCEPTOR|10=149|8=FIXT.1.1|9=62|35=0|34=280|49=INITIATOR|52=20231201-06:22:10.208|56=ACCEPTOR|10=127|8=FIXT.1.1|9=62|35=0|34=281|49=INITIATOR|52=20231201-06:22:11.642|56=ACCEPTOR|10=131|8=FIXT.1.1|9=62|35=0|34=282|49=INITIATOR|52=20231201-06:22:12.355|56=ACCEPTOR|10=134|8=FIXT.1.1|9=62|35=0|34=283|49=INITIATOR|52=20231201-06:22:13.067|56=ACCEPTOR|10=136|8=FIXT.1.1|9=62|35=0|34=284|49=INITIATOR|52=20231201-06:22:14.487|56=ACCEPTOR|10=144|8=FIXT.1.1|9=62|35=0|34=285|49=INITIATOR|52=20231201-06:22:15.196|56=ACCEPTOR|10=143|8=FIXT.1.1|9=62|35=0|34=286|49=INITIATOR|52=20231201-06:22:16.614|56=ACCEPTOR|10=140|8=FIXT.1.1|9=62|35=0|34=287|49=INITIATOR|52=20231201-06:22:17.322|56=ACCEPTOR|10=138|8=FIXT.1.1|9=62|35=0|34=288|49=INITIATOR|52=20231201-06:22:18.030|56=ACCEPTOR|10=136|8=FIXT.1.1|9=62|35=0|34=289|49=INITIATOR|52=20231201-06:22:19.445|56=ACCEPTOR|10=148|8=FIXT.1.1|9=62|35=0|34=290|49=INITIATOR|52=20231201-06:22:20.153|56=ACCEPTOR|10=128|8=FIXT.1.1|9=62|35=0|34=291|49=INITIATOR|52=20231201-06:22:21.567|56=ACCEPTOR|10=139|8=FIXT.1.1|9=62|35=0|34=292|49=INITIATOR|52=20231201-06:22:22.273|56=ACCEPTOR|10=135|8=FIXT.1.1|9=62|35=0|34=293|49=INITIATOR|52=20231201-06:22:23.026|56=ACCEPTOR|10=133|8=FIXT.1.1|9=62|35=0|34=294|49=INITIATOR|52=20231201-06:22:24.437|56=ACCEPTOR|10=141|8=FIXT.1.1|9=62|35=0|34=295|49=INITIATOR|52=20231201-06:22:25.142|56=ACCEPTOR|10=136|8=FIXT.1.1|9=62|35=0|34=296|49=INITIATOR|52=20231201-06:22:26.546|56=ACCEPTOR|10=146|8=FIXT.1.1|9=62|35=0|34=297|49=INITIATOR|52=20231201-06:22:27.249|56=ACCEPTOR|10=148|8=FIXT.1.1|9=62|35=0|34=298|49=INITIATOR|52=20231201-06:22:28.651|56=ACCEPTOR|10=147|8=FIXT.1.1|9=62|35=0|34=299|49=INITIATOR|52=20231201-06:22:29.352|56=ACCEPTOR|10=147|8=FIXT.1.1|9=62|35=0|34=300|49=INITIATOR|52=20231201-06:22:30.053|56=ACCEPTOR|10=120|8=FIXT.1.1|9=62|35=0|34=301|49=INITIATOR|52=20231201-06:22:31.450|56=ACCEPTOR|10=123|8=FIXT.1.1|9=62|35=0|34=302|49=INITIATOR|52=20231201-06:22:32.148|56=ACCEPTOR|10=129|8=FIXT.1.1|9=62|35=0|34=303|49=INITIATOR|52=20231201-06:22:33.539|56=ACCEPTOR|10=135|8=FIXT.1.1|9=62|35=0|34=304|49=INITIATOR|52=20231201-06:22:34.234|56=ACCEPTOR|10=129|8=FIXT.1.1|9=62|35=0|34=305|49=INITIATOR|52=20231201-06:22:35.620|56=ACCEPTOR|10=130|8=FIXT.1.1|9=62|35=0|34=306|49=INITIATOR|52=20231201-06:22:36.314|56=ACCEPTOR|10=132|8=FIXT.1.1|9=62|35=0|34=307|49=INITIATOR|52=20231201-06:22:37.006|56=ACCEPTOR|10=132|8=FIXT.1.1|9=62|35=0|34=308|49=INITIATOR|52=20231201-06:22:38.388|56=ACCEPTOR|10=147|8=FIXT.1.1|9=62|35=0|34=309|49=INITIATOR|52=20231201-06:22:39.078|56=ACCEPTOR|10=145|8=FIXT.1.1|9=62|35=0|34=310|49=INITIATOR|52=20231201-06:22:40.454|56=ACCEPTOR|10=127|8=FIXT.1.1|9=62|35=0|34=311|49=INITIATOR|52=20231201-06:22:41.142|56=ACCEPTOR|10=123|8=FIXT.1.1|9=62|35=0|34=312|49=INITIATOR|52=20231201-06:22:42.515|56=ACCEPTOR|10=129|8=FIXT.1.1|9=62|35=0|34=313|49=INITIATOR|52=20231201-06:22:43.200|56=ACCEPTOR|10=122|8=FIXT.1.1|9=62|35=0|34=314|49=INITIATOR|52=20231201-06:22:44.567|56=ACCEPTOR|10=140|8=FIXT.1.1|9=62|35=0|34=315|49=INITIATOR|52=20231201-06:22:45.249|56=ACCEPTOR|10=139|8=FIXT.1.1|9=62|35=0|34=316|49=INITIATOR|52=20231201-06:22:46.610|56=ACCEPTOR|10=133|8=FIXT.1.1|9=62|35=0|34=317|49=INITIATOR|52=20231201-06:22:47.290|56=ACCEPTOR|10=139|8=FIXT.1.1|9=62|35=0|34=318|49=INITIATOR|52=20231201-06:22:48.019|56=ACCEPTOR|10=140|8=FIXT.1.1|9=62|35=0|34=319|49=INITIATOR|52=20231201-06:22:49.375|56=ACCEPTOR|10=147|8=FIXT.1.1|9=62|35=0|34=320|49=INITIATOR|52=20231201-06:22:50.053|56=ACCEPTOR|10=124|8=FIXT.1.1|9=62|35=0|34=321|49=INITIATOR|52=20231201-06:22:51.403|56=ACCEPTOR|10=125|8=FIXT.1.1|9=62|35=0|34=322|49=INITIATOR|52=20231201-06:22:52.078|56=ACCEPTOR|10=135|8=FIXT.1.1|9=62|35=0|34=323|49=INITIATOR|52=20231201-06:22:53.424|56=ACCEPTOR|10=132|8=FIXT.1.1|9=62|35=0|34=324|49=INITIATOR|52=20231201-06:22:54.098|56=ACCEPTOR|10=141|8=FIXT.1.1|9=62|35=0|34=325|49=INITIATOR|52=20231201-06:22:55.442|56=ACCEPTOR|10=136|8=FIXT.1.1|9=62|35=0|34=326|49=INITIATOR|52=20231201-06:22:56.114|56=ACCEPTOR|10=134|8=FIXT.1.1|9=62|35=0|34=327|49=INITIATOR|52=20231201-06:22:57.455|56=ACCEPTOR|10=144|8=FIXT.1.1|9=62|35=0|34=328|49=INITIATOR|52=20231201-06:22:58.126|56=ACCEPTOR|10=141|8=FIXT.1.1|9=62|35=0|34=329|49=INITIATOR|52=20231201-06:22:59.460|56=ACCEPTOR|10=144|8=FIXT.1.1|9=62|35=0|34=330|49=INITIATOR|52=20231201-06:23:00.128|56=ACCEPTOR|10=124|8=FIXT.1.1|9=62|35=0|34=331|49=INITIATOR|52=20231201-06:23:01.460|56=ACCEPTOR|10=125|8=FIXT.1.1|9=62|35=0|34=332|49=INITIATOR|52=20231201-06:23:02.125|56=ACCEPTOR|10=125|8=FIXT.1.1|9=62|35=0|34=333|49=INITIATOR|52=20231201-06:23:03.455|56=ACCEPTOR|10=133|8=FIXT.1.1|9=62|35=0|34=334|49=INITIATOR|52=20231201-06:23:04.120|56=ACCEPTOR|10=124|8=FIXT.1.1|9=62|35=0|34=335|49=INITIATOR|52=20231201-06:23:05.447|56=ACCEPTOR|10=138|8=FIXT.1.1|9=62|35=0|34=336|49=INITIATOR|52=20231201-06:23:06.108|56=ACCEPTOR|10=134|8=FIXT.1.1|9=62|35=0|34=337|49=INITIATOR|52=20231201-06:23:07.429|56=ACCEPTOR|10=142|8=FIXT.1.1|9=62|35=0|34=338|49=INITIATOR|52=20231201-06:23:08.091|56=ACCEPTOR|10=139|8=FIXT.1.1|9=62|35=0|34=339|49=INITIATOR|52=20231201-06:23:09.408|56=ACCEPTOR|10=143|8=FIXT.1.1|9=62|35=0|34=340|49=INITIATOR|52=20231201-06:23:10.068|56=ACCEPTOR|10=129|8=FIXT.1.1|9=62|35=0|34=341|49=INITIATOR|52=20231201-06:23:11.381|56=ACCEPTOR|10=129|8=FIXT.1.1|9=62|35=0|34=342|49=INITIATOR|52=20231201-06:23:12.038|56=ACCEPTOR|10=130|8=FIXT.1.1|9=62|35=0|34=343|49=INITIATOR|52=20231201-06:23:13.346|56=ACCEPTOR|10=134|8=FIXT.1.1|9=62|35=0|34=344|49=INITIATOR|52=20231201-06:23:14.052|56=ACCEPTOR|10=130|8=FIXT.1.1|9=62|35=0|34=345|49=INITIATOR|52=20231201-06:23:15.356|56=ACCEPTOR|10=139|8=FIXT.1.1|9=62|35=0|34=346|49=INITIATOR|52=20231201-06:23:16.008|56=ACCEPTOR|10=135|8=FIXT.1.1|9=62|35=0|34=347|49=INITIATOR|52=20231201-06:23:17.305|56=ACCEPTOR|10=137|8=FIXT.1.1|9=62|35=0|34=348|49=INITIATOR|52=20231201-06:23:18.007|56=ACCEPTOR|10=138|8=FIXT.1.1|9=62|35=0|34=349|49=INITIATOR|52=20231201-06:23:19.302|56=ACCEPTOR|10=138|8=FIXT.1.1|9=62|35=0|34=350|49=INITIATOR|52=20231201-06:23:20.002|56=ACCEPTOR|10=119|8=FIXT.1.1|9=62|35=0|34=351|49=INITIATOR|52=20231201-06:23:21.292|56=ACCEPTOR|10=132|8=FIXT.1.1|9=62|35=0|34=352|49=INITIATOR|52=20231201-06:23:22.582|56=ACCEPTOR|10=136|8=FIXT.1.1|9=62|35=0|34=353|49=INITIATOR|52=20231201-06:23:23.227|56=ACCEPTOR|10=134|8=FIXT.1.1|9=62|35=0|34=354|49=INITIATOR|52=20231201-06:23:24.516|56=ACCEPTOR|10=137|8=FIXT.1.1|9=62|35=0|34=355|49=INITIATOR|52=20231201-06:23:25.161|56=ACCEPTOR|10=135|8=FIXT.1.1|9=62|35=0|34=356|49=INITIATOR|52=20231201-06:23:26.444|56=ACCEPTOR|10=141|8=FIXT.1.1|9=62|35=0|34=357|49=INITIATOR|52=20231201-06:23:27.085|56=ACCEPTOR|10=144|8=FIXT.1.1|9=62|35=0|34=358|49=INITIATOR|52=20231201-06:23:28.364|56=ACCEPTOR|10=146|8=FIXT.1.1|9=62|35=0|34=359|49=INITIATOR|52=20231201-06:23:29.004|56=ACCEPTOR|10=139|8=FIXT.1.1|9=62|35=0|34=360|49=INITIATOR|52=20231201-06:23:30.278|56=ACCEPTOR|10=136|8=FIXT.1.1|9=62|35=0|34=361|49=INITIATOR|52=20231201-06:23:31.549|56=ACCEPTOR|10=139|8=FIXT.1.1|9=62|35=0|34=362|49=INITIATOR|52=20231201-06:23:32.183|56=ACCEPTOR|10=135|8=FIXT.1.1|9=62|35=0|34=363|49=INITIATOR|52=20231201-06:23:33.451|56=ACCEPTOR|10=135|8=FIXT.1.1|9=62|35=0|34=364|49=INITIATOR|52=20231201-06:23:34.083|56=ACCEPTOR|10=138|8=FIXT.1.1|9=62|35=0|34=365|49=INITIATOR|52=20231201-06:23:35.348|56=ACCEPTOR|10=144|8=FIXT.1.1|9=62|35=0|34=366|49=INITIATOR|52=20231201-06:23:36.035|56=ACCEPTOR|10=139|8=FIXT.1.1|9=62|35=0|34=367|49=INITIATOR|52=20231201-06:23:37.294|56=ACCEPTOR|10=148|8=FIXT.1.1|9=62|35=0|34=368|49=INITIATOR|52=20231201-06:23:38.558|56=ACCEPTOR|10=153|8=FIXT.1.1|9=62|35=0|34=369|49=INITIATOR|52=20231201-06:23:39.187|56=ACCEPTOR|10=153|8=FIXT.1.1|9=62|35=0|34=370|49=INITIATOR|52=20231201-06:23:40.437|56=ACCEPTOR|10=135|8=FIXT.1.1|9=62|35=0|34=371|49=INITIATOR|52=20231201-06:23:41.063|56=ACCEPTOR|10=132|8=FIXT.1.1|9=62|35=0|34=372|49=INITIATOR|52=20231201-06:23:42.311|56=ACCEPTOR|10=130|8=FIXT.1.1|9=62|35=0|34=373|49=INITIATOR|52=20231201-06:23:43.560|56=ACCEPTOR|10=138|8=FIXT.1.1|9=62|35=0|34=374|49=INITIATOR|52=20231201-06:23:44.182|56=ACCEPTOR|10=140|8=FIXT.1.1|9=62|35=0|34=375|49=INITIATOR|52=20231201-06:23:45.421|56=ACCEPTOR|10=138|8=FIXT.1.1|9=62|35=0|34=376|49=INITIATOR|52=20231201-06:23:46.040|56=ACCEPTOR|10=137|8=FIXT.1.1|9=62|35=0|34=377|49=INITIATOR|52=20231201-06:23:47.276|56=ACCEPTOR|10=150|8=FIXT.1.1|9=62|35=0|34=378|49=INITIATOR|52=20231201-06:23:48.509|56=ACCEPTOR|10=151|8=FIXT.1.1|9=62|35=0|34=379|49=INITIATOR|52=20231201-06:23:49.124|56=ACCEPTOR|10=146|8=FIXT.1.1|9=62|35=0|34=380|49=INITIATOR|52=20231201-06:23:50.354|56=ACCEPTOR|10=135|8=FIXT.1.1|9=62|35=0|34=381|49=INITIATOR|52=20231201-06:23:51.026|56=ACCEPTOR|10=133|8=FIXT.1.1|9=62|35=0|34=382|49=INITIATOR|52=20231201-06:23:52.252|56=ACCEPTOR|10=136|8=FIXT.1.1|9=62|35=0|34=383|49=INITIATOR|52=20231201-06:23:53.475|56=ACCEPTOR|10=145|8=FIXT.1.1|9=62|35=0|34=384|49=INITIATOR|52=20231201-06:23:54.087|56=ACCEPTOR|10=146|8=FIXT.1.1|9=62|35=0|34=385|49=INITIATOR|52=20231201-06:23:55.306|56=ACCEPTOR|10=142|8=FIXT.1.1|9=62|35=0|34=386|49=INITIATOR|52=20231201-06:23:56.522|56=ACCEPTOR|10=144|8=FIXT.1.1|9=62|35=0|34=387|49=INITIATOR|52=20231201-06:23:57.131|56=ACCEPTOR|10=142|8=FIXT.1.1|9=62|35=0|34=388|49=INITIATOR|52=20231201-06:23:58.345|56=ACCEPTOR|10=151|8=FIXT.1.1|9=62|35=0|34=389|49=INITIATOR|52=20231201-06:23:59.010|56=ACCEPTOR|10=142|8=FIXT.1.1|9=62|35=0|34=390|49=INITIATOR|52=20231201-06:24:00.219|56=ACCEPTOR|10=132|8=FIXT.1.1|9=62|35=0|34=391|49=INITIATOR|52=20231201-06:24:01.424|56=ACCEPTOR|10=132|8=FIXT.1.1|9=62|35=0|34=392|49=INITIATOR|52=20231201-06:24:02.025|56=ACCEPTOR|10=131|8=FIXT.1.1|9=62|35=0|34=393|49=INITIATOR|52=20231201-06:24:03.226|56=ACCEPTOR|10=136|8=FIXT.1.1|9=62|35=0|34=394|49=INITIATOR|52=20231201-06:24:04.425|56=ACCEPTOR|10=139|8=FIXT.1.1|9=62|35=0|34=395|49=INITIATOR|52=20231201-06:24:05.023|56=ACCEPTOR|10=135|8=FIXT.1.1|9=62|35=0|34=396|49=INITIATOR|52=20231201-06:24:06.218|56=ACCEPTOR|10=143|8=FIXT.1.1|9=62|35=0|34=397|49=INITIATOR|52=20231201-06:24:07.412|56=ACCEPTOR|10=141|8=FIXT.1.1|9=62|35=0|34=398|49=INITIATOR|52=20231201-06:24:08.008|56=ACCEPTOR|10=144|8=FIXT.1.1|9=62|35=0|34=399|49=INITIATOR|52=20231201-06:24:09.195|56=ACCEPTOR|10=153|8=FIXT.1.1|9=62|35=0|34=400|49=INITIATOR|52=20231201-06:24:10.382|56=ACCEPTOR|10=126|8=FIXT.1.1|9=62|35=0|34=401|49=INITIATOR|52=20231201-06:24:11.034|56=ACCEPTOR|10=122|8=FIXT.1.1|9=62|35=0|34=402|49=INITIATOR|52=20231201-06:24:12.217|56=ACCEPTOR|10=127|8=FIXT.1.1|9=62|35=0|34=403|49=INITIATOR|52=20231201-06:24:13.396|56=ACCEPTOR|10=137|8=FIXT.1.1|9=62|35=0|34=404|49=INITIATOR|52=20231201-06:24:14.045|56=ACCEPTOR|10=130|8=FIXT.1.1|9=62|35=0|34=405|49=INITIATOR|52=20231201-06:24:15.219|56=ACCEPTOR|10=135|