8=FIX.4.2|9=72|35=A|34=1|49=ACCEPTOR|52=20231129-04:03:10.853|56=INITIATOR|98=0|108=30|10=253|8=FIX.4.2|9=60|35=0|34=2|49=ACCEPTOR|52=20231129-04:03:40.763|56=INITIATOR|10=212|8=FIX.4.2|9=60|35=0|34=3|49=ACCEPTOR|52=20231129-04:04:10.528|56=INITIATOR|10=210|8=FIX.4.2|9=60|35=0|34=4|49=ACCEPTOR|52=20231129-04:04:40.155|56=INITIATOR|10=210|8=FIX.4.2|9=60|35=0|34=5|49=ACCEPTOR|52=20231129-04:05:10.667|56=INITIATOR|10=217|8=FIX.4.2|9=60|35=0|34=6|49=ACCEPTOR|52=20231129-04:05:40.083|56=INITIATOR|10=213|8=FIX.4.2|9=60|35=0|34=7|49=ACCEPTOR|52=20231129-04:06:10.382|56=INITIATOR|10=214|8=FIX.4.2|9=60|35=0|34=8|49=ACCEPTOR|52=20231129-04:06:40.567|56=INITIATOR|10=223|8=FIX.4.2|9=60|35=0|34=9|49=ACCEPTOR|52=20231129-04:07:10.595|56=INITIATOR|10=223|8=FIX.4.2|9=61|35=0|34=10|49=ACCEPTOR|52=20231129-04:07:40.497|56=INITIATOR|10=012|8=FIX.4.2|9=61|35=0|34=11|49=ACCEPTOR|52=20231129-04:08:10.262|56=INITIATOR|10=001|8=FIX.4.2|9=61|35=0|34=12|49=ACCEPTOR|52=20231129-04:08:40.097|56=INITIATOR|10=011|8=FIX.4.2|9=61|35=0|34=13|49=ACCEPTOR|52=20231129-04:09:10.558|56=INITIATOR|10=012|8=FIX.4.2|9=61|35=0|34=14|49=ACCEPTOR|52=20231129-04:09:40.120|56=INITIATOR|10=001|8=FIX.4.2|9=61|35=0|34=15|49=ACCEPTOR|52=20231129-04:10:10.301|56=INITIATOR|10=248|8=FIX.4.2|9=61|35=0|34=16|49=ACCEPTOR|52=20231129-04:10:40.332|56=INITIATOR|10=000|8=FIX.4.2|9=61|35=0|34=17|49=ACCEPTOR|52=20231129-04:11:10.222|56=INITIATOR|10=253|8=FIX.4.2|9=61|35=0|34=18|49=ACCEPTOR|52=20231129-04:11:40.217|56=INITIATOR|10=005|8=FIX.4.2|9=61|35=0|34=19|49=ACCEPTOR|52=20231129-04:12:10.070|56=INITIATOR|10=001|8=FIX.4.2|9=61|35=0|34=20|49=ACCEPTOR|52=20231129-04:12:40.435|56=INITIATOR|10=001|8=FIX.4.2|9=73|35=A|34=21|49=ACCEPTOR|52=20231129-04:13:40.010|56=INITIATOR|98=0|108=30|10=037|8=FIX.4.2|9=71|35=2|34=22|49=ACCEPTOR|52=20231129-04:13:40.011|56=INITIATOR|7=21|16=0|10=170|8=FIX.4.2|9=61|35=0|34=23|49=ACCEPTOR|52=20231129-04:14:10.784|56=INITIATOR|10=010|8=FIX.4.2|9=61|35=0|34=24|49=ACCEPTOR|52=20231129-04:14:40.595|56=INITIATOR|10=014|8=FIX.4.2|9=61|35=0|34=25|49=ACCEPTOR|52=20231129-04:15:10.301|56=INITIATOR|10=254|8=FIX.4.2|9=61|35=0|34=26|49=ACCEPTOR|52=20231129-04:15:40.819|56=INITIATOR|10=016|8=FIX.4.2|9=61|35=0|34=27|49=ACCEPTOR|52=20231129-04:16:10.244|56=INITIATOR|10=007|8=FIX.4.2|9=61|35=0|34=28|49=ACCEPTOR|52=20231129-04:16:40.549|56=INITIATOR|10=019|8=FIX.4.2|9=61|35=0|34=29|49=ACCEPTOR|52=20231129-04:17:10.732|56=INITIATOR|10=012|8=FIX.4.2|9=61|35=0|34=30|49=ACCEPTOR|52=20231129-04:17:40.771|56=INITIATOR|10=010|8=FIX.4.2|9=61|35=0|34=31|49=ACCEPTOR|52=20231129-04:18:10.701|56=INITIATOR|10=002|8=FIX.4.2|9=61|35=0|34=32|49=ACCEPTOR|52=20231129-04:18:40.488|56=INITIATOR|10=018|8=FIX.4.2|9=61|35=0|34=33|49=ACCEPTOR|52=20231129-04:19:10.168|56=INITIATOR|10=012|8=FIX.4.2|9=61|35=0|34=34|49=ACCEPTOR|52=20231129-04:19:40.668|56=INITIATOR|10=021|8=FIX.4.2|9=61|35=0|34=35|49=ACCEPTOR|52=20231129-04:20:10.105|56=INITIATOR|10=253|8=FIX.4.2|9=61|35=0|34=36|49=ACCEPTOR|52=20231129-04:20:40.368|56=INITIATOR|10=012|8=FIX.4.2|9=61|35=0|34=37|49=ACCEPTOR|52=20231129-04:21:10.509|56=INITIATOR|10=008|8=FIX.4.2|9=61|35=0|34=38|49=ACCEPTOR|52=20231129-04:21:40.537|56=INITIATOR|10=013|8=FIX.4.2|9=61|35=0|34=39|49=ACCEPTOR|52=20231129-04:22:10.429|56=INITIATOR|10=012|8=FIX.4.2|9=61|35=0|34=40|49=ACCEPTOR|52=20231129-04:22:40.197|56=INITIATOR|10=009|8=FIX.4.2|9=61|35=0|34=41|49=ACCEPTOR|52=20231129-04:23:10.033|56=INITIATOR|10=253|8=FIX.4.2|9=61|35=0|34=42|49=ACCEPTOR|52=20231129-04:23:40.480|56=INITIATOR|10=007|