8=FIXT.1.1|9=79|35=A|34=1|49=ACCEPTOR|52=20231129-04:50:56.064|56=INITIATOR|98=0|108=30|1137=7|10=155|8=FIXT.1.1|9=60|35=0|34=2|49=ACCEPTOR|52=20231129-04:51:26.021|56=INITIATOR|10=030|8=FIXT.1.1|9=60|35=0|34=3|49=ACCEPTOR|52=20231129-04:51:56.724|56=INITIATOR|10=044|8=FIXT.1.1|9=60|35=0|34=4|49=ACCEPTOR|52=20231129-04:52:26.278|56=INITIATOR|10=047|8=FIXT.1.1|9=60|35=0|34=5|49=ACCEPTOR|52=20231129-04:52:56.681|56=INITIATOR|10=049|8=FIXT.1.1|9=60|35=0|34=6|49=ACCEPTOR|52=20231129-04:53:26.155|56=INITIATOR|10=044|8=FIXT.1.1|9=60|35=0|34=7|49=ACCEPTOR|52=20231129-04:53:56.303|56=INITIATOR|10=043|8=FIXT.1.1|9=60|35=0|34=8|49=ACCEPTOR|52=20231129-04:54:26.350|56=INITIATOR|10=044|8=FIXT.1.1|9=60|35=0|34=9|49=ACCEPTOR|52=20231129-04:54:56.263|56=INITIATOR|10=051|8=FIXT.1.1|9=61|35=0|34=10|49=ACCEPTOR|52=20231129-04:55:26.055|56=INITIATOR|10=089|8=FIXT.1.1|9=61|35=0|34=11|49=ACCEPTOR|52=20231129-04:55:56.646|56=INITIATOR|10=099|8=FIXT.1.1|9=61|35=0|34=12|49=ACCEPTOR|52=20231129-04:56:26.130|56=INITIATOR|10=086|8=FIXT.1.1|9=61|35=0|34=13|49=ACCEPTOR|52=20231129-04:56:56.436|56=INITIATOR|10=099|8=FIXT.1.1|9=61|35=0|34=14|49=ACCEPTOR|52=20231129-04:57:26.605|56=INITIATOR|10=096|8=FIXT.1.1|9=61|35=0|34=15|49=ACCEPTOR|52=20231129-04:57:56.654|56=INITIATOR|10=104|8=FIXT.1.1|9=61|35=0|34=16|49=ACCEPTOR|52=20231129-04:58:26.599|56=INITIATOR|10=111|8=FIXT.1.1|9=61|35=0|34=17|49=ACCEPTOR|52=20231129-04:58:56.419|56=INITIATOR|10=106|8=FIXT.1.1|9=61|35=0|34=18|49=ACCEPTOR|52=20231129-04:59:26.092|56=INITIATOR|10=102|8=FIXT.1.1|9=61|35=0|34=19|49=ACCEPTOR|52=20231129-04:59:56.542|56=INITIATOR|10=106|8=FIXT.1.1|9=61|35=0|34=20|49=ACCEPTOR|52=20231129-05:00:26.275|56=INITIATOR|10=085|8=FIXT.1.1|9=61|35=0|34=21|49=ACCEPTOR|52=20231129-05:00:56.443|56=INITIATOR|10=086|8=FIXT.1.1|9=61|35=0|34=22|49=ACCEPTOR|52=20231129-05:01:26.463|56=INITIATOR|10=087|8=FIXT.1.1|9=61|35=0|34=23|49=ACCEPTOR|52=20231129-05:01:56.335|56=INITIATOR|10=089|8=FIXT.1.1|9=61|35=0|34=24|49=ACCEPTOR|52=20231129-05:02:26.049|56=INITIATOR|10=090|8=FIXT.1.1|9=61|35=0|34=25|49=ACCEPTOR|52=20231129-05:02:56.028|56=INITIATOR|10=091|8=FIXT.1.1|9=61|35=0|34=26|49=ACCEPTOR|52=20231129-05:03:26.352|56=INITIATOR|10=090|8=FIXT.1.1|9=61|35=0|34=27|49=ACCEPTOR|52=20231129-05:03:56.086|56=INITIATOR|10=098|8=FIXT.1.1|9=61|35=0|34=28|49=ACCEPTOR|52=20231129-05:04:26.187|56=INITIATOR|10=099|8=FIXT.1.1|9=61|35=0|34=29|49=ACCEPTOR|52=20231129-05:04:56.120|56=INITIATOR|10=090|8=FIXT.1.1|9=61|35=0|34=30|49=ACCEPTOR|52=20231129-05:05:26.350|56=INITIATOR|10=085|8=FIXT.1.1|9=61|35=0|34=31|49=ACCEPTOR|52=20231129-05:05:56.413|56=INITIATOR|10=089|8=FIXT.1.1|9=61|35=0|34=32|49=ACCEPTOR|52=20231129-05:06:26.337|56=INITIATOR|10=093|8=FIXT.1.1|9=61|35=0|34=33|49=ACCEPTOR|52=20231129-05:06:56.088|56=INITIATOR|10=100|8=FIXT.1.1|9=61|35=0|34=34|49=ACCEPTOR|52=20231129-05:07:26.530|56=INITIATOR|10=091|8=FIXT.1.1|9=61|35=0|34=35|49=ACCEPTOR|52=20231129-05:07:56.293|56=INITIATOR|10=101|8=FIXT.1.1|9=61|35=0|34=36|49=ACCEPTOR|52=20231129-05:08:26.479|56=INITIATOR|10=106|8=FIXT.1.1|9=61|35=0|34=37|49=ACCEPTOR|52=20231129-05:08:56.532|56=INITIATOR|10=100|8=FIXT.1.1|9=61|35=0|34=38|49=ACCEPTOR|52=20231129-05:09:26.447|56=INITIATOR|10=104|8=FIXT.1.1|9=61|35=0|34=39|49=ACCEPTOR|52=20231129-05:09:56.227|56=INITIATOR|10=104|8=FIXT.1.1|9=61|35=0|34=40|49=ACCEPTOR|52=20231129-05:10:26.126|56=INITIATOR|10=083|8=FIXT.1.1|9=61|35=0|34=41|49=ACCEPTOR|52=20231129-05:10:56.470|56=INITIATOR|10=089|8=FIXT.1.1|9=61|35=0|34=42|49=ACCEPTOR|52=20231129-05:11:26.092|56=INITIATOR|10=088|8=FIXT.1.1|9=61|35=0|34=43|49=ACCEPTOR|52=20231129-05:11:56.200|56=INITIATOR|10=083|8=FIXT.1.1|9=61|35=0|34=44|49=ACCEPTOR|52=20231129-05:12:26.166|56=INITIATOR|10=093|8=FIXT.1.1|9=61|35=0|34=45|49=ACCEPTOR|52=20231129-05:12:56.142|56=INITIATOR|10=091|8=FIXT.1.1|9=61|35=0|34=46|49=ACCEPTOR|52=20231129-05:13:26.640|56=INITIATOR|10=093|8=FIXT.1.1|9=61|35=0|34=47|49=ACCEPTOR|52=20231129-05:13:56.141|56=INITIATOR|10=093|8=FIXT.1.1|9=61|35=0|34=48|49=ACCEPTOR|52=20231129-05:14:26.300|56=INITIATOR|10=089|8=FIXT.1.1|9=61|35=0|34=49|49=ACCEPTOR|52=20231129-05:14:56.265|56=INITIATOR|10=103|8=FIXT.1.1|9=61|35=0|34=50|49=ACCEPTOR|52=20231129-05:15:26.058|56=INITIATOR|10=093|8=FIXT.1.1|9=61|35=0|34=51|49=ACCEPTOR|52=20231129-05:15:56.459|56=INITIATOR|10=102|8=FIXT.1.1|9=61|35=0|34=52|49=ACCEPTOR|52=20231129-05:16:26.660|56=INITIATOR|10=095|8=FIXT.1.1|9=61|35=0|34=53|49=ACCEPTOR|52=20231129-05:16:56.642|56=INITIATOR|10=099|8=FIXT.1.1|9=61|35=0|34=54|49=ACCEPTOR|52=20231129-05:17:26.436|56=INITIATOR|10=099|8=FIXT.1.1|9=61|35=0|34=55|49=ACCEPTOR|52=20231129-05:17:56.025|56=INITIATOR|10=097|8=FIXT.1.1|9=61|35=0|34=56|49=ACCEPTOR|52=20231129-05:18:26.145|56=INITIATOR|10=099|8=FIXT.1.1|9=61|35=0|34=57|49=ACCEPTOR|52=20231129-05:18:56.035|56=INITIATOR|10=101|8=FIXT.1.1|9=61|35=0|34=58|49=ACCEPTOR|52=20231129-05:19:26.461|56=INITIATOR|10=103|8=FIXT.1.1|9=61|35=0|34=59|49=ACCEPTOR|52=20231129-05:19:56.071|56=INITIATOR|10=104|8=FIXT.1.1|9=61|35=0|34=60|49=ACCEPTOR|52=20231129-05:20:26.067|56=INITIATOR|10=090|8=FIXT.1.1|9=61|35=0|34=61|49=ACCEPTOR|52=20231129-05:20:56.538|56=INITIATOR|10=097|8=FIXT.1.1|9=61|35=0|34=62|49=ACCEPTOR|52=20231129-05:21:26.038|56=INITIATOR|10=091|8=FIXT.1.1|9=61|35=0|34=63|49=ACCEPTOR|52=20231129-05:21:56.030|56=INITIATOR|10=087|8=FIXT.1.1|9=61|35=0|34=64|49=ACCEPTOR|52=20231129-05:22:26.060|56=INITIATOR|10=089|8=FIXT.1.1|9=61|35=0|34=65|49=ACCEPTOR|52=20231129-05:22:56.239|56=INITIATOR|10=101|8=FIXT.1.1|9=61|35=0|34=66|49=ACCEPTOR|52=20231129-05:23:26.159|56=INITIATOR|10=101|8=FIXT.1.1|9=61|35=0|34=67|49=ACCEPTOR|52=20231129-05:23:56.209|56=INITIATOR|10=101|8=FIXT.1.1|9=61|35=0|34=68|49=ACCEPTOR|52=20231129-05:24:26.033|56=INITIATOR|10=095|8=FIXT.1.1|9=61|35=0|34=69|49=ACCEPTOR|52=20231129-05:24:56.315|56=INITIATOR|10=102|8=FIXT.1.1|9=61|35=0|34=70|49=ACCEPTOR|52=20231129-05:25:26.365|56=INITIATOR|10=097|8=FIXT.1.1|9=61|35=0|34=71|49=ACCEPTOR|52=20231129-05:25:56.160|56=INITIATOR|10=094|8=FIXT.1.1|9=61|35=0|34=72|49=ACCEPTOR|52=20231129-05:26:26.407|56=INITIATOR|10=097|8=FIXT.1.1|9=61|35=0|34=73|49=ACCEPTOR|52=20231129-05:26:56.371|56=INITIATOR|10=101|8=FIXT.1.1|9=61|35=0|34=74|49=ACCEPTOR|52=20231129-05:27:26.111|56=INITIATOR|10=092|8=FIXT.1.1|9=61|35=0|34=75|49=ACCEPTOR|52=20231129-05:27:56.230|56=INITIATOR|10=098|8=FIXT.1.1|9=61|35=0|34=76|49=ACCEPTOR|52=20231129-05:28:26.057|56=INITIATOR|10=104|8=FIXT.1.1|9=61|35=0|34=77|49=ACCEPTOR|52=20231129-05:28:56.171|56=INITIATOR|10=105|8=FIXT.1.1|9=61|35=0|34=78|49=ACCEPTOR|52=20231129-05:29:26.119|56=INITIATOR|10=106|8=FIXT.1.1|9=61|35=0|34=79|49=ACCEPTOR|52=20231129-05:29:56.213|56=INITIATOR|10=105|8=FIXT.1.1|9=61|35=0|34=80|49=ACCEPTOR|52=20231129-05:30:26.005|56=INITIATOR|10=085|8=FIXT.1.1|9=61|35=0|34=81|49=ACCEPTOR|52=20231129-05:30:56.075|56=INITIATOR|10=096|8=FIXT.1.1|9=61|35=0|34=82|49=ACCEPTOR|52=20231129-05:31:26.166|56=INITIATOR|10=096|8=FIXT.1.1|9=61|35=0|34=83|49=ACCEPTOR|52=20231129-05:31:56.119|56=INITIATOR|10=098|8=FIXT.1.1|9=61|35=0|34=84|49=ACCEPTOR|52=20231129-05:32:26.199|56=INITIATOR|10=105|8=FIXT.1.1|9=61|35=0|34=85|49=ACCEPTOR|52=20231129-05:32:56.542|56=INITIATOR|10=101|8=FIXT.1.1|9=61|35=0|34=86|49=ACCEPTOR|52=20231129-05:33:26.523|56=INITIATOR|10=099|8=FIXT.1.1|9=61|35=0|34=87|49=ACCEPTOR|52=20231129-05:33:56.134|56=INITIATOR|10=101|8=FIXT.1.1|9=61|35=0|34=88|49=ACCEPTOR|52=20231129-05:34:26.073|56=INITIATOR|10=102|8=FIXT.1.1|9=61|35=0|34=89|49=ACCEPTOR|52=20231129-05:34:56.010|56=INITIATOR|10=097|8=FIXT.1.1|9=61|35=0|34=90|49=ACCEPTOR|52=20231129-05:35:26.095|56=INITIATOR|10=100|8=FIXT.1.1|9=61|35=0|34=91|49=ACCEPTOR|52=20231129-05:35:56.168|56=INITIATOR|10=105|8=FIXT.1.1|9=61|35=0|34=92|49=ACCEPTOR|52=20231129-05:36:26.424|56=INITIATOR|10=099|8=FIXT.1.1|9=61|35=0|34=93|49=ACCEPTOR|52=20231129-05:36:56.290|56=INITIATOR|10=104|8=FIXT.1.1|9=61|35=0|34=94|49=ACCEPTOR|52=20231129-05:37:26.310|56=INITIATOR|10=096|8=FIXT.1.1|9=61|35=0|34=95|49=ACCEPTOR|52=20231129-05:37:56.032|56=INITIATOR|10=101|8=FIXT.1.1|9=61|35=0|34=96|49=ACCEPTOR|52=20231129-05:38:26.147|56=INITIATOR|10=107|8=FIXT.1.1|9=61|35=0|34=97|49=ACCEPTOR|52=20231129-05:38:56.186|56=INITIATOR|10=114|8=FIXT.1.1|9=61|35=0|34=98|49=ACCEPTOR|52=20231129-05:39:26.267|56=INITIATOR|10=113|8=FIXT.1.1|9=61|35=0|34=99|49=ACCEPTOR|52=20231129-05:39:56.289|56=INITIATOR|10=121|8=FIXT.1.1|9=62|35=0|34=100|49=ACCEPTOR|52=20231129-05:40:26.072|56=INITIATOR|10=132|8=FIXT.1.1|9=62|35=0|34=101|49=ACCEPTOR|52=20231129-05:40:56.400|56=INITIATOR|10=131|8=FIXT.1.1|9=62|35=0|34=102|49=ACCEPTOR|52=20231129-05:41:26.176|56=INITIATOR|10=140|8=FIXT.1.1|9=62|35=0|34=103|49=ACCEPTOR|52=20231129-05:41:56.070|56=INITIATOR|10=137|8=FIXT.1.1|9=62|35=0|34=104|49=ACCEPTOR|52=20231129-05:42:26.396|56=INITIATOR|10=147|8=FIXT.1.1|9=62|35=0|34=105|49=ACCEPTOR|52=20231129-05:42:56.069|56=INITIATOR|10=148|8=FIXT.1.1|9=62|35=0|34=106|49=ACCEPTOR|52=20231129-05:43:26.294|56=INITIATOR|10=147|8=FIXT.1.1|9=62|35=0|34=107|49=ACCEPTOR|52=20231129-05:43:56.149|56=INITIATOR|10=150|8=FIXT.1.1|9=62|35=0|34=108|49=ACCEPTOR|52=20231129-05:44:26.252|56=INITIATOR|10=144|8=FIXT.1.1|9=62|35=0|34=109|49=ACCEPTOR|52=20231129-05:44:56.000|56=INITIATOR|10=139|8=FIXT.1.1|9=62|35=0|34=110|49=ACCEPTOR|52=20231129-05:45:26.113|56=INITIATOR|10=134|8=FIXT.1.1|9=62|35=0|34=111|49=ACCEPTOR|52=20231129-05:45:56.138|56=INITIATOR|10=145|8=FIXT.1.1|9=62|35=0|34=112|49=ACCEPTOR|52=20231129-05:46:26.045|56=INITIATOR|10=141|8=FIXT.1.1|9=62|35=0|34=113|49=ACCEPTOR|52=20231129-05:46:56.122|56=INITIATOR|10=141|8=FIXT.1.1|9=81|35=A|34=114|49=ACCEPTOR|52=20231129-06:07:22.020|56=INITIATOR|98=0|108=30|1137=7|10=238|8=FIXT.1.1|9=62|35=0|34=115|49=ACCEPTOR|52=20231129-06:07:52.013|56=INITIATOR|10=136|8=FIXT.1.1|9=62|35=0|34=116|49=ACCEPTOR|52=20231129-06:08:22.008|56=INITIATOR|10=139|8=FIXT.1.1|9=62|35=0|34=117|49=ACCEPTOR|52=20231129-06:08:52.116|56=INITIATOR|10=143|8=FIXT.1.1|9=62|35=0|34=118|49=ACCEPTOR|52=20231129-06:09:22.214|56=INITIATOR|10=141|8=FIXT.1.1|9=62|35=0|34=119|49=ACCEPTOR|52=20231129-06:09:52.276|56=INITIATOR|10=153|8=FIXT.1.1|9=62|35=0|34=120|49=ACCEPTOR|52=20231129-06:10:22.059|56=INITIATOR|10=133|8=FIXT.1.1|9=62|35=0|34=121|49=ACCEPTOR|52=20231129-06:10:52.222|56=INITIATOR|10=129|8=FIXT.1.1|9=62|35=0|34=122|49=ACCEPTOR|52=20231129-06:11:22.017|56=INITIATOR|10=130|8=FIXT.1.1|9=62|35=0|34=123|49=ACCEPTOR|52=20231129-06:11:52.141|56=INITIATOR|10=132|8=FIXT.1.1|9=62|35=0|34=124|49=ACCEPTOR|52=20231129-06:12:22.148|56=INITIATOR|10=138|8=FIXT.1.1|9=62|35=0|34=125|49=ACCEPTOR|52=20231129-06:12:52.055|56=INITIATOR|10=139|8=FIXT.1.1|9=62|35=0|34=126|49=ACCEPTOR|52=20231129-06:13:22.081|56=INITIATOR|10=137|8=FIXT.1.1|9=62|35=0|34=127|49=ACCEPTOR|52=20231129-06:13:52.085|56=INITIATOR|10=145|8=FIXT.1.1|9=62|35=0|34=128|49=ACCEPTOR|52=20231129-06:14:22.093|56=INITIATOR|10=143|8=FIXT.1.1|9=62|35=0|34=129|49=ACCEPTOR|52=20231129-06:14:52.068|56=INITIATOR|10=149|8=FIXT.1.1|9=62|35=0|34=130|49=ACCEPTOR|52=20231129-06:15:22.080|56=INITIATOR|10=133|8=FIXT.1.1|9=62|35=0|34=131|49=ACCEPTOR|52=20231129-06:15:52.078|56=INITIATOR|10=144|8=FIXT.1.1|9=62|35=0|34=132|49=ACCEPTOR|52=20231129-06:16:22.002|56=INITIATOR|10=130|8=FIXT.1.1|9=62|35=0|34=133|49=ACCEPTOR|52=20231129-06:16:52.125|56=INITIATOR|10=140|8=FIXT.1.1|9=62|35=0|34=134|49=ACCEPTOR|52=20231129-06:17:22.033|56=INITIATOR|10=137|8=FIXT.1.1|9=62|35=0|34=135|49=ACCEPTOR|52=20231129-06:17:52.176|56=INITIATOR|10=149|8=FIXT.1.1|9=62|35=0|34=136|49=ACCEPTOR|52=20231129-06:18:22.105|56=INITIATOR|10=140|8=FIXT.1.1|9=62|35=0|34=137|49=ACCEPTOR|52=20231129-06:18:52.128|56=INITIATOR|10=149|8=FIXT.1.1|9=62|35=0|34=138|49=ACCEPTOR|52=20231129-06:19:22.054|56=INITIATOR|10=146|8=FIXT.1.1|9=62|35=0|34=139|49=ACCEPTOR|52=20231129-06:19:52.052|56=INITIATOR|10=148|8=FIXT.1.1|9=62|35=0|34=140|49=ACCEPTOR|52=20231129-06:20:22.060|56=INITIATOR|10=128|8=FIXT.1.1|9=62|35=0|34=141|49=ACCEPTOR|52=20231129-06:20:52.017|56=INITIATOR|10=134|8=FIXT.1.1|9=62|35=0|34=142|49=ACCEPTOR|52=20231129-06:21:22.740|56=INITIATOR|10=136|8=FIXT.1.1|9=62|35=0|34=143|49=ACCEPTOR|52=20231129-06:21:52.369|56=INITIATOR|10=147|8=FIXT.1.1|9=62|35=0|34=144|49=ACCEPTOR|52=20231129-06:22:22.179|56=INITIATOR|10=145|8=FIXT.1.1|9=62|35=0|34=145|49=ACCEPTOR|52=20231129-06:22:52.569|56=INITIATOR|10=152|8=FIXT.1.1|9=62|35=0|34=146|49=ACCEPTOR|52=20231129-06:23:22.227|56=INITIATOR|10=142|8=FIXT.1.1|9=62|35=0|34=147|49=ACCEPTOR|52=20231129-06:23:52.418|56=INITIATOR|10=148|8=FIXT.1.1|9=62|35=0|34=148|49=ACCEPTOR|52=20231129-06:24:22.464|56=INITIATOR|10=148|8=FIXT.1.1|9=62|35=0|34=149|49=ACCEPTOR|52=20231129-06:24:52.391|56=INITIATOR|10=151|8=FIXT.1.1|9=62|35=0|34=150|49=ACCEPTOR|52=20231129-06:25:22.213|56=INITIATOR|10=134|8=FIXT.1.1|9=62|35=0|34=151|49=ACCEPTOR|52=20231129-06:25:52.363|56=INITIATOR|10=144|8=FIXT.1.1|9=62|35=0|34=152|49=ACCEPTOR|52=20231129-06:26:22.375|56=INITIATOR|10=146|8=FIXT.1.1|9=62|35=0|34=153|49=ACCEPTOR|52=20231129-06:26:52.268|56=INITIATOR|10=151|8=FIXT.1.1|9=92|35=A|34=154|49=ACCEPTOR|52=20231129-07:41:55.002|56=INITIATOR|98=0|108=30|1137=spec/FIX.5.0|10=068|8=FIXT.1.1|9=73|35=2|34=155|49=ACCEPTOR|52=20231129-07:41:55.002|56=INITIATOR|7=154|16=0|10=116|8=FIXT.1.1|9=62|35=0|34=156|49=ACCEPTOR|52=20231129-07:42:25.910|56=INITIATOR|10=147|8=FIXT.1.1|9=62|35=0|34=157|49=ACCEPTOR|52=20231129-07:42:55.750|56=INITIATOR|10=153|8=FIXT.1.1|9=62|35=0|34=158|49=ACCEPTOR|52=20231129-07:43:25.501|56=INITIATOR|10=146|8=FIXT.1.1|9=62|35=0|34=159|49=ACCEPTOR|52=20231129-07:43:55.144|56=INITIATOR|10=153|8=FIXT.1.1|9=62|35=0|34=160|49=ACCEPTOR|52=20231129-07:44:25.657|56=INITIATOR|10=152|8=FIXT.1.1|9=62|35=0|34=161|49=ACCEPTOR|52=20231129-07:44:55.069|56=INITIATOR|10=153|8=FIXT.1.1|9=62|35=0|34=162|49=ACCEPTOR|52=20231129-07:45:25.347|56=INITIATOR|10=151|8=FIXT.1.1|9=62|35=0|34=163|49=ACCEPTOR|52=20231129-07:45:55.511|56=INITIATOR|10=148|8=FIXT.1.1|9=62|35=0|34=164|49=ACCEPTOR|52=20231129-07:46:25.548|56=INITIATOR|10=157|8=FIXT.1.1|9=62|35=0|34=165|49=ACCEPTOR|52=20231129-07:46:55.483|56=INITIATOR|10=159|8=FIXT.1.1|9=62|35=0|34=166|49=ACCEPTOR|52=20231129-07:47:25.309|56=INITIATOR|10=155|8=FIXT.1.1|9=62|35=0|34=167|49=ACCEPTOR|52=20231129-07:47:55.032|56=INITIATOR|10=152|8=FIXT.1.1|9=62|35=0|34=168|49=ACCEPTOR|52=20231129-07:48:25.606|56=INITIATOR|10=158|8=FIXT.1.1|9=62|35=0|34=169|49=ACCEPTOR|52=20231129-07:48:55.099|56=INITIATOR|10=168|8=FIXT.1.1|9=62|35=0|34=170|49=ACCEPTOR|52=20231129-07:49:25.418|56=INITIATOR|10=153|8=FIXT.1.1|9=62|35=0|34=171|49=ACCEPTOR|52=20231129-07:49:55.607|56=INITIATOR|10=157|8=FIXT.1.1|9=62|35=0|34=172|49=ACCEPTOR|52=20231129-07:50:25.663|56=INITIATOR|10=149|8=FIXT.1.1|9=62|35=0|34=173|49=ACCEPTOR|52=20231129-07:50:55.603|56=INITIATOR|10=147|8=FIXT.1.1|9=62|35=0|34=174|49=ACCEPTOR|52=20231129-07:51:25.431|56=INITIATOR|10=145|8=FIXT.1.1|9=62|35=0|34=175|49=ACCEPTOR|52=20231129-07:51:55.160|56=INITIATOR|10=148|8=FIXT.1.1|9=62|35=0|34=176|49=ACCEPTOR|52=20231129-07:52:25.089|56=INITIATOR|10=157|8=FIXT.1.1|9=62|35=0|34=177|49=ACCEPTOR|52=20231129-07:52:55.507|56=INITIATOR|10=156|8=FIXT.1.1|9=62|35=0|34=178|49=ACCEPTOR|52=20231129-07:53:25.231|56=INITIATOR|10=149|8=FIXT.1.1|9=62|35=0|34=179|49=ACCEPTOR|52=20231129-07:53:55.427|56=INITIATOR|10=160|8=FIXT.1.1|9=62|35=0|34=180|49=ACCEPTOR|52=20231129-07:54:25.510|56=INITIATOR|10=143|8=FIXT.1.1|9=62|35=0|34=181|49=ACCEPTOR|52=20231129-07:54:55.460|56=INITIATOR|10=151|8=FIXT.1.1|9=62|35=0|34=182|49=ACCEPTOR|52=20231129-07:55:25.268|56=INITIATOR|10=156|8=FIXT.1.1|9=62|35=0|34=183|49=ACCEPTOR|52=20231129-07:55:55.354|56=INITIATOR|10=156|8=FIXT.1.1|9=62|35=0|34=184|49=ACCEPTOR|52=20231129-07:56:25.317|56=INITIATOR|10=154|8=FIXT.1.1|9=62|35=0|34=185|49=ACCEPTOR|52=20231129-07:56:55.122|56=INITIATOR|10=152|8=FIXT.1.1|9=62|35=0|34=186|49=ACCEPTOR|52=20231129-07:57:25.319|56=INITIATOR|10=159|8=FIXT.1.1|9=62|35=0|34=187|49=ACCEPTOR|52=20231129-07:57:55.395|56=INITIATOR|10=167|8=FIXT.1.1|9=62|35=0|34=188|49=ACCEPTOR|52=20231129-07:58:25.333|56=INITIATOR|10=158|8=FIXT.1.1|9=62|35=0|34=189|49=ACCEPTOR|52=20231129-07:58:55.142|56=INITIATOR|10=160|8=FIXT.1.1|9=62|35=0|34=190|49=ACCEPTOR|52=20231129-07:59:25.257|56=INITIATOR|10=157|8=FIXT.1.1|9=62|35=0|34=191|49=ACCEPTOR|52=20231129-07:59:55.244|56=INITIATOR|10=157|8=FIXT.1.1|9=62|35=0|34=192|49=ACCEPTOR|52=20231129-08:00:25.119|56=INITIATOR|10=143|8=FIXT.1.1|9=62|35=0|34=193|49=ACCEPTOR|52=20231129-08:00:55.291|56=INITIATOR|10=148|8=FIXT.1.1|9=62|35=0|34=194|49=ACCEPTOR|52=20231129-08:01:25.326|56=INITIATOR|10=146|8=FIXT.1.1|9=62|35=0|34=195|49=ACCEPTOR|52=20231129-08:01:55.171|56=INITIATOR|10=148|8=FIXT.1.1|9=62|35=0|34=196|49=ACCEPTOR|52=20231129-08:02:25.393|56=INITIATOR|10=153|8=FIXT.1.1|9=62|35=0|34=197|49=ACCEPTOR|52=20231129-08:02:55.488|56=INITIATOR|10=162|8=FIXT.1.1|9=62|35=0|34=198|49=ACCEPTOR|52=20231129-08:03:25.444|56=INITIATOR|10=153|8=FIXT.1.1|9=62|35=0|34=199|49=ACCEPTOR|52=20231129-08:03:55.271|56=INITIATOR|10=155|8=FIXT.1.1|9=62|35=0|34=200|49=ACCEPTOR|52=20231129-08:04:25.311|56=INITIATOR|10=131|8=FIXT.1.1|9=62|35=0|34=201|49=ACCEPTOR|52=20231129-08:04:55.208|56=INITIATOR|10=140|8=FIXT.1.1|9=62|35=0|34=202|49=ACCEPTOR|52=20231129-08:05:25.531|56=INITIATOR|10=138|8=FIXT.1.1|9=62|35=0|34=203|49=ACCEPTOR|52=20231129-08:05:55.133|56=INITIATOR|10=140|8=FIXT.1.1|9=62|35=0|34=204|49=ACCEPTOR|52=20231129-08:06:25.193|56=INITIATOR|10=145|8=FIXT.1.1|9=62|35=0|34=205|49=ACCEPTOR|52=20231129-08:06:55.070|56=INITIATOR|10=143|8=FIXT.1.1|9=62|35=0|34=206|49=ACCEPTOR|52=20231129-08:07:25.023|56=INITIATOR|10=140|8=FIXT.1.1|9=62|35=0|34=207|49=ACCEPTOR|52=20231129-08:07:55.412|56=INITIATOR|10=146|8=FIXT.1.1|9=62|35=0|34=208|49=ACCEPTOR|52=20231129-08:08:25.043|56=INITIATOR|10=145|8=FIXT.1.1|9=62|35=0|34=209|49=ACCEPTOR|52=20231129-08:08:55.126|56=INITIATOR|10=151|8=FIXT.1.1|9=62|35=0|34=210|49=ACCEPTOR|52=20231129-08:09:25.075|56=INITIATOR|10=144|8=FIXT.1.1|9=62|35=0|34=211|49=ACCEPTOR|52=20231129-08:09:55.072|56=INITIATOR|10=145|8=FIXT.1.1|9=62|35=0|34=212|49=ACCEPTOR|52=20231129-08:10:25.517|56=INITIATOR|10=139|8=FIXT.1.1|9=62|35=0|34=213|49=ACCEPTOR|52=20231129-08:10:55.142|56=INITIATOR|10=137|8=FIXT.1.1|9=62|35=0|34=214|49=ACCEPTOR|52=20231129-08:11:25.261|56=INITIATOR|10=138|8=FIXT.1.1|9=62|35=0|34=215|49=ACCEPTOR|52=20231129-08:11:55.208|56=INITIATOR|10=143|8=FIXT.1.1|9=62|35=0|34=216|49=ACCEPTOR|52=20231129-08:12:25.084|56=INITIATOR|10=144|8=FIXT.1.1|9=62|35=0|34=217|49=ACCEPTOR|52=20231129-08:12:55.454|56=INITIATOR|10=149|8=FIXT.1.1|9=62|35=0|34=218|49=ACCEPTOR|52=20231129-08:13:25.638|56=INITIATOR|10=152|8=FIXT.1.1|9=62|35=0|34=219|49=ACCEPTOR|52=20231129-08:13:55.668|56=INITIATOR|10=159|8=FIXT.1.1|9=62|35=0|34=220|49=ACCEPTOR|52=20231129-08:14:25.532|56=INITIATOR|10=139|8=FIXT.1.1|9=62|35=0|34=221|49=ACCEPTOR|52=20231129-08:14:55.228|56=INITIATOR|10=145|8=FIXT.1.1|9=62|35=0|34=222|49=ACCEPTOR|52=20231129-08:15:25.486|56=INITIATOR|10=150|8=FIXT.1.1|9=62|35=0|34=223|49=ACCEPTOR|52=20231129-08:15:55.569|56=INITIATOR|10=156|8=FIXT.1.1|9=62|35=0|34=224|49=ACCEPTOR|52=20231129-08:16:25.453|56=INITIATOR|10=147|8=FIXT.1.1|9=62|35=0|34=225|49=ACCEPTOR|52=20231129-08:16:55.147|56=INITIATOR|10=151|8=FIXT.1.1|9=62|35=0|34=226|49=ACCEPTOR|52=20231129-08:17:25.376|56=INITIATOR|10=154|8=FIXT.1.1|9=62|35=0|34=227|49=ACCEPTOR|52=20231129-08:17:55.442|56=INITIATOR|10=152|8=FIXT.1.1|9=62|35=0|34=228|49=ACCEPTOR|52=20231129-08:18:25.354|56=INITIATOR|10=153|8=FIXT.1.1|9=62|35=0|34=229|49=ACCEPTOR|52=20231129-08:18:55.094|56=INITIATOR|10=158|8=FIXT.1.1|9=62|35=0|34=230|49=ACCEPTOR|52=20231129-08:19:25.337|56=INITIATOR|10=148|8=FIXT.1.1|9=62|35=0|34=231|49=ACCEPTOR|52=20231129-08:19:55.401|56=INITIATOR|10=144|8=FIXT.1.1|9=62|35=0|34=232|49=ACCEPTOR|52=20231129-08:20:25.259|56=INITIATOR|10=145|8=FIXT.1.1|9=62|35=0|34=233|49=ACCEPTOR|52=20231129-08:20:55.253|56=INITIATOR|10=143|8=FIXT.1.1|9=62|35=0|34=234|49=ACCEPTOR|52=20231129-08:21:25.073|56=INITIATOR|10=142|8=FIXT.1.1|9=62|35=0|34=235|49=ACCEPTOR|52=20231129-08:21:55.046|56=INITIATOR|10=146|8=FIXT.1.1|9=62|35=0|34=236|49=ACCEPTOR|52=20231129-08:22:25.275|56=INITIATOR|10=149|8=FIXT.1.1|9=62|35=0|34=237|49=ACCEPTOR|52=20231129-08:22:55.328|56=INITIATOR|10=152|8=FIXT.1.1|9=62|35=0|34=238|49=ACCEPTOR|52=20231129-08:23:25.187|56=INITIATOR|10=154|8=FIXT.1.1|9=62|35=0|34=239|49=ACCEPTOR|52=20231129-08:23:55.526|56=INITIATOR|10=155|8=FIXT.1.1|9=62|35=0|34=240|49=ACCEPTOR|52=20231129-08:24:25.113|56=INITIATOR|10=137|8=FIXT.1.1|9=62|35=0|34=241|49=ACCEPTOR|52=20231129-08:24:55.088|56=INITIATOR|10=152|8=FIXT.1.1|9=62|35=0|34=242|49=ACCEPTOR|52=20231129-08:25:25.551|56=INITIATOR|10=146|8=FIXT.1.1|9=62|35=0|34=243|49=ACCEPTOR|52=20231129-08:25:55.156|56=INITIATOR|10=151|8=FIXT.1.1|9=62|35=0|34=244|49=ACCEPTOR|52=20231129-08:26:25.245|56=INITIATOR|10=149|8=FIXT.1.1|9=62|35=0|34=245|49=ACCEPTOR|52=20231129-08:26:55.107|56=INITIATOR|10=150|8=FIXT.1.1|9=92|35=A|34=246|49=ACCEPTOR|52=20231129-08:39:28.629|56=INITIATOR|98=0|108=30|1137=spec/FIX.5.0|10=093|8=FIXT.1.1|9=92|35=A|34=247|49=ACCEPTOR|52=20231129-08:41:10.550|56=INITIATOR|98=0|108=30|1137=spec/FIX.5.0|10=071|8=FIXT.1.1|9=62|35=0|34=248|49=ACCEPTOR|52=20231129-08:41:40.456|56=INITIATOR|10=151|8=FIXT.1.1|9=62|35=0|34=249|49=ACCEPTOR|52=20231129-08:42:10.234|56=INITIATOR|10=144|8=FIXT.1.1|9=62|35=0|34=250|49=ACCEPTOR|52=20231129-08:42:40.843|56=INITIATOR|10=145|8=FIXT.1.1|9=62|35=0|34=251|49=ACCEPTOR|52=20231129-08:43:10.327|56=INITIATOR|10=141|8=FIXT.1.1|9=62|35=0|34=252|49=ACCEPTOR|52=20231129-08:43:40.654|56=INITIATOR|10=148|8=FIXT.1.1|9=92|35=A|34=253|49=ACCEPTOR|52=20231129-08:44:21.017|56=INITIATOR|98=0|108=30|1137=spec/FIX.5.0|10=071|8=FIXT.1.1|9=62|35=0|34=254|49=ACCEPTOR|52=20231129-08:44:51.955|56=INITIATOR|10=157|8=FIXT.1.1|9=62|35=0|34=255|49=ACCEPTOR|52=20231129-08:45:21.730|56=INITIATOR|10=147|8=FIXT.1.1|9=62|35=0|34=256|49=ACCEPTOR|52=20231129-08:45:51.375|56=INITIATOR|10=156|8=FIXT.1.1|9=91|35=A|34=257|49=ACCEPTOR|52=20231129-08:46:29.020|56=INITIATOR|98=0|108=1|1137=spec/FIX.5.0|10=028|8=FIXT.1.1|9=62|35=0|34=258|49=ACCEPTOR|52=20231129-08:46:30.020|56=INITIATOR|10=143|8=FIXT.1.1|9=62|35=0|34=259|49=ACCEPTOR|52=20231129-08:46:31.019|56=INITIATOR|10=153|8=FIXT.1.1|9=62|35=0|34=260|49=ACCEPTOR|52=20231129-08:46:32.019|56=INITIATOR|10=146|8=FIXT.1.1|9=62|35=0|34=261|49=ACCEPTOR|52=20231129-08:46:33.018|56=INITIATOR|10=147|8=FIXT.1.1|9=62|35=0|34=262|49=ACCEPTOR|52=20231129-08:46:34.017|56=INITIATOR|10=148|8=FIXT.1.1|9=62|35=0|34=263|49=ACCEPTOR|52=20231129-08:46:35.015|56=INITIATOR|10=148|8=FIXT.1.1|9=62|35=0|34=264|49=ACCEPTOR|52=20231129-08:46:36.011|56=INITIATOR|10=146|8=FIXT.1.1|9=62|35=0|34=265|49=ACCEPTOR|52=20231129-08:46:37.008|56=INITIATOR|10=154|8=FIXT.1.1|9=62|35=0|34=266|49=ACCEPTOR|52=20231129-08:46:38.003|56=INITIATOR|10=151|8=FIXT.1.1|9=62|35=0|34=267|49=ACCEPTOR|52=20231129-08:46:39.000|56=INITIATOR|10=150|8=FIXT.1.1|9=62|35=0|34=268|49=ACCEPTOR|52=20231129-08:46:40.985|56=INITIATOR|10=165|8=FIXT.1.1|9=62|35=0|34=269|49=ACCEPTOR|52=20231129-08:46:41.978|56=INITIATOR|10=169|8=FIXT.1.1|9=62|35=0|34=270|49=ACCEPTOR|52=20231129-08:46:42.969|56=INITIATOR|10=162|8=FIXT.1.1|9=62|35=0|34=271|49=ACCEPTOR|52=20231129-08:46:43.960|56=INITIATOR|10=155|8=FIXT.1.1|9=62|35=0|34=272|49=ACCEPTOR|52=20231129-08:46:44.950|56=INITIATOR|10=156|8=FIXT.1.1|9=91|35=A|34=273|49=ACCEPTOR|52=20231129-08:48:10.423|56=INITIATOR|98=0|108=1|1137=spec/FIX.5.0|10=025|8=FIXT.1.1|9=62|35=0|34=274|49=ACCEPTOR|52=20231129-08:48:11.419|56=INITIATOR|10=154|8=FIXT.1.1|9=62|35=0|34=275|49=ACCEPTOR|52=20231129-08:48:12.414|56=INITIATOR|10=151|8=FIXT.1.1|9=62|35=0|34=276|49=ACCEPTOR|52=20231129-08:48:13.410|56=INITIATOR|10=149|8=FIXT.1.1|9=62|35=0|34=277|49=ACCEPTOR|52=20231129-08:48:14.404|56=INITIATOR|10=154|8=FIXT.1.1|9=62|35=0|34=278|49=ACCEPTOR|52=20231129-08:48:15.398|56=INITIATOR|10=168|8=FIXT.1.1|9=62|35=0|34=279|49=ACCEPTOR|52=20231129-08:48:16.391|56=INITIATOR|10=163|8=FIXT.1.1|9=62|35=0|34=280|49=ACCEPTOR|52=20231129-08:48:17.382|56=INITIATOR|10=156|8=FIXT.1.1|9=62|35=0|34=281|49=ACCEPTOR|52=20231129-08:48:18.373|56=INITIATOR|10=158|8=FIXT.1.1|9=62|35=0|34=282|49=ACCEPTOR|52=20231129-08:48:19.364|56=INITIATOR|10=160|8=FIXT.1.1|9=62|35=0|34=283|49=ACCEPTOR|52=20231129-08:48:20.354|56=INITIATOR|10=152|8=FIXT.1.1|9=62|35=0|34=284|49=ACCEPTOR|52=20231129-08:48:21.343|56=INITIATOR|10=152|8=FIXT.1.1|9=62|35=0|34=285|49=ACCEPTOR|52=20231129-08:48:22.330|56=INITIATOR|10=150|8=FIXT.1.1|9=62|35=0|34=286|49=ACCEPTOR|52=20231129-08:48:23.317|56=INITIATOR|10=157|8=FIXT.1.1|9=62|35=0|34=287|49=ACCEPTOR|52=20231129-08:48:24.302|56=INITIATOR|10=153|8=FIXT.1.1|9=62|35=0|34=288|49=ACCEPTOR|52=20231129-08:48:25.286|56=INITIATOR|10=166|8=FIXT.1.1|9=62|35=0|34=289|49=ACCEPTOR|52=20231129-08:48:26.269|56=INITIATOR|10=169|8=FIXT.1.1|9=62|35=0|34=290|49=ACCEPTOR|52=20231129-08:48:27.251|56=INITIATOR|10=153|8=FIXT.1.1|9=62|35=0|34=291|49=ACCEPTOR|52=20231129-08:48:28.231|56=INITIATOR|10=153|8=FIXT.1.1|9=62|35=0|34=292|49=ACCEPTOR|52=20231129-08:48:29.211|56=INITIATOR|10=153|8=FIXT.1.1|9=62|35=0|34=293|49=ACCEPTOR|52=20231129-08:48:30.191|56=INITIATOR|10=153|8=FIXT.1.1|9=62|35=0|34=294|49=ACCEPTOR|52=20231129-08:48:31.169|56=INITIATOR|10=160|8=FIXT.1.1|9=62|35=0|34=295|49=ACCEPTOR|52=20231129-08:48:32.147|56=INITIATOR|10=158|8=FIXT.1.1|9=62|35=0|34=296|49=ACCEPTOR|52=20231129-08:48:33.124|56=INITIATOR|10=155|8=FIXT.1.1|9=62|35=0|34=297|49=ACCEPTOR|52=20231129-08:48:34.099|56=INITIATOR|10=168|8=FIXT.1.1|9=62|35=0|34=298|49=ACCEPTOR|52=20231129-08:48:35.074|56=INITIATOR|10=163|8=FIXT.1.1|9=62|35=0|34=299|49=ACCEPTOR|52=20231129-08:48:36.047|56=INITIATOR|10=165|8=FIXT.1.1|9=62|35=0|34=300|49=ACCEPTOR|52=20231129-08:48:37.020|56=INITIATOR|10=140|8=FIXT.1.1|9=62|35=0|34=301|49=ACCEPTOR|52=20231129-08:48:38.004|56=INITIATOR|10=144|8=FIXT.1.1|9=62|35=0|34=302|49=ACCEPTOR|52=20231129-08:48:39.944|56=INITIATOR|10=159|8=FIXT.1.1|9=62|35=0|34=303|49=ACCEPTOR|52=20231129-08:48:40.914|56=INITIATOR|10=149|8=FIXT.1.1|9=62|35=0|34=304|49=ACCEPTOR|52=20231129-08:48:41.883|56=INITIATOR|10=156|8=FIXT.1.1|9=62|35=0|34=305|49=ACCEPTOR|52=20231129-08:48:42.853|56=INITIATOR|10=155|8=FIXT.1.1|9=62|35=0|34=306|49=ACCEPTOR|52=20231129-08:48:43.822|56=INITIATOR|10=153|8=FIXT.1.1|9=62|35=0|34=307|49=ACCEPTOR|52=20231129-08:48:44.790|56=INITIATOR|10=159|8=FIXT.1.1|9=62|35=0|34=308|49=ACCEPTOR|52=20231129-08:48:45.757|56=INITIATOR|10=164|8=FIXT.1.1|9=62|35=0|34=309|49=ACCEPTOR|52=20231129-08:48:46.724|56=INITIATOR|10=160|8=FIXT.1.1|9=62|35=0|34=310|49=ACCEPTOR|52=20231129-08:48:47.691|56=INITIATOR|10=156|8=FIXT.1.1|9=62|35=0|34=311|49=ACCEPTOR|52=20231129-08:48:48.656|56=INITIATOR|10=159|8=FIXT.1.1|9=62|35=0|34=312|49=ACCEPTOR|52=20231129-08:48:49.620|56=INITIATOR|10=152|8=FIXT.1.1|9=62|35=0|34=313|49=ACCEPTOR|52=20231129-08:48:50.584|56=INITIATOR|10=154|8=FIXT.1.1|9=62|35=0|34=314|49=ACCEPTOR|52=20231129-08:48:51.548|56=INITIATOR|10=156|8=FIXT.1.1|9=62|35=0|34=315|49=ACCEPTOR|52=20231129-08:48:52.510|56=INITIATOR|10=147|8=FIXT.1.1|9=62|35=0|34=316|49=ACCEPTOR|52=20231129-08:48:53.472|56=INITIATOR|10=156|8=FIXT.1.1|9=62|35=0|34=317|49=ACCEPTOR|52=20231129-08:48:54.432|56=INITIATOR|10=154|8=FIXT.1.1|9=62|35=0|34=318|49=ACCEPTOR|52=20231129-08:48:55.393|56=INITIATOR|10=162|8=FIXT.1.1|9=62|35=0|34=319|49=ACCEPTOR|52=20231129-08:48:56.354|56=INITIATOR|10=161|8=FIXT.1.1|9=62|35=0|34=320|49=ACCEPTOR|52=20231129-08:48:57.314|56=INITIATOR|10=150|8=FIXT.1.1|9=62|35=0|34=321|49=ACCEPTOR|52=20231129-08:48:58.273|56=INITIATOR|10=156|8=FIXT.1.1|9=62|35=0|34=322|49=ACCEPTOR|52=20231129-08:48:59.232|56=INITIATOR|10=153|8=FIXT.1.1|9=62|35=0|34=323|49=ACCEPTOR|52=20231129-08:49:00.190|56=INITIATOR|10=144|8=FIXT.1.1|9=62|35=0|34=324|49=ACCEPTOR|52=20231129-08:49:01.148|56=INITIATOR|10=149|8=FIXT.1.1|9=62|35=0|34=325|49=ACCEPTOR|52=20231129-08:49:02.105|56=INITIATOR|10=144|8=FIXT.1.1|9=62|35=0|34=326|49=ACCEPTOR|52=20231129-08:49:03.061|56=INITIATOR|10=147|8=FIXT.1.1|9=62|35=0|34=327|49=ACCEPTOR|52=20231129-08:49:04.017|56=INITIATOR|10=150|8=FIXT.1.1|9=62|35=0|34=328|49=ACCEPTOR|52=20231129-08:49:05.929|56=INITIATOR|10=164|8=FIXT.1.1|9=62|35=0|34=329|49=ACCEPTOR|52=20231129-08:49:06.884|56=INITIATOR|10=166|8=FIXT.1.1|9=62|35=0|34=330|49=ACCEPTOR|52=20231129-08:49:07.839|56=INITIATOR|10=159|8=FIXT.1.1|9=62|35=0|34=331|49=ACCEPTOR|52=20231129-08:49:08.794|56=INITIATOR|10=161|8=FIXT.1.1|9=62|35=0|34=332|49=ACCEPTOR|52=20231129-08:49:09.748|56=INITIATOR|10=162|8=FIXT.1.1|9=62|35=0|34=333|49=ACCEPTOR|52=20231129-08:49:10.701|56=INITIATOR|10=144|8=FIXT.1.1|9=62|35=0|34=334|49=ACCEPTOR|52=20231129-08:49:11.655|56=INITIATOR|10=154|8=FIXT.1.1|9=62|35=0|34=335|49=ACCEPTOR|52=20231129-08:49:12.607|56=INITIATOR|10=153|8=FIXT.1.1|9=62|35=0|34=336|49=ACCEPTOR|52=20231129-08:49:13.558|56=INITIATOR|10=160|8=FIXT.1.1|9=62|35=0|34=337|49=ACCEPTOR|52=20231129-08:49:14.508|56=INITIATOR|10=157|8=FIXT.1.1|9=62|35=0|34=338|49=ACCEPTOR|52=20231129-08:49:15.459|56=INITIATOR|10=164|8=FIXT.1.1|9=62|35=0|34=339|49=ACCEPTOR|52=20231129-08:49:16.408|56=INITIATOR|10=160|8=FIXT.1.1|9=62|35=0|34=340|49=ACCEPTOR|52=20231129-08:49:17.356|56=INITIATOR|10=155|8=FIXT.1.1|9=62|35=0|34=341|49=ACCEPTOR|52=20231129-08:49:18.303|56=INITIATOR|10=149|8=FIXT.1.1|9=62|35=0|34=342|49=ACCEPTOR|52=20231129-08:49:19.249|56=INITIATOR|10=160|8=FIXT.1.1|9=62|35=0|34=343|49=ACCEPTOR|52=20231129-08:49:20.194|56=INITIATOR|10=152|8=FIXT.1.1|9=62|35=0|34=344|49=ACCEPTOR|52=20231129-08:49:21.139|56=INITIATOR|10=153|8=FIXT.1.1|9=62|35=0|34=345|49=ACCEPTOR|52=20231129-08:49:22.085|56=INITIATOR|10=155|8=FIXT.1.1|9=62|35=0|34=346|49=ACCEPTOR|52=20231129-08:49:23.029|56=INITIATOR|10=155|8=FIXT.1.1|9=62|35=0|34=347|49=ACCEPTOR|52=20231129-08:49:24.915|56=INITIATOR|10=161|8=FIXT.1.1|9=62|35=0|34=348|49=ACCEPTOR|52=20231129-08:49:25.857|56=INITIATOR|10=168|8=FIXT.1.1|9=62|35=0|34=349|49=ACCEPTOR|52=20231129-08:49:26.798|56=INITIATOR|10=174|8=FIXT.1.1|9=62|35=0|34=350|49=ACCEPTOR|52=20231129-08:49:27.739|56=INITIATOR|10=162|8=FIXT.1.1|9=62|35=0|34=351|49=ACCEPTOR|52=20231129-08:49:28.680|56=INITIATOR|10=159|8=FIXT.1.1|9=62|35=0|34=352|49=ACCEPTOR|52=20231129-08:49:29.621|56=INITIATOR|10=156|8=FIXT.1.1|9=62|35=0|34=353|49=ACCEPTOR|52=20231129-08:49:30.560|56=INITIATOR|10=151|8=FIXT.1.1|9=62|35=0|34=354|49=ACCEPTOR|52=20231129-08:49:31.500|56=INITIATOR|10=147|8=FIXT.1.1|9=62|35=0|34=355|49=ACCEPTOR|52=20231129-08:49:32.439|56=INITIATOR|10=160|8=FIXT.1.1|9=62|35=0|34=356|49=ACCEPTOR|52=20231129-08:49:33.377|56=INITIATOR|10=163|8=FIXT.1.1|9=62|35=0|34=357|49=ACCEPTOR|52=20231129-08:49:34.315|56=INITIATOR|10=157|8=FIXT.1.1|9=62|35=0|34=358|49=ACCEPTOR|52=20231129-08:49:35.251|56=INITIATOR|10=158|8=FIXT.1.1|9=62|35=0|34=359|49=ACCEPTOR|52=20231129-08:49:36.188|56=INITIATOR|10=169|8=FIXT.1.1|9=62|35=0|34=360|49=ACCEPTOR|52=20231129-08:49:37.124|56=INITIATOR|10=152|8=FIXT.1.1|9=62|35=0|34=361|49=ACCEPTOR|52=20231129-08:49:38.059|56=INITIATOR|10=161|8=FIXT.1.1|9=62|35=0|34=362|49=ACCEPTOR|52=20231129-08:49:39.014|56=INITIATOR|10=154|8=FIXT.1.1|9=62|35=0|34=363|49=ACCEPTOR|52=20231129-08:49:40.880|56=INITIATOR|10=158|8=FIXT.1.1|9=62|35=0|34=364|49=ACCEPTOR|52=20231129-08:49:41.813|56=INITIATOR|10=156|8=FIXT.1.1|9=62|35=0|34=365|49=ACCEPTOR|52=20231129-08:49:42.745|56=INITIATOR|10=162|8=FIXT.1.1|9=62|35=0|34=366|49=ACCEPTOR|52=20231129-08:49:43.677|56=INITIATOR|10=168|8=FIXT.1.1|9=62|35=0|34=367|49=ACCEPTOR|52=20231129-08:49:44.609|56=INITIATOR|10=165|8=FIXT.1.1|9=62|35=0|34=368|49=ACCEPTOR|52=20231129-08:49:45.540|56=INITIATOR|10=161|8=FIXT.1.1|9=62|35=0|34=369|49=ACCEPTOR|52=20231129-08:49:46.471|56=INITIATOR|10=166|8=FIXT.1.1|9=62|35=0|34=370|49=ACCEPTOR|52=20231129-08:49:47.402|56=INITIATOR|10=153|8=FIXT.1.1|9=62|35=0|34=371|49=ACCEPTOR|52=20231129-08:49:48.331|56=INITIATOR|10=156|8=FIXT.1.1|9=62|35=0|34=372|49=ACCEPTOR|52=20231129-08:49:49.260|56=INITIATOR|10=159|8=FIXT.1.1|9=62|35=0|34=373|49=ACCEPTOR|52=20231129-08:49:50.189|56=INITIATOR|10=162|8=FIXT.1.1|9=62|35=0|34=374|49=ACCEPTOR|52=20231129-08:49:51.118|56=INITIATOR|10=156|8=FIXT.1.1|9=62|35=0|34=375|49=ACCEPTOR|52=20231129-08:49:52.047|56=INITIATOR|10=159|8=FIXT.1.1|9=62|35=0|34=376|49=ACCEPTOR|52=20231129-08:49:53.900|56=INITIATOR|10=159|8=FIXT.1.1|9=62|35=0|34=377|49=ACCEPTOR|52=20231129-08:49:54.827|56=INITIATOR|10=169|8=FIXT.1.1|9=62|35=0|34=378|49=ACCEPTOR|52=20231129-08:49:55.752|56=INITIATOR|10=168|8=FIXT.1.1|9=62|35=0|34=379|49=ACCEPTOR|52=20231129-08:49:56.676|56=INITIATOR|10=175|8=FIXT.1.1|9=62|35=0|34=380|49=ACCEPTOR|52=20231129-08:49:57.601|56=INITIATOR|10=156|8=FIXT.1.1|9=62|35=0|34=381|49=ACCEPTOR|52=20231129-08:49:58.524|56=INITIATOR|10=162|8=FIXT.1.1|9=62|35=0|34=382|49=ACCEPTOR|52=20231129-08:49:59.446|56=INITIATOR|10=167|8=FIXT.1.1|9=62|35=0|34=383|49=ACCEPTOR|52=20231129-08:50:00.368|56=INITIATOR|10=149|8=FIXT.1.1|9=62|35=0|34=384|49=ACCEPTOR|52=20231129-08:50:01.288|56=INITIATOR|10=152|8=FIXT.1.1|9=62|35=0|34=385|49=ACCEPTOR|52=20231129-08:50:02.208|56=INITIATOR|10=146|8=FIXT.1.1|9=62|35=0|34=386|49=ACCEPTOR|52=20231129-08:50:03.127|56=INITIATOR|10=148|8=FIXT.1.1|9=62|35=0|34=387|49=ACCEPTOR|52=20231129-08:50:04.045|56=INITIATOR|10=149|8=FIXT.1.1|9=62|35=0|34=388|49=ACCEPTOR|52=20231129-08:50:05.879|56=INITIATOR|10=166|8=FIXT.1.1|9=62|35=0|34=389|49=ACCEPTOR|52=20231129-08:50:06.795|56=INITIATOR|10=165|8=FIXT.1.1|9=62|35=0|34=390|49=ACCEPTOR|52=20231129-08:50:07.711|56=INITIATOR|10=146|8=FIXT.1.1|9=62|35=0|34=391|49=ACCEPTOR|52=20231129-08:50:08.627|56=INITIATOR|10=154|8=FIXT.1.1|9=62|35=0|34=392|49=ACCEPTOR|52=20231129-08:50:09.540|56=INITIATOR|10=150|8=FIXT.1.1|9=62|35=0|34=393|49=ACCEPTOR|52=20231129-08:50:10.454|56=INITIATOR|10=147|8=FIXT.1.1|9=62|35=0|34=394|49=ACCEPTOR|52=20231129-08:50:11.368|56=INITIATOR|10=153|8=FIXT.1.1|9=62|35=0|34=395|49=ACCEPTOR|52=20231129-08:50:12.280|56=INITIATOR|10=148|8=FIXT.1.1|9=62|35=0|34=396|49=ACCEPTOR|52=20231129-08:50:13.192|56=INITIATOR|10=152|8=FIXT.1.1|9=62|35=0|34=397|49=ACCEPTOR|52=20231129-08:50:14.104|56=INITIATOR|10=147|8=FIXT.1.1|9=62|35=0|34=398|49=ACCEPTOR|52=20231129-08:50:15.014|56=INITIATOR|10=149|8=FIXT.1.1|9=62|35=0|34=399|49=ACCEPTOR|52=20231129-08:50:16.834|56=INITIATOR|10=161|8=FIXT.1.1|9=62|35=0|34=400|49=ACCEPTOR|52=20231129-08:50:17.743|56=INITIATOR|10=144|8=FIXT.1.1|9=62|35=0|34=401|49=ACCEPTOR|52=20231129-08:50:18.651|56=INITIATOR|10=144|8=FIXT.1.1|9=62|35=0|34=402|49=ACCEPTOR|52=20231129-08:50:19.559|56=INITIATOR|10=153|8=FIXT.1.1|9=62|35=0|34=403|49=ACCEPTOR|52=20231129-08:50:20.466|56=INITIATOR|10=143|8=FIXT.1.1|9=62|35=0|34=404|49=ACCEPTOR|52=20231129-08:50:21.373|56=INITIATOR|10=142|8=FIXT.1.1|9=62|35=0|34=405|49=ACCEPTOR|52=20231129-08:50:22.280|56=INITIATOR|10=141|8=FIXT.1.1|9=62|35=0|34=406|49=ACCEPTOR|52=20231129-08:50:23.186|56=INITIATOR|10=148|8=FIXT.1.1|9=62|35=0|34=407|49=ACCEPTOR|52=20231129-08:50:24.092|56=INITIATOR|10=146|8=FIXT.1.1|9=62|35=0|34=408|49=ACCEPTOR|52=20231129-08:50:25.024|56=INITIATOR|10=143|8=FIXT.1.1|9=62|35=0|34=409|49=ACCEPTOR|52=20231129-08:50:26.831|56=INITIATOR|10=151|8=FIXT.1.1|9=62|35=0|34=410|49=ACCEPTOR|52=20231129-08:50:27.735|56=INITIATOR|10=147|8=FIXT.1.1|9=62|35=0|34=411|49=ACCEPTOR|52=20231129-08:50:28.637|56=INITIATOR|10=150|8=FIXT.1.1|9=62|35=0|34=412|49=ACCEPTOR|52=20231129-08:50:29.540|56=INITIATOR|10=145|8=FIXT.1.1|9=62|35=0|34=413|49=ACCEPTOR|52=20231129-08:50:30.442|56=INITIATOR|10=139|8=FIXT.1.1|9=62|35=0|34=414|49=ACCEPTOR|52=20231129-08:50:31.343|56=INITIATOR|10=141|8=FIXT.1.1|9=62|35=0|34=415|49=ACCEPTOR|52=20231129-08:50:32.244|56=INITIATOR|10=143|8=FIXT.1.1|9=62|35=0|34=416|49=ACCEPTOR|52=20231129-08:50:33.145|56=INITIATOR|10=145|8=FIXT.1.1|9=62|35=0|34=417|49=ACCEPTOR|52=20231129-08:50:34.044|56=INITIATOR|10=145|8=FIXT.1.1|9=62|35=0|34=418|49=ACCEPTOR|52=20231129-08:50:35.841|56=INITIATOR|10=152|8=FIXT.1.1|9=62|35=0|34=419|49=ACCEPTOR|52=20231129-08:50:36.738|56=INITIATOR|10=159|8=FIXT.1.1|9=62|35=0|34=420|49=ACCEPTOR|52=20231129-08:50:37.635|56=INITIATOR|10=148|8=FIXT.1.1|9=62|35=0|34=421|49=ACCEPTOR|52=20231129-08:50:38.533|56=INITIATOR|10=147|8=FIXT.1.1|9=62|35=0|34=422|49=ACCEPTOR|52=20231129-08:50:39.431|56=INITIATOR|10=146|8=FIXT.1.1|9=62|35=0|34=423|49=ACCEPTOR|52=20231129-08:50:40.326|56=INITIATOR|10=142|8=FIXT.1.1|9=62|35=0|34=424|49=ACCEPTOR|52=20231129-08:50:41.222|56=INITIATOR|10=139|8=FIXT.1.1|9=62|35=0|34=425|49=ACCEPTOR|52=20231129-08:50:42.117|56=INITIATOR|10=144|8=FIXT.1.1|9=62|35=0|34=426|49=ACCEPTOR|52=20231129-08:50:43.011|56=INITIATOR|10=139|8=FIXT.1.1|9=62|35=0|34=427|49=ACCEPTOR|52=20231129-08:50:44.798|56=INITIATOR|10=163|8=FIXT.1.1|9=62|35=0|34=428|49=ACCEPTOR|52=20231129-08:50:45.691|56=INITIATOR|10=157|8=FIXT.1.1|9=62|35=0|34=429|49=ACCEPTOR|52=20231129-08:50:46.583|56=INITIATOR|10=159|8=FIXT.1.1|9=62|35=0|34=430|49=ACCEPTOR|52=20231129-08:50:47.476|56=INITIATOR|10=153|8=FIXT.1.1|9=62|35=0|34=431|49=ACCEPTOR|52=20231129-08:50:48.368|56=INITIATOR|10=155|8=FIXT.1.1|9=62|35=0|34=432|49=ACCEPTOR|52=20231129-08:50:49.259|56=INITIATOR|10=156|8=FIXT.1.1|9=62|35=0|34=433|49=ACCEPTOR|52=20231129-08:50:50.150|56=INITIATOR|10=139|8=FIXT.1.1|9=62|35=0|34=434|49=ACCEPTOR|52=20231129-08:50:51.041|56=INITIATOR|10=140|8=FIXT.1.1|9=62|35=0|34=435|49=ACCEPTOR|52=20231129-08:50:52.819|56=INITIATOR|10=155|8=FIXT.1.1|9=62|35=0|34=436|49=ACCEPTOR|52=20231129-08:50:53.709|56=INITIATOR|10=155|8=FIXT.1.1|9=62|35=0|34=437|49=ACCEPTOR|52=20231129-08:50:54.599|56=INITIATOR|10=164|8=FIXT.1.1|9=62|35=0|34=438|49=ACCEPTOR|52=20231129-08:50:55.487|56=INITIATOR|10=162|8=FIXT.1.1|9=62|35=0|34=439|49=ACCEPTOR|52=20231129-08:50:56.374|56=INITIATOR|10=159|8=FIXT.1.1|9=62|35=0|34=440|49=ACCEPTOR|52=20231129-08:50:57.261|56=INITIATOR|10=147|8=FIXT.1.1|9=62|35=0|34=441|49=ACCEPTOR|52=20231129-08:50:58.157|56=INITIATOR|10=153|8=FIXT.1.1|9=62|35=0|34=442|49=ACCEPTOR|52=20231129-08:50:59.041|56=INITIATOR|10=147|8=FIXT.1.1|9=62|35=0|34=443|49=ACCEPTOR|52=20231129-08:51:00.808|56=INITIATOR|10=146|8=FIXT.1.1|9=62|35=0|34=444|49=ACCEPTOR|52=20231129-08:51:01.692|56=INITIATOR|10=149|8=FIXT.1.1|9=62|35=0|34=445|49=ACCEPTOR|52=20231129-08:51:02.575|56=INITIATOR|10=151|8=FIXT.1.1|9=62|35=0|34=446|49=ACCEPTOR|52=20231129-08:51:03.456|56=INITIATOR|10=151|8=FIXT.1.1|9=62|35=0|34=447|49=ACCEPTOR|52=20231129-08:51:04.337|56=INITIATOR|10=151|8=FIXT.1.1|9=62|35=0|34=448|49=ACCEPTOR|52=20231129-08:51:05.217|56=INITIATOR|10=150|8=FIXT.1.1|9=62|35=0|34=449|49=ACCEPTOR|52=20231129-08:51:06.096|56=INITIATOR|10=157|8=FIXT.1.1|9=62|35=0|34=450|49=ACCEPTOR|52=20231129-08:51:07.004|56=INITIATOR|10=139|8=FIXT.1.1|9=62|35=0|34=451|49=ACCEPTOR|52=20231129-08:51:08.754|56=INITIATOR|10=153|8=FIXT.1.1|9=62|35=0|34=452|49=ACCEPTOR|52=20231129-08:51:09.629|56=INITIATOR|10=156|8=FIXT.1.1|9=62|35=0|34=453|49=ACCEPTOR|52=20231129-08:51:10.504|56=INITIATOR|10=141|8=FIXT.1.1|9=62|35=0|34=454|49=ACCEPTOR|52=20231129-08:51:11.378|56=INITIATOR|10=152|8=FIXT.1.1|9=62|35=0|34=455|49=ACCEPTOR|52=20231129-08:51:12.251|56=INITIATOR|10=144|8=FIXT.1.1|9=62|35=0|34=456|49=ACCEPTOR|52=20231129-08:51:13.123|56=INITIATOR|10=144|8=FIXT.1.1|9=62|35=0|34=457|49=ACCEPTOR|52=20231129-08:51:14.028|56=INITIATOR|10=150|8=FIXT.1.1|9=62|35=0|34=458|49=ACCEPTOR|52=20231129-08:51:15.769|56=INITIATOR|10=164|8=FIXT.1.1|9=62|35=0|34=459|49=ACCEPTOR|52=20231129-08:51:16.639|56=INITIATOR|10=162|8=FIXT.1.1|9=62|35=0|34=460|49=ACCEPTOR|52=20231129-08:51:17.510|56=INITIATOR|10=143|8=FIXT.1.1|9=62|35=0|34=461|49=ACCEPTOR|52=20231129-08:51:18.380|56=INITIATOR|10=150|8=FIXT.1.1|9=62|35=0|34=462|49=ACCEPTOR|52=20231129-08:51:19.249|56=INITIATOR|10=156|8=FIXT.1.1|9=62|35=0|34=463|49=ACCEPTOR|52=20231129-08:51:20.117|56=INITIATOR|10=143|8=FIXT.1.1|9=62|35=0|34=464|49=ACCEPTOR|52=20231129-08:51:21.018|56=INITIATOR|10=145|8=FIXT.1.1|9=62|35=0|34=465|49=ACCEPTOR|52=20231129-08:51:22.751|56=INITIATOR|10=151|8=FIXT.1.1|9=62|35=0|34=466|49=ACCEPTOR|52=20231129-08:51:23.616|56=INITIATOR|10=153|8=FIXT.1.1|9=62|35=0|34=467|49=ACCEPTOR|52=20231129-08:51:24.482|56=INITIATOR|10=156|8=FIXT.1.1|9=62|35=0|34=468|49=ACCEPTOR|52=20231129-08:51:25.347|56=INITIATOR|10=158|8=FIXT.1.1|9=62|35=0|34=469|49=ACCEPTOR|52=20231129-08:51:26.211|56=INITIATOR|10=150|8=FIXT.1.1|9=62|35=0|34=470|49=ACCEPTOR|52=20231129-08:51:27.075|56=INITIATOR|10=151|8=FIXT.1.1|9=62|35=0|34=471|49=ACCEPTOR|52=20231129-08:51:28.800|56=INITIATOR|10=149|8=FIXT.1.1|9=62|35=0|34=472|49=ACCEPTOR|52=20231129-08:51:29.663|56=INITIATOR|10=158|8=FIXT.1.1|9=62|35=0|34=473|49=ACCEPTOR|52=20231129-08:51:30.525|56=INITIATOR|10=148|8=FIXT.1.1|9=62|35=0|34=474|49=ACCEPTOR|52=20231129-08:51:31.386|56=INITIATOR|10=155|8=FIXT.1.1|9=62|35=0|34=475|49=ACCEPTOR|52=20231129-08:51:32.245|56=INITIATOR|10=151|8=FIXT.1.1|9=62|35=0|34=476|49=ACCEPTOR|52=20231129-08:51:33.103|56=INITIATOR|10=146|8=FIXT.1.1|9=62|35=0|34=477|49=ACCEPTOR|52=20231129-08:51:34.819|56=INITIATOR|10=162|8=FIXT.1.1|9=62|35=0|34=478|49=ACCEPTOR|52=20231129-08:51:35.676|56=INITIATOR|10=165|8=FIXT.1.1|9=62|35=0|34=479|49=ACCEPTOR|52=20231129-08:51:36.533|56=INITIATOR|10=159|8=FIXT.1.1|9=62|35=0|34=480|49=ACCEPTOR|52=20231129-08:51:37.389|56=INITIATOR|10=161|8=FIXT.1.1|9=62|35=0|34=481|49=ACCEPTOR|52=20231129-08:51:38.243|56=INITIATOR|10=152|8=FIXT.1.1|9=62|35=0|34=482|49=ACCEPTOR|52=20231129-08:51:39.098|56=INITIATOR|10=162|8=FIXT.1.1|9=62|35=0|34=483|49=ACCEPTOR|52=20231129-08:51:40.805|56=INITIATOR|10=151|8=FIXT.1.1|9=62|35=0|34=484|49=ACCEPTOR|52=20231129-08:51:41.658|56=INITIATOR|10=159|8=FIXT.1.1|9=62|35=0|34=485|49=ACCEPTOR|52=20231129-08:51:42.511|56=INITIATOR|10=149|8=FIXT.1.1|9=62|35=0|34=486|49=ACCEPTOR|52=20231129-08:51:43.363|56=INITIATOR|10=156|8=FIXT.1.1|9=62|35=0|34=487|49=ACCEPTOR|52=20231129-08:51:44.215|56=INITIATOR|10=154|8=FIXT.1.1|9=62|35=0|34=488|49=ACCEPTOR|52=20231129-08:51:45.066|56=INITIATOR|10=160|8=FIXT.1.1|9=62|35=0|34=489|49=ACCEPTOR|52=20231129-08:51:46.766|56=INITIATOR|10=169|8=FIXT.1.1|9=62|35=0|34=490|49=ACCEPTOR|52=20231129-08:51:47.615|56=INITIATOR|10=155|8=FIXT.1.1|9=62|35=0|34=491|49=ACCEPTOR|52=20231129-08:51:48.463|56=INITIATOR|10=158|8=FIXT.1.1|9=62|35=0|34=492|49=ACCEPTOR|52=20231129-08:51:49.310|56=INITIATOR|10=151|8=FIXT.1.1|9=62|35=0|34=493|49=ACCEPTOR|52=20231129-08:51:50.157|56=INITIATOR|10=153|8=FIXT.1.1|9=62|35=0|34=494|49=ACCEPTOR|52=20231129-08:51:51.003|56=INITIATOR|10=145|8=FIXT.1.1|9=62|35=0|34=495|49=ACCEPTOR|52=20231129-08:51:52.694|56=INITIATOR|10=163|8=FIXT.1.1|9=62|35=0|34=496|49=ACCEPTOR|52=20231129-08:51:53.539|56=INITIATOR|10=163|8=FIXT.1.1|9=62|35=0|34=497|49=ACCEPTOR|52=20231129-08:51:54.384|56=INITIATOR|10=163|8=FIXT.1.1|9=62|35=0|34=498|49=ACCEPTOR|52=20231129-08:51:55.228|56=INITIATOR|10=162|8=FIXT.1.1|9=62|35=0|34=499|49=ACCEPTOR|52=20231129-08:51:56.072|56=INITIATOR|10=161|8=FIXT.1.1|9=62|35=0|34=500|49=ACCEPTOR|52=20231129-08:51:57.757|56=INITIATOR|10=155|8=FIXT.1.1|9=62|35=0|34=501|49=ACCEPTOR|52=20231129-08:51:58.599|56=INITIATOR|10=161|8=FIXT.1.1|9=62|35=0|34=502|49=ACCEPTOR|52=20231129-08:51:59.441|56=INITIATOR|10=149|8=FIXT.1.1|9=62|35=0|34=503|49=ACCEPTOR|52=20231129-08:52:00.283|56=INITIATOR|10=141|8=FIXT.1.1|9=62|35=0|34=504|49=ACCEPTOR|52=20231129-08:52:01.124|56=INITIATOR|10=137|8=FIXT.1.1|9=62|35=0|34=505|49=ACCEPTOR|52=20231129-08:52:02.003|56=INITIATOR|10=135|8=FIXT.1.1|9=62|35=0|34=506|49=ACCEPTOR|52=20231129-08:52:03.680|56=INITIATOR|10=148|8=FIXT.1.1|9=62|35=0|34=507|49=ACCEPTOR|52=20231129-08:52:04.518|56=INITIATOR|10=150|8=FIXT.1.1|9=62|35=0|34=508|49=ACCEPTOR|52=20231129-08:52:05.355|56=INITIATOR|10=151|8=FIXT.1.1|9=62|35=0|34=509|49=ACCEPTOR|52=20231129-08:52:06.192|56=INITIATOR|10=152|8=FIXT.1.1|9=62|35=0|34=510|49=ACCEPTOR|52=20231129-08:52:07.028|56=INITIATOR|10=143|8=FIXT.1.1|9=62|35=0|34=511|49=ACCEPTOR|52=20231129-08:52:08.695|56=INITIATOR|10=155|8=FIXT.1.1|9=62|35=0|34=512|49=ACCEPTOR|52=20231129-08:52:09.529|56=INITIATOR|10=153|8=FIXT.1.1|9=62|35=0|34=513|49=ACCEPTOR|52=20231129-08:52:10.363|56=INITIATOR|10=142|8=FIXT.1.1|9=62|35=0|34=514|49=ACCEPTOR|52=20231129-08:52:11.196|56=INITIATOR|10=148|8=FIXT.1.1|9=62|35=0|34=515|49=ACCEPTOR|52=20231129-08:52:12.028|56=INITIATOR|10=144|8=FIXT.1.1|9=62|35=0|34=516|49=ACCEPTOR|52=20231129-08:52:13.690|56=INITIATOR|10=151|8=FIXT.1.1|9=62|35=0|34=517|49=ACCEPTOR|52=20231129-08:52:14.520|56=INITIATOR|10=145|8=FIXT.1.1|9=62|35=0|34=518|49=ACCEPTOR|52=20231129-08:52:15.350|56=INITIATOR|10=148|8=FIXT.1.1|9=62|35=0|34=519|49=ACCEPTOR|52=20231129-08:52:16.179|56=INITIATOR|10=159|8=FIXT.1.1|9=62|35=0|34=520|49=ACCEPTOR|52=20231129-08:52:17.008|56=INITIATOR|10=143|8=FIXT.1.1|9=62|35=0|34=521|49=ACCEPTOR|52=20231129-08:52:18.661|56=INITIATOR|10=150|8=FIXT.1.1|9=62|35=0|34=522|49=ACCEPTOR|52=20231129-08:52:19.487|56=INITIATOR|10=158|8=FIXT.1.1|9=62|35=0|34=523|49=ACCEPTOR|52=20231129-08:52:20.312|56=INITIATOR|10=138|8=FIXT.1.1|9=62|35=0|34=524|49=ACCEPTOR|52=20231129-08:52:21.138|56=INITIATOR|10=146|8=FIXT.1.1|9=62|35=0|34=525|49=ACCEPTOR|52=20231129-08:52:22.005|56=INITIATOR|10=141|8=FIXT.1.1|9=62|35=0|34=526|49=ACCEPTOR|52=20231129-08:52:23.653|56=INITIATOR|10=152|8=FIXT.1.1|9=62|35=0|34=527|49=ACCEPTOR|52=20231129-08:52:24.477|56=INITIATOR|10=158|8=FIXT.1.1|9=62|35=0|34=528|49=ACCEPTOR|52=20231129-08:52:25.301|56=INITIATOR|10=146|8=FIXT.1.1|9=62|35=0|34=529|49=ACCEPTOR|52=20231129-08:52:26.124|56=INITIATOR|10=151|8=FIXT.1.1|9=62|35=0|34=530|49=ACCEPTOR|52=20231129-08:52:27.768|56=INITIATOR|10=158|8=FIXT.1.1|9=62|35=0|34=531|49=ACCEPTOR|52=20231129-08:52:28.590|56=INITIATOR|10=153|8=FIXT.1.1|9=62|35=0|34=532|49=ACCEPTOR|52=20231129-08:52:29.410|56=INITIATOR|10=146|8=FIXT.1.1|9=62|35=0|34=533|49=ACCEPTOR|52=20231129-08:52:30.231|56=INITIATOR|10=140|8=FIXT.1.1|9=62|35=0|34=534|49=ACCEPTOR|52=20231129-08:52:31.051|56=INITIATOR|10=142|8=FIXT.1.1|9=62|35=0|34=535|49=ACCEPTOR|52=20231129-08:52:32.689|56=INITIATOR|10=161|8=FIXT.1.1|9=62|35=0|34=536|49=ACCEPTOR|52=20231129-08:52:33.507|56=INITIATOR|10=152|8=FIXT.1.1|9=62|35=0|34=537|49=ACCEPTOR|52=20231129-08:52:34.325|56=INITIATOR|10=152|8=FIXT.1.1|9=62|35=0|34=538|49=ACCEPTOR|52=20231129-08:52:35.142|56=INITIATOR|10=151|8=FIXT.1.1|9=62|35=0|34=539|49=ACCEPTOR|52=20231129-08:52:36.003|56=INITIATOR|10=149|8=FIXT.1.1|9=62|35=0|34=540|49=ACCEPTOR|52=20231129-08:52:37.632|56=INITIATOR|10=150|8=FIXT.1.1|9=62|35=0|34=541|49=ACCEPTOR|52=20231129-08:52:38.446|56=INITIATOR|10=155|8=FIXT.1.1|9=62|35=0|34=542|49=ACCEPTOR|52=20231129-08:52:39.259|56=INITIATOR|10=159|8=FIXT.1.1|9=62|35=0|34=543|49=ACCEPTOR|52=20231129-08:52:40.071|56=INITIATOR|10=144|8=FIXT.1.1|9=62|35=0|34=544|49=ACCEPTOR|52=20231129-08:52:41.690|56=INITIATOR|10=153|8=FIXT.1.1|9=62|35=0|34=545|49=ACCEPTOR|52=20231129-08:52:42.499|56=INITIATOR|10=162|8=FIXT.1.1|9=62|35=0|34=546|49=ACCEPTOR|52=20231129-08:52:43.309|56=INITIATOR|10=154|8=FIXT.1.1|9=62|35=0|34=547|49=ACCEPTOR|52=20231129-08:52:44.117|56=INITIATOR|10=153|8=FIXT.1.1|9=62|35=0|34=548|49=ACCEPTOR|52=20231129-08:52:45.733|56=INITIATOR|10=159|8=FIXT.1.1|9=62|35=0|34=549|49=ACCEPTOR|52=20231129-08:52:46.542|56=INITIATOR|10=159|8=FIXT.1.1|9=62|35=0|34=550|49=ACCEPTOR|52=20231129-08:52:47.350|56=INITIATOR|10=149|8=FIXT.1.1|9=62|35=0|34=551|49=ACCEPTOR|52=20231129-08:52:48.157|56=INITIATOR|10=156|8=FIXT.1.1|9=62|35=0|34=552|49=ACCEPTOR|52=20231129-08:52:49.010|56=INITIATOR|10=146|8=FIXT.1.1|9=62|35=0|34=553|49=ACCEPTOR|52=20231129-08:52:50.624|56=INITIATOR|10=150|8=FIXT.1.1|9=62|35=0|34=554|49=ACCEPTOR|52=20231129-08:52:51.430|56=INITIATOR|10=147|8=FIXT.1.1|9=62|35=0|34=555|49=ACCEPTOR|52=20231129-08:52:52.237|56=INITIATOR|10=154|8=FIXT.1.1|9=62|35=0|34=556|49=ACCEPTOR|52=20231129-08:52:53.043|56=INITIATOR|10=151|8=FIXT.1.1|9=62|35=0|34=557|49=ACCEPTOR|52=20231129-08:52:54.653|56=INITIATOR|10=160|8=FIXT.1.1|9=62|35=0|34=558|49=ACCEPTOR|52=20231129-08:52:55.458|56=INITIATOR|10=165|8=FIXT.1.1|9=62|35=0|34=559|49=ACCEPTOR|52=20231129-08:52:56.263|56=INITIATOR|10=161|8=FIXT.1.1|9=62|35=0|34=560|49=ACCEPTOR|52=20231129-08:52:57.068|56=INITIATOR|10=157|8=FIXT.1.1|9=62|35=0|34=561|49=ACCEPTOR|52=20231129-08:52:58.673|56=INITIATOR|10=161|8=FIXT.1.1|9=62|35=0|34=562|49=ACCEPTOR|52=20231129-08:52:59.476|56=INITIATOR|10=164|8=FIXT.1.1|9=62|35=0|34=563|49=ACCEPTOR|52=20231129-08:53:00.277|56=INITIATOR|10=151|8=FIXT.1.1|9=62|35=0|34=564|49=ACCEPTOR|52=20231129-08:53:01.077|56=INITIATOR|10=151|8=FIXT.1.1|9=62|35=0|34=565|49=ACCEPTOR|52=20231129-08:53:02.675|56=INITIATOR|10=157|8=FIXT.1.1|9=62|35=0|34=566|49=ACCEPTOR|52=20231129-08:53:03.473|56=INITIATOR|10=155|8=FIXT.1.1|9=62|35=0|34=567|49=ACCEPTOR|52=20231129-08:53:04.272|56=INITIATOR|10=154|8=FIXT.1.1|9=62|35=0|34=568|49=ACCEPTOR|52=20231129-08:53:05.070|56=INITIATOR|10=152|8=FIXT.1.1|9=62|35=0|34=569|49=ACCEPTOR|52=20231129-08:53:06.663|56=INITIATOR|10=162|8=FIXT.1.1|9=62|35=0|34=570|49=ACCEPTOR|52=20231129-08:53:07.459|56=INITIATOR|10=158|8=FIXT.1.1|9=62|35=0|34=571|49=ACCEPTOR|52=20231129-08:53:08.255|56=INITIATOR|10=154|8=FIXT.1.1|9=62|35=0|34=572|49=ACCEPTOR|52=20231129-08:53:09.050|56=INITIATOR|10=149|8=FIXT.1.1|9=62|35=0|34=573|49=ACCEPTOR|52=20231129-08:53:10.636|56=INITIATOR|10=152|8=FIXT.1.1|9=62|35=0|34=574|49=ACCEPTOR|52=20231129-08:53:11.429|56=INITIATOR|10=154|8=FIXT.1.1|9=62|35=0|34=575|49=ACCEPTOR|52=20231129-08:53:12.220|56=INITIATOR|10=145|8=FIXT.1.1|9=62|35=0|34=576|49=ACCEPTOR|52=20231129-08:53:13.011|56=INITIATOR|10=145|8=FIXT.1.1|9=62|35=0|34=577|49=ACCEPTOR|52=20231129-08:53:14.589|56=INITIATOR|10=167|8=FIXT.1.1|9=62|35=0|34=578|49=ACCEPTOR|52=20231129-08:53:15.378|56=INITIATOR|10=165|8=FIXT.1.1|9=62|35=0|34=579|49=ACCEPTOR|52=20231129-08:53:16.165|56=INITIATOR|10=161|8=FIXT.1.1|9=62|35=0|34=580|49=ACCEPTOR|52=20231129-08:53:17.003|56=INITIATOR|10=145|8=FIXT.1.1|9=62|35=0|34=581|49=ACCEPTOR|52=20231129-08:53:18.573|56=INITIATOR|10=159|8=FIXT.1.1|9=62|35=0|34=582|49=ACCEPTOR|52=20231129-08:53:19.359|56=INITIATOR|10=163|8=FIXT.1.1|9=62|35=0|34=583|49=ACCEPTOR|52=20231129-08:53:20.144|56=INITIATOR|10=148|8=FIXT.1.1|9=62|35=0|34=584|49=ACCEPTOR|52=20231129-08:53:21.708|56=INITIATOR|10=156|8=FIXT.1.1|9=62|35=0|34=585|49=ACCEPTOR|52=20231129-08:53:22.491|56=INITIATOR|10=157|8=FIXT.1.1|9=62|35=0|34=586|49=ACCEPTOR|52=20231129-08:53:23.273|56=INITIATOR|10=157|8=FIXT.1.1|9=62|35=0|34=587|49=ACCEPTOR|52=20231129-08:53:24.054|56=INITIATOR|10=156|8=FIXT.1.1|9=62|35=0|34=588|49=ACCEPTOR|52=20231129-08:53:25.615|56=INITIATOR|10=161|8=FIXT.1.1|9=62|35=0|34=589|49=ACCEPTOR|52=20231129-08:53:26.396|56=INITIATOR|10=169|8=FIXT.1.1|9=62|35=0|34=590|49=ACCEPTOR|52=20231129-08:53:27.175|56=INITIATOR|10=157|8=FIXT.1.1|9=62|35=0|34=591|49=ACCEPTOR|52=20231129-08:53:28.006|56=INITIATOR|10=152|8=FIXT.1.1|9=62|35=0|34=592|49=ACCEPTOR|52=20231129-08:53:29.563|56=INITIATOR|10=162|8=FIXT.1.1|9=62|35=0|34=593|49=ACCEPTOR|52=20231129-08:53:30.342|56=INITIATOR|10=150|8=FIXT.1.1|9=62|35=0|34=594|49=ACCEPTOR|52=20231129-08:53:31.120|56=INITIATOR|10=146|8=FIXT.1.1|9=62|35=0|34=595|49=ACCEPTOR|52=20231129-08:53:32.673|56=INITIATOR|10=161|8=FIXT.1.1|9=62|35=0|34=596|49=ACCEPTOR|52=20231129-08:53:33.450|56=INITIATOR|10=156|8=FIXT.1.1|9=62|35=0|34=597|49=ACCEPTOR|52=20231129-08:53:34.225|56=INITIATOR|10=158|8=FIXT.1.1|9=62|35=0|34=598|49=ACCEPTOR|52=20231129-08:53:35.051|56=INITIATOR|10=157|8=FIXT.1.1|9=62|35=0|34=599|49=ACCEPTOR|52=20231129-08:53:36.595|56=INITIATOR|10=172|8=FIXT.1.1|9=62|35=0|34=600|49=ACCEPTOR|52=20231129-08:53:37.367|56=INITIATOR|10=153|8=FIXT.1.1|9=62|35=0|34=601|49=ACCEPTOR|52=20231129-08:53:38.139|56=INITIATOR|10=152|8=FIXT.1.1|9=62|35=0|34=602|49=ACCEPTOR|52=20231129-08:53:39.682|56=INITIATOR|10=157|8=FIXT.1.1|9=62|35=0|34=603|49=ACCEPTOR|52=20231129-08:53:40.453|56=INITIATOR|10=146|8=FIXT.1.1|9=62|35=0|34=604|49=ACCEPTOR|52=20231129-08:53:41.223|56=INITIATOR|10=143|8=FIXT.1.1|9=62|35=0|34=605|49=ACCEPTOR|52=20231129-08:53:42.045|56=INITIATOR|10=147|8=FIXT.1.1|9=62|35=0|34=606|49=ACCEPTOR|52=20231129-08:53:43.581|56=INITIATOR|10=154|8=FIXT.1.1|9=62|35=0|34=607|49=ACCEPTOR|52=20231129-08:53:44.349|56=INITIATOR|10=158|8=FIXT.1.1|9=62|35=0|34=608|49=ACCEPTOR|52=20231129-08:53:45.115|56=INITIATOR|10=151|8=FIXT.1.1|9=62|35=0|34=609|49=ACCEPTOR|52=20231129-08:53:46.647|56=INITIATOR|10=163|8=FIXT.1.1|9=62|35=0|34=610|49=ACCEPTOR|52=20231129-08:53:47.414|56=INITIATOR|10=148|8=FIXT.1.1|9=62|35=0|34=611|49=ACCEPTOR|52=20231129-08:53:48.179|56=INITIATOR|10=158|8=FIXT.1.1|9=62|35=0|34=612|49=ACCEPTOR|52=20231129-08:53:49.707|56=INITIATOR|10=157|8=FIXT.1.1|9=62|35=0|34=613|49=ACCEPTOR|52=20231129-08:53:50.470|56=INITIATOR|10=147|8=FIXT.1.1|9=62|35=0|34=614|49=ACCEPTOR|52=20231129-08:53:51.234|56=INITIATOR|10=147|8=FIXT.1.1|9=62|35=0|34=615|49=ACCEPTOR|52=20231129-08:53:52.050|56=INITIATOR|10=145|8=FIXT.1.1|9=62|35=0|34=616|49=ACCEPTOR|52=20231129-08:53:53.572|56=INITIATOR|10=156|8=FIXT.1.1|9=62|35=0|34=617|49=ACCEPTOR|52=20231129-08:53:54.334|56=INITIATOR|10=154|8=FIXT.1.1|9=62|35=0|34=618|49=ACCEPTOR|52=20231129-08:53:55.093|56=INITIATOR|10=158|8=FIXT.1.1|9=62|35=0|34=619|49=ACCEPTOR|52=20231129-08:53:56.610|56=INITIATOR|10=155|8=FIXT.1.1|9=62|35=0|34=620|49=ACCEPTOR|52=20231129-08:53:57.368|56=INITIATOR|10=158|8=FIXT.1.1|9=62|35=0|34=621|49=ACCEPTOR|52=20231129-08:53:58.125|56=INITIATOR|10=151|8=FIXT.1.1|9=62|35=0|34=622|49=ACCEPTOR|52=20231129-08:53:59.637|56=INITIATOR|10=161|8=FIXT.1.1|9=62|35=0|34=623|49=ACCEPTOR|52=20231129-08:54:00.392|56=INITIATOR|10=147|8=FIXT.1.1|9=62|35=0|34=624|49=ACCEPTOR|52=20231129-08:54:01.147|56=INITIATOR|10=147|8=FIXT.1.1|9=62|35=0|34=625|49=ACCEPTOR|52=20231129-08:54:02.653|56=INITIATOR|10=151|8=FIXT.1.1|9=62|35=0|34=626|49=ACCEPTOR|52=20231129-08:54:03.406|56=INITIATOR|10=149|8=FIXT.1.1|9=62|35=0|34=627|49=ACCEPTOR|52=20231129-08:54:04.158|56=INITIATOR|10=155|8=FIXT.1.1|9=62|35=0|34=628|49=ACCEPTOR|52=20231129-08:54:05.656|56=INITIATOR|10=160|8=FIXT.1.1|9=62|35=0|34=629|49=ACCEPTOR|52=20231129-08:54:06.405|56=INITIATOR|10=154|8=FIXT.1.1|9=62|35=0|34=630|49=ACCEPTOR|52=20231129-08:54:07.153|56=INITIATOR|10=147|8=FIXT.1.1|9=62|35=0|34=631|49=ACCEPTOR|52=20231129-08:54:08.644|56=INITIATOR|10=154|8=FIXT.1.1|9=62|35=0|34=632|49=ACCEPTOR|52=20231129-08:54:09.390|56=INITIATOR|10=154|8=FIXT.1.1|9=62|35=0|34=633|49=ACCEPTOR|52=20231129-08:54:10.134|56=INITIATOR|10=143|8=FIXT.1.1|9=62|35=0|34=634|49=ACCEPTOR|52=20231129-08:54:11.621|56=INITIATOR|10=146|8=FIXT.1.1|9=62|35=0|34=635|49=ACCEPTOR|52=20231129-08:54:12.364|56=INITIATOR|10=152|8=FIXT.1.1|9=62|35=0|34=636|49=ACCEPTOR|52=20231129-08:54:13.107|56=INITIATOR|10=149|8=FIXT.1.1|9=62|35=0|34=637|49=ACCEPTOR|52=20231129-08:54:14.591|56=INITIATOR|10=158|8=FIXT.1.1|9=62|35=0|34=638|49=ACCEPTOR|52=20231129-08:54:15.332|56=INITIATOR|10=153|8=FIXT.1.1|9=62|35=0|34=639|49=ACCEPTOR|52=20231129-08:54:16.072|56=INITIATOR|10=156|8=FIXT.1.1|9=62|35=0|34=640|49=ACCEPTOR|52=20231129-08:54:17.549|56=INITIATOR|10=158|8=FIXT.1.1|9=62|35=0|34=641|49=ACCEPTOR|52=20231129-08:54:18.288|56=INITIATOR|10=160|8=FIXT.1.1|9=62|35=0|34=642|49=ACCEPTOR|52=20231129-08:54:19.025|56=INITIATOR|10=151|8=FIXT.1.1|9=62|35=0|34=643|49=ACCEPTOR|52=20231129-08:54:20.498|56=INITIATOR|10=158|8=FIXT.1.1|9=62|35=0|34=644|49=ACCEPTOR|52=20231129-08:54:21.234|56=INITIATOR|10=148|8=FIXT.1.1|9=62|35=0|34=645|49=ACCEPTOR|52=20231129-08:54:22.028|56=INITIATOR|10=151|8=FIXT.1.1|9=62|35=0|34=646|49=ACCEPTOR|52=20231129-08:54:23.495|56=INITIATOR|10=161|8=FIXT.1.1|9=62|35=0|34=647|49=ACCEPTOR|52=20231129-08:54:24.228|56=INITIATOR|10=157|8=FIXT.1.1|9=62|35=0|34=648|49=ACCEPTOR|52=20231129-08:54:25.019|56=INITIATOR|10=157|8=FIXT.1.1|9=62|35=0|34=649|49=ACCEPTOR|52=20231129-08:54:26.481|56=INITIATOR|10=162|8=FIXT.1.1|9=62|35=0|34=650|49=ACCEPTOR|52=20231129-08:54:27.212|56=INITIATOR|10=147|8=FIXT.1.1|9=62|35=0|34=651|49=ACCEPTOR|52=20231129-08:54:28.000|56=INITIATOR|10=144|8=FIXT.1.1|9=62|35=0|34=652|49=ACCEPTOR|52=20231129-08:54:29.460|56=INITIATOR|10=156|8=FIXT.1.1|9=62|35=0|34=653|49=ACCEPTOR|52=20231129-08:54:30.190|56=INITIATOR|10=149|8=FIXT.1.1|9=62|35=0|34=654|49=ACCEPTOR|52=20231129-08:54:31.646|56=INITIATOR|10=157|8=FIXT.1.1|9=62|35=0|34=655|49=ACCEPTOR|52=20231129-08:54:32.373|56=INITIATOR|10=156|8=FIXT.1.1|9=62|35=0|34=656|49=ACCEPTOR|52=20231129-08:54:33.101|56=INITIATOR|10=147|8=FIXT.1.1|9=62|35=0|34=657|49=ACCEPTOR|52=20231129-08:54:34.555|56=INITIATOR|10=162|8=FIXT.1.1|9=62|35=0|34=658|49=ACCEPTOR|52=20231129-08:54:35.281|56=INITIATOR|10=160|8=FIXT.1.1|9=62|35=0|34=659|49=ACCEPTOR|52=20231129-08:54:36.008|56=INITIATOR|10=159|8=FIXT.1.1|9=62|35=0|34=660|49=ACCEPTOR|52=20231129-08:54:37.459|56=INITIATOR|10=162|8=FIXT.1.1|9=62|35=0|34=661|49=ACCEPTOR|52=20231129-08:54:38.184|56=INITIATOR|10=159|8=FIXT.1.1|9=62|35=0|34=662|49=ACCEPTOR|52=20231129-08:54:39.632|56=INITIATOR|10=159|8=FIXT.1.1|9=62|35=0|34=663|49=ACCEPTOR|52=20231129-08:54:40.357|56=INITIATOR|10=156|8=FIXT.1.1|9=62|35=0|34=664|49=ACCEPTOR|52=20231129-08:54:41.080|56=INITIATOR|10=151|8=FIXT.1.1|9=62|35=0|34=665|49=ACCEPTOR|52=20231129-08:54:42.523|56=INITIATOR|10=155|8=FIXT.1.1|9=62|35=0|34=666|49=ACCEPTOR|52=20231129-08:54:43.245|56=INITIATOR|10=158|8=FIXT.1.1|9=62|35=0|34=667|49=ACCEPTOR|52=20231129-08:54:44.027|56=INITIATOR|10=158|8=FIXT.1.1|9=62|35=0|34=668|49=ACCEPTOR|52=20231129-08:54:45.463|56=INITIATOR|10=164|8=FIXT.1.1|9=62|35=0|34=669|49=ACCEPTOR|52=20231129-08:54:46.181|56=INITIATOR|10=163|8=FIXT.1.1|9=62|35=0|34=670|49=ACCEPTOR|52=20231129-08:54:47.614|56=INITIATOR|10=157|8=FIXT.1.1|9=62|35=0|34=671|49=ACCEPTOR|52=20231129-08:54:48.330|56=INITIATOR|10=154|8=FIXT.1.1|9=62|35=0|34=672|49=ACCEPTOR|52=20231129-08:54:49.046|56=INITIATOR|10=160|8=FIXT.1.1|9=62|35=0|34=673|49=ACCEPTOR|52=20231129-08:54:50.472|56=INITIATOR|10=156|8=FIXT.1.1|9=62|35=0|34=674|49=ACCEPTOR|52=20231129-08:54:51.185|56=INITIATOR|10=159|8=FIXT.1.1|9=62|35=0|34=675|49=ACCEPTOR|52=20231129-08:54:52.606|56=INITIATOR|10=159|8=FIXT.1.1|9=62|35=0|34=676|49=ACCEPTOR|52=20231129-08:54:53.317|56=INITIATOR|10=160|8=FIXT.1.1|9=62|35=0|34=677|49=ACCEPTOR|52=20231129-08:54:54.026|56=INITIATOR|10=159|8=FIXT.1.1|9=62|35=0|34=678|49=ACCEPTOR|52=20231129-08:54:55.441|56=INITIATOR|10=162|8=FIXT.1.1|9=62|35=0|34=679|49=ACCEPTOR|52=20231129-08:54:56.149|56=INITIATOR|10=169|8=FIXT.1.1|9=62|35=0|34=680|49=ACCEPTOR|52=20231129-08:54:57.560|56=INITIATOR|10=159|8=FIXT.1.1|9=62|35=0|34=681|49=ACCEPTOR|52=20231129-08:54:58.265|56=INITIATOR|10=163|8=FIXT.1.1|9=62|35=0|34=682|49=ACCEPTOR|52=20231129-08:54:59.034|56=INITIATOR|10=159|8=FIXT.1.1|9=62|35=0|34=683|49=ACCEPTOR|52=20231129-08:55:00.440|56=INITIATOR|10=148|8=FIXT.1.1|9=62|35=0|34=684|49=ACCEPTOR|52=20231129-08:55:01.143|56=INITIATOR|10=150|8=FIXT.1.1|9=62|35=0|34=685|49=ACCEPTOR|52=20231129-08:55:02.546|56=INITIATOR|10=159|8=FIXT.1.1|9=62|35=0|34=686|49=ACCEPTOR|52=20231129-08:55:03.247|56=INITIATOR|10=159|8=FIXT.1.1|9=62|35=0|34=687|49=ACCEPTOR|52=20231129-08:55:04.013|56=INITIATOR|10=152|8=FIXT.1.1|9=62|35=0|34=688|49=ACCEPTOR|52=20231129-08:55:05.409|56=INITIATOR|10=163|8=FIXT.1.1|9=62|35=0|34=689|49=ACCEPTOR|52=20231129-08:55:06.107|56=INITIATOR|10=160|8=FIXT.1.1|9=62|35=0|34=690|49=ACCEPTOR|52=20231129-08:55:07.501|56=INITIATOR|10=151|8=FIXT.1.1|9=62|35=0|34=691|49=ACCEPTOR|52=20231129-08:55:08.198|56=INITIATOR|10=165|8=FIXT.1.1|9=62|35=0|34=692|49=ACCEPTOR|52=20231129-08:55:09.588|56=INITIATOR|10=170|8=FIXT.1.1|9=62|35=0|34=693|49=ACCEPTOR|52=20231129-08:55:10.283|56=INITIATOR|10=155|8=FIXT.1.1|9=62|35=0|34=694|49=ACCEPTOR|52=20231129-08:55:11.045|56=INITIATOR|10=153|8=FIXT.1.1|9=62|35=0|34=695|49=ACCEPTOR|52=20231129-08:55:12.429|56=INITIATOR|10=161|8=FIXT.1.1|9=62|35=0|34=696|49=ACCEPTOR|52=20231129-08:55:13.121|56=INITIATOR|10=152|8=FIXT.1.1|9=62|35=0|34=697|49=ACCEPTOR|52=20231129-08:55:14.504|56=INITIATOR|10=159|8=FIXT.1.1|9=62|35=0|34=698|49=ACCEPTOR|52=20231129-08:55:15.195|56=INITIATOR|10=167|8=FIXT.1.1|9=62|35=0|34=699|49=ACCEPTOR|52=20231129-08:55:16.574|56=INITIATOR|10=170|8=FIXT.1.1|9=62|35=0|34=700|49=ACCEPTOR|52=20231129-08:55:17.263|56=INITIATOR|10=149|8=FIXT.1.1|9=62|35=0|34=701|49=ACCEPTOR|52=20231129-08:55:18.020|56=INITIATOR|10=142|8=FIXT.1.1|9=62|35=0|34=702|49=ACCEPTOR|52=20231129-08:55:19.392|56=INITIATOR|10=156|8=FIXT.1.1|9=62|35=0|34=703|49=ACCEPTOR|52=20231129-08:55:20.078|56=INITIATOR|10=150|8=FIXT.1.1|9=62|35=0|34=704|49=ACCEPTOR|52=20231129-08:55:21.449|56=INITIATOR|10=154|8=FIXT.1.1|9=62|35=0|34=705|49=ACCEPTOR|52=20231129-08:55:22.134|56=INITIATOR|10=147|8=FIXT.1.1|9=62|35=0|34=706|49=ACCEPTOR|52=20231129-08:55:23.501|56=INITIATOR|10=147|8=FIXT.1.1|9=62|35=0|34=707|49=ACCEPTOR|52=20231129-08:55:24.185|56=INITIATOR|10=157|8=FIXT.1.1|9=62|35=0|34=708|49=ACCEPTOR|52=20231129-08:55:25.551|56=INITIATOR|10=156|8=FIXT.1.1|9=62|35=0|34=709|49=ACCEPTOR|52=20231129-08:55:26.234|56=INITIATOR|10=156|8=FIXT.1.1|9=62|35=0|34=710|49=ACCEPTOR|52=20231129-08:55:27.598|56=INITIATOR|10=162|8=FIXT.1.1|9=62|35=0|34=711|49=ACCEPTOR|52=20231129-08:55:28.281|56=INITIATOR|10=153|8=FIXT.1.1|9=62|35=0|34=712|49=ACCEPTOR|52=20231129-08:55:29.030|56=INITIATOR|10=147|8=FIXT.1.1|9=62|35=0|34=713|49=ACCEPTOR|52=20231129-08:55:30.389|56=INITIATOR|10=157|8=FIXT.1.1|9=62|35=0|34=714|49=ACCEPTOR|52=20231129-08:55:31.068|56=INITIATOR|10=153|8=FIXT.1.1|9=62|35=0|34=715|49=ACCEPTOR|52=20231129-08:55:32.425|56=INITIATOR|10=152|8=FIXT.1.1|9=62|35=0|34=716|49=ACCEPTOR|52=20231129-08:55:33.103|56=INITIATOR|10=147|8=FIXT.1.1|9=62|35=0|34=717|49=ACCEPTOR|52=20231129-08:55:34.456|56=INITIATOR|10=160|8=FIXT.1.1|9=62|35=0|34=718|49=ACCEPTOR|52=20231129-08:55:35.133|56=INITIATOR|10=154|8=FIXT.1.1|9=62|35=0|34=719|49=ACCEPTOR|52=20231129-08:55:36.483|56=INITIATOR|10=164|8=FIXT.1.1|9=62|35=0|34=720|49=ACCEPTOR|52=20231129-08:55:37.157|56=INITIATOR|10=155|8=FIXT.1.1|9=62|35=0|34=721|49=ACCEPTOR|52=20231129-08:55:38.505|56=INITIATOR|10=154|8=FIXT.1.1|9=62|35=0|34=722|49=ACCEPTOR|52=20231129-08:55:39.180|56=INITIATOR|10=155|8=FIXT.1.1|9=62|35=0|34=723|49=ACCEPTOR|52=20231129-08:55:40.526|56=INITIATOR|10=152|8=FIXT.1.1|9=62|35=0|34=724|49=ACCEPTOR|52=20231129-08:55:41.199|56=INITIATOR|10=160|8=FIXT.1.1|9=62|35=0|34=725|49=ACCEPTOR|52=20231129-08:55:42.544|56=INITIATOR|10=156|8=FIXT.1.1|9=62|35=0|34=726|49=ACCEPTOR|52=20231129-08:55:43.216|56=INITIATOR|10=154|8=FIXT.1.1|9=62|35=0|34=727|49=ACCEPTOR|52=20231129-08:55:44.557|56=INITIATOR|10=164|8=FIXT.1.1|9=62|35=0|34=728|49=ACCEPTOR|52=20231129-08:55:45.228|56=INITIATOR|10=161|8=FIXT.1.1|9=62|35=0|34=729|49=ACCEPTOR|52=20231129-08:55:46.565|56=INITIATOR|10=167|8=FIXT.1.1|9=62|35=0|34=730|49=ACCEPTOR|52=20231129-08:55:47.233|56=INITIATOR|10=152|8=FIXT.1.1|9=62|35=0|34=731|49=ACCEPTOR|52=20231129-08:55:48.567|56=INITIATOR|10=164|8=FIXT.1.1|9=62|35=0|34=732|49=ACCEPTOR|52=20231129-08:55:49.235|56=INITIATOR|10=158|8=FIXT.1.1|9=62|35=0|34=733|49=ACCEPTOR|52=20231129-08:55:50.567|56=INITIATOR|10=159|8=FIXT.1.1|9=62|35=0|34=734|49=ACCEPTOR|52=20231129-08:55:51.233|56=INITIATOR|10=151|8=FIXT.1.1|9=62|35=0|34=735|49=ACCEPTOR|52=20231129-08:55:52.564|56=INITIATOR|10=160|8=FIXT.1.1|9=62|35=0|34=736|49=ACCEPTOR|52=20231129-08:55:53.228|56=INITIATOR|10=159|8=FIXT.1.1|9=62|35=0|34=737|49=ACCEPTOR|52=20231129-08:55:54.556|56=INITIATOR|10=165|8=FIXT.1.1|9=62|35=0|34=738|49=ACCEPTOR|52=20231129-08:55:55.220|56=INITIATOR|10=155|8=FIXT.1.1|9=62|35=0|34=739|49=ACCEPTOR|52=20231129-08:55:56.546|56=INITIATOR|10=168|8=FIXT.1.1|9=62|35=0|34=740|49=ACCEPTOR|52=20231129-08:55:57.209|56=INITIATOR|10=157|8=FIXT.1.1|9=62|35=0|34=741|49=ACCEPTOR|52=20231129-08:55:58.531|56=INITIATOR|10=157|8=FIXT.1.1|9=62|35=0|34=742|49=ACCEPTOR|52=20231129-08:55:59.193|56=INITIATOR|10=163|8=FIXT.1.1|9=62|35=0|34=743|49=ACCEPTOR|52=20231129-08:56:00.513|56=INITIATOR|10=147|8=FIXT.1.1|9=62|35=0|34=744|49=ACCEPTOR|52=20231129-08:56:01.173|56=INITIATOR|10=151|8=FIXT.1.1|9=62|35=0|34=745|49=ACCEPTOR|52=20231129-08:56:02.491|56=INITIATOR|10=156|8=FIXT.1.1|9=62|35=0|34=746|49=ACCEPTOR|52=20231129-08:56:03.148|56=INITIATOR|10=157|8=FIXT.1.1|9=62|35=0|34=747|49=ACCEPTOR|52=20231129-08:56:04.462|56=INITIATOR|10=158|8=FIXT.1.1|9=62|35=0|34=748|49=ACCEPTOR|52=20231129-08:56:05.118|56=INITIATOR|10=158|8=FIXT.1.1|9=62|35=0|34=749|49=ACCEPTOR|52=20231129-08:56:06.427|56=INITIATOR|10=163|8=FIXT.1.1|9=62|35=0|34=750|49=ACCEPTOR|52=20231129-08:56:07.082|56=INITIATOR|10=153|8=FIXT.1.1|9=62|35=0|34=751|49=ACCEPTOR|52=20231129-08:56:08.387|56=INITIATOR|10=163|8=FIXT.1.1|9=62|35=0|34=752|49=ACCEPTOR|52=20231129-08:56:09.039|56=INITIATOR|10=159|8=FIXT.1.1|9=62|35=0|34=753|49=ACCEPTOR|52=20231129-08:56:10.340|56=INITIATOR|10=147|8=FIXT.1.1|9=62|35=0|34=754|49=ACCEPTOR|52=20231129-08:56:11.066|56=INITIATOR|10=154|8=FIXT.1.1|9=62|35=0|34=755|49=ACCEPTOR|52=20231129-08:56:12.364|56=INITIATOR|10=157|8=FIXT.1.1|9=62|35=0|34=756|49=ACCEPTOR|52=20231129-08:56:13.013|56=INITIATOR|10=150|8=FIXT.1.1|9=62|35=0|34=757|49=ACCEPTOR|52=20231129-08:56:14.307|56=INITIATOR|10=158|8=FIXT.1.1|9=62|35=0|34=758|49=ACCEPTOR|52=20231129-08:56:15.030|56=INITIATOR|10=153|8=FIXT.1.1|9=62|35=0|34=759|49=ACCEPTOR|52=20231129-08:56:16.320|56=INITIATOR|10=157|8=FIXT.1.1|9=62|35=0|34=760|49=ACCEPTOR|52=20231129-08:56:17.043|56=INITIATOR|10=152|8=FIXT.1.1|9=62|35=0|34=761|49=ACCEPTOR|52=20231129-08:56:18.329|56=INITIATOR|10=161|8=FIXT.1.1|9=62|35=0|34=762|49=ACCEPTOR|52=20231129-08:56:19.050|56=INITIATOR|10=154|8=FIXT.1.1|9=62|35=0|34=763|49=ACCEPTOR|52=20231129-08:56:20.332|56=INITIATOR|10=150|8=FIXT.1.1|9=62|35=0|34=764|49=ACCEPTOR|52=20231129-08:56:21.051|56=INITIATOR|10=150|8=FIXT.1.1|9=62|35=0|34=765|49=ACCEPTOR|52=20231129-08:56:22.329|56=INITIATOR|10=160|8=FIXT.1.1|9=62|35=0|34=766|49=ACCEPTOR|52=20231129-08:56:23.047|56=INITIATOR|10=159|8=FIXT.1.1|9=62|35=0|34=767|49=ACCEPTOR|52=20231129-08:56:24.319|56=INITIATOR|10=163|8=FIXT.1.1|9=62|35=0|34=768|49=ACCEPTOR|52=20231129-08:56:25.033|56=INITIATOR|10=158|8=FIXT.1.1|9=62|35=0|34=769|49=ACCEPTOR|52=20231129-08:56:26.303|56=INITIATOR|10=160|8=FIXT.1.1|9=62|35=0|34=770|49=ACCEPTOR|52=20231129-08:56:27.017|56=INITIATOR|10=155|8=FIXT.1.1|9=62|35=0|34=771|49=ACCEPTOR|52=20231129-08:56:28.283|56=INITIATOR|10=162|8=FIXT.1.1|9=62|35=0|34=772|49=ACCEPTOR|52=20231129-08:56:29.547|56=INITIATOR|10=167|8=FIXT.1.1|9=62|35=0|34=773|49=ACCEPTOR|52=20231129-08:56:30.179|56=INITIATOR|10=161|8=FIXT.1.1|9=62|35=0|34=774|49=ACCEPTOR|52=20231129-08:56:31.440|56=INITIATOR|10=154|8=FIXT.1.1|9=62|35=0|34=775|49=ACCEPTOR|52=20231129-08:56:32.070|56=INITIATOR|10=155|8=FIXT.1.1|9=62|35=0|34=776|49=ACCEPTOR|52=20231129-08:56:33.327|56=INITIATOR|10=162|8=FIXT.1.1|9=62|35=0|34=777|49=ACCEPTOR|52=20231129-08:56:34.035|56=INITIATOR|10=160|8=FIXT.1.1|9=62|35=0|34=778|49=ACCEPTOR|52=20231129-08:56:35.287|56=INITIATOR|10=171|8=FIXT.1.1|9=62|35=0|34=779|49=ACCEPTOR|52=20231129-08:56:36.538|56=INITIATOR|10=172|8=FIXT.1.1|9=62|35=0|34=780|49=ACCEPTOR|52=20231129-08:56:37.163|56=INITIATOR|10=159|8=FIXT.1.1|9=62|35=0|34=781|49=ACCEPTOR|52=20231129-08:56:38.411|56=INITIATOR|10=157|8=FIXT.1.1|9=62|35=0|34=782|49=ACCEPTOR|52=20231129-08:56:39.036|56=INITIATOR|10=162|8=FIXT.1.1|9=62|35=0|34=783|49=ACCEPTOR|52=20231129-08:56:40.280|56=INITIATOR|10=156|8=FIXT.1.1|9=62|35=0|34=784|49=ACCEPTOR|52=20231129-08:56:41.524|56=INITIATOR|10=159|8=FIXT.1.1|9=62|35=0|34=785|49=ACCEPTOR|52=20231129-08:56:42.145|56=INITIATOR|10=160|8=FIXT.1.1|9=62|35=0|34=786|49=ACCEPTOR|52=20231129-08:56:43.384|56=INITIATOR|10=167|8=FIXT.1.1|9=62|35=0|34=787|49=ACCEPTOR|52=20231129-08:56:44.004|56=INITIATOR|10=158|8=FIXT.1.1|9=62|35=0|34=788|49=ACCEPTOR|52=20231129-08:56:45.244|56=INITIATOR|10=166|8=FIXT.1.1|9=62|35=0|34=789|49=ACCEPTOR|52=20231129-08:56:46.483|56=INITIATOR|10=173|8=FIXT.1.1|9=62|35=0|34=790|49=ACCEPTOR|52=20231129-08:56:47.102|56=INITIATOR|10=154|8=FIXT.1.1|9=62|35=0|34=791|49=ACCEPTOR|52=20231129-08:56:48.339|56=INITIATOR|10=168|8=FIXT.1.1|9=62|35=0|34=792|49=ACCEPTOR|52=20231129-08:56:49.038|56=INITIATOR|10=166|8=FIXT.1.1|9=62|35=0|34=793|49=ACCEPTOR|52=20231129-08:56:50.272|56=INITIATOR|10=159|8=FIXT.1.1|9=62|35=0|34=794|49=ACCEPTOR|52=20231129-08:56:51.504|56=INITIATOR|10=159|8=FIXT.1.1|9=62|35=0|34=795|49=ACCEPTOR|52=20231129-08:56:52.120|56=INITIATOR|10=155|8=FIXT.1.1|9=62|35=0|34=796|49=ACCEPTOR|52=20231129-08:56:53.349|56=INITIATOR|10=170|8=FIXT.1.1|9=62|35=0|34=797|49=ACCEPTOR|52=20231129-08:56:54.046|56=INITIATOR|10=166|8=FIXT.1.1|9=62|35=0|34=798|49=ACCEPTOR|52=20231129-08:56:55.270|56=INITIATOR|10=167|8=FIXT.1.1|9=62|35=0|34=799|49=ACCEPTOR|52=20231129-08:56:56.492|56=INITIATOR|10=175|8=FIXT.1.1|9=62|35=0|34=800|49=ACCEPTOR|52=20231129-08:56:57.103|56=INITIATOR|10=148|8=FIXT.1.1|9=62|35=0|34=801|49=ACCEPTOR|52=20231129-08:56:58.323|56=INITIATOR|10=154|8=FIXT.1.1|9=62|35=0|34=802|49=ACCEPTOR|52=20231129-08:56:59.016|56=INITIATOR|10=155|8=FIXT.1.1|9=62|35=0|34=803|49=ACCEPTOR|52=20231129-08:57:00.231|56=INITIATOR|10=142|8=FIXT.1.1|9=62|35=0|34=804|49=ACCEPTOR|52=20231129-08:57:01.444|56=INITIATOR|10=150|8=FIXT.1.1|9=62|35=0|34=805|49=ACCEPTOR|52=20231129-08:57:02.050|56=INITIATOR|10=145|8=FIXT.1.1|9=62|35=0|34=806|49=ACCEPTOR|52=20231129-08:57:03.259|56=INITIATOR|10=158|8=FIXT.1.1|9=62|35=0|34=807|49=ACCEPTOR|52=20231129-08:57:04.467|56=INITIATOR|10=161|8=FIXT.1.1|9=62|35=0|34=808|49=ACCEPTOR|52=20231129-08:57:05.070|56=INITIATOR|10=153|8=FIXT.1.1|9=62|35=0|34=809|49=ACCEPTOR|52=20231129-08:57:06.273|56=INITIATOR|10=160|8=FIXT.1.1|9=62|35=0|34=810|49=ACCEPTOR|52=20231129-08:57:07.474|56=INITIATOR|10=156|8=FIXT.1.1|9=62|35=0|34=811|49=ACCEPTOR|52=20231129-08:57:08.074|56=INITIATOR|10=154|8=FIXT.1.1|9=62|35=0|34=812|49=ACCEPTOR|52=20231129-08:57:09.270|56=INITIATOR|10=154|8=FIXT.1.1|9=62|35=0|34=813|49=ACCEPTOR|52=20231129-08:57:10.467|56=INITIATOR|10=155|8=FIXT.1.1|9=62|35=0|34=814|49=ACCEPTOR|52=20231129-08:57:11.064|56=INITIATOR|10=150|8=FIXT.1.1|9=62|35=0|34=815|49=ACCEPTOR|52=20231129-08:57:12.257|56=INITIATOR|10=156|8=FIXT.1.1|9=62|35=0|34=816|49=ACCEPTOR|52=20231129-08:57:13.450|56=INITIATOR|10=153|8=FIXT.1.1|9=62|35=0|34=817|49=ACCEPTOR|52=20231129-08:57:14.047|56=INITIATOR|10=157|8=FIXT.1.1|9=62|35=0|34=818|49=ACCEPTOR|52=20231129-08:57:15.236|56=INITIATOR|10=159|8=FIXT.1.1|9=62|35=0|34=819|49=ACCEPTOR|52=20231129-08:57:16.424|56=INITIATOR|10=160|8=FIXT.1.1|9=62|35=0|34=820|49=ACCEPTOR|52=20231129-08:57:17.017|56=INITIATOR|10=151|8=FIXT.1.1|9=62|35=0|34=821|49=ACCEPTOR|52=20231129-08:57:18.198|56=INITIATOR|10=163|8=FIXT.1.1|9=62|35=0|34=822|49=ACCEPTOR|52=20231129-08:57:19.377|56=INITIATOR|10=164|8=FIXT.1.1|9=62|35=0|34=823|49=ACCEPTOR|52=20231129-08:57:20.055|56=INITIATOR|10=150|8=FIXT.1.1|9=62|35=0|34=824|49=ACCEPTOR|52=20231129-08:57:21.230|56=INITIATOR|10=147|8=FIXT.1.1|9=62|35=0|34=825|49=ACCEPTOR|52=20231129-08:57:22.404|56=INITIATOR|10=152|8=FIXT.1.1|9=62|35=0|34=826|49=ACCEPTOR|52=20231129-08:57:23.080|56=INITIATOR|10=154|8=FIXT.1.1|9=62|35=0|34=827|49=ACCEPTOR|52=20231129-08:57:24.252|56=INITIATOR|10=157|8=FIXT.1.1|9=62|35=0|34=828|49=ACCEPTOR|52=20231129-08:57:25.422|56=INITIATOR|10=158|8=FIXT.1.1|9=62|35=0|34=829|49=ACCEPTOR|52=20231129-08:57:26.008|56=INITIATOR|10=160|8=FIXT.1.1|9=62|35=0|34=830|49=ACCEPTOR|52=20231129-08:57:27.174|56=INITIATOR|10=157|8=FIXT.1.1|9=62|35=0|34=831|49=ACCEPTOR|52=20231129-08:57:28.340|56=INITIATOR|10=154|8=FIXT.1.1|9=62|35=0|34=832|49=ACCEPTOR|52=20231129-08:57:29.011|56=INITIATOR|10=151|8=FIXT.1.1|9=62|35=0|34=833|49=ACCEPTOR|52=20231129-08:57:30.175|56=INITIATOR|10=155|8=FIXT.1.1|9=62|35=0|34=834|49=ACCEPTOR|52=20231129-08:57:31.336|56=INITIATOR|10=156|8=FIXT.1.1|9=62|35=0|34=835|49=ACCEPTOR|52=20231129-08:57:32.007|56=INITIATOR|10=153|8=FIXT.1.1|9=62|35=0|34=836|49=ACCEPTOR|52=20231129-08:57:33.166|56=INITIATOR|10=161|8=FIXT.1.1|9=62|35=0|34=837|49=ACCEPTOR|52=20231129-08:57:34.326|56=INITIATOR|10=161|8=FIXT.1.1|9=62|35=0|34=838|49=ACCEPTOR|52=20231129-08:57:35.485|56=INITIATOR|10=169|8=FIXT.1.1|9=62|35=0|34=839|49=ACCEPTOR|52=20231129-08:57:36.065|56=INITIATOR|10=165|8=FIXT.1.1|9=62|35=0|34=840|49=ACCEPTOR|52=20231129-08:57:37.223|56=INITIATOR|10=154|8=FIXT.1.1|9=62|35=0|34=841|49=ACCEPTOR|52=20231129-08:57:38.380|56=INITIATOR|10=160|8=FIXT.1.1|9=62|35=0|34=842|49=ACCEPTOR|52=20231129-08:57:39.047|56=INITIATOR|10=162|8=FIXT.1.1|9=62|35=0|34=843|49=ACCEPTOR|52=20231129-08:57:40.200|56=INITIATOR|10=146|8=FIXT.1.1|9=62|35=0|34=844|49=ACCEPTOR|52=20231129-08:57:41.352|56=INITIATOR|10=156|8=FIXT.1.1|9=62|35=0|34=845|49=ACCEPTOR|52=20231129-08:57:42.018|56=INITIATOR|10=157|8=FIXT.1.1|9=62|35=0|34=846|49=ACCEPTOR|52=20231129-08:57:43.168|56=INITIATOR|10=165|8=FIXT.1.1|9=62|35=0|34=847|49=ACCEPTOR|52=20231129-08:57:44.316|56=INITIATOR|10=162|8=FIXT.1.1|9=62|35=0|34=848|49=ACCEPTOR|52=20231129-08:57:45.463|56=INITIATOR|10=167|8=FIXT.1.1|9=62|35=0|34=849|49=ACCEPTOR|52=20231129-08:57:46.036|56=INITIATOR|10=165|8=FIXT.1.1|9=62|35=0|34=850|49=ACCEPTOR|52=20231129-08:57:47.180|56=INITIATOR|10=158|8=FIXT.1.1|9=62|35=0|34=851|49=ACCEPTOR|52=20231129-08:57:48.324|56=INITIATOR|10=160|8=FIXT.1.1|9=62|35=0|34=852|49=ACCEPTOR|52=20231129-08:57:49.466|56=INITIATOR|10=169|8=FIXT.1.1|9=62|35=0|34=853|49=ACCEPTOR|52=20231129-08:57:50.037|56=INITIATOR|10=156|8=FIXT.1.1|9=62|35=0|34=854|49=ACCEPTOR|52=20231129-08:57:51.177|56=INITIATOR|10=163|8=FIXT.1.1|9=62|35=0|34=855|49=ACCEPTOR|52=20231129-08:57:52.317|56=INITIATOR|10=161|8=FIXT.1.1|9=62|35=0|34=856|49=ACCEPTOR|52=20231129-08:57:53.456|56=INITIATOR|10=167|8=FIXT.1.1|9=62|35=0|34=857|49=ACCEPTOR|52=20231129-08:57:54.025|56=INITIATOR|10=161|8=FIXT.1.1|9=62|35=0|34=858|49=ACCEPTOR|52=20231129-08:57:55.162|56=INITIATOR|10=165|8=FIXT.1.1|9=62|35=0|34=859|49=ACCEPTOR|52=20231129-08:57:56.297|56=INITIATOR|10=176|8=FIXT.1.1|9=62|35=0|34=860|49=ACCEPTOR|52=20231129-08:57:57.430|56=INITIATOR|10=158|8=FIXT.1.1|9=62|35=0|34=861|49=ACCEPTOR|52=20231129-08:57:58.087|56=INITIATOR|10=168|8=FIXT.1.1|9=62|35=0|34=862|49=ACCEPTOR|52=20231129-08:57:59.216|56=INITIATOR|10=164|8=FIXT.1.1|9=62|35=0|34=863|49=ACCEPTOR|52=20231129-08:58:00.346|56=INITIATOR|10=156|8=FIXT.1.1|9=62|35=0|34=864|49=ACCEPTOR|52=20231129-08:58:01.003|56=INITIATOR|10=148|8=FIXT.1.1|9=62|35=0|34=865|49=ACCEPTOR|52=20231129-08:58:02.130|56=INITIATOR|10=151|8=FIXT.1.1|9=62|35=0|34=866|49=ACCEPTOR|52=20231129-08:58:03.256|56=INITIATOR|10=162|8=FIXT.1.1|9=62|35=0|34=867|49=ACCEPTOR|52=20231129-08:58:04.382|56=INITIATOR|10=164|8=FIXT.1.1|9=62|35=0|34=868|49=ACCEPTOR|52=20231129-08:58:05.034|56=INITIATOR|10=160|8=FIXT.1.1|9=62|35=0|34=869|49=ACCEPTOR|52=20231129-08:58:06.156|56=INITIATOR|10=167|8=FIXT.1.1|9=62|35=0|34=870|49=ACCEPTOR|52=20231129-08:58:07.276|56=INITIATOR|10=163|8=FIXT.1.1|9=62|35=0|34=871|49=ACCEPTOR|52=20231129-08:58:08.396|56=INITIATOR|10=168|8=FIXT.1.1|9=62|35=0|34=872|49=ACCEPTOR|52=20231129-08:58:09.048|56=INITIATOR|10=164|8=FIXT.1.1|9=62|35=0|34=873|49=ACCEPTOR|52=20231129-08:58:10.162|56=INITIATOR|10=154|8=FIXT.1.1|9=62|35=0|34=874|49=ACCEPTOR|52=20231129-08:58:11.275|56=INITIATOR|10=161|8=FIXT.1.1|9=62|35=0|34=875|49=ACCEPTOR|52=20231129-08:58:12.386|56=INITIATOR|10=166|8=FIXT.1.1|9=62|35=0|34=876|49=ACCEPTOR|52=20231129-08:58:13.034|56=INITIATOR|10=158|8=FIXT.1.1|9=62|35=0|34=877|49=ACCEPTOR|52=20231129-08:58:14.139|56=INITIATOR|10=166|8=FIXT.1.1|9=62|35=0|34=878|49=ACCEPTOR|52=20231129-08:58:15.245|56=INITIATOR|10=166|8=FIXT.1.1|9=62|35=0|34=879|49=ACCEPTOR|52=20231129-08:58:16.347|56=INITIATOR|10=171|8=FIXT.1.1|9=62|35=0|34=880|49=ACCEPTOR|52=20231129-08:58:17.448|56=INITIATOR|10=166|8=FIXT.1.1|9=62|35=0|34=881|49=ACCEPTOR|52=20231129-08:58:18.093|56=INITIATOR|10=164|8=FIXT.1.1|9=62|35=0|34=882|49=ACCEPTOR|52=20231129-08:58:19.189|56=INITIATOR|10=172|8=FIXT.1.1|9=62|35=0|34=883|49=ACCEPTOR|52=20231129-08:58:20.285|56=INITIATOR|10=162|8=FIXT.1.1|9=62|35=0|34=884|49=ACCEPTOR|52=20231129-08:58:21.378|56=INITIATOR|10=167|8=FIXT.1.1|9=62|35=0|34=885|49=ACCEPTOR|52=20231129-08:58:22.020|56=INITIATOR|10=153|8=FIXT.1.1|9=62|35=0|34=886|49=ACCEPTOR|52=20231129-08:58:23.110|56=INITIATOR|10=155|8=FIXT.1.1|9=62|35=0|34=887|49=ACCEPTOR|52=20231129-08:58:24.199|56=INITIATOR|10=174|8=FIXT.1.1|9=62|35=0|34=888|49=ACCEPTOR|52=20231129-08:58:25.286|56=INITIATOR|10=173|8=FIXT.1.1|9=62|35=0|34=889|49=ACCEPTOR|52=20231129-08:58:26.369|56=INITIATOR|10=177|8=FIXT.1.1|9=62|35=0|34=890|49=ACCEPTOR|52=20231129-08:58:27.006|56=INITIATOR|10=158|8=FIXT.1.1|9=62|35=0|34=891|49=ACCEPTOR|52=20231129-08:58:28.085|56=INITIATOR|10=167|8=FIXT.1.1|9=62|35=0|34=892|49=ACCEPTOR|52=20231129-08:58:29.166|56=INITIATOR|10=169|8=FIXT.1.1|9=62|35=0|34=893|49=ACCEPTOR|52=20231129-08:58:30.245|56=INITIATOR|10=160|8=FIXT.1.1|9=62|35=0|34=894|49=ACCEPTOR|52=20231129-08:58:31.321|56=INITIATOR|10=157|8=FIXT.1.1|9=91|35=A|34=895|49=ACCEPTOR|52=20231129-08:58:33.646|56=INITIATOR|98=0|108=1|1137=spec/FIX.5.0|10=048|8=FIXT.1.1|9=62|35=0|34=896|49=ACCEPTOR|52=20231129-08:58:34.182|56=INITIATOR|10=167|8=FIXT.1.1|9=62|35=0|34=897|49=ACCEPTOR|52=20231129-08:58:35.184|56=INITIATOR|10=171|8=FIXT.1.1|9=62|35=0|34=898|49=ACCEPTOR|52=20231129-08:58:36.184|56=INITIATOR|10=173|8=FIXT.1.1|9=62|35=0|34=899|49=ACCEPTOR|52=20231129-08:58:37.182|56=INITIATOR|10=173|8=FIXT.1.1|9=62|35=0|34=900|49=ACCEPTOR|52=20231129-08:58:38.180|56=INITIATOR|10=155|8=FIXT.1.1|9=62|35=0|34=901|49=ACCEPTOR|52=20231129-08:58:39.177|56=INITIATOR|10=163|8=FIXT.1.1|9=62|35=0|34=902|49=ACCEPTOR|52=20231129-08:58:40.174|56=INITIATOR|10=153|8=FIXT.1.1|9=62|35=0|34=903|49=ACCEPTOR|52=20231129-08:58:41.170|56=INITIATOR|10=151|8=FIXT.1.1|9=62|35=0|34=904|49=ACCEPTOR|52=20231129-08:58:42.165|56=INITIATOR|10=157|8=FIXT.1.1|9=62|35=0|34=905|49=ACCEPTOR|52=20231129-08:58:43.158|56=INITIATOR|10=161|8=FIXT.1.1|9=62|35=0|34=906|49=ACCEPTOR|52=20231129-08:58:44.151|56=INITIATOR|10=156|8=FIXT.1.1|9=62|35=0|34=907|49=ACCEPTOR|52=20231129-08:58:45.143|56=INITIATOR|10=159|8=FIXT.1.1|9=62|35=0|34=908|49=ACCEPTOR|52=20231129-08:58:46.135|56=INITIATOR|10=162|8=FIXT.1.1|9=62|35=0|34=909|49=ACCEPTOR|52=20231129-08:58:47.123|56=INITIATOR|10=161|8=FIXT.1.1|9=62|35=0|34=910|49=ACCEPTOR|52=20231129-08:58:48.111|56=INITIATOR|10=151|8=FIXT.1.1|9=62|35=0|34=911|49=ACCEPTOR|52=20231129-08:58:49.098|56=INITIATOR|10=167|8=FIXT.1.1|9=62|35=0|34=912|49=ACCEPTOR|52=20231129-08:58:50.085|56=INITIATOR|10=156|8=FIXT.1.1|9=62|35=0|34=913|49=ACCEPTOR|52=20231129-08:58:51.070|56=INITIATOR|10=152|8=FIXT.1.1|9=62|35=0|34=914|49=ACCEPTOR|52=20231129-08:58:52.053|56=INITIATOR|10=155|8=FIXT.1.1|9=62|35=0|34=915|49=ACCEPTOR|52=20231129-08:58:53.035|56=INITIATOR|10=157|8=FIXT.1.1|9=62|35=0|34=916|49=ACCEPTOR|52=20231129-08:58:54.017|56=INITIATOR|10=159|8=FIXT.1.1|9=62|35=0|34=917|49=ACCEPTOR|52=20231129-08:58:55.054|56=INITIATOR|10=162|8=FIXT.1.1|9=62|35=0|34=918|49=ACCEPTOR|52=20231129-08:58:56.036|56=INITIATOR|10=164|8=FIXT.1.1|9=62|35=0|34=919|49=ACCEPTOR|52=20231129-08:58:57.016|56=INITIATOR|10=164|8=FIXT.1.1|9=62|35=0|34=920|49=ACCEPTOR|52=20231129-08:58:58.052|56=INITIATOR|10=157|8=FIXT.1.1|9=62|35=0|34=921|49=ACCEPTOR|52=20231129-08:58:59.033|56=INITIATOR|10=158|8=FIXT.1.1|9=62|35=0|34=922|49=ACCEPTOR|52=20231129-08:59:00.011|56=INITIATOR|10=142|8=FIXT.1.1|9=62|35=0|34=923|49=ACCEPTOR|52=20231129-08:59:01.041|56=INITIATOR|10=147|8=FIXT.1.1|9=62|35=0|34=924|49=ACCEPTOR|52=20231129-08:59:02.019|56=INITIATOR|10=154|8=FIXT.1.1|9=62|35=0|34=925|49=ACCEPTOR|52=20231129-08:59:03.047|56=INITIATOR|10=157|8=FIXT.1.1|9=62|35=0|34=926|49=ACCEPTOR|52=20231129-08:59:04.023|56=INITIATOR|10=153|8=FIXT.1.1|9=62|35=0|34=927|49=ACCEPTOR|52=20231129-08:59:05.046|56=INITIATOR|10=160|8=FIXT.1.1|9=62|35=0|34=928|49=ACCEPTOR|52=20231129-08:59:06.020|56=INITIATOR|10=154|8=FIXT.1.1|9=62|35=0|34=929|49=ACCEPTOR|52=20231129-08:59:07.040|56=INITIATOR|10=158|8=FIXT.1.1|9=62|35=0|34=930|49=ACCEPTOR|52=20231129-08:59:08.013|56=INITIATOR|10=151|8=FIXT.1.1|9=62|35=0|34=931|49=ACCEPTOR|52=20231129-08:59:09.029|56=INITIATOR|10=160|8=FIXT.1.1|9=62|35=0|34=932|49=ACCEPTOR|52=20231129-08:59:10.001|56=INITIATOR|10=143|8=FIXT.1.1|9=62|35=0|34=933|49=ACCEPTOR|52=20231129-08:59:11.013|56=INITIATOR|10=148|8=FIXT.1.1|9=62|35=0|34=934|49=ACCEPTOR|52=20231129-08:59:12.021|56=INITIATOR|10=149|8=FIXT.1.1|9=62|35=0|34=935|49=ACCEPTOR|52=20231129-08:59:13.029|56=INITIATOR|10=159|8=FIXT.1.1|9=62|35=0|34=936|49=ACCEPTOR|52=20231129-08:59:14.036|56=INITIATOR|10=159|8=FIXT.1.1|9=62|35=0|34=937|49=ACCEPTOR|52=20231129-08:59:15.003|56=INITIATOR|10=155|8=FIXT.1.1|9=62|35=0|34=938|49=ACCEPTOR|52=20231129-08:59:16.004|56=INITIATOR|10=158|8=FIXT.1.1|9=62|35=0|34=939|49=ACCEPTOR|52=20231129-08:59:17.004|56=INITIATOR|10=160|8=FIXT.1.1|9=62|35=0|34=940|49=ACCEPTOR|52=20231129-08:59:18.003|56=INITIATOR|10=152|8=FIXT.1.1|9=62|35=0|34=941|49=ACCEPTOR|52=20231129-08:59:19.000|56=INITIATOR|10=151|8=FIXT.1.1|9=62|35=0|34=942|49=ACCEPTOR|52=20231129-08:59:20.491|56=INITIATOR|10=158|8=FIXT.1.1|9=62|35=0|34=943|49=ACCEPTOR|52=20231129-08:59:21.452|56=INITIATOR|10=157|8=FIXT.1.1|9=62|35=0|34=944|49=ACCEPTOR|52=20231129-08:59:22.412|56=INITIATOR|10=155|8=FIXT.1.1|9=62|35=0|34=945|49=ACCEPTOR|52=20231129-08:59:23.370|56=INITIATOR|10=160|8=FIXT.1.1|9=62|35=0|34=946|49=ACCEPTOR|52=20231129-08:59:24.328|56=INITIATOR|10=165|8=FIXT.1.1|9=62|35=0|34=947|49=ACCEPTOR|52=20231129-08:59:25.285|56=INITIATOR|10=169|8=FIXT.1.1|9=62|35=0|34=948|49=ACCEPTOR|52=20231129-08:59:26.241|56=INITIATOR|10=163|8=FIXT.1.1|9=62|35=0|34=949|49=ACCEPTOR|52=20231129-08:59:27.195|56=INITIATOR|10=173|8=FIXT.1.1|9=62|35=0|34=950|49=ACCEPTOR|52=20231129-08:59:28.148|56=INITIATOR|10=164|8=FIXT.1.1|9=62|35=0|34=951|49=ACCEPTOR|52=20231129-08:59:29.101|56=INITIATOR|10=155|8=FIXT.1.1|9=62|35=0|34=952|49=ACCEPTOR|52=20231129-08:59:30.052|56=INITIATOR|10=153|8=FIXT.1.1|9=62|35=0|34=953|49=ACCEPTOR|52=20231129-08:59:31.002|56=INITIATOR|10=150|8=FIXT.1.1|9=62|35=0|34=954|49=ACCEPTOR|52=20231129-08:59:32.462|56=INITIATOR|10=162|8=FIXT.1.1|9=62|35=0|34=955|49=ACCEPTOR|52=20231129-08:59:33.412|56=INITIATOR|10=159|8=FIXT.1.1|9=62|35=0|34=956|49=ACCEPTOR|52=20231129-08:59:34.362|56=INITIATOR|10=165|8=FIXT.1.1|9=62|35=0|34=957|49=ACCEPTOR|52=20231129-08:59:35.310|56=INITIATOR|10=160|8=FIXT.1.1|9=62|35=0|34=958|49=ACCEPTOR|52=20231129-08:59:36.259|56=INITIATOR|10=174|8=FIXT.1.1|9=62|35=0|34=959|49=ACCEPTOR|52=20231129-08:59:37.207|56=INITIATOR|10=169|8=FIXT.1.1|9=62|35=0|34=960|49=ACCEPTOR|52=20231129-08:59:38.153|56=INITIATOR|10=162|8=FIXT.1.1|9=62|35=0|34=961|49=ACCEPTOR|52=20231129-08:59:39.099|56=INITIATOR|10=173|8=FIXT.1.1|9=62|35=0|34=962|49=ACCEPTOR|52=20231129-08:59:40.043|56=INITIATOR|10=155|8=FIXT.1.1|9=62|35=0|34=963|49=ACCEPTOR|52=20231129-08:59:41.003|56=INITIATOR|10=153|8=FIXT.1.1|9=62|35=0|34=964|49=ACCEPTOR|52=20231129-08:59:42.441|56=INITIATOR|10=161|8=FIXT.1.1|9=62|35=0|34=965|49=ACCEPTOR|52=20231129-08:59:43.382|56=INITIATOR|10=167|8=FIXT.1.1|9=62|35=0|34=966|49=ACCEPTOR|52=20231129-08:59:44.323|56=INITIATOR|10=164|8=FIXT.1.1|9=62|35=0|34=967|49=ACCEPTOR|52=20231129-08:59:45.263|56=INITIATOR|10=169|8=FIXT.1.1|9=62|35=0|34=968|49=ACCEPTOR|52=20231129-08:59:46.202|56=INITIATOR|10=164|8=FIXT.1.1|9=62|35=0|34=969|49=ACCEPTOR|52=20231129-08:59:47.139|56=INITIATOR|10=175|8=FIXT.1.1|9=62|35=0|34=970|49=ACCEPTOR|52=20231129-08:59:48.076|56=INITIATOR|10=168|8=FIXT.1.1|9=62|35=0|34=971|49=ACCEPTOR|52=20231129-08:59:49.012|56=INITIATOR|10=160|8=FIXT.1.1|9=62|35=0|34=972|49=ACCEPTOR|52=20231129-08:59:50.427|56=INITIATOR|10=163|8=FIXT.1.1|9=62|35=0|34=973|49=ACCEPTOR|52=20231129-08:59:51.359|56=INITIATOR|10=169|8=FIXT.1.1|9=62|35=0|34=974|49=ACCEPTOR|52=20231129-08:59:52.293|56=INITIATOR|10=168|8=FIXT.1.1|9=62|35=0|34=975|49=ACCEPTOR|52=20231129-08:59:53.226|56=INITIATOR|10=166|8=FIXT.1.1|9=62|35=0|34=976|49=ACCEPTOR|52=20231129-08:59:54.157|56=INITIATOR|10=171|8=FIXT.1.1|9=62|35=0|34=977|49=ACCEPTOR|52=20231129-08:59:55.088|56=INITIATOR|10=176|8=FIXT.1.1|9=62|35=0|34=978|49=ACCEPTOR|52=20231129-08:59:56.018|56=INITIATOR|10=171|8=FIXT.1.1|9=62|35=0|34=979|49=ACCEPTOR|52=20231129-08:59:57.415|56=INITIATOR|10=174|8=FIXT.1.1|9=62|35=0|34=980|49=ACCEPTOR|52=20231129-08:59:58.344|56=INITIATOR|10=168|8=FIXT.1.1|9=62|35=0|34=981|49=ACCEPTOR|52=20231129-08:59:59.270|56=INITIATOR|10=168|8=FIXT.1.1|9=62|35=0|34=982|49=ACCEPTOR|52=20231129-09:00:00.196|56=INITIATOR|10=149|8=FIXT.1.1|9=62|35=0|34=983|49=ACCEPTOR|52=20231129-09:00:01.121|56=INITIATOR|10=139|8=FIXT.1.1|9=62|35=0|34=984|49=ACCEPTOR|52=20231129-09:00:02.046|56=INITIATOR|10=147|8=FIXT.1.1|9=62|35=0|34=985|49=ACCEPTOR|52=20231129-09:00:03.431|56=INITIATOR|10=147|8=FIXT.1.1|9=62|35=0|34=986|49=ACCEPTOR|52=20231129-09:00:04.354|56=INITIATOR|10=153|8=FIXT.1.1|9=62|35=0|34=987|49=ACCEPTOR|52=20231129-09:00:05.277|56=INITIATOR|10=159|8=FIXT.1.1|9=62|35=0|34=988|49=ACCEPTOR|52=20231129-09:00:06.199|56=INITIATOR|10=164|8=FIXT.1.1|9=62|35=0|34=989|49=ACCEPTOR|52=20231129-09:00:07.121|56=INITIATOR|10=151|8=FIXT.1.1|9=62|35=0|34=990|49=ACCEPTOR|52=20231129-09:00:08.041|56=INITIATOR|10=145|8=FIXT.1.1|9=62|35=0|34=991|49=ACCEPTOR|52=20231129-09:00:09.418|56=INITIATOR|10=155|8=FIXT.1.1|9=62|35=0|34=992|49=ACCEPTOR|52=20231129-09:00:10.334|56=INITIATOR|10=145|8=FIXT.1.1|9=62|35=0|34=993|49=ACCEPTOR|52=20231129-09:00:11.249|56=INITIATOR|10=152|8=FIXT.1.1|9=62|35=0|34=994|49=ACCEPTOR|52=20231129-09:00:12.163|56=INITIATOR|10=149|8=FIXT.1.1|9=62|35=0|34=995|49=ACCEPTOR|52=20231129-09:00:13.076|56=INITIATOR|10=154|8=FIXT.1.1|9=62|35=0|34=996|49=ACCEPTOR|52=20231129-09:00:14.440|56=INITIATOR|10=151|8=FIXT.1.1|9=62|35=0|34=997|49=ACCEPTOR|52=20231129-09:00:15.348|56=INITIATOR|10=160|8=FIXT.1.1|9=62|35=0|34=998|49=ACCEPTOR|52=20231129-09:00:16.254|56=INITIATOR|10=158|8=FIXT.1.1|9=62|35=0|34=999|49=ACCEPTOR|52=20231129-09:00:17.157|56=INITIATOR|10=162|8=FIXT.1.1|9=63|35=0|34=1000|49=ACCEPTOR|52=20231129-09:00:18.058|56=INITIATOR|10=186|8=FIXT.1.1|9=63|35=0|34=1001|49=ACCEPTOR|52=20231129-09:00:19.406|56=INITIATOR|10=185|8=FIXT.1.1|9=63|35=0|34=1002|49=ACCEPTOR|52=20231129-09:00:20.303|56=INITIATOR|10=174|8=FIXT.1.1|9=63|35=0|34=1003|49=ACCEPTOR|52=20231129-09:00:21.198|56=INITIATOR|10=188|8=FIXT.1.1|9=63|35=0|34=1004|49=ACCEPTOR|52=20231129-09:00:22.091|56=INITIATOR|10=182|8=FIXT.1.1|9=63|35=0|34=1005|49=ACCEPTOR|52=20231129-09:00:23.005|56=INITIATOR|10=179|8=FIXT.1.1|9=63|35=0|34=1006|49=ACCEPTOR|52=20231129-09:00:24.336|56=INITIATOR|10=188|8=FIXT.1.1|9=63|35=0|34=1007|49=ACCEPTOR|52=20231129-09:00:25.222|56=INITIATOR|10=184|8=FIXT.1.1|9=63|35=0|34=1008|49=ACCEPTOR|52=20231129-09:00:26.107|56=INITIATOR|10=188|8=FIXT.1.1|9=63|35=0|34=1009|49=ACCEPTOR|52=20231129-09:00:27.018|56=INITIATOR|10=191|8=FIXT.1.1|9=63|35=0|34=1010|49=ACCEPTOR|52=20231129-09:00:28.337|56=INITIATOR|10=188|8=FIXT.1.1|9=63|35=0|34=1011|49=ACCEPTOR|52=20231129-09:00:29.216|56=INITIATOR|10=186|8=FIXT.1.1|9=63|35=0|34=1012|49=ACCEPTOR|52=20231129-09:00:30.092|56=INITIATOR|10=181|8=FIXT.1.1|9=63|35=0|34=1013|49=ACCEPTOR|52=20231129-09:00:31.403|56=INITIATOR|10=179|8=FIXT.1.1|9=63|35=0|34=1014|49=ACCEPTOR|52=20231129-09:00:32.276|56=INITIATOR|10=189|8=FIXT.1.1|9=63|35=0|34=1015|49=ACCEPTOR|52=20231129-09:00:33.147|56=INITIATOR|10=188|8=FIXT.1.1|9=63|35=0|34=1016|49=ACCEPTOR|52=20231129-09:00:34.016|56=INITIATOR|10=185|8=FIXT.1.1|9=63|35=0|34=1017|49=ACCEPTOR|52=20231129-09:00:35.315|56=INITIATOR|10=189|8=FIXT.1.1|9=63|35=0|34=1018|49=ACCEPTOR|52=20231129-09:00:36.180|56=INITIATOR|10=191|8=FIXT.1.1|9=63|35=0|34=1019|49=ACCEPTOR|52=20231129-09:00:37.043|56=INITIATOR|10=191|8=FIXT.1.1|9=63|35=0|34=1020|49=ACCEPTOR|52=20231129-09:00:38.332|56=INITIATOR|10=185|8=FIXT.1.1|9=63|35=0|34=1021|49=ACCEPTOR|52=20231129-09:00:39.189|56=INITIATOR|10=197|8=FIXT.1.1|9=63|35=0|34=1022|49=ACCEPTOR|52=20231129-09:00:40.043|56=INITIATOR|10=179|8=FIXT.1.1|9=63|35=0|34=1023|49=ACCEPTOR|52=20231129-09:00:41.322|56=INITIATOR|10=181|8=FIXT.1.1|9=63|35=0|34=1024|49=ACCEPTOR|52=20231129-09:00:42.173|56=INITIATOR|10=187|8=FIXT.1.1|9=63|35=0|34=1025|49=ACCEPTOR|52=20231129-09:00:43.021|56=INITIATOR|10=181|8=FIXT.1.1|9=63|35=0|34=1026|49=ACCEPTOR|52=20231129-09:00:44.290|56=INITIATOR|10=191|8=FIXT.1.1|9=63|35=0|34=1027|49=ACCEPTOR|52=20231129-09:00:45.133|56=INITIATOR|10=189|8=FIXT.1.1|9=63|35=0|34=1028|49=ACCEPTOR|52=20231129-09:00:46.027|56=INITIATOR|10=193|8=FIXT.1.1|9=63|35=0|34=1029|49=ACCEPTOR|52=20231129-09:00:47.284|56=INITIATOR|10=200|8=FIXT.1.1|9=63|35=0|34=1030|49=ACCEPTOR|52=20231129-09:00:48.120|56=INITIATOR|10=182|8=FIXT.1.1|9=63|35=0|34=1031|49=ACCEPTOR|52=20231129-09:00:49.013|56=INITIATOR|10=185|8=FIXT.1.1|9=63|35=0|34=1032|49=ACCEPTOR|52=20231129-09:00:50.260|56=INITIATOR|10=182|8=FIXT.1.1|9=63|35=0|34=1033|49=ACCEPTOR|52=20231129-09:00:51.091|56=INITIATOR|10=186|8=FIXT.1.1|9=63|35=0|34=1034|49=ACCEPTOR|52=20231129-09:00:52.330|56=INITIATOR|10=184|8=FIXT.1.1|9=63|35=0|34=1035|49=ACCEPTOR|52=20231129-09:00:53.155|56=INITIATOR|10=191|8=FIXT.1.1|9=63|35=0|34=1036|49=ACCEPTOR|52=20231129-09:00:54.043|56=INITIATOR|10=189|8=FIXT.1.1|9=63|35=0|34=1037|49=ACCEPTOR|52=20231129-09:00:55.273|56=INITIATOR|10=196|8=FIXT.1.1|9=63|35=0|34=1038|49=ACCEPTOR|52=20231129-09:00:56.091|56=INITIATOR|10=196|8=FIXT.1.1|9=63|35=0|34=1039|49=ACCEPTOR|52=20231129-09:00:57.316|56=INITIATOR|10=198|8=FIXT.1.1|9=63|35=0|34=1040|49=ACCEPTOR|52=20231129-09:00:58.131|56=INITIATOR|10=186|8=FIXT.1.1|9=63|35=0|34=1041|49=ACCEPTOR|52=20231129-09:00:59.015|56=INITIATOR|10=189|8=FIXT.1.1|9=63|35=0|34=1042|49=ACCEPTOR|52=20231129-09:01:00.228|56=INITIATOR|10=183|8=FIXT.1.1|9=63|35=0|34=1043|49=ACCEPTOR|52=20231129-09:01:01.035|56=INITIATOR|10=181|8=FIXT.1.1|9=63|35=0|34=1044|49=ACCEPTOR|52=20231129-09:01:02.241|56=INITIATOR|10=182|8=FIXT.1.1|9=63|35=0|34=1045|49=ACCEPTOR|52=20231129-09:01:03.045|56=INITIATOR|10=186|8=FIXT.1.1|9=63|35=0|34=1046|49=ACCEPTOR|52=20231129-09:01:04.244|56=INITIATOR|10=189|8=FIXT.1.1|9=63|35=0|34=1047|49=ACCEPTOR|52=20231129-09:01:05.043|56=INITIATOR|10=188|8=FIXT.1.1|9=63|35=0|34=1048|49=ACCEPTOR|52=20231129-09:01:06.236|56=INITIATOR|10=194|8=FIXT.1.1|9=63|35=0|34=1049|49=ACCEPTOR|52=20231129-09:01:07.031|56=INITIATOR|10=189|8=FIXT.1.1|9=63|35=0|34=1050|49=ACCEPTOR|52=20231129-09:01:08.219|56=INITIATOR|10=190|8=FIXT.1.1|9=63|35=0|34=1051|49=ACCEPTOR|52=20231129-09:01:09.009|56=INITIATOR|10=189|8=FIXT.1.1|9=63|35=0|34=1052|49=ACCEPTOR|52=20231129-09:01:10.192|56=INITIATOR|10=185|8=FIXT.1.1|9=63|35=0|34=1053|49=ACCEPTOR|52=20231129-09:01:11.066|56=INITIATOR|10=187|8=FIXT.1.1|9=63|35=0|34=1054|49=ACCEPTOR|52=20231129-09:01:12.241|56=INITIATOR|10=184|8=FIXT.1.1|9=63|35=0|34=1055|49=ACCEPTOR|52=20231129-09:01:13.024|56=INITIATOR|10=185|8=FIXT.1.1|9=63|35=0|34=1056|49=ACCEPTOR|52=20231129-09:01:14.194|56=INITIATOR|10=195|8=FIXT.1.1|9=63|35=0|34=1057|49=ACCEPTOR|52=20231129-09:01:15.064|56=INITIATOR|10=193|8=FIXT.1.1|9=63|35=0|34=1058|49=ACCEPTOR|52=20231129-09:01:16.228|56=INITIATOR|10=197|8=FIXT.1.1|9=63|35=0|34=1059|49=ACCEPTOR|52=20231129-09:01:17.002|56=INITIATOR|10=189|8=FIXT.1.1|9=63|35=0|34=1060|49=ACCEPTOR|52=20231129-09:01:18.160|56=INITIATOR|10=187|8=FIXT.1.1|9=63|35=0|34=1061|49=ACCEPTOR|52=20231129-09:01:19.029|56=INITIATOR|10=193|8=FIXT.1.1|9=63|35=0|34=1062|49=ACCEPTOR|52=20231129-09:01:20.180|56=INITIATOR|10=184|8=FIXT.1.1|9=63|35=0|34=1063|49=ACCEPTOR|52=20231129-09:01:21.045|56=INITIATOR|10=186|8=FIXT.1.1|9=63|35=0|34=1064|49=ACCEPTOR|52=20231129-09:01:22.191|56=INITIATOR|10=190|8=FIXT.1.1|9=63|35=0|34=1065|49=ACCEPTOR|52=20231129-09:01:23.056|56=INITIATOR|10=192|8=FIXT.1.1|9=63|35=0|34=1066|49=ACCEPTOR|52=20231129-09:01:24.198|56=INITIATOR|10=201|8=FIXT.1.1|9=63|35=0|34=1067|49=ACCEPTOR|52=20231129-09:01:25.060|56=INITIATOR|10=191|8=FIXT.1.1|9=63|35=0|34=1068|49=ACCEPTOR|52=20231129-09:01:26.196|56=INITIATOR|10=203|8=FIXT.1.1|9=63|35=0|34=1069|49=ACCEPTOR|52=20231129-09:01:27.058|56=INITIATOR|10=202|8=FIXT.1.1|9=63|35=0|34=1070|49=ACCEPTOR|52=20231129-09:01:28.188|56=INITIATOR|10=199|8=FIXT.1.1|9=63|35=0|34=1071|49=ACCEPTOR|52=20231129-09:01:29.048|56=INITIATOR|10=196|8=FIXT.1.1|9=63|35=0|34=1072|49=ACCEPTOR|52=20231129-09:01:30.172|56=INITIATOR|10=187|8=FIXT.1.1|9=63|35=0|34=1073|49=ACCEPTOR|52=20231129-09:01:31.031|56=INITIATOR|10=183|8=FIXT.1.1|9=63|35=0|34=1074|49=ACCEPTOR|52=20231129-09:01:32.149|56=INITIATOR|10=195|8=FIXT.1.1|9=63|35=0|34=1075|49=ACCEPTOR|52=20231129-09:01:33.006|56=INITIATOR|10=189|8=FIXT.1.1|9=63|35=0|34=1076|49=ACCEPTOR|52=20231129-09:01:34.119|56=INITIATOR|10=196|8=FIXT.1.1|9=63|35=0|34=1077|49=ACCEPTOR|52=20231129-09:01:35.229|56=INITIATOR|10=200|8=FIXT.1.1|9=63|35=0|34=1078|49=ACCEPTOR|52=20231129-09:01:36.083|56=INITIATOR|10=200|8=FIXT.1.1|9=63|35=0|34=1079|49=ACCEPTOR|52=20231129-09:01:37.187|56=INITIATOR|10=207|8=FIXT.1.1|9=63|35=0|34=1080|49=ACCEPTOR|52=20231129-09:01:38.041|56=INITIATOR|10=189|8=FIXT.1.1|9=63|35=0|34=1081|49=ACCEPTOR|52=20231129-09:01:39.138|56=INITIATOR|10=198|8=FIXT.1.1|9=63|35=0|34=1082|49=ACCEPTOR|52=20231129-09:01:40.232|56=INITIATOR|10=186|8=FIXT.1.1|9=63|35=0|34=1083|49=ACCEPTOR|52=20231129-09:01:41.083|56=INITIATOR|10=192|8=FIXT.1.1|9=63|35=0|34=1084|49=ACCEPTOR|52=20231129-09:01:42.169|56=INITIATOR|10=199|8=FIXT.1.1|9=63|35=0|34=1085|49=ACCEPTOR|52=20231129-09:01:43.018|56=INITIATOR|10=194|8=FIXT.1.1|9=63|35=0|34=1086|49=ACCEPTOR|52=20231129-09:01:44.097|56=INITIATOR|10=203|8=FIXT.1.1|9=63|35=0|34=1087|49=ACCEPTOR|52=20231129-09:01:45.175|56=INITIATOR|10=202|8=FIXT.1.1|9=63|35=0|34=1088|49=ACCEPTOR|52=20231129-09:01:46.020|56=INITIATOR|10=193|8=FIXT.1.1|9=63|35=0|34=1089|49=ACCEPTOR|52=20231129-09:01:47.090|56=INITIATOR|10=202|8=FIXT.1.1|9=63|35=0|34=1090|49=ACCEPTOR|52=20231129-09:01:48.156|56=INITIATOR|10=198|8=FIXT.1.1|9=63|35=0|34=1091|49=ACCEPTOR|52=20231129-09:01:49.219|56=INITIATOR|10=200|8=FIXT.1.1|9=63|35=0|34=1092|49=ACCEPTOR|52=20231129-09:01:50.060|56=INITIATOR|10=187|8=FIXT.1.1|9=63|35=0|34=1093|49=ACCEPTOR|52=20231129-09:01:51.118|56=INITIATOR|10=193|8=FIXT.1.1|9=63|35=0|34=1094|49=ACCEPTOR|52=20231129-09:01:52.172|56=INITIATOR|10=195|8=FIXT.1.1|9=63|35=0|34=1095|49=ACCEPTOR|52=20231129-09:01:53.012|56=INITIATOR|10=190|8=FIXT.1.1|9=63|35=0|34=1096|49=ACCEPTOR|52=20231129-09:01:54.061|56=INITIATOR|10=196|8=FIXT.1.1|9=63|35=0|34=1097|49=ACCEPTOR|52=20231129-09:01:55.107|56=INITIATOR|10=199|8=FIXT.1.1|9=63|35=0|34=1098|49=ACCEPTOR|52=20231129-09:01:56.152|56=INITIATOR|10=201|8=FIXT.1.1|9=63|35=0|34=1099|49=ACCEPTOR|52=20231129-09:01:57.193|56=INITIATOR|10=208|8=FIXT.1.1|9=63|35=0|34=1100|49=ACCEPTOR|52=20231129-09:01:58.030|56=INITIATOR|10=182|8=FIXT.1.1|9=63|35=0|34=1101|49=ACCEPTOR|52=20231129-09:01:59.064|56=INITIATOR|10=191|8=FIXT.1.1|9=63|35=0|34=1102|49=ACCEPTOR|52=20231129-09:02:00.096|56=INITIATOR|10=184|8=FIXT.1.1|9=63|35=0|34=1103|49=ACCEPTOR|52=20231129-09:02:01.124|56=INITIATOR|10=178|8=FIXT.1.1|9=63|35=0|34=1104|49=ACCEPTOR|52=20231129-09:02:02.150|56=INITIATOR|10=179|8=FIXT.1.1|9=63|35=0|34=1105|49=ACCEPTOR|52=20231129-09:02:03.172|56=INITIATOR|10=185|8=FIXT.1.1|9=63|35=0|34=1106|49=ACCEPTOR|52=20231129-09:02:04.004|56=INITIATOR|10=181|8=FIXT.1.1|9=63|35=0|34=1107|49=ACCEPTOR|52=20231129-09:02:05.017|56=INITIATOR|10=187|8=FIXT.1.1|9=63|35=0|34=1108|49=ACCEPTOR|52=20231129-09:02:06.027|56=INITIATOR|10=190|8=FIXT.1.1|9=63|35=0|34=1109|49=ACCEPTOR|52=20231129-09:02:07.035|56=INITIATOR|10=191|8=FIXT.1.1|9=63|35=0|34=1110|49=ACCEPTOR|52=20231129-09:02:08.040|56=INITIATOR|10=180|8=FIXT.1.1|9=63|35=0|34=1111|49=ACCEPTOR|52=20231129-09:02:09.041|56=INITIATOR|10=183|8=FIXT.1.1|9=63|35=0|34=1112|49=ACCEPTOR|52=20231129-09:02:10.040|56=INITIATOR|10=175|8=FIXT.1.1|9=63|35=0|34=1113|49=ACCEPTOR|52=20231129-09:02:11.035|56=INITIATOR|10=181|8=FIXT.1.1|9=63|35=0|34=1114|49=ACCEPTOR|52=20231129-09:02:12.028|56=INITIATOR|10=185|8=FIXT.1.1|9=63|35=0|34=1115|49=ACCEPTOR|52=20231129-09:02:13.020|56=INITIATOR|10=179|8=FIXT.1.1|9=63|35=0|34=1116|49=ACCEPTOR|52=20231129-09:02:14.009|56=INITIATOR|10=188|8=FIXT.1.1|9=63|35=0|34=1117|49=ACCEPTOR|52=20231129-09:02:15.325|56=INITIATOR|10=191|8=FIXT.1.1|9=63|35=0|34=1118|49=ACCEPTOR|52=20231129-09:02:16.147|56=INITIATOR|10=195|8=FIXT.1.1|9=63|35=0|34=1119|49=ACCEPTOR|52=20231129-09:02:17.129|56=INITIATOR|10=197|8=FIXT.1.1|9=63|35=0|34=1120|49=ACCEPTOR|52=20231129-09:02:18.107|56=INITIATOR|10=186|8=FIXT.1.1|9=63|35=0|34=1121|49=ACCEPTOR|52=20231129-09:02:19.082|56=INITIATOR|10=190|8=FIXT.1.1|9=63|35=0|34=1122|49=ACCEPTOR|52=20231129-09:02:20.054|56=INITIATOR|10=182|8=FIXT.1.1|9=63|35=0|34=1123|49=ACCEPTOR|52=20231129-09:02:21.023|56=INITIATOR|10=180|8=FIXT.1.1|9=63|35=0|34=1124|49=ACCEPTOR|52=20231129-09:02:22.312|56=INITIATOR|10=183|8=FIXT.1.1|9=63|35=0|34=1125|49=ACCEPTOR|52=20231129-09:02:23.130|56=INITIATOR|10=183|8=FIXT.1.1|9=63|35=0|34=1126|49=ACCEPTOR|52=20231129-09:02:24.092|56=INITIATOR|10=192|8=FIXT.1.1|9=63|35=0|34=1127|49=ACCEPTOR|52=20231129-09:02:25.051|56=INITIATOR|10=189|8=FIXT.1.1|9=63|35=0|34=1128|49=ACCEPTOR|52=20231129-09:02:26.008|56=INITIATOR|10=193|8=FIXT.1.1|9=63|35=0|34=1129|49=ACCEPTOR|52=20231129-09:02:27.278|56=INITIATOR|10=204|8=FIXT.1.1|9=63|35=0|34=1130|49=ACCEPTOR|52=20231129-09:02:28.091|56=INITIATOR|10=190|8=FIXT.1.1|9=63|35=0|34=1131|49=ACCEPTOR|52=20231129-09:02:29.040|56=INITIATOR|10=186|8=FIXT.1.1|9=63|35=0|34=1132|49=ACCEPTOR|52=20231129-09:02:30.301|56=INITIATOR|10=179|8=FIXT.1.1|9=63|35=0|34=1133|49=ACCEPTOR|52=20231129-09:02:31.112|56=INITIATOR|10=181|8=FIXT.1.1|9=63|35=0|34=1134|49=ACCEPTOR|52=20231129-09:02:32.053|56=INITIATOR|10=187|8=FIXT.1.1|9=63|35=0|34=1135|49=ACCEPTOR|52=20231129-09:02:33.303|56=INITIATOR|10=187|8=FIXT.1.1|9=63|35=0|34=1136|49=ACCEPTOR|52=20231129-09:02:34.112|56=INITIATOR|10=187|8=FIXT.1.1|9=63|35=0|34=1137|49=ACCEPTOR|52=20231129-09:02:35.046|56=INITIATOR|10=195|8=FIXT.1.1|9=63|35=0|34=1138|49=ACCEPTOR|52=20231129-09:02:36.288|56=INITIATOR|10=205|8=FIXT.1.1|9=63|35=0|34=1139|49=ACCEPTOR|52=20231129-09:02:37.096|56=INITIATOR|10=204|8=FIXT.1.1|9=63|35=0|34=1140|49=ACCEPTOR|52=20231129-09:02:38.021|56=INITIATOR|10=185|8=FIXT.1.1|9=63|35=0|34=1141|49=ACCEPTOR|52=20231129-09:02:39.252|56=INITIATOR|10=193|8=FIXT.1.1|9=63|35=0|34=1142|49=ACCEPTOR|52=20231129-09:02:40.058|56=INITIATOR|10=190|8=FIXT.1.1|9=63|35=0|34=1143|49=ACCEPTOR|52=20231129-09:02:41.281|56=INITIATOR|10=190|8=FIXT.1.1|9=63|35=0|34=1144|49=ACCEPTOR|52=20231129-09:02:42.086|56=INITIATOR|10=195|8=FIXT.1.1|9=63|35=0|34=1145|49=ACCEPTOR|52=20231129-09:02:43.300|56=INITIATOR|10=186|8=FIXT.1.1|9=63|35=0|34=1146|49=ACCEPTOR|52=20231129-09:02:44.104|56=INITIATOR|10=190|8=FIXT.1.1|9=63|35=0|34=1147|49=ACCEPTOR|52=20231129-09:02:45.009|56=INITIATOR|10=196|8=FIXT.1.1|9=63|35=0|34=1148|49=ACCEPTOR|52=20231129-09:02:46.212|56=INITIATOR|10=194|8=FIXT.1.1|9=63|35=0|34=1149|49=ACCEPTOR|52=20231129-09:02:47.013|56=INITIATOR|10=195|8=FIXT.1.1|9=63|35=0|34=1150|49=ACCEPTOR|52=20231129-09:02:48.207|56=INITIATOR|10=193|8=FIXT.1.1|9=63|35=0|34=1151|49=ACCEPTOR|52=20231129-09:02:49.007|56=INITIATOR|10=193|8=FIXT.1.1|9=63|35=0|34=1152|49=ACCEPTOR|52=20231129-09:02:50.193|56=INITIATOR|10=192|8=FIXT.1.1|9=63|35=0|34=1153|49=ACCEPTOR|52=20231129-09:02:51.081|56=INITIATOR|10=190|8=FIXT.1.1|9=63|35=0|34=1154|49=ACCEPTOR|52=20231129-09:02:52.260|56=INITIATOR|10=191|8=FIXT.1.1|9=63|35=0|34=1155|49=ACCEPTOR|52=20231129-09:02:53.056|56=INITIATOR|10=196|8=FIXT.1.1|9=63|35=0|34=1156|49=ACCEPTOR|52=20231129-09:02:54.229|56=INITIATOR|10=200|8=FIXT.1.1|9=63|35=0|34=1157|49=ACCEPTOR|52=20231129-09:02:55.024|56=INITIATOR|10=195|8=FIXT.1.1|9=63|35=0|34=1158|49=ACCEPTOR|52=20231129-09:02:56.190|56=INITIATOR|10=201|8=FIXT.1.1|9=63|35=0|34=1159|49=ACCEPTOR|52=20231129-09:02:57.063|56=INITIATOR|10=202|8=FIXT.1.1|9=63|35=0|34=1160|49=ACCEPTOR|52=20231129-09:02:58.218|56=INITIATOR|10=197|8=FIXT.1.1|9=63|35=0|34=1161|49=ACCEPTOR|52=20231129-09:02:59.011|56=INITIATOR|10=190|8=FIXT.1.1|9=63|35=0|34=1162|49=ACCEPTOR|52=20231129-09:03:00.157|56=INITIATOR|10=189|8=FIXT.1.1|9=63|35=0|34=1163|49=ACCEPTOR|52=20231129-09:03:01.013|56=INITIATOR|10=182|8=FIXT.1.1|9=63|35=0|34=1164|49=ACCEPTOR|52=20231129-09:03:02.149|56=INITIATOR|10=194|8=FIXT.1.1|9=63|35=0|34=1165|49=ACCEPTOR|52=20231129-09:03:03.280|56=INITIATOR|10=192|8=FIXT.1.1|9=63|35=0|34=1166|49=ACCEPTOR|52=20231129-09:03:04.067|56=INITIATOR|10=197|8=FIXT.1.1|9=63|35=0|34=1167|49=ACCEPTOR|52=20231129-09:03:05.190|56=INITIATOR|10=196|8=FIXT.1.1|9=63|35=0|34=1168|49=ACCEPTOR|52=20231129-09:03:06.030|56=INITIATOR|10=191|8=FIXT.1.1|9=63|35=0|34=1169|49=ACCEPTOR|52=20231129-09:03:07.145|56=INITIATOR|10=200|8=FIXT.1.1|9=63|35=0|34=1170|49=ACCEPTOR|52=20231129-09:03:08.254|56=INITIATOR|10=194|8=FIXT.1.1|9=63|35=0|34=1171|49=ACCEPTOR|52=20231129-09:03:09.039|56=INITIATOR|10=197|8=FIXT.1.1|9=63|35=0|34=1172|49=ACCEPTOR|52=20231129-09:03:10.137|56=INITIATOR|10=189|8=FIXT.1.1|9=63|35=0|34=1173|49=ACCEPTOR|52=20231129-09:03: