8=FIXT.1.1|9=95|35=A|34=1|49=ACCEPTOR|52=20231130-08:23:15.641|56=INITIATOR|98=0|108=1|141=Y|1137=spec/FIX.5.0|10=215|8=FIXT.1.1|9=60|35=0|34=2|49=ACCEPTOR|52=20231130-08:23:16.639|56=INITIATOR|10=039|8=FIXT.1.1|9=60|35=0|34=3|49=ACCEPTOR|52=20231130-08:23:17.637|56=INITIATOR|10=039|8=FIXT.1.1|9=60|35=0|34=4|49=ACCEPTOR|52=20231130-08:23:18.635|56=INITIATOR|10=039|8=FIXT.1.1|9=60|35=0|34=5|49=ACCEPTOR|52=20231130-08:23:19.632|56=INITIATOR|10=038|8=FIXT.1.1|9=60|35=0|34=6|49=ACCEPTOR|52=20231130-08:23:20.629|56=INITIATOR|10=037|8=FIXT.1.1|9=60|35=0|34=7|49=ACCEPTOR|52=20231130-08:23:21.624|56=INITIATOR|10=034|8=FIXT.1.1|9=60|35=0|34=8|49=ACCEPTOR|52=20231130-08:23:22.618|56=INITIATOR|10=039|8=FIXT.1.1|9=60|35=0|34=9|49=ACCEPTOR|52=20231130-08:23:23.611|56=INITIATOR|10=034|8=FIXT.1.1|9=61|35=0|34=10|49=ACCEPTOR|52=20231130-08:23:24.603|56=INITIATOR|10=077|8=FIXT.1.1|9=61|35=0|34=11|49=ACCEPTOR|52=20231130-08:23:25.594|56=INITIATOR|10=088|8=FIXT.1.1|9=61|35=0|34=12|49=ACCEPTOR|52=20231130-08:23:26.582|56=INITIATOR|10=087|8=FIXT.1.1|9=61|35=0|34=13|49=ACCEPTOR|52=20231130-08:23:27.571|56=INITIATOR|10=087|8=FIXT.1.1|9=61|35=0|34=14|49=ACCEPTOR|52=20231130-08:23:28.558|56=INITIATOR|10=094|8=FIXT.1.1|9=61|35=0|34=15|49=ACCEPTOR|52=20231130-08:23:29.544|56=INITIATOR|10=091|8=FIXT.1.1|9=61|35=0|34=16|49=ACCEPTOR|52=20231130-08:23:30.530|56=INITIATOR|10=079|8=FIXT.1.1|9=61|35=0|34=17|49=ACCEPTOR|52=20231130-08:23:31.514|56=INITIATOR|10=083|8=FIXT.1.1|9=61|35=0|34=18|49=ACCEPTOR|52=20231130-08:23:32.497|56=INITIATOR|10=095|8=FIXT.1.1|9=61|35=0|34=19|49=ACCEPTOR|52=20231130-08:23:33.479|56=INITIATOR|10=097|8=FIXT.1.1|9=61|35=0|34=20|49=ACCEPTOR|52=20231130-08:23:34.460|56=INITIATOR|10=080|8=FIXT.1.1|9=61|35=0|34=21|49=ACCEPTOR|52=20231130-08:23:35.439|56=INITIATOR|10=088|8=FIXT.1.1|9=61|35=0|34=22|49=ACCEPTOR|52=20231130-08:23:36.417|56=INITIATOR|10=086|8=FIXT.1.1|9=61|35=0|34=23|49=ACCEPTOR|52=20231130-08:23:37.395|56=INITIATOR|10=093|8=FIXT.1.1|9=61|35=0|34=24|49=ACCEPTOR|52=20231130-08:23:38.371|56=INITIATOR|10=089|8=FIXT.1.1|9=61|35=0|34=25|49=ACCEPTOR|52=20231130-08:23:39.347|56=INITIATOR|10=094|8=FIXT.1.1|9=61|35=0|34=26|49=ACCEPTOR|52=20231130-08:23:40.322|56=INITIATOR|10=080|8=FIXT.1.1|9=61|35=0|34=27|49=ACCEPTOR|52=20231130-08:23:41.296|56=INITIATOR|10=092|8=FIXT.1.1|9=61|35=0|34=28|49=ACCEPTOR|52=20231130-08:23:42.269|56=INITIATOR|10=094|8=FIXT.1.1|9=61|35=0|34=29|49=ACCEPTOR|52=20231130-08:23:43.240|56=INITIATOR|10=085|8=FIXT.1.1|9=61|35=0|34=30|49=ACCEPTOR|52=20231130-08:23:44.210|56=INITIATOR|10=075|8=FIXT.1.1|9=61|35=0|34=31|49=ACCEPTOR|52=20231130-08:23:45.179|56=INITIATOR|10=091|8=FIXT.1.1|9=61|35=0|34=32|49=ACCEPTOR|52=20231130-08:23:46.147|56=INITIATOR|10=088|8=FIXT.1.1|9=61|35=0|34=33|49=ACCEPTOR|52=20231130-08:23:47.113|56=INITIATOR|10=083|8=FIXT.1.1|9=61|35=0|34=34|49=ACCEPTOR|52=20231130-08:23:48.078|56=INITIATOR|10=095|8=FIXT.1.1|9=61|35=0|34=35|49=ACCEPTOR|52=20231130-08:23:49.042|56=INITIATOR|10=088|8=FIXT.1.1|9=61|35=0|34=36|49=ACCEPTOR|52=20231130-08:23:50.005|56=INITIATOR|10=080|8=FIXT.1.1|9=61|35=0|34=37|49=ACCEPTOR|52=20231130-08:23:51.926|56=INITIATOR|10=094|8=FIXT.1.1|9=61|35=0|34=38|49=ACCEPTOR|52=20231130-08:23:52.886|56=INITIATOR|10=101|8=FIXT.1.1|9=61|35=0|34=39|49=ACCEPTOR|52=20231130-08:23:53.844|56=INITIATOR|10=097|8=FIXT.1.1|9=61|35=0|34=40|49=ACCEPTOR|52=20231130-08:23:54.802|56=INITIATOR|10=084|8=FIXT.1.1|9=61|35=0|34=41|49=ACCEPTOR|52=20231130-08:23:55.760|56=INITIATOR|10=089|8=FIXT.1.1|9=61|35=0|34=42|49=ACCEPTOR|52=20231130-08:23:56.717|56=INITIATOR|10=093|8=FIXT.1.1|9=61|35=0|34=43|49=ACCEPTOR|52=20231130-08:23:57.672|56=INITIATOR|10=095|8=FIXT.1.1|9=61|35=0|34=44|49=ACCEPTOR|52=20231130-08:23:58.626|56=INITIATOR|10=096|8=FIXT.1.1|9=61|35=0|34=45|49=ACCEPTOR|52=20231130-08:23:59.577|56=INITIATOR|10=103|8=FIXT.1.1|9=61|35=0|34=46|49=ACCEPTOR|52=20231130-08:24:00.528|56=INITIATOR|10=087|8=FIXT.1.1|9=61|35=0|34=47|49=ACCEPTOR|52=20231130-08:24:01.478|56=INITIATOR|10=093|8=FIXT.1.1|9=61|35=0|34=48|49=ACCEPTOR|52=20231130-08:24:02.425|56=INITIATOR|10=087|8=FIXT.1.1|9=61|35=0|34=49|49=ACCEPTOR|52=20231130-08:24:03.373|56=INITIATOR|10=091|8=FIXT.1.1|9=61|35=0|34=50|49=ACCEPTOR|52=20231130-08:24:04.320|56=INITIATOR|10=076|8=FIXT.1.1|9=61|35=0|34=51|49=ACCEPTOR|52=20231130-08:24:05.266|56=INITIATOR|10=087|8=FIXT.1.1|9=61|35=0|34=52|49=ACCEPTOR|52=20231130-08:24:06.210|56=INITIATOR|10=078|8=FIXT.1.1|9=61|35=0|34=53|49=ACCEPTOR|52=20231130-08:24:07.152|56=INITIATOR|10=085|8=FIXT.1.1|9=61|35=0|34=54|49=ACCEPTOR|52=20231130-08:24:08.094|56=INITIATOR|10=092|8=FIXT.1.1|9=61|35=0|34=55|49=ACCEPTOR|52=20231130-08:24:09.035|56=INITIATOR|10=089|8=FIXT.1.1|9=61|35=0|34=56|49=ACCEPTOR|52=20231130-08:24:10.914|56=INITIATOR|10=088|8=FIXT.1.1|9=61|35=0|34=57|49=ACCEPTOR|52=20231130-08:24:11.854|56=INITIATOR|10=093|8=FIXT.1.1|9=61|35=0|34=58|49=ACCEPTOR|52=20231130-08:24:12.791|56=INITIATOR|10=095|8=FIXT.1.1|9=61|35=0|34=59|49=ACCEPTOR|52=20231130-08:24:13.728|56=INITIATOR|10=097|8=FIXT.1.1|9=61|35=0|34=60|49=ACCEPTOR|52=20231130-08:24:14.665|56=INITIATOR|10=090|8=FIXT.1.1|9=61|35=0|34=61|49=ACCEPTOR|52=20231130-08:24:15.602|56=INITIATOR|10=083|8=FIXT.1.1|9=61|35=0|34=62|49=ACCEPTOR|52=20231130-08:24:16.537|56=INITIATOR|10=092|8=FIXT.1.1|9=61|35=0|34=63|49=ACCEPTOR|52=20231130-08:24:17.472|56=INITIATOR|10=092|8=FIXT.1.1|9=61|35=0|34=64|49=ACCEPTOR|52=20231130-08:24:18.407|56=INITIATOR|10=092|8=FIXT.1.1|9=61|35=0|34=65|49=ACCEPTOR|52=20231130-08:24:19.341|56=INITIATOR|10=091|8=FIXT.1.1|9=61|35=0|34=66|49=ACCEPTOR|52=20231130-08:24:20.274|56=INITIATOR|10=089|8=FIXT.1.1|9=61|35=0|34=67|49=ACCEPTOR|52=20231130-08:24:21.206|56=INITIATOR|10=086|8=FIXT.1.1|9=61|35=0|34=68|49=ACCEPTOR|52=20231130-08:24:22.137|56=INITIATOR|10=091|8=FIXT.1.1|9=61|35=0|34=69|49=ACCEPTOR|52=20231130-08:24:23.065|56=INITIATOR|10=093|8=FIXT.1.1|9=61|35=0|34=70|49=ACCEPTOR|52=20231130-08:24:24.010|56=INITIATOR|10=076|8=FIXT.1.1|9=61|35=0|34=71|49=ACCEPTOR|52=20231130-08:24:25.862|56=INITIATOR|10=093|8=FIXT.1.1|9=61|35=0|34=72|49=ACCEPTOR|52=20231130-08:24:26.788|56=INITIATOR|10=102|8=FIXT.1.1|9=61|35=0|34=73|49=ACCEPTOR|52=20231130-08:24:27.714|56=INITIATOR|10=093|8=FIXT.1.1|9=61|35=0|34=74|49=ACCEPTOR|52=20231130-08:24:28.638|56=INITIATOR|10=100|8=FIXT.1.1|9=61|35=0|34=75|49=ACCEPTOR|52=20231130-08:24:29.561|56=INITIATOR|10=097|8=FIXT.1.1|9=61|35=0|34=76|49=ACCEPTOR|52=20231130-08:24:30.483|56=INITIATOR|10=093|8=FIXT.1.1|9=61|35=0|34=77|49=ACCEPTOR|52=20231130-08:24:31.404|56=INITIATOR|10=088|8=FIXT.1.1|9=61|35=0|34=78|49=ACCEPTOR|52=20231130-08:24:32.325|56=INITIATOR|10=092|8=FIXT.1.1|9=61|35=0|34=79|49=ACCEPTOR|52=20231130-08:24:33.245|56=INITIATOR|10=095|8=FIXT.1.1|9=61|35=0|34=80|49=ACCEPTOR|52=20231130-08:24:34.163|56=INITIATOR|10=087|8=FIXT.1.1|9=61|35=0|34=81|49=ACCEPTOR|52=20231130-08:24:35.080|56=INITIATOR|10=087|8=FIXT.1.1|9=61|35=0|34=82|49=ACCEPTOR|52=20231130-08:24:36.016|56=INITIATOR|10=088|8=FIXT.1.1|9=61|35=0|34=83|49=ACCEPTOR|52=20231130-08:24:37.840|56=INITIATOR|10=095|8=FIXT.1.1|9=61|35=0|34=84|49=ACCEPTOR|52=20231130-08:24:38.753|56=INITIATOR|10=100|8=FIXT.1.1|9=61|35=0|34=85|49=ACCEPTOR|52=20231130-08:24:39.663|56=INITIATOR|10=102|8=FIXT.1.1|9=61|35=0|34=86|49=ACCEPTOR|52=20231130-08:24:40.574|56=INITIATOR|10=096|8=FIXT.1.1|9=61|35=0|34=87|49=ACCEPTOR|52=20231130-08:24:41.483|56=INITIATOR|10=097|8=FIXT.1.1|9=61|35=0|34=88|49=ACCEPTOR|52=20231130-08:24:42.391|56=INITIATOR|10=097|8=FIXT.1.1|9=61|35=0|34=89|49=ACCEPTOR|52=20231130-08:24:43.299|56=INITIATOR|10=106|8=FIXT.1.1|9=61|35=0|34=90|49=ACCEPTOR|52=20231130-08:24:44.205|56=INITIATOR|10=086|8=FIXT.1.1|9=61|35=0|34=91|49=ACCEPTOR|52=20231130-08:24:45.111|56=INITIATOR|10=084|8=FIXT.1.1|9=61|35=0|34=92|49=ACCEPTOR|52=20231130-08:24:46.014|56=INITIATOR|10=088|8=FIXT.1.1|9=61|35=0|34=93|49=ACCEPTOR|52=20231130-08:24:47.816|56=INITIATOR|10=100|8=FIXT.1.1|9=61|35=0|34=94|49=ACCEPTOR|52=20231130-08:24:48.717|56=INITIATOR|10=102|8=FIXT.1.1|9=61|35=0|34=95|49=ACCEPTOR|52=20231130-08:24:49.616|56=INITIATOR|10=102|8=FIXT.1.1|9=61|35=0|34=96|49=ACCEPTOR|52=20231130-08:24:50.513|56=INITIATOR|10=091|8=FIXT.1.1|9=61|35=0|34=97|49=ACCEPTOR|52=20231130-08:24:51.410|56=INITIATOR|10=089|8=FIXT.1.1|9=61|35=0|34=98|49=ACCEPTOR|52=20231130-08:24:52.306|56=INITIATOR|10=095|8=FIXT.1.1|9=61|35=0|34=99|49=ACCEPTOR|52=20231130-08:24:53.200|56=INITIATOR|10=090|8=FIXT.1.1|9=62|35=0|34=100|49=ACCEPTOR|52=20231130-08:24:54.092|56=INITIATOR|10=132|8=FIXT.1.1|9=62|35=0|34=101|49=ACCEPTOR|52=20231130-08:24:55.008|56=INITIATOR|10=131|8=FIXT.1.1|9=62|35=0|34=102|49=ACCEPTOR|52=20231130-08:24:56.786|56=INITIATOR|10=146|8=FIXT.1.1|9=62|35=0|34=103|49=ACCEPTOR|52=20231130-08:24:57.676|56=INITIATOR|10=146|8=FIXT.1.1|9=62|35=0|34=104|49=ACCEPTOR|52=20231130-08:24:58.565|56=INITIATOR|10=145|8=FIXT.1.1|9=62|35=0|34=105|49=ACCEPTOR|52=20231130-08:24:59.450|56=INITIATOR|10=140|8=FIXT.1.1|9=62|35=0|34=106|49=ACCEPTOR|52=20231130-08:25:00.334|56=INITIATOR|10=129|8=FIXT.1.1|9=62|35=0|34=107|49=ACCEPTOR|52=20231130-08:25:01.218|56=INITIATOR|10=132|8=FIXT.1.1|9=62|35=0|34=108|49=ACCEPTOR|52=20231130-08:25:02.101|56=INITIATOR|10=125|8=FIXT.1.1|9=62|35=0|34=109|49=ACCEPTOR|52=20231130-08:25:03.008|56=INITIATOR|10=133|8=FIXT.1.1|9=62|35=0|34=110|49=ACCEPTOR|52=20231130-08:25:04.767|56=INITIATOR|10=138|8=FIXT.1.1|9=62|35=0|34=111|49=ACCEPTOR|52=20231130-08:25:05.647|56=INITIATOR|10=137|8=FIXT.1.1|9=62|35=0|34=112|49=ACCEPTOR|52=20231130-08:25:06.525|56=INITIATOR|10=134|8=FIXT.1.1|9=62|35=0|34=113|49=ACCEPTOR|52=20231130-08:25:07.402|56=INITIATOR|10=130|8=FIXT.1.1|9=62|35=0|34=114|49=ACCEPTOR|52=20231130-08:25:08.278|56=INITIATOR|10=143|8=FIXT.1.1|9=62|35=0|34=115|49=ACCEPTOR|52=20231130-08:25:09.152|56=INITIATOR|10=136|8=FIXT.1.1|9=62|35=0|34=116|49=ACCEPTOR|52=20231130-08:25:10.024|56=INITIATOR|10=127|8=FIXT.1.1|9=62|35=0|34=117|49=ACCEPTOR|52=20231130-08:25:11.769|56=INITIATOR|10=145|8=FIXT.1.1|9=62|35=0|34=118|49=ACCEPTOR|52=20231130-08:25:12.641|56=INITIATOR|10=136|8=FIXT.1.1|9=62|35=0|34=119|49=ACCEPTOR|52=20231130-08:25:13.512|56=INITIATOR|10=135|8=FIXT.1.1|9=62|35=0|34=120|49=ACCEPTOR|52=20231130-08:25:14.382|56=INITIATOR|10=133|8=FIXT.1.1|9=62|35=0|34=121|49=ACCEPTOR|52=20231130-08:25:15.251|56=INITIATOR|10=130|8=FIXT.1.1|9=62|35=0|34=122|49=ACCEPTOR|52=20231130-08:25:16.118|56=INITIATOR|10=134|8=FIXT.1.1|9=62|35=0|34=123|49=ACCEPTOR|52=20231130-08:25:17.015|56=INITIATOR|10=132|8=FIXT.1.1|9=62|35=0|34=124|49=ACCEPTOR|52=20231130-08:25:18.741|56=INITIATOR|10=140|8=FIXT.1.1|9=62|35=0|34=125|49=ACCEPTOR|52=20231130-08:25:19.603|56=INITIATOR|10=139|8=FIXT.1.1|9=62|35=0|34=126|49=ACCEPTOR|52=20231130-08:25:20.466|56=INITIATOR|10=139|8=FIXT.1.1|9=62|35=0|34=127|49=ACCEPTOR|52=20231130-08:25:21.327|56=INITIATOR|10=137|8=FIXT.1.1|9=62|35=0|34=128|49=ACCEPTOR|52=20231130-08:25:22.188|56=INITIATOR|10=144|8=FIXT.1.1|9=62|35=0|34=129|49=ACCEPTOR|52=20231130-08:25:23.049|56=INITIATOR|10=142|8=FIXT.1.1|9=62|35=0|34=130|49=ACCEPTOR|52=20231130-08:25:24.765|56=INITIATOR|10=140|8=FIXT.1.1|9=62|35=0|34=131|49=ACCEPTOR|52=20231130-08:25:25.623|56=INITIATOR|10=135|8=FIXT.1.1|9=62|35=0|34=132|49=ACCEPTOR|52=20231130-08:25:26.479|56=INITIATOR|10=146|8=FIXT.1.1|9=62|35=0|34=133|49=ACCEPTOR|52=20231130-08:25:27.335|56=INITIATOR|10=139|8=FIXT.1.1|9=62|35=0|34=134|49=ACCEPTOR|52=20231130-08:25:28.191|56=INITIATOR|10=141|8=FIXT.1.1|9=62|35=0|34=135|49=ACCEPTOR|52=20231130-08:25:29.045|56=INITIATOR|10=141|8=FIXT.1.1|9=62|35=0|34=136|49=ACCEPTOR|52=20231130-08:25:30.749|56=INITIATOR|10=145|8=FIXT.1.1|9=62|35=0|34=137|49=ACCEPTOR|52=20231130-08:25:31.600|56=INITIATOR|10=133|8=FIXT.1.1|9=62|35=0|34=138|49=ACCEPTOR|52=20231130-08:25:32.449|56=INITIATOR|10=146|8=FIXT.1.1|9=62|35=0|34=139|49=ACCEPTOR|52=20231130-08:25:33.298|56=INITIATOR|10=150|8=FIXT.1.1|9=62|35=0|34=140|49=ACCEPTOR|52=20231130-08:25:34.146|56=INITIATOR|10=135|8=FIXT.1.1|9=62|35=0|34=141|49=ACCEPTOR|52=20231130-08:25:35.026|56=INITIATOR|10=134|8=FIXT.1.1|9=62|35=0|34=142|49=ACCEPTOR|52=20231130-08:25:36.713|56=INITIATOR|10=139|8=FIXT.1.1|9=62|35=0|34=143|49=ACCEPTOR|52=20231130-08:25:37.557|56=INITIATOR|10=147|8=FIXT.1.1|9=62|35=0|34=144|49=ACCEPTOR|52=20231130-08:25:38.399|56=INITIATOR|10=153|8=FIXT.1.1|9=62|35=0|34=145|49=ACCEPTOR|52=20231130-08:25:39.240|56=INITIATOR|10=140|8=FIXT.1.1|9=62|35=0|34=146|49=ACCEPTOR|52=20231130-08:25:40.080|56=INITIATOR|10=135|8=FIXT.1.1|9=62|35=0|34=147|49=ACCEPTOR|52=20231130-08:25:41.756|56=INITIATOR|10=147|8=FIXT.1.1|9=62|35=0|34=148|49=ACCEPTOR|52=20231130-08:25:42.594|56=INITIATOR|10=149|8=FIXT.1.1|9=62|35=0|34=149|49=ACCEPTOR|52=20231130-08:25:43.430|56=INITIATOR|10=140|8=FIXT.1.1|9=62|35=0|34=150|49=ACCEPTOR|52=20231130-08:25:44.264|56=INITIATOR|10=138|8=FIXT.1.1|9=62|35=0|34=151|49=ACCEPTOR|52=20231130-08:25:45.098|56=INITIATOR|10=145|8=FIXT.1.1|9=62|35=0|34=152|49=ACCEPTOR|52=20231130-08:25:46.763|56=INITIATOR|10=146|8=FIXT.1.1|9=62|35=0|34=153|49=ACCEPTOR|52=20231130-08:25:47.595|56=INITIATOR|10=151|8=FIXT.1.1|9=62|35=0|34=154|49=ACCEPTOR|52=20231130-08:25:48.426|56=INITIATOR|10=146|8=FIXT.1.1|9=62|35=0|34=155|49=ACCEPTOR|52=20231130-08:25:49.256|56=INITIATOR|10=149|8=FIXT.1.1|9=62|35=0|34=156|49=ACCEPTOR|52=20231130-08:25:50.084|56=INITIATOR|10=141|8=FIXT.1.1|9=62|35=0|34=157|49=ACCEPTOR|52=20231130-08:25:51.739|56=INITIATOR|10=150|8=FIXT.1.1|9=62|35=0|34=158|49=ACCEPTOR|52=20231130-08:25:52.566|56=INITIATOR|10=150|8=FIXT.1.1|9=62|35=0|34=159|49=ACCEPTOR|52=20231130-08:25:53.391|56=INITIATOR|10=148|8=FIXT.1.1|9=62|35=0|34=160|49=ACCEPTOR|52=20231130-08:25:54.214|56=INITIATOR|10=135|8=FIXT.1.1|9=62|35=0|34=161|49=ACCEPTOR|52=20231130-08:25:55.037|56=INITIATOR|10=140|8=FIXT.1.1|9=62|35=0|34=162|49=ACCEPTOR|52=20231130-08:25:56.682|56=INITIATOR|10=148|8=FIXT.1.1|9=62|35=0|34=163|49=ACCEPTOR|52=20231130-08:25:57.504|56=INITIATOR|10=143|8=FIXT.1.1|9=62|35=0|34=164|49=ACCEPTOR|52=20231130-08:25:58.325|56=INITIATOR|10=146|8=FIXT.1.1|9=62|35=0|34=165|49=ACCEPTOR|52=20231130-08:25:59.144|56=INITIATOR|10=147|8=FIXT.1.1|9=62|35=0|34=166|49=ACCEPTOR|52=20231130-08:26:00.003|56=INITIATOR|10=129|8=FIXT.1.1|9=62|35=0|34=167|49=ACCEPTOR|52=20231130-08:26:01.633|56=INITIATOR|10=140|8=FIXT.1.1|9=62|35=0|34=168|49=ACCEPTOR|52=20231130-08:26:02.447|56=INITIATOR|10=145|8=FIXT.1.1|9=62|35=0|34=169|49=ACCEPTOR|52=20231130-08:26:03.263|56=INITIATOR|10=143|8=FIXT.1.1|9=62|35=0|34=170|49=ACCEPTOR|52=20231130-08:26:04.075|56=INITIATOR|10=137|8=FIXT.1.1|9=62|35=0|34=171|49=ACCEPTOR|52=20231130-08:26:05.696|56=INITIATOR|10=148|8=FIXT.1.1|9=62|35=0|34=172|49=ACCEPTOR|52=20231130-08:26:06.506|56=INITIATOR|10=140|8=FIXT.1.1|9=62|35=0|34=173|49=ACCEPTOR|52=20231130-08:26:07.315|56=INITIATOR|10=140|8=FIXT.1.1|9=62|35=0|34=174|49=ACCEPTOR|52=20231130-08:26:08.121|56=INITIATOR|10=137|8=FIXT.1.1|9=62|35=0|34=175|49=ACCEPTOR|52=20231130-08:26:09.731|56=INITIATOR|10=146|8=FIXT.1.1|9=62|35=0|34=176|49=ACCEPTOR|52=20231130-08:26:10.535|56=INITIATOR|10=141|8=FIXT.1.1|9=62|35=0|34=177|49=ACCEPTOR|52=20231130-08:26:11.339|56=INITIATOR|10=145|8=FIXT.1.1|9=62|35=0|34=178|49=ACCEPTOR|52=20231130-08:26:12.141|56=INITIATOR|10=138|8=FIXT.1.1|9=62|35=0|34=179|49=ACCEPTOR|52=20231130-08:26:13.739|56=INITIATOR|10=153|8=FIXT.1.1|9=62|35=0|34=180|49=ACCEPTOR|52=20231130-08:26:14.538|56=INITIATOR|10=143|8=FIXT.1.1|9=62|35=0|34=181|49=ACCEPTOR|52=20231130-08:26:15.336|56=INITIATOR|10=141|8=FIXT.1.1|9=62|35=0|34=182|49=ACCEPTOR|52=20231130-08:26:16.133|56=INITIATOR|10=138|8=FIXT.1.1|9=62|35=0|34=183|49=ACCEPTOR|52=20231130-08:26:17.723|56=INITIATOR|10=145|8=FIXT.1.1|9=62|35=0|34=184|49=ACCEPTOR|52=20231130-08:26:18.518|56=INITIATOR|10=149|8=FIXT.1.1|9=62|35=0|34=185|49=ACCEPTOR|52=20231130-08:26:19.311|56=INITIATOR|10=142|8=FIXT.1.1|9=62|35=0|34=186|49=ACCEPTOR|52=20231130-08:26:20.103|56=INITIATOR|10=134|8=FIXT.1.1|9=62|35=0|34=187|49=ACCEPTOR|52=20231130-08:26:21.682|56=INITIATOR|10=148|8=FIXT.1.1|9=62|35=0|34=188|49=ACCEPTOR|52=20231130-08:26:22.470|56=INITIATOR|10=145|8=FIXT.1.1|9=62|35=0|34=189|49=ACCEPTOR|52=20231130-08:26:23.258|56=INITIATOR|10=151|8=FIXT.1.1|9=62|35=0|34=190|49=ACCEPTOR|52=20231130-08:26:24.043|56=INITIATOR|10=136|8=FIXT.1.1|9=62|35=0|34=191|49=ACCEPTOR|52=20231130-08:26:25.613|56=INITIATOR|10=141|8=FIXT.1.1|9=62|35=0|34=192|49=ACCEPTOR|52=20231130-08:26:26.396|56=INITIATOR|10=151|8=FIXT.1.1|9=62|35=0|34=193|49=ACCEPTOR|52=20231130-08:26:27.179|56=INITIATOR|10=152|8=FIXT.1.1|9=62|35=0|34=194|49=ACCEPTOR|52=20231130-08:26:28.009|56=INITIATOR|10=146|8=FIXT.1.1|9=62|35=0|34=195|49=ACCEPTOR|52=20231130-08:26:29.569|56=INITIATOR|10=159|8=FIXT.1.1|9=62|35=0|34=196|49=ACCEPTOR|52=20231130-08:26:30.350|56=INITIATOR|10=140|8=FIXT.1.1|9=62|35=0|34=197|49=ACCEPTOR|52=20231130-08:26:31.129|56=INITIATOR|10=146|8=FIXT.1.1|9=62|35=0|34=198|49=ACCEPTOR|52=20231130-08:26:32.683|56=INITIATOR|10=153|8=FIXT.1.1|9=62|35=0|34=199|49=ACCEPTOR|52=20231130-08:26:33.459|56=INITIATOR|10=156|8=FIXT.1.1|9=62|35=0|34=200|49=ACCEPTOR|52=20231130-08:26:34.233|56=INITIATOR|10=130|8=FIXT.1.1|9=62|35=0|34=201|49=ACCEPTOR|52=20231130-08:26:35.007|56=INITIATOR|10=131|8=FIXT.1.1|9=62|35=0|34=202|49=ACCEPTOR|52=20231130-08:26:36.549|56=INITIATOR|10=144|8=FIXT.1.1|9=62|35=0|34=203|49=ACCEPTOR|52=20231130-08:26:37.319|56=INITIATOR|10=141|8=FIXT.1.1|9=62|35=0|34=204|49=ACCEPTOR|52=20231130-08:26:38.087|56=INITIATOR|10=145|8=FIXT.1.1|9=62|35=0|34=205|49=ACCEPTOR|52=20231130-08:26:39.622|56=INITIATOR|10=142|8=FIXT.1.1|9=62|35=0|34=206|49=ACCEPTOR|52=20231130-08:26:40.388|56=INITIATOR|10=144|8=FIXT.1.1|9=62|35=0|34=207|49=ACCEPTOR|52=20231130-08:26:41.155|56=INITIATOR|10=138|8=FIXT.1.1|9=62|35=0|34=208|49=ACCEPTOR|52=20231130-08:26:42.682|56=INITIATOR|10=145|8=FIXT.1.1|9=62|35=0|34=209|49=ACCEPTOR|52=20231130-08:26:43.446|56=INITIATOR|10=145|8=FIXT.1.1|9=62|35=0|34=210|49=ACCEPTOR|52=20231130-08:26:44.208|56=INITIATOR|10=134|8=FIXT.1.1|9=62|35=0|34=211|49=ACCEPTOR|52=20231130-08:26:45.020|56=INITIATOR|10=128|8=FIXT.1.1|9=62|35=0|34=212|49=ACCEPTOR|52=20231130-08:26:46.536|56=INITIATOR|10=142|8=FIXT.1.1|9=62|35=0|34=213|49=ACCEPTOR|52=20231130-08:26:47.293|56=INITIATOR|10=144|8=FIXT.1.1|9=62|35=0|34=214|49=ACCEPTOR|52=20231130-08:26:48.050|56=INITIATOR|10=137|8=FIXT.1.1|9=62|35=0|34=215|49=ACCEPTOR|52=20231130-08:26:49.559|56=INITIATOR|10=153|8=FIXT.1.1|9=62|35=0|34=216|49=ACCEPTOR|52=20231130-08:26:50.312|56=INITIATOR|10=133|8=FIXT.1.1|9=62|35=0|34=217|49=ACCEPTOR|52=20231130-08:26:51.065|56=INITIATOR|10=140|8=FIXT.1.1|9=62|35=0|34=218|49=ACCEPTOR|52=20231130-08:26:52.566|56=INITIATOR|10=148|8=FIXT.1.1|9=62|35=0|34=219|49=ACCEPTOR|52=20231130-08:26:53.316|56=INITIATOR|10=143|8=FIXT.1.1|9=62|35=0|34=220|49=ACCEPTOR|52=20231130-08:26:54.064|56=INITIATOR|10=136|8=FIXT.1.1|9=62|35=0|34=221|49=ACCEPTOR|52=20231130-08:26:55.558|56=INITIATOR|10=146|8=FIXT.1.1|9=62|35=0|34=222|49=ACCEPTOR|52=20231130-08:26:56.305|56=INITIATOR|10=138|8=FIXT.1.1|9=62|35=0|34=223|49=ACCEPTOR|52=20231130-08:26:57.049|56=INITIATOR|10=145|8=FIXT.1.1|9=62|35=0|34=224|49=ACCEPTOR|52=20231130-08:26:58.536|56=INITIATOR|10=148|8=FIXT.1.1|9=62|35=0|34=225|49=ACCEPTOR|52=20231130-08:26:59.280|56=INITIATOR|10=146|8=FIXT.1.1|9=62|35=0|34=226|49=ACCEPTOR|52=20231130-08:27:00.022|56=INITIATOR|10=128|8=FIXT.1.1|9=62|35=0|34=227|49=ACCEPTOR|52=20231130-08:27:01.505|56=INITIATOR|10=136|8=FIXT.1.1|9=62|35=0|34=228|49=ACCEPTOR|52=20231130-08:27:02.245|56=INITIATOR|10=139|8=FIXT.1.1|9=62|35=0|34=229|49=ACCEPTOR|52=20231130-08:27:03.041|56=INITIATOR|10=135|8=FIXT.1.1|9=62|35=0|34=230|49=ACCEPTOR|52=20231130-08:27:04.514|56=INITIATOR|10=133|8=FIXT.1.1|9=62|35=0|34=231|49=ACCEPTOR|52=20231130-08:27:05.250|56=INITIATOR|10=132|8=FIXT.1.1|9=62|35=0|34=232|49=ACCEPTOR|52=20231130-08:27:06.041|56=INITIATOR|10=132|8=FIXT.1.1|9=62|35=0|34=233|49=ACCEPTOR|52=20231130-08:27:07.509|56=INITIATOR|10=143|8=FIXT.1.1|9=62|35=0|34=234|49=ACCEPTOR|52=20231130-08:27:08.243|56=INITIATOR|10=140|8=FIXT.1.1|9=62|35=0|34=235|49=ACCEPTOR|52=20231130-08:27:09.033|56=INITIATOR|10=139|8=FIXT.1.1|9=62|35=0|34=236|49=ACCEPTOR|52=20231130-08:27:10.495|56=INITIATOR|10=144|8=FIXT.1.1|9=62|35=0|34=237|49=ACCEPTOR|52=20231130-08:27:11.225|56=INITIATOR|10=137|8=FIXT.1.1|9=62|35=0|34=238|49=ACCEPTOR|52=20231130-08:27:12.012|56=INITIATOR|10=133|8=FIXT.1.1|9=62|35=0|34=239|49=ACCEPTOR|52=20231130-08:27:13.470|56=INITIATOR|10=143|8=FIXT.1.1|9=62|35=0|34=240|49=ACCEPTOR|52=20231130-08:27:14.199|56=INITIATOR|10=144|8=FIXT.1.1|9=62|35=0|34=241|49=ACCEPTOR|52=20231130-08:27:15.654|56=INITIATOR|10=142|8=FIXT.1.1|9=62|35=0|34=242|49=ACCEPTOR|52=20231130-08:27:16.381|56=INITIATOR|10=141|8=FIXT.1.1|9=62|35=0|34=243|49=ACCEPTOR|52=20231130-08:27:17.107|56=INITIATOR|10=139|8=FIXT.1.1|9=62|35=0|34=244|49=ACCEPTOR|52=20231130-08:27:18.556|56=INITIATOR|10=149|8=FIXT.1.1|9=62|35=0|34=245|49=ACCEPTOR|52=20231130-08:27:19.280|56=INITIATOR|10=145|8=FIXT.1.1|9=62|35=0|34=246|49=ACCEPTOR|52=20231130-08:27:20.003|56=INITIATOR|10=131|8=FIXT.1.1|9=62|35=0|34=247|49=ACCEPTOR|52=20231130-08:27:21.443|56=INITIATOR|10=141|8=FIXT.1.1|9=62|35=0|34=248|49=ACCEPTOR|52=20231130-08:27:22.163|56=INITIATOR|10=142|8=FIXT.1.1|9=62|35=0|34=249|49=ACCEPTOR|52=20231130-08:27:23.598|56=INITIATOR|10=156|8=FIXT.1.1|9=62|35=0|34=250|49=ACCEPTOR|52=20231130-08:27:24.314|56=INITIATOR|10=135|8=FIXT.1.1|9=62|35=0|34=251|49=ACCEPTOR|52=20231130-08:27:25.029|56=INITIATOR|10=140|8=FIXT.1.1|9=62|35=0|34=252|49=ACCEPTOR|52=20231130-08:27:26.455|56=INITIATOR|10=145|8=FIXT.1.1|9=62|35=0|34=253|49=ACCEPTOR|52=20231130-08:27:27.167|56=INITIATOR|10=147|8=FIXT.1.1|9=62|35=0|34=254|49=ACCEPTOR|52=20231130-08:27:28.587|56=INITIATOR|10=155|8=FIXT.1.1|9=62|35=0|34=255|49=ACCEPTOR|52=20231130-08:27:29.297|56=INITIATOR|10=155|8=FIXT.1.1|9=62|35=0|34=256|49=ACCEPTOR|52=20231130-08:27:30.006|56=INITIATOR|10=136|8=FIXT.1.1|9=62|35=0|34=257|49=ACCEPTOR|52=20231130-08:27:31.423|56=INITIATOR|10=141|8=FIXT.1.1|9=62|35=0|34=258|49=ACCEPTOR|52=20231130-08:27:32.132|56=INITIATOR|10=140|8=FIXT.1.1|9=62|35=0|34=259|49=ACCEPTOR|52=20231130-08:27:33.546|56=INITIATOR|10=151|8=FIXT.1.1|9=62|35=0|34=260|49=ACCEPTOR|52=20231130-08:27:34.254|56=INITIATOR|10=140|8=FIXT.1.1|9=62|35=0|34=261|49=ACCEPTOR|52=20231130-08:27:35.022|56=INITIATOR|10=135|8=FIXT.1.1|9=62|35=0|34=262|49=ACCEPTOR|52=20231130-08:27:36.428|56=INITIATOR|10=147|8=FIXT.1.1|9=62|35=0|34=263|49=ACCEPTOR|52=20231130-08:27:37.131|56=INITIATOR|10=140|8=FIXT.1.1|9=62|35=0|34=264|49=ACCEPTOR|52=20231130-08:27:38.532|56=INITIATOR|10=147|8=FIXT.1.1|9=62|35=0|34=265|49=ACCEPTOR|52=20231130-08:27:39.232|56=INITIATOR|10=146|8=FIXT.1.1|9=62|35=0|34=266|49=ACCEPTOR|52=20231130-08:27:40.629|56=INITIATOR|10=149|8=FIXT.1.1|9=62|35=0|34=267|49=ACCEPTOR|52=20231130-08:27:41.327|56=INITIATOR|10=146|8=FIXT.1.1|9=62|35=0|34=268|49=ACCEPTOR|52=20231130-08:27:42.024|56=INITIATOR|10=142|8=FIXT.1.1|9=62|35=0|34=269|49=ACCEPTOR|52=20231130-08:27:43.416|56=INITIATOR|10=149|8=FIXT.1.1|9=62|35=0|34=270|49=ACCEPTOR|52=20231130-08:27:44.112|56=INITIATOR|10=135|8=FIXT.1.1|9=62|35=0|34=271|49=ACCEPTOR|52=20231130-08:27:45.499|56=INITIATOR|10=155|8=FIXT.1.1|9=62|35=0|34=272|49=ACCEPTOR|52=20231130-08:27:46.191|56=INITIATOR|10=146|8=FIXT.1.1|9=62|35=0|34=273|49=ACCEPTOR|52=20231130-08:27:47.574|56=INITIATOR|10=153|8=FIXT.1.1|9=62|35=0|34=274|49=ACCEPTOR|52=20231130-08:27:48.264|56=INITIATOR|10=151|8=FIXT.1.1|9=62|35=0|34=275|49=ACCEPTOR|52=20231130-08:27:49.019|56=INITIATOR|10=151|8=FIXT.1.1|9=62|35=0|34=276|49=ACCEPTOR|52=20231130-08:27:50.397|56=INITIATOR|10=153|8=FIXT.1.1|9=62|35=0|34=277|49=ACCEPTOR|52=20231130-08:27:51.086|56=INITIATOR|10=150|8=FIXT.1.1|9=62|35=0|34=278|49=ACCEPTOR|52=20231130-08:27:52.460|56=INITIATOR|10=148|8=FIXT.1.1|9=62|35=0|34=279|49=ACCEPTOR|52=20231130-08:27:53.147|56=INITIATOR|10=152|8=FIXT.1.1|9=62|35=0|34=280|49=ACCEPTOR|52=20231130-08:27:54.519|56=INITIATOR|10=148|8=FIXT.1.1|9=62|35=0|34=281|49=ACCEPTOR|52=20231130-08:27:55.205|56=INITIATOR|10=142|8=FIXT.1.1|9=62|35=0|34=282|49=ACCEPTOR|52=20231130-08:27:56.574|56=INITIATOR|10=153|8=FIXT.1.1|9=62|35=0|34=283|49=ACCEPTOR|52=20231130-08:27:57.259|56=INITIATOR|10=155|8=FIXT.1.1|9=62|35=0|34=284|49=ACCEPTOR|52=20231130-08:27:58.008|56=INITIATOR|10=149|8=FIXT.1.1|9=62|35=0|34=285|49=ACCEPTOR|52=20231130-08:27:59.368|56=INITIATOR|10=160|8=FIXT.1.1|9=62|35=0|34=286|49=ACCEPTOR|52=20231130-08:28:00.049|56=INITIATOR|10=144|8=FIXT.1.1|9=62|35=0|34=287|49=ACCEPTOR|52=20231130-08:28:01.405|56=INITIATOR|10=142|8=FIXT.1.1|9=62|35=0|34=288|49=ACCEPTOR|52=20231130-08:28:02.082|56=INITIATOR|10=145|8=FIXT.1.1|9=62|35=0|34=289|49=ACCEPTOR|52=20231130-08:28:03.434|56=INITIATOR|10=148|8=FIXT.1.1|9=62|35=0|34=290|49=ACCEPTOR|52=20231130-08:28:04.109|56=INITIATOR|10=140|8=FIXT.1.1|9=62|35=0|34=291|49=ACCEPTOR|52=20231130-08:28:05.456|56=INITIATOR|10=147|8=FIXT.1.1|9=62|35=0|34=292|49=ACCEPTOR|52=20231130-08:28:06.129|56=INITIATOR|10=146|8=FIXT.1.1|9=62|35=0|34=293|49=ACCEPTOR|52=20231130-08:28:07.474|56=INITIATOR|10=151|8=FIXT.1.1|9=62|35=0|34=294|49=ACCEPTOR|52=20231130-08:28:08.146|56=INITIATOR|10=149|8=FIXT.1.1|9=62|35=0|34=295|49=ACCEPTOR|52=20231130-08:28:09.488|56=INITIATOR|10=160|8=FIXT.1.1|9=62|35=0|34=296|49=ACCEPTOR|52=20231130-08:28:10.159|56=INITIATOR|10=148|8=FIXT.1.1|9=62|35=0|34=297|49=ACCEPTOR|52=20231130-08:28:11.497|56=INITIATOR|10=155|8=FIXT.1.1|9=62|35=0|34=298|49=ACCEPTOR|52=20231130-08:28:12.167|56=INITIATOR|10=151|8=FIXT.1.1|9=62|35=0|34=299|49=ACCEPTOR|52=20231130-08:28:13.501|56=INITIATOR|10=145|8=FIXT.1.1|9=62|35=0|34=300|49=ACCEPTOR|52=20231130-08:28:14.169|56=INITIATOR|10=139|8=FIXT.1.1|9=62|35=0|34=301|49=ACCEPTOR|52=20231130-08:28:15.499|56=INITIATOR|10=147|8=FIXT.1.1|9=62|35=0|34=302|49=ACCEPTOR|52=20231130-08:28:16.163|56=INITIATOR|10=137|8=FIXT.1.1|9=62|35=0|34=303|49=ACCEPTOR|52=20231130-08:28:17.489|56=INITIATOR|10=150|8=FIXT.1.1|9=62|35=0|34=304|49=ACCEPTOR|52=20231130-08:28:18.152|56=INITIATOR|10=139|8=FIXT.1.1|9=62|35=0|34=305|49=ACCEPTOR|52=20231130-08:28:19.475|56=INITIATOR|10=149|8=FIXT.1.1|9=62|35=0|34=306|49=ACCEPTOR|52=20231130-08:28:20.135|56=INITIATOR|10=135|8=FIXT.1.1|9=62|35=0|34=307|49=ACCEPTOR|52=20231130-08:28:21.452|56=INITIATOR|10=139|8=FIXT.1.1|9=62|35=0|34=308|49=ACCEPTOR|52=20231130-08:28:22.110|56=INITIATOR|10=132|8=FIXT.1.1|9=62|35=0|34=309|49=ACCEPTOR|52=20231130-08:28:23.422|56=INITIATOR|10=140|8=FIXT.1.1|9=62|35=0|34=310|49=ACCEPTOR|52=20231130-08:28:24.077|56=INITIATOR|10=139|8=FIXT.1.1|9=62|35=0|34=311|49=ACCEPTOR|52=20231130-08:28:25.385|56=INITIATOR|10=143|8=FIXT.1.1|9=62|35=0|34=312|49=ACCEPTOR|52=20231130-08:28:26.038|56=INITIATOR|10=140|8=FIXT.1.1|9=62|35=0|34=313|49=ACCEPTOR|52=20231130-08:28:27.340|56=INITIATOR|10=138|8=FIXT.1.1|9=62|35=0|34=314|49=ACCEPTOR|52=20231130-08:28:28.061|56=INITIATOR|10=140|8=FIXT.1.1|9=62|35=0|34=315|49=ACCEPTOR|52=20231130-08:28:29.361|56=INITIATOR|10=145|8=FIXT.1.1|9=62|35=0|34=316|49=ACCEPTOR|52=20231130-08:28:30.010|56=INITIATOR|10=129|8=FIXT.1.1|9=62|35=0|34=317|49=ACCEPTOR|52=20231130-08:28:31.306|56=INITIATOR|10=139|8=FIXT.1.1|9=62|35=0|34=318|49=ACCEPTOR|52=20231130-08:28:32.025|56=INITIATOR|10=139|8=FIXT.1.1|9=62|35=0|34=319|49=ACCEPTOR|52=20231130-08:28:33.314|56=INITIATOR|10=142|8=FIXT.1.1|9=62|35=0|34=320|49=ACCEPTOR|52=20231130-08:28:34.029|56=INITIATOR|10=138|8=FIXT.1.1|9=62|35=0|34=321|49=ACCEPTOR|52=20231130-08:28:35.315|56=INITIATOR|10=138|8=FIXT.1.1|9=62|35=0|34=322|49=ACCEPTOR|52=20231130-08:28:36.028|56=INITIATOR|10=141|8=FIXT.1.1|9=62|35=0|34=323|49=ACCEPTOR|52=20231130-08:28:37.312|56=INITIATOR|10=139|8=FIXT.1.1|9=62|35=0|34=324|49=ACCEPTOR|52=20231130-08:28:38.025|56=INITIATOR|10=142|8=FIXT.1.1|9=62|35=0|34=325|49=ACCEPTOR|52=20231130-08:28:39.307|56=INITIATOR|10=147|8=FIXT.1.1|9=62|35=0|34=326|49=ACCEPTOR|52=20231130-08:28:40.021|56=INITIATOR|10=133|8=FIXT.1.1|9=62|35=0|34=327|49=ACCEPTOR|52=20231130-08:28:41.297|56=INITIATOR|10=150|8=FIXT.1.1|9=62|35=0|34=328|49=ACCEPTOR|52=20231130-08:28:42.008|56=INITIATOR|10=142|8=FIXT.1.1|9=62|35=0|34=329|49=ACCEPTOR|52=20231130-08:28:43.282|56=INITIATOR|10=148|8=FIXT.1.1|9=62|35=0|34=330|49=ACCEPTOR|52=20231130-08:28:44.553|56=INITIATOR|10=142|8=FIXT.1.1|9=62|35=0|34=331|49=ACCEPTOR|52=20231130-08:28:45.190|56=INITIATOR|10=141|8=FIXT.1.1|9=62|35=0|34=332|49=ACCEPTOR|52=20231130-08:28:46.460|56=INITIATOR|10=143|8=FIXT.1.1|9=62|35=0|34=333|49=ACCEPTOR|52=20231130-08:28:47.094|56=INITIATOR|10=148|8=FIXT.1.1|9=62|35=0|34=334|49=ACCEPTOR|52=20231130-08:28:48.361|56=INITIATOR|10=147|8=FIXT.1.1|9=62|35=0|34=335|49=ACCEPTOR|52=20231130-08:28:49.066|56=INITIATOR|10=151|8=FIXT.1.1|9=62|35=0|34=336|49=ACCEPTOR|52=20231130-08:28:50.327|56=INITIATOR|10=144|8=FIXT.1.1|9=62|35=0|34=337|49=ACCEPTOR|52=20231130-08:28:51.030|56=INITIATOR|10=137|8=FIXT.1.1|9=62|35=0|34=338|49=ACCEPTOR|52=20231130-08:28:52.289|56=INITIATOR|10=155|8=FIXT.1.1|9=62|35=0|34=339|49=ACCEPTOR|52=20231130-08:28:53.548|56=INITIATOR|10=155|8=FIXT.1.1|9=62|35=0|34=340|49=ACCEPTOR|52=20231130-08:28:54.176|56=INITIATOR|10=145|8=FIXT.1.1|9=62|35=0|34=341|49=ACCEPTOR|52=20231130-08:28:55.431|56=INITIATOR|10=141|8=FIXT.1.1|9=62|35=0|34=342|49=ACCEPTOR|52=20231130-08:28:56.058|56=INITIATOR|10=148|8=FIXT.1.1|9=62|35=0|34=343|49=ACCEPTOR|52=20231130-08:28:57.309|56=INITIATOR|10=149|8=FIXT.1.1|9=62|35=0|34=344|49=ACCEPTOR|52=20231130-08:28:58.008|56=INITIATOR|10=147|8=FIXT.1.1|9=62|35=0|34=345|49=ACCEPTOR|52=20231130-08:28:59.254|56=INITIATOR|10=152|8=FIXT.1.1|9=62|35=0|34=346|49=ACCEPTOR|52=20231130-08:29:00.500|56=INITIATOR|10=134|8=FIXT.1.1|9=62|35=0|34=347|49=ACCEPTOR|52=20231130-08:29:01.122|56=INITIATOR|10=136|8=FIXT.1.1|9=62|35=0|34=348|49=ACCEPTOR|52=20231130-08:29:02.364|56=INITIATOR|10=146|8=FIXT.1.1|9=62|35=0|34=349|49=ACCEPTOR|52=20231130-08:29:03.058|56=INITIATOR|10=148|8=FIXT.1.1|9=62|35=0|34=350|49=ACCEPTOR|52=20231130-08:29:04.294|56=INITIATOR|10=143|8=FIXT.1.1|9=62|35=0|34=351|49=ACCEPTOR|52=20231130-08:29:05.528|56=INITIATOR|10=145|8=FIXT.1.1|9=62|35=0|34=352|49=ACCEPTOR|52=20231130-08:29:06.146|56=INITIATOR|10=143|8=FIXT.1.1|9=62|35=0|34=353|49=ACCEPTOR|52=20231130-08:29:07.375|56=INITIATOR|10=149|8=FIXT.1.1|9=62|35=0|34=354|49=ACCEPTOR|52=20231130-08:29:08.065|56=INITIATOR|10=147|8=FIXT.1.1|9=62|35=0|34=355|49=ACCEPTOR|52=20231130-08:29:09.289|56=INITIATOR|10=157|8=FIXT.1.1|9=62|35=0|34=356|49=ACCEPTOR|52=20231130-08:29:10.510|56=INITIATOR|10=137|8=FIXT.1.1|9=62|35=0|34=357|49=ACCEPTOR|52=20231130-08:29:11.122|56=INITIATOR|10=138|8=FIXT.1.1|9=62|35=0|34=358|49=ACCEPTOR|52=20231130-08:29:12.342|56=INITIATOR|10=144|8=FIXT.1.1|9=62|35=0|34=359|49=ACCEPTOR|52=20231130-08:29:13.029|56=INITIATOR|10=148|8=FIXT.1.1|9=62|35=0|34=360|49=ACCEPTOR|52=20231130-08:29:14.243|56=INITIATOR|10=139|8=FIXT.1.1|9=62|35=0|34=361|49=ACCEPTOR|52=20231130-08:29:15.456|56=INITIATOR|10=147|8=FIXT.1.1|9=62|35=0|34=362|49=ACCEPTOR|52=20231130-08:29:16.062|56=INITIATOR|10=142|8=FIXT.1.1|9=62|35=0|34=363|49=ACCEPTOR|52=20231130-08:29:17.272|56=INITIATOR|10=147|8=FIXT.1.1|9=62|35=0|34=364|49=ACCEPTOR|52=20231130-08:29:18.478|56=INITIATOR|10=157|8=FIXT.1.1|9=62|35=0|34=365|49=ACCEPTOR|52=20231130-08:29:19.080|56=INITIATOR|10=148|8=FIXT.1.1|9=62|35=0|34=366|49=ACCEPTOR|52=20231130-08:29:20.351|56=INITIATOR|10=142|8=FIXT.1.1|9=62|35=0|34=367|49=ACCEPTOR|52=20231130-08:29:21.029|56=INITIATOR|10=146|8=FIXT.1.1|9=62|35=0|34=368|49=ACCEPTOR|52=20231130-08:29:22.225|56=INITIATOR|10=146|8=FIXT.1.1|9=62|35=0|34=369|49=ACCEPTOR|52=20231130-08:29:23.420|56=INITIATOR|10=145|8=FIXT.1.1|9=62|35=0|34=370|49=ACCEPTOR|52=20231130-08:29:24.016|56=INITIATOR|10=139|8=FIXT.1.1|9=62|35=0|34=371|49=ACCEPTOR|52=20231130-08:29:25.206|56=INITIATOR|10=142|8=FIXT.1.1|9=62|35=0|34=372|49=ACCEPTOR|52=20231130-08:29:26.394|56=INITIATOR|10=152|8=FIXT.1.1|9=62|35=0|34=373|49=ACCEPTOR|52=20231130-08:29:27.067|56=INITIATOR|10=151|8=FIXT.1.1|9=62|35=0|34=374|49=ACCEPTOR|52=20231130-08:29:28.247|56=INITIATOR|10=153|8=FIXT.1.1|9=62|35=0|34=375|49=ACCEPTOR|52=20231130-08:29:29.426|56=INITIATOR|10=154|8=FIXT.1.1|9=62|35=0|34=376|49=ACCEPTOR|52=20231130-08:29:30.014|56=INITIATOR|10=140|8=FIXT.1.1|9=62|35=0|34=377|49=ACCEPTOR|52=20231130-08:29:31.188|56=INITIATOR|10=154|8=FIXT.1.1|9=62|35=0|34=378|49=ACCEPTOR|52=20231130-08:29:32.360|56=INITIATOR|10=148|8=FIXT.1.1|9=62|35=0|34=379|49=ACCEPTOR|52=20231130-08:29:33.027|56=INITIATOR|10=150|8=FIXT.1.1|9=62|35=0|34=380|49=ACCEPTOR|52=20231130-08:29:34.193|56=INITIATOR|10=147|8=FIXT.1.1|9=62|35=0|34=381|49=ACCEPTOR|52=20231130-08:29:35.358|56=INITIATOR|10=152|8=FIXT.1.1|9=62|35=0|34=382|49=ACCEPTOR|52=20231130-08:29:36.021|56=INITIATOR|10=141|8=FIXT.1.1|9=62|35=0|34=383|49=ACCEPTOR|52=20231130-08:29:37.179|56=INITIATOR|10=157|8=FIXT.1.1|9=62|35=0|34=384|49=ACCEPTOR|52=20231130-08:29:38.336|56=INITIATOR|10=154|8=FIXT.1.1|9=62|35=0|34=385|49=ACCEPTOR|52=20231130-08:29:39.490|56=INITIATOR|10=157|8=FIXT.1.1|9=62|35=0|34=386|49=ACCEPTOR|52=20231130-08:29:40.067|56=INITIATOR|10=150|8=FIXT.1.1|9=62|35=0|34=387|49=ACCEPTOR|52=20231130-08:29:41.216|56=INITIATOR|10=148|8=FIXT.1.1|9=62|35=0|34=388|49=ACCEPTOR|52=20231130-08:29:42.362|56=INITIATOR|10=152|8=FIXT.1.1|9=62|35=0|34=389|49=ACCEPTOR|52=20231130-08:29:43.017|56=INITIATOR|10=151|8=FIXT.1.1|9=62|35=0|34=390|49=ACCEPTOR|52=20231130-08:29:44.162|56=INITIATOR|10=145|8=FIXT.1.1|9=62|35=0|34=391|49=ACCEPTOR|52=20231130-08:29:45.306|56=INITIATOR|10=147|8=FIXT.1.1|9=62|35=0|34=392|49=ACCEPTOR|52=20231130-08:29:46.449|56=INITIATOR|10=157|8=FIXT.1.1|9=62|35=0|34=393|49=ACCEPTOR|52=20231130-08:29:47.019|56=INITIATOR|10=152|8=FIXT.1.1|9=62|35=0|34=394|49=ACCEPTOR|52=20231130-08:29:48.156|56=INITIATOR|10=156|8=FIXT.1.1|9=62|35=0|34=395|49=ACCEPTOR|52=20231130-08:29:49.289|56=INITIATOR|10=165|8=FIXT.1.1|9=62|35=0|34=396|49=ACCEPTOR|52=20231130-08:29:50.420|56=INITIATOR|10=145|8=FIXT.1.1|9=62|35=0|34=397|49=ACCEPTOR|52=20231130-08:29:51.070|56=INITIATOR|10=148|8=FIXT.1.1|9=62|35=0|34=398|49=ACCEPTOR|52=20231130-08:29:52.193|56=INITIATOR|10=156|8=FIXT.1.1|9=62|35=0|34=399|49=ACCEPTOR|52=20231130-08:29:53.314|56=INITIATOR|10=153|8=FIXT.1.1|9=62|35=0|34=400|49=ACCEPTOR|52=20231130-08:29:54.433|56=INITIATOR|10=139|8=FIXT.1.1|9=62|35=0|34=401|49=ACCEPTOR|52=20231130-08:29:55.078|56=INITIATOR|10=146|8=FIXT.1.1|9=62|35=0|34=402|49=ACCEPTOR|52=20231130-08:29:56.190|56=INITIATOR|10=143|8=FIXT.1.1|9=62|35=0|34=403|49=ACCEPTOR|52=20231130-08:29:57.301|56=INITIATOR|10=139|8=FIXT.1.1|9=62|35=0|34=404|49=ACCEPTOR|52=20231130-08:29:58.408|56=INITIATOR|10=149|8=FIXT.1.1|9=62|35=0|34=405|49=ACCEPTOR|52=20231130-08:29:59.047|56=INITIATOR|10=150|8=FIXT.1.1|9=62|35=0|34=406|49=ACCEPTOR|52=20231130-08:30:00.149|56=INITIATOR|10=132|8=FIXT.1.1|9=62|35=0|34=407|49=ACCEPTOR|52=20231130-08:30:01.249|56=INITIATOR|10=135|8=FIXT.1.1|9=62|35=0|34=408|49=ACCEPTOR|52=20231130-08:30:02.346|56=INITIATOR|10=135|8=FIXT.1.1|9=62|35=0|34=409|49=ACCEPTOR|52=20231130-08:30:03.441|56=INITIATOR|10=133|8=FIXT.1.1|9=62|35=0|34=410|49=ACCEPTOR|52=20231130-08:30:04.074|56=INITIATOR|10=128|8=FIXT.1.1|9=62|35=0|34=411|49=ACCEPTOR|52=20231130-08:30:05.162|56=INITIATOR|10=128|8=FIXT.1.1|9=62|35=0|34=412|49=ACCEPTOR|52=20231130-08:30:06.250|56=INITIATOR|10=128|8=FIXT.1.1|9=62|35=0|34=413|49=ACCEPTOR|52=20231130-08:30:07.334|56=INITIATOR|10=133|8=FIXT.1.1|9=62|35=0|34=414|49=ACCEPTOR|52=20231130-08:30:08.415|56=INITIATOR|10=135|8=FIXT.1.1|9=62|35=0|34=415|49=ACCEPTOR|52=20231130-08:30:09.043|56=INITIATOR|10=134|8=FIXT.1.1|9=62|35=0|34=416|49=ACCEPTOR|52=20231130-08:30:10.120|56=INITIATOR|10=123|8=FIXT.1.1|9=62|35=0|34=417|49=ACCEPTOR|52=20231130-08:30:11.194|56=INITIATOR|10=136|8=FIXT.1.1|9=62|35=0|34=418|49=ACCEPTOR|52=20231130-08:30:12.265|56=INITIATOR|10=137|8=FIXT.1.1|9=62|35=0|34=419|49=ACCEPTOR|52=20231130-08:30:13.333|56=INITIATOR|10=135|8=FIXT.1.1|9=62|35=0|34=420|49=ACCEPTOR|52=20231130-08:30:14.399|56=INITIATOR|10=140|8=FIXT.1.1|9=62|35=0|34=421|49=ACCEPTOR|52=20231130-08:30:15.021|56=INITIATOR|10=124|8=FIXT.1.1|9=62|35=0|34=422|49=ACCEPTOR|52=20231130-08:30:16.080|56=INITIATOR|10=131|8=FIXT.1.1|9=62|35=0|34=423|49=ACCEPTOR|52=20231130-08:30:17.137|56=INITIATOR|10=136|8=FIXT.1.1|9=62|35=0|34=424|49=ACCEPTOR|52=20231130-08:30:18.192|56=INITIATOR|10=139|8=FIXT.1.1|9=62|35=0|34=425|49=ACCEPTOR|52=20231130-08:30:19.243|56=INITIATOR|10=138|8=FIXT.1.1|9=62|35=0|34=426|49=ACCEPTOR|52=20231130-08:30:20.291|56=INITIATOR|10=134|8=FIXT.1.1|9=62|35=0|34=427|49=ACCEPTOR|52=20231130-08:30:21.337|56=INITIATOR|10=137|8=FIXT.1.1|9=62|35=0|34=428|49=ACCEPTOR|52=20231130-08:30:22.381|56=INITIATOR|10=138|8=FIXT.1.1|9=62|35=0|34=429|49=ACCEPTOR|52=20231130-08:30:23.422|56=INITIATOR|10=136|8=FIXT.1.1|9=62|35=0|34=430|49=ACCEPTOR|52=20231130-08:30:24.034|56=INITIATOR|10=128|8=FIXT.1.1|9=62|35=0|34=431|49=ACCEPTOR|52=20231130-08:30:25.071|56=INITIATOR|10=131|8=FIXT.1.1|9=62|35=0|34=432|49=ACCEPTOR|52=20231130-08:30:26.106|56=INITIATOR|10=132|8=FIXT.1.1|9=62|35=0|34=433|49=ACCEPTOR|52=20231130-08:30:27.138|56=INITIATOR|10=139|8=FIXT.1.1|9=62|35=0|34=434|49=ACCEPTOR|52=20231130-08:30:28.167|56=INITIATOR|10=143|8=FIXT.1.1|9=62|35=0|34=435|49=ACCEPTOR|52=20231130-08:30:29.193|56=INITIATOR|10=144|8=FIXT.1.1|9=62|35=0|34=436|49=ACCEPTOR|52=20231130-08:30:30.216|56=INITIATOR|10=133|8=FIXT.1.1|9=62|35=0|34=437|49=ACCEPTOR|52=20231130-08:30:31.235|56=INITIATOR|10=136|8=FIXT.1.1|9=62|35=0|34=438|49=ACCEPTOR|52=20231130-08:30:32.250|56=INITIATOR|10=135|8=FIXT.1.1|9=62|35=0|34=439|49=ACCEPTOR|52=20231130-08:30:33.262|56=INITIATOR|10=140|8=FIXT.1.1|9=62|35=0|34=440|49=ACCEPTOR|52=20231130-08:30:34.271|56=INITIATOR|10=133|8=FIXT.1.1|9=62|35=0|34=441|49=ACCEPTOR|52=20231130-08:30:35.278|56=INITIATOR|10=142|8=FIXT.1.1|9=62|35=0|34=442|49=ACCEPTOR|52=20231130-08:30:36.281|56=INITIATOR|10=138|8=FIXT.1.1|9=62|35=0|34=443|49=ACCEPTOR|52=20231130-08:30:37.282|56=INITIATOR|10=141|8=FIXT.1.1|9=62|35=0|34=444|49=ACCEPTOR|52=20231130-08:30:38.280|56=INITIATOR|10=141|8=FIXT.1.1|9=62|35=0|34=445|49=ACCEPTOR|52=20231130-08:30:39.273|56=INITIATOR|10=145|8=FIXT.1.1|9=62|35=0|34=446|49=ACCEPTOR|52=20231130-08:30:40.264|56=INITIATOR|10=138|8=FIXT.1.1|9=62|35=0|34=447|49=ACCEPTOR|52=20231130-08:30:41.251|56=INITIATOR|10=136|8=FIXT.1.1|9=62|35=0|34=448|49=ACCEPTOR|52=20231130-08:30:42.234|56=INITIATOR|10=139|8=FIXT.1.1|9=62|35=0|34=449|49=ACCEPTOR|52=20231130-08:30:43.214|56=INITIATOR|10=139|8=FIXT.1.1|9=62|35=0|34=450|49=ACCEPTOR|52=20231130-08:30:44.192|56=INITIATOR|10=137|8=FIXT.1.1|9=62|35=0|34=451|49=ACCEPTOR|52=20231130-08:30:45.166|56=INITIATOR|10=140|8=FIXT.1.1|9=62|35=0|34=452|49=ACCEPTOR|52=20231130-08:30:46.137|56=INITIATOR|10=140|8=FIXT.1.1|9=62|35=0|34=453|49=ACCEPTOR|52=20231130-08:30:47.106|56=INITIATOR|10=138|8=FIXT.1.1|9=62|35=0|34=454|49=ACCEPTOR|52=20231130-08:30:48.071|56=INITIATOR|10=141|8=FIXT.1.1|9=62|35=0|34=455|49=ACCEPTOR|52=20231130-08:30:49.034|56=INITIATOR|10=142|8=FIXT.1.1|9=62|35=0|34=456|49=ACCEPTOR|52=20231130-08:30:50.003|56=INITIATOR|10=131|8=FIXT.1.1|9=62|35=0|34=457|49=ACCEPTOR|52=20231130-08:30:51.162|56=INITIATOR|10=139|8=FIXT.1.1|9=62|35=0|34=458|49=ACCEPTOR|52=20231130-08:30:52.119|56=INITIATOR|10=143|8=FIXT.1.1|9=62|35=0|34=459|49=ACCEPTOR|52=20231130-08:30:53.076|56=INITIATOR|10=147|8=FIXT.1.1|9=62|35=0|34=460|49=ACCEPTOR|52=20231130-08:30:54.031|56=INITIATOR|10=131|8=FIXT.1.1|9=62|35=0|34=461|49=ACCEPTOR|52=20231130-08:30:55.185|56=INITIATOR|10=143|8=FIXT.1.1|9=62|35=0|34=462|49=ACCEPTOR|52=20231130-08:30:56.132|56=INITIATOR|10=137|8=FIXT.1.1|9=62|35=0|34=463|49=ACCEPTOR|52=20231130-08:30:57.078|56=INITIATOR|10=148|8=FIXT.1.1|9=62|35=0|34=464|49=ACCEPTOR|52=20231130-08:30:58.023|56=INITIATOR|10=140|8=FIXT.1.1|9=62|35=0|34=465|49=ACCEPTOR|52=20231130-08:30:59.167|56=INITIATOR|10=151|8=FIXT.1.1|9=62|35=0|34=466|49=ACCEPTOR|52=20231130-08:31:00.106|56=INITIATOR|10=132|8=FIXT.1.1|9=62|35=0|34=467|49=ACCEPTOR|52=20231130-08:31:01.043|56=INITIATOR|10=134|8=FIXT.1.1|9=62|35=0|34=468|49=ACCEPTOR|52=20231130-08:31:02.180|56=INITIATOR|10=138|8=FIXT.1.1|9=62|35=0|34=469|49=ACCEPTOR|52=20231130-08:31:03.110|56=INITIATOR|10=133|8=FIXT.1.1|9=62|35=0|34=470|49=ACCEPTOR|52=20231130-08:31:04.038|56=INITIATOR|10=135|8=FIXT.1.1|9=62|35=0|34=471|49=ACCEPTOR|52=20231130-08:31:05.168|56=INITIATOR|10=141|8=FIXT.1.1|9=62|35=0|34=472|49=ACCEPTOR|52=20231130-08:31:06.089|56=INITIATOR|10=145|8=FIXT.1.1|9=62|35=0|34=473|49=ACCEPTOR|52=20231130-08:31:07.008|56=INITIATOR|10=138|8=FIXT.1.1|9=62|35=0|34=474|49=ACCEPTOR|52=20231130-08:31:08.131|56=INITIATOR|10=137|8=FIXT.1.1|9=62|35=0|34=475|49=ACCEPTOR|52=20231130-08:31:09.043|56=INITIATOR|10=141|8=FIXT.1.1|9=62|35=0|34=476|49=ACCEPTOR|52=20231130-08:31:10.161|56=INITIATOR|10=135|8=FIXT.1.1|9=62|35=0|34=477|49=ACCEPTOR|52=20231130-08:31:11.067|56=INITIATOR|10=142|8=FIXT.1.1|9=62|35=0|34=478|49=ACCEPTOR|52=20231130-08:31:12.179|56=INITIATOR|10=148|8=FIXT.1.1|9=62|35=0|34=479|49=ACCEPTOR|52=20231130-08:31:13.081|56=INITIATOR|10=142|8=FIXT.1.1|9=62|35=0|34=480|49=ACCEPTOR|52=20231130-08:31:14.191|56=INITIATOR|10=137|8=FIXT.1.1|9=62|35=0|34=481|49=ACCEPTOR|52=20231130-08:31:15.086|56=INITIATOR|10=142|8=FIXT.1.1|9=62|35=0|34=482|49=ACCEPTOR|52=20231130-08:31:16.190|56=INITIATOR|10=140|8=FIXT.1.1|9=62|35=0|34=483|49=ACCEPTOR|52=20231130-08:31:17.079|56=INITIATOR|10=148|8=FIXT.1.1|9=62|35=0|34=484|49=ACCEPTOR|52=20231130-08:31:18.177|56=INITIATOR|10=149|8=FIXT.1.1|9=62|35=0|34=485|49=ACCEPTOR|52=20231130-08:31:19.061|56=INITIATOR|10=143|8=FIXT.1.1|9=62|35=0|34=486|49=ACCEPTOR|52=20231130-08:31:20.162|56=INITIATOR|10=138|8=FIXT.1.1|9=62|35=0|34=487|49=ACCEPTOR|52=20231130-08:31:21.038|56=INITIATOR|10=142|8=FIXT.1.1|9=62|35=0|34=488|49=ACCEPTOR|52=20231130-08:31:22.125|56=INITIATOR|10=141|8=FIXT.1.1|9=62|35=0|34=489|49=ACCEPTOR|52=20231130-08:31:23.209|56=INITIATOR|10=146|8=FIXT.1.1|9=62|35=0|34=490|49=ACCEPTOR|52=20231130-08:31:24.080|56=INITIATOR|10=136|8=FIXT.1.1|9=62|35=0|34=491|49=ACCEPTOR|52=20231130-08:31:25.171|56=INITIATOR|10=139|8=FIXT.1.1|9=62|35=0|34=492|49=ACCEPTOR|52=20231130-08:31:26.039|56=INITIATOR|10=144|8=FIXT.1.1|9=62|35=0|34=493|49=ACCEPTOR|52=20231130-08:31:27.116|56=INITIATOR|10=142|8=FIXT.1.1|9=62|35=0|34=494|49=ACCEPTOR|52=20231130-08:31:28.191|56=INITIATOR|10=147|8=FIXT.1.1|9=62|35=0|34=495|49=ACCEPTOR|52=20231130-08:31:29.051|56=INITIATOR|10=144|8=FIXT.1.1|9=62|35=0|34=496|49=ACCEPTOR|52=20231130-08:31:30.123|56=INITIATOR|10=137|8=FIXT.1.1|9=62|35=0|34=497|49=ACCEPTOR|52=20231130-08:31:31.195|56=INITIATOR|10=148|8=FIXT.1.1|9=62|35=0|34=498|49=ACCEPTOR|52=20231130-08:31:32.052|56=INITIATOR|10=142|8=FIXT.1.1|9=62|35=0|34=499|49=ACCEPTOR|52=20231130-08:31:33.123|56=INITIATOR|10=143|8=FIXT.1.1|9=62|35=0|34=500|49=ACCEPTOR|52=20231130-08:31:34.191|56=INITIATOR|10=132|8=FIXT.1.1|9=62|35=0|34=501|49=ACCEPTOR|52=20231130-08:31:35.043|56=INITIATOR|10=130|8=FIXT.1.1|9=62|35=0|34=502|49=ACCEPTOR|52=20231130-08:31:36.110|56=INITIATOR|10=127|8=FIXT.1.1|9=62|35=0|34=503|49=ACCEPTOR|52=20231130-08:31:37.174|56=INITIATOR|10=139|8=FIXT.1.1|9=62|35=0|34=504|49=ACCEPTOR|52=20231130-08:31:38.020|56=INITIATOR|10=131|8=FIXT.1.1|9=62|35=0|34=505|49=ACCEPTOR|52=20231130-08:31:39.079|56=INITIATOR|10=147|8=FIXT.1.1|9=62|35=0|34=506|49=ACCEPTOR|52=20231130-08:31:40.136|56=INITIATOR|10=134|8=FIXT.1.1|9=62|35=0|34=507|49=ACCEPTOR|52=20231130-08:31:41.190|56=INITIATOR|10=136|8=FIXT.1.1|9=62|35=0|34=508|49=ACCEPTOR|52=20231130-08:31:42.025|56=INITIATOR|10=135|8=FIXT.1.1|9=62|35=0|34=509|49=ACCEPTOR|52=20231130-08:31:43.077|56=INITIATOR|10=144|8=FIXT.1.1|9=62|35=0|34=510|49=ACCEPTOR|52=20231130-08:31:44.123|56=INITIATOR|10=129|8=FIXT.1.1|9=62|35=0|34=511|49=ACCEPTOR|52=20231130-08:31:45.169|56=INITIATOR|10=141|8=FIXT.1.1|9=62|35=0|34=512|49=ACCEPTOR|52=20231130-08:31:46.210|56=INITIATOR|10=130|8=FIXT.1.1|9=62|35=0|34=513|49=ACCEPTOR|52=20231130-08:31:47.032|56=INITIATOR|10=134|8=FIXT.1.1|9=62|35=0|34=514|49=ACCEPTOR|52=20231130-08:31:48.070|56=INITIATOR|10=138|8=FIXT.1.1|9=62|35=0|34=515|49=ACCEPTOR|52=20231130-08:31:49.107|56=INITIATOR|10=141|8=FIXT.1.1|9=62|35=0|34=516|49=ACCEPTOR|52=20231130-08:31:50.141|56=INITIATOR|10=132|8=FIXT.1.1|9=62|35=0|34=517|49=ACCEPTOR|52=20231130-08:31:51.173|56=INITIATOR|10=139|8=FIXT.1.1|9=62|35=0|34=518|49=ACCEPTOR|52=20231130-08:31:52.204|56=INITIATOR|10=136|8=FIXT.1.1|9=62|35=0|34=519|49=ACCEPTOR|52=20231130-08:31:53.015|56=INITIATOR|10=138|8=FIXT.1.1|9=62|35=0|34=520|49=ACCEPTOR|52=20231130-08:31:54.045|56=INITIATOR|10=134|8=FIXT.1.1|9=62|35=0|34=521|49=ACCEPTOR|52=20231130-08:31:55.074|56=INITIATOR|10=138|8=FIXT.1.1|9=62|35=0|34=522|49=ACCEPTOR|52=20231130-08:31:56.104|56=INITIATOR|10=134|8=FIXT.1.1|9=62|35=0|34=523|49=ACCEPTOR|52=20231130-08:31:57.131|56=INITIATOR|10=136|8=FIXT.1.1|9=62|35=0|34=524|49=ACCEPTOR|52=20231130-08:31:58.159|56=INITIATOR|10=148|8=FIXT.1.1|9=62|35=0|34=525|49=ACCEPTOR|52=20231130-08:31:59.186|56=INITIATOR|10=150|8=FIXT.1.1|9=62|35=0|34=526|49=ACCEPTOR|52=20231130-08:32:00.210|56=INITIATOR|10=126|8=FIXT.1.1|9=62|35=0|34=527|49=ACCEPTOR|52=20231130-08:32:01.013|56=INITIATOR|10=129|8=FIXT.1.1|9=62|35=0|34=528|49=ACCEPTOR|52=20231130-08:32:02.034|56=INITIATOR|10=134|8=FIXT.1.1|9=62|35=0|34=529|49=ACCEPTOR|52=20231130-08:32:03.051|56=INITIATOR|10=135|8=FIXT.1.1|9=62|35=0|34=530|49=ACCEPTOR|52=20231130-08:32:04.066|56=INITIATOR|10=134|8=FIXT.1.1|9=62|35=0|34=531|49=ACCEPTOR|52=20231130-08:32:05.078|56=INITIATOR|10=139|8=FIXT.1.1|9=62|35=0|34=532|49=ACCEPTOR|52=20231130-08:32:06.087|56=INITIATOR|10=141|8=FIXT.1.1|9=62|35=0|34=533|49=ACCEPTOR|52=20231130-08:32:07.094|56=INITIATOR|10=141|8=FIXT.1.1|9=62|35=0|34=534|49=ACCEPTOR|52=20231130-08:32:08.098|56=INITIATOR|10=147|8=FIXT.1.1|9=62|35=0|34=535|49=ACCEPTOR|52=20231130-08:32:09.100|56=INITIATOR|10=133|8=FIXT.1.1|9=62|35=0|34=536|49=ACCEPTOR|52=20231130-08:32:10.101|56=INITIATOR|10=127|8=FIXT.1.1|9=62|35=0|34=537|49=ACCEPTOR|52=20231130-08:32:11.101|56=INITIATOR|10=129|8=FIXT.1.1|9=62|35=0|34=538|49=ACCEPTOR|52=20231130-08:32:12.100|56=INITIATOR|10=130|8=FIXT.1.1|9=62|35=0|34=539|49=ACCEPTOR|52=20231130-08:32:13.095|56=INITIATOR|10=145|8=FIXT.1.1|9=62|35=0|34=540|49=ACCEPTOR|52=20231130-08:32:14.086|56=INITIATOR|10=138|8=FIXT.1.1|9=62|35=0|34=541|49=ACCEPTOR|52=20231130-08:32:15.075|56=INITIATOR|10=138|8=FIXT.1.1|9=62|35=0|34=542|49=ACCEPTOR|52=20231130-08:32:16.062|56=INITIATOR|10=136|8=FIXT.1.1|9=62|35=0|34=543|49=ACCEPTOR|52=20231130-08:32:17.047|56=INITIATOR|10=141|8=FIXT.1.1|9=62|35=0|34=544|49=ACCEPTOR|52=20231130-08:32:18.028|56=INITIATOR|10=142|8=FIXT.1.1|9=62|35=0|34=545|49=ACCEPTOR|52=20231130-08:32:19.005|56=INITIATOR|10=139|8=FIXT.1.1|9=62|35=0|34=546|49=ACCEPTOR|52=20231130-08:32:20.133|56=INITIATOR|10=134|8=FIXT.1.1|9=62|35=0|34=547|49=ACCEPTOR|52=20231130-08:32:21.106|56=INITIATOR|10=136|8=FIXT.1.1|9=62|35=0|34=548|49=ACCEPTOR|52=20231130-08:32:22.078|56=INITIATOR|10=146|8=FIXT.1.1|9=62|35=0|34=549|49=ACCEPTOR|52=20231130-08:32:23.046|56=INITIATOR|10=143|8=FIXT.1.1|9=62|35=0|34=550|49=ACCEPTOR|52=20231130-08:32:24.011|56=INITIATOR|10=128|8=FIXT.1.1|9=62|35=0|34=551|49=ACCEPTOR|52=20231130-08:32:25.115|56=INITIATOR|10=135|8=FIXT.1.1|9=62|35=0|34=552|49=ACCEPTOR|52=20231130-08:32:26.076|56=INITIATOR|10=143|8=FIXT.1.1|9=62|35=0|34=553|49=ACCEPTOR|52=20231130-08:32:27.034|56=INITIATOR|10=139|8=FIXT.1.1|9=62|35=0|34=554|49=ACCEPTOR|52=20231130-08:32:28.126|56=INITIATOR|10=143|8=FIXT.1.1|9=62|35=0|34=555|49=ACCEPTOR|52=20231130-08:32:29.079|56=INITIATOR|10=152|8=FIXT.1.1|9=62|35=0|34=556|49=ACCEPTOR|52=20231130-08:32:30.030|56=INITIATOR|10=132|8=FIXT.1.1|9=62|35=0|34=557|49=ACCEPTOR|52=20231130-08:32:31.109|56=INITIATOR|10=141|8=FIXT.1.1|9=62|35=0|34=558|49=ACCEPTOR|52=20231130-08:32:32.054|56=INITIATOR|10=142|8=FIXT.1.1|9=62|35=0|34=559|49=ACCEPTOR|52=20231130-08:32:33.127|56=INITIATOR|10=145|8=FIXT.1.1|9=62|35=0|34=560|49=ACCEPTOR|52=20231130-08:32:34.071|56=INITIATOR|10=136|8=FIXT.1.1|9=62|35=0|34=561|49=ACCEPTOR|52=20231130-08:32:35.011|56=INITIATOR|10=132|8=FIXT.1.1|9=62|35=0|34=562|49=ACCEPTOR|52=20231130-08:32:36.072|56=INITIATOR|10=141|8=FIXT.1.1|9=62|35=0|34=563|49=ACCEPTOR|52=20231130-08:32:37.009|56=INITIATOR|10=143|8=FIXT.1.1|9=62|35=0|34=564|49=ACCEPTOR|52=20231130-08:32:38.063|56=INITIATOR|10=145|8=FIXT.1.1|9=62|35=0|34=565|49=ACCEPTOR|52=20231130-08:32:39.114|56=INITIATOR|10=144|8=FIXT.1.1|9=62|35=0|34=566|49=ACCEPTOR|52=20231130-08:32:40.043|56=INITIATOR|10=138|8=FIXT.1.1|9=62|35=0|34=567|49=ACCEPTOR|52=20231130-08:32:41.083|56=INITIATOR|10=144|8=FIXT.1.1|9=62|35=0|34=568|49=ACCEPTOR|52=20231130-08:32:42.008|56=INITIATOR|10=143|8=FIXT.1.1|9=62|35=0|34=569|49=ACCEPTOR|52=20231130-08:32:43.041|56=INITIATOR|10=142|8=FIXT.1.1|9=62|35=0|34=570|49=ACCEPTOR|52=20231130-08:32:44.072|56=INITIATOR|10=139|8=FIXT.1.1|9=62|35=0|34=571|49=ACCEPTOR|52=20231130-08:32:45.100|56=INITIATOR|10=133|8=FIXT.1.1|9=62|35=0|34=572|49=ACCEPTOR|52=20231130-08:32:46.016|56=INITIATOR|10=141|8=FIXT.1.1|9=62|35=0|34=573|49=ACCEPTOR|52=20231130-08:32:47.037|56=INITIATOR|10=146|8=FIXT.1.1|9=62|35=0|34=574|49=ACCEPTOR|52=20231130-08:32:48.056|56=INITIATOR|10=149|8=FIXT.1.1|9=62|35=0|34=575|49=ACCEPTOR|52=20231130-08:32:49.070|56=INITIATOR|10=147|8=FIXT.1.1|9=62|35=0|34=576|49=ACCEPTOR|52=20231130-08:32:50.080|56=INITIATOR|10=141|8=FIXT.1.1|9=62|35=0|34=577|49=ACCEPTOR|52=20231130-08:32:51.087|56=INITIATOR|10=150|8=FIXT.1.1|9=62|35=0|34=578|49=ACCEPTOR|52=20231130-08:32:52.091|56=INITIATOR|10=147|8=FIXT.1.1|9=62|35=0|34=579|49=ACCEPTOR|52=20231130-08:32:53.092|56=INITIATOR|10=150|8=FIXT.1.1|9=62|35=0|34=580|49=ACCEPTOR|52=20231130-08:32:54.087|56=INITIATOR|10=147|8=FIXT.1.1|9=62|35=0|34=581|49=ACCEPTOR|52=20231130-08:32:55.079|56=INITIATOR|10=150|8=FIXT.1.1|9=62|35=0|34=582|49=ACCEPTOR|52=20231130-08:32:56.067|56=INITIATOR|10=149|8=FIXT.1.1|9=62|35=0|34=583|49=ACCEPTOR|52=20231130-08:32:57.050|56=INITIATOR|10=143|8=FIXT.1.1|9=62|35=0|34=584|49=ACCEPTOR|52=20231130-08:32:58.030|56=INITIATOR|10=143|8=FIXT.1.1|9=62|35=0|34=585|49=ACCEPTOR|52=20231130-08:32:59.010|56=INITIATOR|10=143|8=FIXT.1.1|9=62|35=0|34=586|49=ACCEPTOR|52=20231130-08:33:00.313|56=INITIATOR|10=137|8=FIXT.1.1|9=62|35=0|34=587|49=ACCEPTOR|52=20231130-08:33:01.202|56=INITIATOR|10=136|8=FIXT.1.1|9=62|35=0|34=588|49=ACCEPTOR|52=20231130-08:33:02.087|56=INITIATOR|10=149|8=FIXT.1.1|9=62|35=0|34=589|49=ACCEPTOR|52=20231130-08:33:03.055|56=INITIATOR|10=146|8=FIXT.1.1|9=62|35=0|34=590|49=ACCEPTOR|52=20231130-08:33:04.018|56=INITIATOR|10=138|8=FIXT.1.1|9=62|35=0|34=591|49=ACCEPTOR|52=20231130-08:33:05.296|56=INITIATOR|10=148|8=FIXT.1.1|9=62|35=0|34=592|49=ACCEPTOR|52=20231130-08:33:06.174|56=INITIATOR|10=145|8=FIXT.1.1|9=62|35=0|34=593|49=ACCEPTOR|52=20231130-08:33:07.050|56=INITIATOR|10=140|8=FIXT.1.1|9=62|35=0|34=594|49=ACCEPTOR|52=20231130-08:33:08.308|56=INITIATOR|10=148|8=FIXT.1.1|9=62|35=0|34=595|49=ACCEPTOR|52=20231130-08:33:09.179|56=INITIATOR|10=156|8=FIXT.1.1|9=62|35=0|34=596|49=ACCEPTOR|52=20231130-08:33:10.047|56=INITIATOR|10=143|8=FIXT.1.1|9=62|35=0|34=597|49=ACCEPTOR|52=20231130-08:33:11.289|56=INITIATOR|10=153|8=FIXT.1.1|9=62|35=0|34=598|49=ACCEPTOR|52=20231130-08:33:12.155|56=INITIATOR|10=147|8=FIXT.1.1|9=62|35=0|34=599|49=ACCEPTOR|52=20231130-08:33:13.017|56=INITIATOR|10=146|8=FIXT.1.1|9=62|35=0|34=600|49=ACCEPTOR|52=20231130-08:33:14.242|56=INITIATOR|10=130|8=FIXT.1.1|9=62|35=0|34=601|49=ACCEPTOR|52=20231130-08:33:15.100|56=INITIATOR|10=125|8=FIXT.1.1|9=62|35=0|34=602|49=ACCEPTOR|52=20231130-08:33:16.010|56=INITIATOR|10=127|8=FIXT.1.1|9=62|35=0|34=603|49=ACCEPTOR|52=20231130-08:33:17.221|56=INITIATOR|10=133|8=FIXT.1.1|9=62|35=0|34=604|49=ACCEPTOR|52=20231130-08:33:18.069|56=INITIATOR|10=145|8=FIXT.1.1|9=62|35=0|34=605|49=ACCEPTOR|52=20231130-08:33:19.263|56=INITIATOR|10=143|8=FIXT.1.1|9=62|35=0|34=606|49=ACCEPTOR|52=20231130-08:33:20.107|56=INITIATOR|10=133|8=FIXT.1.1|9=62|35=0|34=607|49=ACCEPTOR|52=20231130-08:33:21.289|56=INITIATOR|10=146|8=FIXT.1.1|9=62|35=0|34=608|49=ACCEPTOR|52=20231130-08:33:22.128|56=INITIATOR|10=140|8=FIXT.1.1|9=62|35=0|34=609|49=ACCEPTOR|52=20231130-08:33:23.006|56=INITIATOR|10=137|8=FIXT.1.1|9=62|35=0|34=610|49=ACCEPTOR|52=20231130-08:33:24.172|56=INITIATOR|10=134|8=FIXT.1.1|9=62|35=0|34=611|49=ACCEPTOR|52=20231130-08:33:25.004|56=INITIATOR|10=130|8=FIXT.1.1|9=62|35=0|34=612|49=ACCEPTOR|52=20231130-08:33:26.165|56=INITIATOR|10=140|8=FIXT.1.1|9=62|35=0|34=613|49=ACCEPTOR|52=20231130-08:33:27.033|56=INITIATOR|10=136|8=FIXT.1.1|9=62|35=0|34=614|49=ACCEPTOR|52=20231130-08:33:28.185|56=INITIATOR|10=146|8=FIXT.1.1|9=62|35=0|34=615|49=ACCEPTOR|52=20231130-08:33:29.011|56=INITIATOR|10=136|8=FIXT.1.1|9=62|35=0|34=616|49=ACCEPTOR|52=20231130-08:33:30.154|56=INITIATOR|10=137|8=FIXT.1.1|9=62|35=0|34=617|49=ACCEPTOR|52=20231130-08:33:31.007|56=INITIATOR|10=136|8=FIXT.1.1|9=62|35=0|34=618|49=ACCEPTOR|52=20231130-08:33:32.138|56=INITIATOR|10=143|8=FIXT.1.1|9=62|35=0|34=619|49=ACCEPTOR|52=20231130-08:33:33.264|56=INITIATOR|10=145|8=FIXT.1.1|9=62|35=0|34=620|49=ACCEPTOR|52=20231130-08:33:34.080|56=INITIATOR|10=134|8=FIXT.1.1|9=62|35=0|34=621|49=ACCEPTOR|52=20231130-08:33:35.199|56=INITIATOR|10=147|8=FIXT.1.1|9=62|35=0|34=622|49=ACCEPTOR|52=20231130-08:33:36.012|56=INITIATOR|10=133|8=FIXT.1.1|9=62|35=0|34=623|49=ACCEPTOR|52=20231130-08:33:37.118|56=INITIATOR|10=142|8=FIXT.1.1|9=62|35=0|34=624|49=ACCEPTOR|52=20231130-08:33:38.219|56=INITIATOR|10=146|8=FIXT.1.1|9=62|35=0|34=625|49=ACCEPTOR|52=20231130-08:33:39.024|56=INITIATOR|10=142|8=FIXT.1.1|9=62|35=0|34=626|49=ACCEPTOR|52=20231130-08:33:40.118|56=INITIATOR|10=139|8=FIXT.1.1|9=62|35=0|34=627|49=ACCEPTOR|52=20231130-08:33:41.209|56=INITIATOR|10=142|8=FIXT.1.1|9=62|35=0|34=628|49=ACCEPTOR|52=20231130-08:33:42.010|56=INITIATOR|10=134|8=FIXT.1.1|9=62|35=0|34=629|49=ACCEPTOR|52=20231130-08:33:43.088|56=INITIATOR|10=151|8=FIXT.1.1|9=62|35=0|34=630|49=ACCEPTOR|52=20231130-08:33:44.163|56=INITIATOR|10=138|8=FIXT.1.1|9=62|35=0|34=631|49=ACCEPTOR|52=20231130-08:33:45.231|56=INITIATOR|10=136|8=FIXT.1.1|9=62|35=0|34=632|49=ACCEPTOR|52=20231130-08:33:46.024|56=INITIATOR|10=138|8=FIXT.1.1|9=62|35=0|34=633|49=ACCEPTOR|52=20231130-08:33:47.078|56=INITIATOR|10=149|8=FIXT.1.1|9=62|35=0|34=634|49=ACCEPTOR|52=20231130-08:33:48.130|56=INITIATOR|10=140|8=FIXT.1.1|9=62|35=0|34=635|49=ACCEPTOR|52=20231130-08:33:49.177|56=INITIATOR|10=153|8=FIXT.1.1|9=62|35=0|34=636|49=ACCEPTOR|52=20231130-08:33:50.216|56=INITIATOR|10=140|8=FIXT.1.1|9=62|35=0|34=637|49=ACCEPTOR|52=20231130-08:33:51.250|56=INITIATOR|10=140|8=FIXT.1.1|9=62|35=0|34=638|49=ACCEPTOR|52=20231130-08:33:52.025|56=INITIATOR|10=142|8=FIXT.1.1|9=62|35=0|34=639|49=ACCEPTOR|52=20231130-08:33:53.054|56=INITIATOR|10=146|8=FIXT.1.1|9=62|35=0|34=640|49=ACCEPTOR|52=20231130-08:33:54.078|56=INITIATOR|10=145|8=FIXT.1.1|9=62|35=0|34=641|49=ACCEPTOR|52=20231130-08:33:55.096|56=INITIATOR|10=147|8=FIXT.1.1|9=62|35=0|34=642|49=ACCEPTOR|52=20231130-08:33:56.110|56=INITIATOR|10=136|8=FIXT.1.1|9=62|35=0|34=643|49=ACCEPTOR|52=20231130-08:33:57.117|56=INITIATOR|10=145|8=FIXT.1.1|9=62|35=0|34=644|49=ACCEPTOR|52=20231130-08:33:58.120|56=INITIATOR|10=141|8=FIXT.1.1|9=62|35=0|34=645|49=ACCEPTOR|52=20231130-08:33:59.118|56=INITIATOR|10=150|8=FIXT.1.1|9=62|35=0|34=646|49=ACCEPTOR|52=20231130-08:34:00.110|56=INITIATOR|10=130|8=FIXT.1.1|9=62|35=0|34=647|49=ACCEPTOR|52=20231130-08:34:01.097|56=INITIATOR|10=146|8=FIXT.1.1|9=62|35=0|34=648|49=ACCEPTOR|52=20231130-08:34:02.079|56=INITIATOR|10=148|8=FIXT.1.1|9=62|35=0|34=649|49=ACCEPTOR|52=20231130-08:34:03.055|56=INITIATOR|10=144|8=FIXT.1.1|9=62|35=0|34=650|49=ACCEPTOR|52=20231130-08:34:04.026|56=INITIATOR|10=135|8=FIXT.1.1|9=62|35=0|34=651|49=ACCEPTOR|52=20231130-08:34:05.157|56=INITIATOR|10=142|8=FIXT.1.1|9=62|35=0|34=652|49=ACCEPTOR|52=20231130-08:34:06.124|56=INITIATOR|10=138|8=FIXT.1.1|9=62|35=0|34=653|49=ACCEPTOR|52=20231130-08:34:07.090|56=INITIATOR|10=142|8=FIXT.1.1|9=62|35=0|34=654|49=ACCEPTOR|52=20231130-08:34:08.052|56=INITIATOR|10=142|8=FIXT.1.1|9=62|35=0|34=655|49=ACCEPTOR|52=20231130-08:34:09.011|56=INITIATOR|10=139|8=FIXT.1.1|9=62|35=0|34=656|49=ACCEPTOR|52=20231130-08:34:10.132|56=INITIATOR|10=136|8=FIXT.1.1|9=62|35=0|34=657|49=ACCEPTOR|52=20231130-08:34:11.084|56=INITIATOR|10=144|8=FIXT.1.1|9=62|35=0|34=658|49=ACCEPTOR|52=20231130-08:34:12.031|56=INITIATOR|10=138|8=FIXT.1.1|9=62|35=0|34=659|49=ACCEPTOR|52=20231130-08:34:13.146|56=INITIATOR|10=147|8=FIXT.1.1|9=62|35=0|34=660|49=ACCEPTOR|52=20231130-08:34:14.088|56=INITIATOR|10=145|8=FIXT.1.1|9=62|35=0|34=661|49=ACCEPTOR|52=20231130-08:34:15.026|56=INITIATOR|10=139|8=FIXT.1.1|9=62|35=0|34=662|49=ACCEPTOR|52=20231130-08:34:16.136|56=INITIATOR|10=143|8=FIXT.1.1|9=62|35=0|34=663|49=ACCEPTOR|52=20231130-08:34:17.069|56=INITIATOR|10=150|8=FIXT.1.1|9=62|35=0|34=664|49=ACCEPTOR|52=20231130-08:34:18.178|56=INITIATOR|10=153|8=FIXT.1.1|9=62|35=0|34=665|49=ACCEPTOR|52=20231130-08:34:19.097|56=INITIATOR|10=155|8=FIXT.1.1|9=62|35=0|34=666|49=ACCEPTOR|52=20231130-08:34:20.012|56=INITIATOR|10=135|8=FIXT.1.1|9=62|35=0|34=667|49=ACCEPTOR|52=20231130-08:34:21.107|56=INITIATOR|10=142|8=FIXT.1.1|9=62|35=0|34=668|49=ACCEPTOR|52=20231130-08:34:22.007|56=INITIATOR|10=143|8=FIXT.1.1|9=62|35=0|34=669|49=ACCEPTOR|52=20231130-08:34:23.095|56=INITIATOR|10=152|8=FIXT.1.1|9=62|35=0|34=670|49=ACCEPTOR|52=20231130-08:34:24.183|56=INITIATOR|10=143|8=FIXT.1.1|9=62|35=0|34=671|49=ACCEPTOR|52=20231130-08:34:25.070|56=INITIATOR|10=140|8=FIXT.1.1|9=62|35=0|34=672|49=ACCEPTOR|52=20231130-08:34:26.151|56=INITIATOR|10=142|8=FIXT.1.1|9=62|35=0|34=673|49=ACCEPTOR|52=20231130-08:34:27.027|56=INITIATOR|10=146|8=FIXT.1.1|9=62|35=0|34=674|49=ACCEPTOR|52=20231130-08:34:28.108|56=INITIATOR|10=148|8=FIXT.1.1|9=62|35=0|34=675|49=ACCEPTOR|52=20231130-08:34:29.178|56=INITIATOR|10=157|