8=FIXT.1.1|9=95|35=A|34=1|49=ACCEPTOR|52=20231201-06:17:31.686|56=INITIATOR|98=0|108=1|141=Y|1137=spec/FIX.5.0|10=222|8=FIXT.1.1|9=60|35=0|34=2|49=ACCEPTOR|52=20231201-06:17:32.679|56=INITIATOR|10=041|8=FIXT.1.1|9=60|35=0|34=3|49=ACCEPTOR|52=20231201-06:17:33.671|56=INITIATOR|10=035|8=FIXT.1.1|9=60|35=0|34=4|49=ACCEPTOR|52=20231201-06:17:34.664|56=INITIATOR|10=039|8=FIXT.1.1|9=60|35=0|34=5|49=ACCEPTOR|52=20231201-06:17:35.654|56=INITIATOR|10=040|8=FIXT.1.1|9=60|35=0|34=6|49=ACCEPTOR|52=20231201-06:17:36.644|56=INITIATOR|10=041|8=FIXT.1.1|9=60|35=0|34=7|49=ACCEPTOR|52=20231201-06:17:37.633|56=INITIATOR|10=041|8=FIXT.1.1|9=60|35=0|34=8|49=ACCEPTOR|52=20231201-06:17:38.621|56=INITIATOR|10=040|8=FIXT.1.1|9=60|35=0|34=9|49=ACCEPTOR|52=20231201-06:17:39.609|56=INITIATOR|10=048|8=FIXT.1.1|9=61|35=0|34=10|49=ACCEPTOR|52=20231201-06:17:40.595|56=INITIATOR|10=085|8=FIXT.1.1|9=61|35=0|34=11|49=ACCEPTOR|52=20231201-06:17:41.579|56=INITIATOR|10=089|8=FIXT.1.1|9=61|35=0|34=12|49=ACCEPTOR|52=20231201-06:17:42.561|56=INITIATOR|10=082|8=FIXT.1.1|9=61|35=0|34=13|49=ACCEPTOR|52=20231201-06:17:43.544|56=INITIATOR|10=085|8=FIXT.1.1|9=61|35=0|34=14|49=ACCEPTOR|52=20231201-06:17:44.525|56=INITIATOR|10=086|8=FIXT.1.1|9=61|35=0|34=15|49=ACCEPTOR|52=20231201-06:17:45.507|56=INITIATOR|10=088|8=FIXT.1.1|9=61|35=0|34=16|49=ACCEPTOR|52=20231201-06:17:46.488|56=INITIATOR|10=098|8=FIXT.1.1|9=61|35=0|34=17|49=ACCEPTOR|52=20231201-06:17:47.468|56=INITIATOR|10=098|8=FIXT.1.1|9=61|35=0|34=18|49=ACCEPTOR|52=20231201-06:17:48.447|56=INITIATOR|10=097|8=FIXT.1.1|9=61|35=0|34=19|49=ACCEPTOR|52=20231201-06:17:49.425|56=INITIATOR|10=095|8=FIXT.1.1|9=61|35=0|34=20|49=ACCEPTOR|52=20231201-06:17:50.402|56=INITIATOR|10=074|8=FIXT.1.1|9=61|35=0|34=21|49=ACCEPTOR|52=20231201-06:17:51.378|56=INITIATOR|10=088|8=FIXT.1.1|9=61|35=0|34=22|49=ACCEPTOR|52=20231201-06:17:52.353|56=INITIATOR|10=083|8=FIXT.1.1|9=61|35=0|34=23|49=ACCEPTOR|52=20231201-06:17:53.326|56=INITIATOR|10=085|8=FIXT.1.1|9=61|35=0|34=24|49=ACCEPTOR|52=20231201-06:17:54.298|56=INITIATOR|10=095|8=FIXT.1.1|9=61|35=0|34=25|49=ACCEPTOR|52=20231201-06:17:55.270|56=INITIATOR|10=087|8=FIXT.1.1|9=61|35=0|34=26|49=ACCEPTOR|52=20231201-06:17:56.242|56=INITIATOR|10=088|8=FIXT.1.1|9=61|35=0|34=27|49=ACCEPTOR|52=20231201-06:17:57.214|56=INITIATOR|10=089|8=FIXT.1.1|9=61|35=0|34=28|49=ACCEPTOR|52=20231201-06:17:58.184|56=INITIATOR|10=097|8=FIXT.1.1|9=61|35=0|34=29|49=ACCEPTOR|52=20231201-06:17:59.154|56=INITIATOR|10=096|8=FIXT.1.1|9=61|35=0|34=30|49=ACCEPTOR|52=20231201-06:18:00.123|56=INITIATOR|10=071|8=FIXT.1.1|9=61|35=0|34=31|49=ACCEPTOR|52=20231201-06:18:01.090|56=INITIATOR|10=076|8=FIXT.1.1|9=61|35=0|34=32|49=ACCEPTOR|52=20231201-06:18:02.055|56=INITIATOR|10=079|8=FIXT.1.1|9=61|35=0|34=33|49=ACCEPTOR|52=20231201-06:18:03.020|56=INITIATOR|10=073|8=FIXT.1.1|9=61|35=0|34=34|49=ACCEPTOR|52=20231201-06:18:04.946|56=INITIATOR|10=092|8=FIXT.1.1|9=61|35=0|34=35|49=ACCEPTOR|52=20231201-06:18:05.909|56=INITIATOR|10=093|8=FIXT.1.1|9=61|35=0|34=36|49=ACCEPTOR|52=20231201-06:18:06.870|56=INITIATOR|10=092|8=FIXT.1.1|9=61|35=0|34=37|49=ACCEPTOR|52=20231201-06:18:07.830|56=INITIATOR|10=090|8=FIXT.1.1|9=61|35=0|34=38|49=ACCEPTOR|52=20231201-06:18:08.789|56=INITIATOR|10=105|8=FIXT.1.1|9=61|35=0|34=39|49=ACCEPTOR|52=20231201-06:18:09.746|56=INITIATOR|10=100|8=FIXT.1.1|9=61|35=0|34=40|49=ACCEPTOR|52=20231201-06:18:10.703|56=INITIATOR|10=077|8=FIXT.1.1|9=61|35=0|34=41|49=ACCEPTOR|52=20231201-06:18:11.658|56=INITIATOR|10=088|8=FIXT.1.1|9=61|35=0|34=42|49=ACCEPTOR|52=20231201-06:18:12.611|56=INITIATOR|10=079|8=FIXT.1.1|9=61|35=0|34=43|49=ACCEPTOR|52=20231201-06:18:13.564|56=INITIATOR|10=088|8=FIXT.1.1|9=61|35=0|34=44|49=ACCEPTOR|52=20231201-06:18:14.515|56=INITIATOR|10=086|8=FIXT.1.1|9=61|35=0|34=45|49=ACCEPTOR|52=20231201-06:18:15.464|56=INITIATOR|10=091|8=FIXT.1.1|9=61|35=0|34=46|49=ACCEPTOR|52=20231201-06:18:16.413|56=INITIATOR|10=087|8=FIXT.1.1|9=61|35=0|34=47|49=ACCEPTOR|52=20231201-06:18:17.361|56=INITIATOR|10=091|8=FIXT.1.1|9=61|35=0|34=48|49=ACCEPTOR|52=20231201-06:18:18.307|56=INITIATOR|10=093|8=FIXT.1.1|9=61|35=0|34=49|49=ACCEPTOR|52=20231201-06:18:19.254|56=INITIATOR|10=096|8=FIXT.1.1|9=61|35=0|34=50|49=ACCEPTOR|52=20231201-06:18:20.198|56=INITIATOR|10=087|8=FIXT.1.1|9=61|35=0|34=51|49=ACCEPTOR|52=20231201-06:18:21.141|56=INITIATOR|10=077|8=FIXT.1.1|9=61|35=0|34=52|49=ACCEPTOR|52=20231201-06:18:22.084|56=INITIATOR|10=085|8=FIXT.1.1|9=61|35=0|34=53|49=ACCEPTOR|52=20231201-06:18:23.026|56=INITIATOR|10=083|8=FIXT.1.1|9=61|35=0|34=54|49=ACCEPTOR|52=20231201-06:18:24.905|56=INITIATOR|10=091|8=FIXT.1.1|9=61|35=0|34=55|49=ACCEPTOR|52=20231201-06:18:25.845|56=INITIATOR|10=096|8=FIXT.1.1|9=61|35=0|34=56|49=ACCEPTOR|52=20231201-06:18:26.783|56=INITIATOR|10=099|8=FIXT.1.1|9=61|35=0|34=57|49=ACCEPTOR|52=20231201-06:18:27.719|56=INITIATOR|10=100|8=FIXT.1.1|9=61|35=0|34=58|49=ACCEPTOR|52=20231201-06:18:28.654|56=INITIATOR|10=100|8=FIXT.1.1|9=61|35=0|34=59|49=ACCEPTOR|52=20231201-06:18:29.588|56=INITIATOR|10=108|8=FIXT.1.1|9=61|35=0|34=60|49=ACCEPTOR|52=20231201-06:18:30.522|56=INITIATOR|10=080|8=FIXT.1.1|9=61|35=0|34=61|49=ACCEPTOR|52=20231201-06:18:31.454|56=INITIATOR|10=086|8=FIXT.1.1|9=61|35=0|34=62|49=ACCEPTOR|52=20231201-06:18:32.386|56=INITIATOR|10=092|8=FIXT.1.1|9=61|35=0|34=63|49=ACCEPTOR|52=20231201-06:18:33.318|56=INITIATOR|10=089|8=FIXT.1.1|9=61|35=0|34=64|49=ACCEPTOR|52=20231201-06:18:34.248|56=INITIATOR|10=093|8=FIXT.1.1|9=61|35=0|34=65|49=ACCEPTOR|52=20231201-06:18:35.177|56=INITIATOR|10=096|8=FIXT.1.1|9=61|35=0|34=66|49=ACCEPTOR|52=20231201-06:18:36.105|56=INITIATOR|10=089|8=FIXT.1.1|9=61|35=0|34=67|49=ACCEPTOR|52=20231201-06:18:37.032|56=INITIATOR|10=090|8=FIXT.1.1|9=61|35=0|34=68|49=ACCEPTOR|52=20231201-06:18:38.881|56=INITIATOR|10=104|8=FIXT.1.1|9=61|35=0|34=69|49=ACCEPTOR|52=20231201-06:18:39.804|56=INITIATOR|10=101|8=FIXT.1.1|9=61|35=0|34=70|49=ACCEPTOR|52=20231201-06:18:40.728|56=INITIATOR|10=090|8=FIXT.1.1|9=61|35=0|34=71|49=ACCEPTOR|52=20231201-06:18:41.650|56=INITIATOR|10=086|8=FIXT.1.1|9=61|35=0|34=72|49=ACCEPTOR|52=20231201-06:18:42.571|56=INITIATOR|10=090|8=FIXT.1.1|9=61|35=0|34=73|49=ACCEPTOR|52=20231201-06:18:43.491|56=INITIATOR|10=093|8=FIXT.1.1|9=61|35=0|34=74|49=ACCEPTOR|52=20231201-06:18:44.409|56=INITIATOR|10=094|8=FIXT.1.1|9=61|35=0|34=75|49=ACCEPTOR|52=20231201-06:18:45.326|56=INITIATOR|10=094|8=FIXT.1.1|9=61|35=0|34=76|49=ACCEPTOR|52=20231201-06:18:46.243|56=INITIATOR|10=094|8=FIXT.1.1|9=61|35=0|34=77|49=ACCEPTOR|52=20231201-06:18:47.159|56=INITIATOR|10=102|8=FIXT.1.1|9=61|35=0|34=78|49=ACCEPTOR|52=20231201-06:18:48.073|56=INITIATOR|10=099|8=FIXT.1.1|9=61|35=0|34=79|49=ACCEPTOR|52=20231201-06:18:49.005|56=INITIATOR|10=096|8=FIXT.1.1|9=61|35=0|34=80|49=ACCEPTOR|52=20231201-06:18:50.832|56=INITIATOR|10=088|8=FIXT.1.1|9=61|35=0|34=81|49=ACCEPTOR|52=20231201-06:18:51.745|56=INITIATOR|10=093|8=FIXT.1.1|9=61|35=0|34=82|49=ACCEPTOR|52=20231201-06:18:52.658|56=INITIATOR|10=098|8=FIXT.1.1|9=61|35=0|34=83|49=ACCEPTOR|52=20231201-06:18:53.571|56=INITIATOR|10=094|8=FIXT.1.1|9=61|35=0|34=84|49=ACCEPTOR|52=20231201-06:18:54.483|56=INITIATOR|10=098|8=FIXT.1.1|9=61|35=0|34=85|49=ACCEPTOR|52=20231201-06:18:55.396|56=INITIATOR|10=103|8=FIXT.1.1|9=61|35=0|34=86|49=ACCEPTOR|52=20231201-06:18:56.306|56=INITIATOR|10=096|8=FIXT.1.1|9=61|35=0|34=87|49=ACCEPTOR|52=20231201-06:18:57.216|56=INITIATOR|10=098|8=FIXT.1.1|9=61|35=0|34=88|49=ACCEPTOR|52=20231201-06:18:58.125|56=INITIATOR|10=099|8=FIXT.1.1|9=61|35=0|34=89|49=ACCEPTOR|52=20231201-06:18:59.033|56=INITIATOR|10=099|8=FIXT.1.1|9=61|35=0|34=90|49=ACCEPTOR|52=20231201-06:19:00.847|56=INITIATOR|10=091|8=FIXT.1.1|9=61|35=0|34=91|49=ACCEPTOR|52=20231201-06:19:01.753|56=INITIATOR|10=089|8=FIXT.1.1|9=61|35=0|34=92|49=ACCEPTOR|52=20231201-06:19:02.658|56=INITIATOR|10=095|8=FIXT.1.1|9=61|35=0|34=93|49=ACCEPTOR|52=20231201-06:19:03.563|56=INITIATOR|10=092|8=FIXT.1.1|9=61|35=0|34=94|49=ACCEPTOR|52=20231201-06:19:04.467|56=INITIATOR|10=097|8=FIXT.1.1|9=61|35=0|34=95|49=ACCEPTOR|52=20231201-06:19:05.371|56=INITIATOR|10=093|8=FIXT.1.1|9=61|35=0|34=96|49=ACCEPTOR|52=20231201-06:19:06.275|56=INITIATOR|10=098|8=FIXT.1.1|9=61|35=0|34=97|49=ACCEPTOR|52=20231201-06:19:07.177|56=INITIATOR|10=101|8=FIXT.1.1|9=61|35=0|34=98|49=ACCEPTOR|52=20231201-06:19:08.077|56=INITIATOR|10=102|8=FIXT.1.1|9=61|35=0|34=99|49=ACCEPTOR|52=20231201-06:19:09.876|56=INITIATOR|10=111|8=FIXT.1.1|9=62|35=0|34=100|49=ACCEPTOR|52=20231201-06:19:10.775|56=INITIATOR|10=133|8=FIXT.1.1|9=62|35=0|34=101|49=ACCEPTOR|52=20231201-06:19:11.673|56=INITIATOR|10=132|8=FIXT.1.1|9=62|35=0|34=102|49=ACCEPTOR|52=20231201-06:19:12.570|56=INITIATOR|10=130|8=FIXT.1.1|9=62|35=0|34=103|49=ACCEPTOR|52=20231201-06:19:13.467|56=INITIATOR|10=137|8=FIXT.1.1|9=62|35=0|34=104|49=ACCEPTOR|52=20231201-06:19:14.363|56=INITIATOR|10=134|8=FIXT.1.1|9=62|35=0|34=105|49=ACCEPTOR|52=20231201-06:19:15.257|56=INITIATOR|10=138|8=FIXT.1.1|9=62|35=0|34=106|49=ACCEPTOR|52=20231201-06:19:16.150|56=INITIATOR|10=132|8=FIXT.1.1|9=62|35=0|34=107|49=ACCEPTOR|52=20231201-06:19:17.043|56=INITIATOR|10=135|8=FIXT.1.1|9=62|35=0|34=108|49=ACCEPTOR|52=20231201-06:19:18.824|56=INITIATOR|10=144|8=FIXT.1.1|9=62|35=0|34=109|49=ACCEPTOR|52=20231201-06:19:19.714|56=INITIATOR|10=144|8=FIXT.1.1|9=62|35=0|34=110|49=ACCEPTOR|52=20231201-06:19:20.602|56=INITIATOR|10=124|8=FIXT.1.1|9=62|35=0|34=111|49=ACCEPTOR|52=20231201-06:19:21.490|56=INITIATOR|10=131|8=FIXT.1.1|9=62|35=0|34=112|49=ACCEPTOR|52=20231201-06:19:22.376|56=INITIATOR|10=136|8=FIXT.1.1|9=62|35=0|34=113|49=ACCEPTOR|52=20231201-06:19:23.260|56=INITIATOR|10=130|8=FIXT.1.1|9=62|35=0|34=114|49=ACCEPTOR|52=20231201-06:19:24.145|56=INITIATOR|10=134|8=FIXT.1.1|9=62|35=0|34=115|49=ACCEPTOR|52=20231201-06:19:25.029|56=INITIATOR|10=137|8=FIXT.1.1|9=62|35=0|34=116|49=ACCEPTOR|52=20231201-06:19:26.794|56=INITIATOR|10=148|8=FIXT.1.1|9=62|35=0|34=117|49=ACCEPTOR|52=20231201-06:19:27.676|56=INITIATOR|10=149|8=FIXT.1.1|9=62|35=0|34=118|49=ACCEPTOR|52=20231201-06:19:28.557|56=INITIATOR|10=149|8=FIXT.1.1|9=62|35=0|34=119|49=ACCEPTOR|52=20231201-06:19:29.437|56=INITIATOR|10=148|8=FIXT.1.1|9=62|35=0|34=120|49=ACCEPTOR|52=20231201-06:19:30.317|56=INITIATOR|10=129|8=FIXT.1.1|9=62|35=0|34=121|49=ACCEPTOR|52=20231201-06:19:31.195|56=INITIATOR|10=135|8=FIXT.1.1|9=62|35=0|34=122|49=ACCEPTOR|52=20231201-06:19:32.072|56=INITIATOR|10=131|8=FIXT.1.1|9=62|35=0|34=123|49=ACCEPTOR|52=20231201-06:19:33.820|56=INITIATOR|10=134|8=FIXT.1.1|9=62|35=0|34=124|49=ACCEPTOR|52=20231201-06:19:34.698|56=INITIATOR|10=149|8=FIXT.1.1|9=62|35=0|34=125|49=ACCEPTOR|52=20231201-06:19:35.571|56=INITIATOR|10=141|8=FIXT.1.1|9=62|35=0|34=126|49=ACCEPTOR|52=20231201-06:19:36.442|56=INITIATOR|10=140|8=FIXT.1.1|9=62|35=0|34=127|49=ACCEPTOR|52=20231201-06:19:37.312|56=INITIATOR|10=138|8=FIXT.1.1|9=62|35=0|34=128|49=ACCEPTOR|52=20231201-06:19:38.182|56=INITIATOR|10=145|8=FIXT.1.1|9=62|35=0|34=129|49=ACCEPTOR|52=20231201-06:19:39.050|56=INITIATOR|10=141|8=FIXT.1.1|9=62|35=0|34=130|49=ACCEPTOR|52=20231201-06:19:40.781|56=INITIATOR|10=136|8=FIXT.1.1|9=62|35=0|34=131|49=ACCEPTOR|52=20231201-06:19:41.646|56=INITIATOR|10=138|8=FIXT.1.1|9=62|35=0|34=132|49=ACCEPTOR|52=20231201-06:19:42.510|56=INITIATOR|10=130|8=FIXT.1.1|9=62|35=0|34=133|49=ACCEPTOR|52=20231201-06:19:43.373|56=INITIATOR|10=139|8=FIXT.1.1|9=62|35=0|34=134|49=ACCEPTOR|52=20231201-06:19:44.235|56=INITIATOR|10=138|8=FIXT.1.1|9=62|35=0|34=135|49=ACCEPTOR|52=20231201-06:19:45.097|56=INITIATOR|10=146|8=FIXT.1.1|9=62|35=0|34=136|49=ACCEPTOR|52=20231201-06:19:46.819|56=INITIATOR|10=150|8=FIXT.1.1|9=62|35=0|34=137|49=ACCEPTOR|52=20231201-06:19:47.679|56=INITIATOR|10=156|8=FIXT.1.1|9=62|35=0|34=138|49=ACCEPTOR|52=20231201-06:19:48.538|56=INITIATOR|10=152|8=FIXT.1.1|9=62|35=0|34=139|49=ACCEPTOR|52=20231201-06:19:49.396|56=INITIATOR|10=156|8=FIXT.1.1|9=62|35=0|34=140|49=ACCEPTOR|52=20231201-06:19:50.254|56=INITIATOR|10=133|8=FIXT.1.1|9=62|35=0|34=141|49=ACCEPTOR|52=20231201-06:19:51.110|56=INITIATOR|10=126|8=FIXT.1.1|9=62|35=0|34=142|49=ACCEPTOR|52=20231201-06:19:52.819|56=INITIATOR|10=144|8=FIXT.1.1|9=62|35=0|34=143|49=ACCEPTOR|52=20231201-06:19:53.672|56=INITIATOR|10=143|8=FIXT.1.1|9=62|35=0|34=144|49=ACCEPTOR|52=20231201-06:19:54.524|56=INITIATOR|10=141|8=FIXT.1.1|9=62|35=0|34=145|49=ACCEPTOR|52=20231201-06:19:55.376|56=INITIATOR|10=148|8=FIXT.1.1|9=62|35=0|34=146|49=ACCEPTOR|52=20231201-06:19:56.227|56=INITIATOR|10=145|8=FIXT.1.1|9=62|35=0|34=147|49=ACCEPTOR|52=20231201-06:19:57.079|56=INITIATOR|10=152|8=FIXT.1.1|9=62|35=0|34=148|49=ACCEPTOR|52=20231201-06:19:58.776|56=INITIATOR|10=158|8=FIXT.1.1|9=62|35=0|34=149|49=ACCEPTOR|52=20231201-06:19:59.625|56=INITIATOR|10=153|8=FIXT.1.1|9=62|35=0|34=150|49=ACCEPTOR|52=20231201-06:20:00.472|56=INITIATOR|10=123|8=FIXT.1.1|9=62|35=0|34=151|49=ACCEPTOR|52=20231201-06:20:01.318|56=INITIATOR|10=124|8=FIXT.1.1|9=62|35=0|34=152|49=ACCEPTOR|52=20231201-06:20:02.163|56=INITIATOR|10=124|8=FIXT.1.1|9=62|35=0|34=153|49=ACCEPTOR|52=20231201-06:20:03.008|56=INITIATOR|10=124|8=FIXT.1.1|9=62|35=0|34=154|49=ACCEPTOR|52=20231201-06:20:04.697|56=INITIATOR|10=140|8=FIXT.1.1|9=62|35=0|34=155|49=ACCEPTOR|52=20231201-06:20:05.541|56=INITIATOR|10=130|8=FIXT.1.1|9=62|35=0|34=156|49=ACCEPTOR|52=20231201-06:20:06.384|56=INITIATOR|10=137|8=FIXT.1.1|9=62|35=0|34=157|49=ACCEPTOR|52=20231201-06:20:07.226|56=INITIATOR|10=134|8=FIXT.1.1|9=62|35=0|34=158|49=ACCEPTOR|52=20231201-06:20:08.073|56=INITIATOR|10=136|8=FIXT.1.1|9=62|35=0|34=159|49=ACCEPTOR|52=20231201-06:20:09.756|56=INITIATOR|10=146|8=FIXT.1.1|9=62|35=0|34=160|49=ACCEPTOR|52=20231201-06:20:10.596|56=INITIATOR|10=132|8=FIXT.1.1|9=62|35=0|34=161|49=ACCEPTOR|52=20231201-06:20:11.437|56=INITIATOR|10=128|8=FIXT.1.1|9=62|35=0|34=162|49=ACCEPTOR|52=20231201-06:20:12.276|56=INITIATOR|10=131|8=FIXT.1.1|9=62|35=0|34=163|49=ACCEPTOR|52=20231201-06:20:13.124|56=INITIATOR|10=125|8=FIXT.1.1|9=62|35=0|34=164|49=ACCEPTOR|52=20231201-06:20:14.796|56=INITIATOR|10=142|8=FIXT.1.1|9=62|35=0|34=165|49=ACCEPTOR|52=20231201-06:20:15.632|56=INITIATOR|10=133|8=FIXT.1.1|9=62|35=0|34=166|49=ACCEPTOR|52=20231201-06:20:16.465|56=INITIATOR|10=139|8=FIXT.1.1|9=62|35=0|34=167|49=ACCEPTOR|52=20231201-06:20:17.299|56=INITIATOR|10=146|8=FIXT.1.1|9=62|35=0|34=168|49=ACCEPTOR|52=20231201-06:20:18.139|56=INITIATOR|10=141|8=FIXT.1.1|9=62|35=0|34=169|49=ACCEPTOR|52=20231201-06:20:19.798|56=INITIATOR|10=154|8=FIXT.1.1|9=62|35=0|34=170|49=ACCEPTOR|52=20231201-06:20:20.628|56=INITIATOR|10=130|8=FIXT.1.1|9=62|35=0|34=171|49=ACCEPTOR|52=20231201-06:20:21.456|56=INITIATOR|10=131|8=FIXT.1.1|9=62|35=0|34=172|49=ACCEPTOR|52=20231201-06:20:22.282|56=INITIATOR|10=130|8=FIXT.1.1|9=62|35=0|34=173|49=ACCEPTOR|52=20231201-06:20:23.107|56=INITIATOR|10=128|8=FIXT.1.1|9=62|35=0|34=174|49=ACCEPTOR|52=20231201-06:20:24.751|56=INITIATOR|10=135|8=FIXT.1.1|9=62|35=0|34=175|49=ACCEPTOR|52=20231201-06:20:25.574|56=INITIATOR|10=140|8=FIXT.1.1|9=62|35=0|34=176|49=ACCEPTOR|52=20231201-06:20:26.395|56=INITIATOR|10=143|8=FIXT.1.1|9=62|35=0|34=177|49=ACCEPTOR|52=20231201-06:20:27.215|56=INITIATOR|10=136|8=FIXT.1.1|9=62|35=0|34=178|49=ACCEPTOR|52=20231201-06:20:28.034|56=INITIATOR|10=137|8=FIXT.1.1|9=62|35=0|34=179|49=ACCEPTOR|52=20231201-06:20:29.668|56=INITIATOR|10=152|8=FIXT.1.1|9=62|35=0|34=180|49=ACCEPTOR|52=20231201-06:20:30.484|56=INITIATOR|10=132|8=FIXT.1.1|9=62|35=0|34=181|49=ACCEPTOR|52=20231201-06:20:31.299|56=INITIATOR|10=138|8=FIXT.1.1|9=62|35=0|34=182|49=ACCEPTOR|52=20231201-06:20:32.114|56=INITIATOR|10=126|8=FIXT.1.1|9=62|35=0|34=183|49=ACCEPTOR|52=20231201-06:20:33.739|56=INITIATOR|10=141|8=FIXT.1.1|9=62|35=0|34=184|49=ACCEPTOR|52=20231201-06:20:34.551|56=INITIATOR|10=135|8=FIXT.1.1|9=62|35=0|34=185|49=ACCEPTOR|52=20231201-06:20:35.362|56=INITIATOR|10=137|8=FIXT.1.1|9=62|35=0|34=186|49=ACCEPTOR|52=20231201-06:20:36.172|56=INITIATOR|10=138|8=FIXT.1.1|9=62|35=0|34=187|49=ACCEPTOR|52=20231201-06:20:37.016|56=INITIATOR|10=137|8=FIXT.1.1|9=62|35=0|34=188|49=ACCEPTOR|52=20231201-06:20:38.634|56=INITIATOR|10=145|8=FIXT.1.1|9=62|35=0|34=189|49=ACCEPTOR|52=20231201-06:20:39.443|56=INITIATOR|10=145|8=FIXT.1.1|9=62|35=0|34=190|49=ACCEPTOR|52=20231201-06:20:40.251|56=INITIATOR|10=126|8=FIXT.1.1|9=62|35=0|34=191|49=ACCEPTOR|52=20231201-06:20:41.057|56=INITIATOR|10=132|8=FIXT.1.1|9=62|35=0|34=192|49=ACCEPTOR|52=20231201-06:20:42.668|56=INITIATOR|10=142|8=FIXT.1.1|9=62|35=0|34=193|49=ACCEPTOR|52=20231201-06:20:43.473|56=INITIATOR|10=138|8=FIXT.1.1|9=62|35=0|34=194|49=ACCEPTOR|52=20231201-06:20:44.277|56=INITIATOR|10=142|8=FIXT.1.1|9=62|35=0|34=195|49=ACCEPTOR|52=20231201-06:20:45.081|56=INITIATOR|10=137|8=FIXT.1.1|9=62|35=0|34=196|49=ACCEPTOR|52=20231201-06:20:46.684|56=INITIATOR|10=148|8=FIXT.1.1|9=62|35=0|34=197|49=ACCEPTOR|52=20231201-06:20:47.484|56=INITIATOR|10=148|8=FIXT.1.1|9=62|35=0|34=198|49=ACCEPTOR|52=20231201-06:20:48.285|56=INITIATOR|10=149|8=FIXT.1.1|9=62|35=0|34=199|49=ACCEPTOR|52=20231201-06:20:49.084|56=INITIATOR|10=148|8=FIXT.1.1|9=62|35=0|34=200|49=ACCEPTOR|52=20231201-06:20:50.679|56=INITIATOR|10=133|8=FIXT.1.1|9=62|35=0|34=201|49=ACCEPTOR|52=20231201-06:20:51.477|56=INITIATOR|10=131|8=FIXT.1.1|9=62|35=0|34=202|49=ACCEPTOR|52=20231201-06:20:52.273|56=INITIATOR|10=127|8=FIXT.1.1|9=62|35=0|34=203|49=ACCEPTOR|52=20231201-06:20:53.068|56=INITIATOR|10=131|8=FIXT.1.1|9=62|35=0|34=204|49=ACCEPTOR|52=20231201-06:20:54.655|56=INITIATOR|10=135|8=FIXT.1.1|9=62|35=0|34=205|49=ACCEPTOR|52=20231201-06:20:55.448|56=INITIATOR|10=137|8=FIXT.1.1|9=62|35=0|34=206|49=ACCEPTOR|52=20231201-06:20:56.239|56=INITIATOR|10=137|8=FIXT.1.1|9=62|35=0|34=207|49=ACCEPTOR|52=20231201-06:20:57.031|56=INITIATOR|10=129|8=FIXT.1.1|9=62|35=0|34=208|49=ACCEPTOR|52=20231201-06:20:58.610|56=INITIATOR|10=134|8=FIXT.1.1|9=62|35=0|34=209|49=ACCEPTOR|52=20231201-06:20:59.400|56=INITIATOR|10=133|8=FIXT.1.1|9=62|35=0|34=210|49=ACCEPTOR|52=20231201-06:21:00.189|56=INITIATOR|10=126|8=FIXT.1.1|9=62|35=0|34=211|49=ACCEPTOR|52=20231201-06:21:01.013|56=INITIATOR|10=114|8=FIXT.1.1|9=62|35=0|34=212|49=ACCEPTOR|52=20231201-06:21:02.584|56=INITIATOR|10=129|8=FIXT.1.1|9=62|35=0|34=213|49=ACCEPTOR|52=20231201-06:21:03.370|56=INITIATOR|10=124|8=FIXT.1.1|9=62|35=0|34=214|49=ACCEPTOR|52=20231201-06:21:04.154|56=INITIATOR|10=126|8=FIXT.1.1|9=62|35=0|34=215|49=ACCEPTOR|52=20231201-06:21:05.719|56=INITIATOR|10=135|8=FIXT.1.1|9=62|35=0|34=216|49=ACCEPTOR|52=20231201-06:21:06.500|56=INITIATOR|10=125|8=FIXT.1.1|9=62|35=0|34=217|49=ACCEPTOR|52=20231201-06:21:07.280|56=INITIATOR|10=132|8=FIXT.1.1|9=62|35=0|34=218|49=ACCEPTOR|52=20231201-06:21:08.061|56=INITIATOR|10=131|8=FIXT.1.1|9=62|35=0|34=219|49=ACCEPTOR|52=20231201-06:21:09.617|56=INITIATOR|10=140|8=FIXT.1.1|9=62|35=0|34=220|49=ACCEPTOR|52=20231201-06:21:10.394|56=INITIATOR|10=126|8=FIXT.1.1|9=62|35=0|34=221|49=ACCEPTOR|52=20231201-06:21:11.172|56=INITIATOR|10=122|8=FIXT.1.1|9=62|35=0|34=222|49=ACCEPTOR|52=20231201-06:21:12.725|56=INITIATOR|10=128|8=FIXT.1.1|9=62|35=0|34=223|49=ACCEPTOR|52=20231201-06:21:13.501|56=INITIATOR|10=122|8=FIXT.1.1|9=62|35=0|34=224|49=ACCEPTOR|52=20231201-06:21:14.277|56=INITIATOR|10=134|8=FIXT.1.1|9=62|35=0|34=225|49=ACCEPTOR|52=20231201-06:21:15.050|56=INITIATOR|10=125|8=FIXT.1.1|9=62|35=0|34=226|49=ACCEPTOR|52=20231201-06:21:16.596|56=INITIATOR|10=142|8=FIXT.1.1|9=62|35=0|34=227|49=ACCEPTOR|52=20231201-06:21:17.368|56=INITIATOR|10=141|8=FIXT.1.1|9=62|35=0|34=228|49=ACCEPTOR|52=20231201-06:21:18.140|56=INITIATOR|10=131|8=FIXT.1.1|9=62|35=0|34=229|49=ACCEPTOR|52=20231201-06:21:19.677|56=INITIATOR|10=148|8=FIXT.1.1|9=62|35=0|34=230|49=ACCEPTOR|52=20231201-06:21:20.446|56=INITIATOR|10=126|8=FIXT.1.1|9=62|35=0|34=231|49=ACCEPTOR|52=20231201-06:21:21.213|56=INITIATOR|10=120|8=FIXT.1.1|9=62|35=0|34=232|49=ACCEPTOR|52=20231201-06:21:22.018|56=INITIATOR|10=125|8=FIXT.1.1|9=62|35=0|34=233|49=ACCEPTOR|52=20231201-06:21:23.546|56=INITIATOR|10=133|8=FIXT.1.1|9=62|35=0|34=234|49=ACCEPTOR|52=20231201-06:21:24.311|56=INITIATOR|10=125|8=FIXT.1.1|9=62|35=0|34=235|49=ACCEPTOR|52=20231201-06:21:25.073|56=INITIATOR|10=132|8=FIXT.1.1|9=62|35=0|34=236|49=ACCEPTOR|52=20231201-06:21:26.597|56=INITIATOR|10=145|8=FIXT.1.1|9=62|35=0|34=237|49=ACCEPTOR|52=20231201-06:21:27.366|56=INITIATOR|10=141|8=FIXT.1.1|9=62|35=0|34=238|49=ACCEPTOR|52=20231201-06:21:28.127|56=INITIATOR|10=138|8=FIXT.1.1|9=62|35=0|34=239|49=ACCEPTOR|52=20231201-06:21:29.644|56=INITIATOR|10=144|8=FIXT.1.1|9=62|35=0|34=240|49=ACCEPTOR|52=20231201-06:21:30.401|56=INITIATOR|10=119|8=FIXT.1.1|9=62|35=0|34=241|49=ACCEPTOR|52=20231201-06:21:31.158|56=INITIATOR|10=130|8=FIXT.1.1|9=62|35=0|34=242|49=ACCEPTOR|52=20231201-06:21:32.667|56=INITIATOR|10=137|8=FIXT.1.1|9=62|35=0|34=243|49=ACCEPTOR|52=20231201-06:21:33.421|56=INITIATOR|10=127|8=FIXT.1.1|9=62|35=0|34=244|49=ACCEPTOR|52=20231201-06:21:34.172|56=INITIATOR|10=132|8=FIXT.1.1|9=62|35=0|34=245|49=ACCEPTOR|52=20231201-06:21:35.674|56=INITIATOR|10=141|8=FIXT.1.1|9=62|35=0|34=246|49=ACCEPTOR|52=20231201-06:21:36.424|56=INITIATOR|10=136|8=FIXT.1.1|9=62|35=0|34=247|49=ACCEPTOR|52=20231201-06:21:37.175|56=INITIATOR|10=141|8=FIXT.1.1|9=62|35=0|34=248|49=ACCEPTOR|52=20231201-06:21:38.673|56=INITIATOR|10=146|8=FIXT.1.1|9=62|35=0|34=249|49=ACCEPTOR|52=20231201-06:21:39.427|56=INITIATOR|10=145|8=FIXT.1.1|9=62|35=0|34=250|49=ACCEPTOR|52=20231201-06:21:40.174|56=INITIATOR|10=128|8=FIXT.1.1|9=62|35=0|34=251|49=ACCEPTOR|52=20231201-06:21:41.668|56=INITIATOR|10=138|8=FIXT.1.1|9=62|35=0|34=252|49=ACCEPTOR|52=20231201-06:21:42.414|56=INITIATOR|10=129|8=FIXT.1.1|9=62|35=0|34=253|49=ACCEPTOR|52=20231201-06:21:43.160|56=INITIATOR|10=129|8=FIXT.1.1|9=62|35=0|34=254|49=ACCEPTOR|52=20231201-06:21:44.645|56=INITIATOR|10=139|8=FIXT.1.1|9=62|35=0|34=255|49=ACCEPTOR|52=20231201-06:21:45.387|56=INITIATOR|10=144|8=FIXT.1.1|9=62|35=0|34=256|49=ACCEPTOR|52=20231201-06:21:46.127|56=INITIATOR|10=138|8=FIXT.1.1|9=62|35=0|34=257|49=ACCEPTOR|52=20231201-06:21:47.608|56=INITIATOR|10=144|8=FIXT.1.1|9=62|35=0|34=258|49=ACCEPTOR|52=20231201-06:21:48.348|56=INITIATOR|10=147|8=FIXT.1.1|9=62|35=0|34=259|49=ACCEPTOR|52=20231201-06:21:49.087|56=INITIATOR|10=149|8=FIXT.1.1|9=62|35=0|34=260|49=ACCEPTOR|52=20231201-06:21:50.562|56=INITIATOR|10=131|8=FIXT.1.1|9=62|35=0|34=261|49=ACCEPTOR|52=20231201-06:21:51.299|56=INITIATOR|10=140|8=FIXT.1.1|9=62|35=0|34=262|49=ACCEPTOR|52=20231201-06:21:52.034|56=INITIATOR|10=129|8=FIXT.1.1|9=62|35=0|34=263|49=ACCEPTOR|52=20231201-06:21:53.503|56=INITIATOR|10=132|8=FIXT.1.1|9=62|35=0|34=264|49=ACCEPTOR|52=20231201-06:21:54.238|56=INITIATOR|10=139|8=FIXT.1.1|9=62|35=0|34=265|49=ACCEPTOR|52=20231201-06:21:55.014|56=INITIATOR|10=133|8=FIXT.1.1|9=62|35=0|34=266|49=ACCEPTOR|52=20231201-06:21:56.476|56=INITIATOR|10=147|8=FIXT.1.1|9=62|35=0|34=267|49=ACCEPTOR|52=20231201-06:21:57.207|56=INITIATOR|10=141|8=FIXT.1.1|9=62|35=0|34=268|49=ACCEPTOR|52=20231201-06:21:58.664|56=INITIATOR|10=150|8=FIXT.1.1|9=62|35=0|34=269|49=ACCEPTOR|52=20231201-06:21:59.393|56=INITIATOR|10=151|8=FIXT.1.1|9=62|35=0|34=270|49=ACCEPTOR|52=20231201-06:22:00.119|56=INITIATOR|10=126|8=FIXT.1.1|9=62|35=0|34=271|49=ACCEPTOR|52=20231201-06:22:01.569|56=INITIATOR|10=137|8=FIXT.1.1|9=62|35=0|34=272|49=ACCEPTOR|52=20231201-06:22:02.293|56=INITIATOR|10=133|8=FIXT.1.1|9=62|35=0|34=273|49=ACCEPTOR|52=20231201-06:22:03.017|56=INITIATOR|10=129|8=FIXT.1.1|9=62|35=0|34=274|49=ACCEPTOR|52=20231201-06:22:04.460|56=INITIATOR|10=133|8=FIXT.1.1|9=62|35=0|34=275|49=ACCEPTOR|52=20231201-06:22:05.181|56=INITIATOR|10=135|8=FIXT.1.1|9=62|35=0|34=276|49=ACCEPTOR|52=20231201-06:22:06.621|56=INITIATOR|10=136|8=FIXT.1.1|9=62|35=0|34=277|49=ACCEPTOR|52=20231201-06:22:07.340|56=INITIATOR|10=136|8=FIXT.1.1|9=62|35=0|34=278|49=ACCEPTOR|52=20231201-06:22:08.059|56=INITIATOR|10=145|8=FIXT.1.1|9=62|35=0|34=279|49=ACCEPTOR|52=20231201-06:22:09.492|56=INITIATOR|10=148|8=FIXT.1.1|9=62|35=0|34=280|49=ACCEPTOR|52=20231201-06:22:10.208|56=INITIATOR|10=127|8=FIXT.1.1|9=62|35=0|34=281|49=ACCEPTOR|52=20231201-06:22:11.634|56=INITIATOR|10=132|8=FIXT.1.1|9=62|35=0|34=282|49=ACCEPTOR|52=20231201-06:22:12.354|56=INITIATOR|10=133|8=FIXT.1.1|9=62|35=0|34=283|49=ACCEPTOR|52=20231201-06:22:13.066|56=INITIATOR|10=135|8=FIXT.1.1|9=62|35=0|34=284|49=ACCEPTOR|52=20231201-06:22:14.487|56=INITIATOR|10=144|8=FIXT.1.1|9=62|35=0|34=285|49=ACCEPTOR|52=20231201-06:22:15.196|56=INITIATOR|10=143|8=FIXT.1.1|9=62|35=0|34=286|49=ACCEPTOR|52=20231201-06:22:16.614|56=INITIATOR|10=140|8=FIXT.1.1|9=62|35=0|34=287|49=ACCEPTOR|52=20231201-06:22:17.322|56=INITIATOR|10=138|8=FIXT.1.1|9=62|35=0|34=288|49=ACCEPTOR|52=20231201-06:22:18.030|56=INITIATOR|10=136|8=FIXT.1.1|9=62|35=0|34=289|49=ACCEPTOR|52=20231201-06:22:19.445|56=INITIATOR|10=148|8=FIXT.1.1|9=62|35=0|34=290|49=ACCEPTOR|52=20231201-06:22:20.152|56=INITIATOR|10=127|8=FIXT.1.1|9=62|35=0|34=291|49=ACCEPTOR|52=20231201-06:22:21.566|56=INITIATOR|10=138|8=FIXT.1.1|9=62|35=0|34=292|49=ACCEPTOR|52=20231201-06:22:22.272|56=INITIATOR|10=134|8=FIXT.1.1|9=62|35=0|34=293|49=ACCEPTOR|52=20231201-06:22:23.026|56=INITIATOR|10=133|8=FIXT.1.1|9=62|35=0|34=294|49=ACCEPTOR|52=20231201-06:22:24.436|56=INITIATOR|10=140|8=FIXT.1.1|9=62|35=0|34=295|49=ACCEPTOR|52=20231201-06:22:25.141|56=INITIATOR|10=135|8=FIXT.1.1|9=62|35=0|34=296|49=ACCEPTOR|52=20231201-06:22:26.546|56=INITIATOR|10=146|8=FIXT.1.1|9=62|35=0|34=297|49=ACCEPTOR|52=20231201-06:22:27.248|56=INITIATOR|10=147|8=FIXT.1.1|9=62|35=0|34=298|49=ACCEPTOR|52=20231201-06:22:28.651|56=INITIATOR|10=147|8=FIXT.1.1|9=62|35=0|34=299|49=ACCEPTOR|52=20231201-06:22:29.351|56=INITIATOR|10=146|8=FIXT.1.1|9=62|35=0|34=300|49=ACCEPTOR|52=20231201-06:22:30.052|56=INITIATOR|10=119|8=FIXT.1.1|9=62|35=0|34=301|49=ACCEPTOR|52=20231201-06:22:31.449|56=INITIATOR|10=131|8=FIXT.1.1|9=62|35=0|34=302|49=ACCEPTOR|52=20231201-06:22:32.147|56=INITIATOR|10=128|8=FIXT.1.1|9=62|35=0|34=303|49=ACCEPTOR|52=20231201-06:22:33.539|56=INITIATOR|10=135|8=FIXT.1.1|9=62|35=0|34=304|49=ACCEPTOR|52=20231201-06:22:34.234|56=INITIATOR|10=129|8=FIXT.1.1|9=62|35=0|34=305|49=ACCEPTOR|52=20231201-06:22:35.620|56=INITIATOR|10=130|8=FIXT.1.1|9=62|35=0|34=306|49=ACCEPTOR|52=20231201-06:22:36.313|56=INITIATOR|10=131|8=FIXT.1.1|9=62|35=0|34=307|49=ACCEPTOR|52=20231201-06:22:37.005|56=INITIATOR|10=131|8=FIXT.1.1|9=62|35=0|34=308|49=ACCEPTOR|52=20231201-06:22:38.387|56=INITIATOR|10=146|8=FIXT.1.1|9=62|35=0|34=309|49=ACCEPTOR|52=20231201-06:22:39.077|56=INITIATOR|10=144|8=FIXT.1.1|9=62|35=0|34=310|49=ACCEPTOR|52=20231201-06:22:40.454|56=INITIATOR|10=127|8=FIXT.1.1|9=62|35=0|34=311|49=ACCEPTOR|52=20231201-06:22:41.141|56=INITIATOR|10=122|8=FIXT.1.1|9=62|35=0|34=312|49=ACCEPTOR|52=20231201-06:22:42.514|56=INITIATOR|10=128|8=FIXT.1.1|9=62|35=0|34=313|49=ACCEPTOR|52=20231201-06:22:43.199|56=INITIATOR|10=139|8=FIXT.1.1|9=62|35=0|34=314|49=ACCEPTOR|52=20231201-06:22:44.566|56=INITIATOR|10=139|8=FIXT.1.1|9=62|35=0|34=315|49=ACCEPTOR|52=20231201-06:22:45.248|56=INITIATOR|10=138|8=FIXT.1.1|9=62|35=0|34=316|49=ACCEPTOR|52=20231201-06:22:46.609|56=INITIATOR|10=141|8=FIXT.1.1|9=62|35=0|34=317|49=ACCEPTOR|52=20231201-06:22:47.289|56=INITIATOR|10=147|8=FIXT.1.1|9=62|35=0|34=318|49=ACCEPTOR|52=20231201-06:22:48.019|56=INITIATOR|10=140|8=FIXT.1.1|9=62|35=0|34=319|49=ACCEPTOR|52=20231201-06:22:49.374|56=INITIATOR|10=146|8=FIXT.1.1|9=62|35=0|34=320|49=ACCEPTOR|52=20231201-06:22:50.052|56=INITIATOR|10=123|8=FIXT.1.1|9=62|35=0|34=321|49=ACCEPTOR|52=20231201-06:22:51.403|56=INITIATOR|10=125|8=FIXT.1.1|9=62|35=0|34=322|49=ACCEPTOR|52=20231201-06:22:52.077|56=INITIATOR|10=134|8=FIXT.1.1|9=62|35=0|34=323|49=ACCEPTOR|52=20231201-06:22:53.424|56=INITIATOR|10=132|8=FIXT.1.1|9=62|35=0|34=324|49=ACCEPTOR|52=20231201-06:22:54.097|56=INITIATOR|10=140|8=FIXT.1.1|9=62|35=0|34=325|49=ACCEPTOR|52=20231201-06:22:55.441|56=INITIATOR|10=135|8=FIXT.1.1|9=62|35=0|34=326|49=ACCEPTOR|52=20231201-06:22:56.113|56=INITIATOR|10=133|8=FIXT.1.1|9=62|35=0|34=327|49=ACCEPTOR|52=20231201-06:22:57.454|56=INITIATOR|10=143|8=FIXT.1.1|9=62|35=0|34=328|49=ACCEPTOR|52=20231201-06:22:58.125|56=INITIATOR|10=140|8=FIXT.1.1|9=62|35=0|34=329|49=ACCEPTOR|52=20231201-06:22:59.460|56=INITIATOR|10=144|8=FIXT.1.1|9=62|35=0|34=330|49=ACCEPTOR|52=20231201-06:23:00.127|56=INITIATOR|10=123|8=FIXT.1.1|9=62|35=0|34=331|49=ACCEPTOR|52=20231201-06:23:01.459|56=INITIATOR|10=133|8=FIXT.1.1|9=62|35=0|34=332|49=ACCEPTOR|52=20231201-06:23:02.125|56=INITIATOR|10=125|8=FIXT.1.1|9=62|35=0|34=333|49=ACCEPTOR|52=20231201-06:23:03.454|56=INITIATOR|10=132|8=FIXT.1.1|9=62|35=0|34=334|49=ACCEPTOR|52=20231201-06:23:04.119|56=INITIATOR|10=132|8=FIXT.1.1|9=62|35=0|34=335|49=ACCEPTOR|52=20231201-06:23:05.445|56=INITIATOR|10=136|8=FIXT.1.1|9=62|35=0|34=336|49=ACCEPTOR|52=20231201-06:23:06.108|56=INITIATOR|10=134|8=FIXT.1.1|9=62|35=0|34=337|49=ACCEPTOR|52=20231201-06:23:07.429|56=INITIATOR|10=142|8=FIXT.1.1|9=62|35=0|34=338|49=ACCEPTOR|52=20231201-06:23:08.090|56=INITIATOR|10=138|8=FIXT.1.1|9=62|35=0|34=339|49=ACCEPTOR|52=20231201-06:23:09.408|56=INITIATOR|10=143|8=FIXT.1.1|9=62|35=0|34=340|49=ACCEPTOR|52=20231201-06:23:10.067|56=INITIATOR|10=128|8=FIXT.1.1|9=62|35=0|34=341|49=ACCEPTOR|52=20231201-06:23:11.380|56=INITIATOR|10=128|8=FIXT.1.1|9=62|35=0|34=342|49=ACCEPTOR|52=20231201-06:23:12.037|56=INITIATOR|10=129|8=FIXT.1.1|9=62|35=0|34=343|49=ACCEPTOR|52=20231201-06:23:13.345|56=INITIATOR|10=133|8=FIXT.1.1|9=62|35=0|34=344|49=ACCEPTOR|52=20231201-06:23:14.053|56=INITIATOR|10=131|8=FIXT.1.1|9=62|35=0|34=345|49=ACCEPTOR|52=20231201-06:23:15.355|56=INITIATOR|10=138|8=FIXT.1.1|9=62|35=0|34=346|49=ACCEPTOR|52=20231201-06:23:16.007|56=INITIATOR|10=134|8=FIXT.1.1|9=62|35=0|34=347|49=ACCEPTOR|52=20231201-06:23:17.305|56=INITIATOR|10=137|8=FIXT.1.1|9=62|35=0|34=348|49=ACCEPTOR|52=20231201-06:23:18.008|56=INITIATOR|10=139|8=FIXT.1.1|9=62|35=0|34=349|49=ACCEPTOR|52=20231201-06:23:19.302|56=INITIATOR|10=138|8=FIXT.1.1|9=62|35=0|34=350|49=ACCEPTOR|52=20231201-06:23:20.003|56=INITIATOR|10=120|8=FIXT.1.1|9=62|35=0|34=351|49=ACCEPTOR|52=20231201-06:23:21.292|56=INITIATOR|10=132|8=FIXT.1.1|9=62|35=0|34=352|49=ACCEPTOR|52=20231201-06:23:22.582|56=INITIATOR|10=136|8=FIXT.1.1|9=62|35=0|34=353|49=ACCEPTOR|52=20231201-06:23:23.226|56=INITIATOR|10=133|8=FIXT.1.1|9=62|35=0|34=354|49=ACCEPTOR|52=20231201-06:23:24.515|56=INITIATOR|10=136|8=FIXT.1.1|9=62|35=0|34=355|49=ACCEPTOR|52=20231201-06:23:25.159|56=INITIATOR|10=142|8=FIXT.1.1|9=62|35=0|34=356|49=ACCEPTOR|52=20231201-06:23:26.443|56=INITIATOR|10=140|8=FIXT.1.1|9=62|35=0|34=357|49=ACCEPTOR|52=20231201-06:23:27.084|56=INITIATOR|10=143|8=FIXT.1.1|9=62|35=0|34=358|49=ACCEPTOR|52=20231201-06:23:28.363|56=INITIATOR|10=145|8=FIXT.1.1|9=62|35=0|34=359|49=ACCEPTOR|52=20231201-06:23:29.003|56=INITIATOR|10=138|8=FIXT.1.1|9=62|35=0|34=360|49=ACCEPTOR|52=20231201-06:23:30.277|56=INITIATOR|10=135|8=FIXT.1.1|9=62|35=0|34=361|49=ACCEPTOR|52=20231201-06:23:31.548|56=INITIATOR|10=138|8=FIXT.1.1|9=62|35=0|34=362|49=ACCEPTOR|52=20231201-06:23:32.183|56=INITIATOR|10=135|8=FIXT.1.1|9=62|35=0|34=363|49=ACCEPTOR|52=20231201-06:23:33.450|56=INITIATOR|10=134|8=FIXT.1.1|9=62|35=0|34=364|49=ACCEPTOR|52=20231201-06:23:34.083|56=INITIATOR|10=138|8=FIXT.1.1|9=62|35=0|34=365|49=ACCEPTOR|52=20231201-06:23:35.347|56=INITIATOR|10=143|8=FIXT.1.1|9=62|35=0|34=366|49=ACCEPTOR|52=20231201-06:23:36.036|56=INITIATOR|10=140|8=FIXT.1.1|9=62|35=0|34=367|49=ACCEPTOR|52=20231201-06:23:37.294|56=INITIATOR|10=148|8=FIXT.1.1|9=62|35=0|34=368|49=ACCEPTOR|52=20231201-06:23:38.550|56=INITIATOR|10=145|8=FIXT.1.1|9=62|35=0|34=369|49=ACCEPTOR|52=20231201-06:23:39.186|56=INITIATOR|10=152|8=FIXT.1.1|9=62|35=0|34=370|49=ACCEPTOR|52=20231201-06:23:40.437|56=INITIATOR|10=135|8=FIXT.1.1|9=62|35=0|34=371|49=ACCEPTOR|52=20231201-06:23:41.062|56=INITIATOR|10=131|8=FIXT.1.1|9=62|35=0|34=372|49=ACCEPTOR|52=20231201-06:23:42.310|56=INITIATOR|10=129|8=FIXT.1.1|9=62|35=0|34=373|49=ACCEPTOR|52=20231201-06:23:43.554|56=INITIATOR|10=141|8=FIXT.1.1|9=62|35=0|34=374|49=ACCEPTOR|52=20231201-06:23:44.181|56=INITIATOR|10=139|8=FIXT.1.1|9=62|35=0|34=375|49=ACCEPTOR|52=20231201-06:23:45.421|56=INITIATOR|10=138|8=FIXT.1.1|9=62|35=0|34=376|49=ACCEPTOR|52=20231201-06:23:46.039|56=INITIATOR|10=145|8=FIXT.1.1|9=62|35=0|34=377|49=ACCEPTOR|52=20231201-06:23:47.275|56=INITIATOR|10=149|8=FIXT.1.1|9=62|35=0|34=378|49=ACCEPTOR|52=20231201-06:23:48.508|56=INITIATOR|10=150|8=FIXT.1.1|9=62|35=0|34=379|49=ACCEPTOR|52=20231201-06:23:49.123|56=INITIATOR|10=145|8=FIXT.1.1|9=62|35=0|34=380|49=ACCEPTOR|52=20231201-06:23:50.353|56=INITIATOR|10=134|8=FIXT.1.1|9=62|35=0|34=381|49=ACCEPTOR|52=20231201-06:23:51.026|56=INITIATOR|10=133|8=FIXT.1.1|9=62|35=0|34=382|49=ACCEPTOR|52=20231201-06:23:52.251|56=INITIATOR|10=135|8=FIXT.1.1|9=62|35=0|34=383|49=ACCEPTOR|52=20231201-06:23:53.475|56=INITIATOR|10=145|8=FIXT.1.1|9=62|35=0|34=384|49=ACCEPTOR|52=20231201-06:23:54.086|56=INITIATOR|10=145|8=FIXT.1.1|9=62|35=0|34=385|49=ACCEPTOR|52=20231201-06:23:55.305|56=INITIATOR|10=141|8=FIXT.1.1|9=62|35=0|34=386|49=ACCEPTOR|52=20231201-06:23:56.522|56=INITIATOR|10=144|8=FIXT.1.1|9=62|35=0|34=387|49=ACCEPTOR|52=20231201-06:23:57.130|56=INITIATOR|10=141|8=FIXT.1.1|9=62|35=0|34=388|49=ACCEPTOR|52=20231201-06:23:58.344|56=INITIATOR|10=150|8=FIXT.1.1|9=62|35=0|34=389|49=ACCEPTOR|52=20231201-06:23:59.011|56=INITIATOR|10=143|8=FIXT.1.1|9=62|35=0|34=390|49=ACCEPTOR|52=20231201-06:24:00.218|56=INITIATOR|10=131|8=FIXT.1.1|9=62|35=0|34=391|49=ACCEPTOR|52=20231201-06:24:01.423|56=INITIATOR|10=131|8=FIXT.1.1|9=62|35=0|34=392|49=ACCEPTOR|52=20231201-06:24:02.025|56=INITIATOR|10=131|8=FIXT.1.1|9=62|35=0|34=393|49=ACCEPTOR|52=20231201-06:24:03.225|56=INITIATOR|10=135|8=FIXT.1.1|9=62|35=0|34=394|49=ACCEPTOR|52=20231201-06:24:04.424|56=INITIATOR|10=138|8=FIXT.1.1|9=62|35=0|34=395|49=ACCEPTOR|52=20231201-06:24:05.023|56=INITIATOR|10=135|8=FIXT.1.1|9=62|35=0|34=396|49=ACCEPTOR|52=20231201-06:24:06.218|56=INITIATOR|10=143|8=FIXT.1.1|9=62|35=0|34=397|49=ACCEPTOR|52=20231201-06:24:07.410|56=INITIATOR|10=139|8=FIXT.1.1|9=62|35=0|34=398|49=ACCEPTOR|52=20231201-06:24:08.007|56=INITIATOR|10=143|8=FIXT.1.1|9=62|35=0|34=399|49=ACCEPTOR|52=20231201-06:24:09.195|56=INITIATOR|10=153|8=FIXT.1.1|9=62|35=0|34=400|49=ACCEPTOR|52=20231201-06:24:10.381|56=INITIATOR|10=125|8=FIXT.1.1|9=62|35=0|34=401|49=ACCEPTOR|52=20231201-06:24:11.035|56=INITIATOR|10=123|8=FIXT.1.1|9=62|35=0|34=402|49=ACCEPTOR|52=20231201-06:24:12.216|56=INITIATOR|10=126|8=FIXT.1.1|9=62|35=0|34=403|49=ACCEPTOR|52=20231201-06:24:13.395|56=INITIATOR|10=136|8=FIXT.1.1|9=62|35=0|34=404|49=ACCEPTOR|52=20231201-06:24:14.045|56=INITIATOR|10=130|8=FIXT.1.1|9=62|35=0|34=405|49=ACCEPTOR|52=20231201-06:24:15.218|56=INITIATOR|10=134|