8=FIXT.1.1|9=79|35=A|34=1|49=ACCEPTOR|52=20231129-04:50:56.064|56=INITIATOR|98=0|108=30|1137=7|10=155|8=FIXT.1.1|9=60|35=0|34=2|49=ACCEPTOR|52=20231129-04:51:26.021|56=INITIATOR|10=030|8=FIXT.1.1|9=60|35=0|34=3|49=ACCEPTOR|52=20231129-04:51:56.724|56=INITIATOR|10=044|8=FIXT.1.1|9=60|35=0|34=4|49=ACCEPTOR|52=20231129-04:52:26.278|56=INITIATOR|10=047|8=FIXT.1.1|9=60|35=0|34=5|49=ACCEPTOR|52=20231129-04:52:56.681|56=INITIATOR|10=049|8=FIXT.1.1|9=60|35=0|34=6|49=ACCEPTOR|52=20231129-04:53:26.155|56=INITIATOR|10=044|