20231130-08:18:36.397720000 : 8=FIXT.1.1|9=84|35=A|34=1|49=INITIATOR|52=20231130-08:18:36.397|56=ACCEPTOR|98=0|108=1|141=Y|1137=7|10=153|
20231130-08:18:36.398190000 : 8=FIXT.1.1|9=95|35=A|34=1|49=ACCEPTOR|52=20231130-08:18:36.398|56=INITIATOR|98=0|108=1|141=Y|1137=spec/FIX.5.0|10=231|
20231130-08:18:37.293296000 : 8=FIXT.1.1|9=60|35=0|34=2|49=ACCEPTOR|52=20231130-08:18:37.293|56=INITIATOR|10=042|
20231130-08:18:37.293356000 : 8=FIXT.1.1|9=60|35=0|34=2|49=INITIATOR|52=20231130-08:18:37.293|56=ACCEPTOR|10=042|
20231130-08:18:38.189087000 : 8=FIXT.1.1|9=60|35=0|34=3|49=ACCEPTOR|52=20231130-08:18:38.188|56=INITIATOR|10=047|
20231130-08:18:38.189442000 : 8=FIXT.1.1|9=60|35=0|34=3|49=INITIATOR|52=20231130-08:18:38.189|56=ACCEPTOR|10=048|
20231130-08:18:46.165172000 : 8=FIXT.1.1|9=84|35=A|34=1|49=INITIATOR|52=20231130-08:18:46.165|56=ACCEPTOR|98=0|108=1|141=Y|1137=7|10=147|
20231130-08:18:46.165426000 : 8=FIXT.1.1|9=95|35=A|34=1|49=ACCEPTOR|52=20231130-08:18:46.165|56=INITIATOR|98=0|108=1|141=Y|1137=spec/FIX.5.0|10=224|
20231130-08:18:47.057099000 : 8=FIXT.1.1|9=60|35=0|34=2|49=ACCEPTOR|52=20231130-08:18:47.056|56=INITIATOR|10=040|
20231130-08:18:47.057525000 : 8=FIXT.1.1|9=60|35=0|34=2|49=INITIATOR|52=20231130-08:18:47.057|56=ACCEPTOR|10=041|
20231130-08:18:48.062440000 : 8=FIXT.1.1|9=60|35=0|34=3|49=INITIATOR|52=20231130-08:18:48.056|56=ACCEPTOR|10=042|
20231130-08:18:48.062744000 : 8=FIXT.1.1|9=60|35=0|34=3|49=ACCEPTOR|52=20231130-08:18:48.062|56=INITIATOR|10=039|
