20231202-03:52:00.278733000 : 8=FIXT.1.1|9=80|35=A|34=81|49=INITIATOR|52=20231202-03:52:00.278|56=ACCEPTOR|98=0|108=30|1137=7|10=192|
20231202-03:52:01.279153000 : 8=FIXT.1.1|9=80|35=A|34=82|49=INITIATOR|52=20231202-03:52:01.279|56=ACCEPTOR|98=0|108=30|1137=7|10=195|
20231202-03:52:02.278535000 : 8=FIXT.1.1|9=80|35=A|34=83|49=INITIATOR|52=20231202-03:52:02.278|56=ACCEPTOR|98=0|108=30|1137=7|10=196|
20231202-03:52:03.277872000 : 8=FIXT.1.1|9=80|35=A|34=84|49=INITIATOR|52=20231202-03:52:03.277|56=ACCEPTOR|98=0|108=30|1137=7|10=197|
20231202-03:52:04.277328000 : 8=FIXT.1.1|9=80|35=A|34=85|49=INITIATOR|52=20231202-03:52:04.277|56=ACCEPTOR|98=0|108=30|1137=7|10=199|
20231202-03:52:05.275634000 : 8=FIXT.1.1|9=80|35=A|34=86|49=INITIATOR|52=20231202-03:52:05.275|56=ACCEPTOR|98=0|108=30|1137=7|10=199|
20231202-03:52:06.273914000 : 8=FIXT.1.1|9=80|35=A|34=87|49=INITIATOR|52=20231202-03:52:06.273|56=ACCEPTOR|98=0|108=30|1137=7|10=199|
20231202-03:52:07.272396000 : 8=FIXT.1.1|9=80|35=A|34=88|49=INITIATOR|52=20231202-03:52:07.272|56=ACCEPTOR|98=0|108=30|1137=7|10=200|
20231202-03:52:08.270798000 : 8=FIXT.1.1|9=80|35=A|34=89|49=INITIATOR|52=20231202-03:52:08.270|56=ACCEPTOR|98=0|108=30|1137=7|10=200|
20231202-03:52:09.268164000 : 8=FIXT.1.1|9=80|35=A|34=90|49=INITIATOR|52=20231202-03:52:09.268|56=ACCEPTOR|98=0|108=30|1137=7|10=200|
20231202-03:52:10.265713000 : 8=FIXT.1.1|9=80|35=A|34=91|49=INITIATOR|52=20231202-03:52:10.265|56=ACCEPTOR|98=0|108=30|1137=7|10=190|
20231202-03:52:11.263098000 : 8=FIXT.1.1|9=80|35=A|34=92|49=INITIATOR|52=20231202-03:52:11.263|56=ACCEPTOR|98=0|108=30|1137=7|10=190|
20231202-03:52:12.259460000 : 8=FIXT.1.1|9=80|35=A|34=93|49=INITIATOR|52=20231202-03:52:12.259|56=ACCEPTOR|98=0|108=30|1137=7|10=197|
20231202-03:52:13.255856000 : 8=FIXT.1.1|9=80|35=A|34=94|49=INITIATOR|52=20231202-03:52:13.255|56=ACCEPTOR|98=0|108=30|1137=7|10=195|
20231202-03:52:14.252259000 : 8=FIXT.1.1|9=80|35=A|34=95|49=INITIATOR|52=20231202-03:52:14.252|56=ACCEPTOR|98=0|108=30|1137=7|10=194|
20231202-03:52:15.248697000 : 8=FIXT.1.1|9=80|35=A|34=96|49=INITIATOR|52=20231202-03:52:15.248|56=ACCEPTOR|98=0|108=30|1137=7|10=201|
20231202-03:52:16.244173000 : 8=FIXT.1.1|9=80|35=A|34=97|49=INITIATOR|52=20231202-03:52:16.244|56=ACCEPTOR|98=0|108=30|1137=7|10=199|
20231202-03:52:17.239534000 : 8=FIXT.1.1|9=80|35=A|34=98|49=INITIATOR|52=20231202-03:52:17.239|56=ACCEPTOR|98=0|108=30|1137=7|10=205|
20231202-03:52:18.234960000 : 8=FIXT.1.1|9=80|35=A|34=99|49=INITIATOR|52=20231202-03:52:18.234|56=ACCEPTOR|98=0|108=30|1137=7|10=202|
20231202-03:52:19.229417000 : 8=FIXT.1.1|9=81|35=A|34=100|49=INITIATOR|52=20231202-03:52:19.229|56=ACCEPTOR|98=0|108=30|1137=7|10=239|
20231202-03:52:20.223790000 : 8=FIXT.1.1|9=81|35=A|34=101|49=INITIATOR|52=20231202-03:52:20.223|56=ACCEPTOR|98=0|108=30|1137=7|10=226|
20231202-03:52:21.217710000 : 8=FIXT.1.1|9=81|35=A|34=102|49=INITIATOR|52=20231202-03:52:21.217|56=ACCEPTOR|98=0|108=30|1137=7|10=231|
20231202-03:52:22.212156000 : 8=FIXT.1.1|9=81|35=A|34=103|49=INITIATOR|52=20231202-03:52:22.212|56=ACCEPTOR|98=0|108=30|1137=7|10=228|
20231202-03:52:23.205449000 : 8=FIXT.1.1|9=81|35=A|34=104|49=INITIATOR|52=20231202-03:52:23.205|56=ACCEPTOR|98=0|108=30|1137=7|10=232|
20231202-03:52:24.199023000 : 8=FIXT.1.1|9=81|35=A|34=105|49=INITIATOR|52=20231202-03:52:24.198|56=ACCEPTOR|98=0|108=30|1137=7|10=245|
20231202-03:52:25.192437000 : 8=FIXT.1.1|9=81|35=A|34=106|49=INITIATOR|52=20231202-03:52:25.192|56=ACCEPTOR|98=0|108=30|1137=7|10=241|
20231202-03:52:26.185036000 : 8=FIXT.1.1|9=81|35=A|34=107|49=INITIATOR|52=20231202-03:52:26.185|56=ACCEPTOR|98=0|108=30|1137=7|10=245|
20231202-03:52:27.177833000 : 8=FIXT.1.1|9=81|35=A|34=108|49=INITIATOR|52=20231202-03:52:27.177|56=ACCEPTOR|98=0|108=30|1137=7|10=248|
20231202-03:52:28.170324000 : 8=FIXT.1.1|9=81|35=A|34=109|49=INITIATOR|52=20231202-03:52:28.170|56=ACCEPTOR|98=0|108=30|1137=7|10=243|
20231202-03:52:29.163023000 : 8=FIXT.1.1|9=81|35=A|34=110|49=INITIATOR|52=20231202-03:52:29.162|56=ACCEPTOR|98=0|108=30|1137=7|10=237|
20231202-03:52:30.154455000 : 8=FIXT.1.1|9=81|35=A|34=111|49=INITIATOR|52=20231202-03:52:30.154|56=ACCEPTOR|98=0|108=30|1137=7|10=231|
20231202-03:52:31.145861000 : 8=FIXT.1.1|9=81|35=A|34=112|49=INITIATOR|52=20231202-03:52:31.145|56=ACCEPTOR|98=0|108=30|1137=7|10=233|
20231202-03:52:32.137311000 : 8=FIXT.1.1|9=81|35=A|34=113|49=INITIATOR|52=20231202-03:52:32.137|56=ACCEPTOR|98=0|108=30|1137=7|10=236|
20231202-03:52:33.127707000 : 8=FIXT.1.1|9=81|35=A|34=114|49=INITIATOR|52=20231202-03:52:33.127|56=ACCEPTOR|98=0|108=30|1137=7|10=237|
20231202-03:52:34.118005000 : 8=FIXT.1.1|9=81|35=A|34=115|49=INITIATOR|52=20231202-03:52:34.117|56=ACCEPTOR|98=0|108=30|1137=7|10=238|
20231202-03:52:35.108491000 : 8=FIXT.1.1|9=81|35=A|34=116|49=INITIATOR|52=20231202-03:52:35.108|56=ACCEPTOR|98=0|108=30|1137=7|10=240|
20231202-03:52:36.098858000 : 8=FIXT.1.1|9=81|35=A|34=117|49=INITIATOR|52=20231202-03:52:36.098|56=ACCEPTOR|98=0|108=30|1137=7|10=250|
20231202-03:52:37.088330000 : 8=FIXT.1.1|9=81|35=A|34=118|49=INITIATOR|52=20231202-03:52:37.088|56=ACCEPTOR|98=0|108=30|1137=7|10=251|
20231202-03:52:38.077900000 : 8=FIXT.1.1|9=81|35=A|34=119|49=INITIATOR|52=20231202-03:52:38.077|56=ACCEPTOR|98=0|108=30|1137=7|10=251|
20231202-03:52:39.067228000 : 8=FIXT.1.1|9=81|35=A|34=120|49=INITIATOR|52=20231202-03:52:39.067|56=ACCEPTOR|98=0|108=30|1137=7|10=243|
20231202-03:52:40.055566000 : 8=FIXT.1.1|9=81|35=A|34=121|49=INITIATOR|52=20231202-03:52:40.055|56=ACCEPTOR|98=0|108=30|1137=7|10=233|
20231202-03:52:41.043958000 : 8=FIXT.1.1|9=81|35=A|34=122|49=INITIATOR|52=20231202-03:52:41.043|56=ACCEPTOR|98=0|108=30|1137=7|10=232|
20231202-03:52:42.032585000 : 8=FIXT.1.1|9=81|35=A|34=123|49=INITIATOR|52=20231202-03:52:42.032|56=ACCEPTOR|98=0|108=30|1137=7|10=232|
20231202-03:52:43.020971000 : 8=FIXT.1.1|9=81|35=A|34=124|49=INITIATOR|52=20231202-03:52:43.020|56=ACCEPTOR|98=0|108=30|1137=7|10=231|
20231202-03:52:44.995400000 : 8=FIXT.1.1|9=81|35=A|34=125|49=INITIATOR|52=20231202-03:52:44.995|56=ACCEPTOR|98=0|108=30|1137=7|10=254|
20231202-03:52:45.982715000 : 8=FIXT.1.1|9=81|35=A|34=126|49=INITIATOR|52=20231202-03:52:45.982|56=ACCEPTOR|98=0|108=30|1137=7|10=252|
20231202-03:52:46.970051000 : 8=FIXT.1.1|9=81|35=A|34=127|49=INITIATOR|52=20231202-03:52:46.970|56=ACCEPTOR|98=0|108=30|1137=7|10=251|
20231202-03:52:47.957333000 : 8=FIXT.1.1|9=81|35=A|34=128|49=INITIATOR|52=20231202-03:52:47.957|56=ACCEPTOR|98=0|108=30|1137=7|10=002|
20231202-03:52:48.943754000 : 8=FIXT.1.1|9=81|35=A|34=129|49=INITIATOR|52=20231202-03:52:48.943|56=ACCEPTOR|98=0|108=30|1137=7|10=255|
20231202-03:52:49.930138000 : 8=FIXT.1.1|9=81|35=A|34=130|49=INITIATOR|52=20231202-03:52:49.930|56=ACCEPTOR|98=0|108=30|1137=7|10=244|
20231202-03:52:50.916635000 : 8=FIXT.1.1|9=81|35=A|34=131|49=INITIATOR|52=20231202-03:52:50.916|56=ACCEPTOR|98=0|108=30|1137=7|10=241|
20231202-03:52:51.901596000 : 8=FIXT.1.1|9=81|35=A|34=132|49=INITIATOR|52=20231202-03:52:51.901|56=ACCEPTOR|98=0|108=30|1137=7|10=237|
20231202-03:52:52.887000000 : 8=FIXT.1.1|9=81|35=A|34=133|49=INITIATOR|52=20231202-03:52:52.886|56=ACCEPTOR|98=0|108=30|1137=7|10=251|
20231202-03:52:53.872333000 : 8=FIXT.1.1|9=81|35=A|34=134|49=INITIATOR|52=20231202-03:52:53.872|56=ACCEPTOR|98=0|108=30|1137=7|10=248|
20231202-03:52:54.857662000 : 8=FIXT.1.1|9=81|35=A|34=135|49=INITIATOR|52=20231202-03:52:54.857|56=ACCEPTOR|98=0|108=30|1137=7|10=253|
20231202-03:52:55.842088000 : 8=FIXT.1.1|9=81|35=A|34=136|49=INITIATOR|52=20231202-03:52:55.842|56=ACCEPTOR|98=0|108=30|1137=7|10=249|
20231202-03:52:56.826538000 : 8=FIXT.1.1|9=81|35=A|34=137|49=INITIATOR|52=20231202-03:52:56.826|56=ACCEPTOR|98=0|108=30|1137=7|10=253|
20231202-03:52:57.810913000 : 8=FIXT.1.1|9=81|35=A|34=138|49=INITIATOR|52=20231202-03:52:57.810|56=ACCEPTOR|98=0|108=30|1137=7|10=248|
20231202-03:52:58.794396000 : 8=FIXT.1.1|9=81|35=A|34=139|49=INITIATOR|52=20231202-03:52:58.794|56=ACCEPTOR|98=0|108=30|1137=7|10=005|
20231202-03:52:59.777878000 : 8=FIXT.1.1|9=81|35=A|34=140|49=INITIATOR|52=20231202-03:52:59.777|56=ACCEPTOR|98=0|108=30|1137=7|10=255|
20231202-03:53:00.760538000 : 8=FIXT.1.1|9=81|35=A|34=141|49=INITIATOR|52=20231202-03:53:00.760|56=ACCEPTOR|98=0|108=30|1137=7|10=235|
20231202-03:53:01.744128000 : 8=FIXT.1.1|9=81|35=A|34=142|49=INITIATOR|52=20231202-03:53:01.744|56=ACCEPTOR|98=0|108=30|1137=7|10=239|
20231202-03:53:02.726440000 : 8=FIXT.1.1|9=81|35=A|34=143|49=INITIATOR|52=20231202-03:53:02.726|56=ACCEPTOR|98=0|108=30|1137=7|10=241|
20231202-03:53:03.708883000 : 8=FIXT.1.1|9=81|35=A|34=144|49=INITIATOR|52=20231202-03:53:03.708|56=ACCEPTOR|98=0|108=30|1137=7|10=243|
20231202-03:53:04.690477000 : 8=FIXT.1.1|9=81|35=A|34=145|49=INITIATOR|52=20231202-03:53:04.690|56=ACCEPTOR|98=0|108=30|1137=7|10=245|
20231202-03:53:05.671919000 : 8=FIXT.1.1|9=81|35=A|34=146|49=INITIATOR|52=20231202-03:53:05.671|56=ACCEPTOR|98=0|108=30|1137=7|10=246|
20231202-03:53:06.653314000 : 8=FIXT.1.1|9=81|35=A|34=147|49=INITIATOR|52=20231202-03:53:06.653|56=ACCEPTOR|98=0|108=30|1137=7|10=248|
20231202-03:53:07.634668000 : 8=FIXT.1.1|9=81|35=A|34=148|49=INITIATOR|52=20231202-03:53:07.634|56=ACCEPTOR|98=0|108=30|1137=7|10=249|
20231202-03:53:08.616057000 : 8=FIXT.1.1|9=81|35=A|34=149|49=INITIATOR|52=20231202-03:53:08.616|56=ACCEPTOR|98=0|108=30|1137=7|10=251|
20231202-03:53:09.596411000 : 8=FIXT.1.1|9=81|35=A|34=150|49=INITIATOR|52=20231202-03:53:09.596|56=ACCEPTOR|98=0|108=30|1137=7|10=251|
20231202-03:53:10.576963000 : 8=FIXT.1.1|9=81|35=A|34=151|49=INITIATOR|52=20231202-03:53:10.576|56=ACCEPTOR|98=0|108=30|1137=7|10=242|
20231202-03:53:11.557383000 : 8=FIXT.1.1|9=81|35=A|34=152|49=INITIATOR|52=20231202-03:53:11.557|56=ACCEPTOR|98=0|108=30|1137=7|10=243|
20231202-03:53:12.536734000 : 8=FIXT.1.1|9=81|35=A|34=153|49=INITIATOR|52=20231202-03:53:12.536|56=ACCEPTOR|98=0|108=30|1137=7|10=242|
20231202-03:53:13.516017000 : 8=FIXT.1.1|9=81|35=A|34=154|49=INITIATOR|52=20231202-03:53:13.515|56=ACCEPTOR|98=0|108=30|1137=7|10=241|
20231202-03:53:14.495490000 : 8=FIXT.1.1|9=81|35=A|34=155|49=INITIATOR|52=20231202-03:53:14.495|56=ACCEPTOR|98=0|108=30|1137=7|10=250|
20231202-03:53:15.473831000 : 8=FIXT.1.1|9=81|35=A|34=156|49=INITIATOR|52=20231202-03:53:15.473|56=ACCEPTOR|98=0|108=30|1137=7|10=248|
20231202-03:53:16.452111000 : 8=FIXT.1.1|9=81|35=A|34=157|49=INITIATOR|52=20231202-03:53:16.452|56=ACCEPTOR|98=0|108=30|1137=7|10=247|
20231202-03:53:17.430540000 : 8=FIXT.1.1|9=81|35=A|34=158|49=INITIATOR|52=20231202-03:53:17.430|56=ACCEPTOR|98=0|108=30|1137=7|10=245|
20231202-03:53:18.408992000 : 8=FIXT.1.1|9=81|35=A|34=159|49=INITIATOR|52=20231202-03:53:18.408|56=ACCEPTOR|98=0|108=30|1137=7|10=252|
20231202-03:53:19.386345000 : 8=FIXT.1.1|9=81|35=A|34=160|49=INITIATOR|52=20231202-03:53:19.386|56=ACCEPTOR|98=0|108=30|1137=7|10=250|
20231202-03:53:20.363678000 : 8=FIXT.1.1|9=81|35=A|34=161|49=INITIATOR|52=20231202-03:53:20.363|56=ACCEPTOR|98=0|108=30|1137=7|10=238|
20231202-03:53:21.341083000 : 8=FIXT.1.1|9=81|35=A|34=162|49=INITIATOR|52=20231202-03:53:21.341|56=ACCEPTOR|98=0|108=30|1137=7|10=236|
20231202-03:53:22.317443000 : 8=FIXT.1.1|9=81|35=A|34=163|49=INITIATOR|52=20231202-03:53:22.317|56=ACCEPTOR|98=0|108=30|1137=7|10=241|
20231202-03:53:23.293830000 : 8=FIXT.1.1|9=81|35=A|34=164|49=INITIATOR|52=20231202-03:53:23.293|56=ACCEPTOR|98=0|108=30|1137=7|10=246|
20231202-03:53:24.270213000 : 8=FIXT.1.1|9=81|35=A|34=165|49=INITIATOR|52=20231202-03:53:24.270|56=ACCEPTOR|98=0|108=30|1137=7|10=243|
20231202-03:53:25.246549000 : 8=FIXT.1.1|9=81|35=A|34=166|49=INITIATOR|52=20231202-03:53:25.246|56=ACCEPTOR|98=0|108=30|1137=7|10=248|
20231202-03:53:26.221992000 : 8=FIXT.1.1|9=81|35=A|34=167|49=INITIATOR|52=20231202-03:53:26.221|56=ACCEPTOR|98=0|108=30|1137=7|10=243|
20231202-03:53:27.197354000 : 8=FIXT.1.1|9=81|35=A|34=168|49=INITIATOR|52=20231202-03:53:27.197|56=ACCEPTOR|98=0|108=30|1137=7|10=001|
20231202-03:53:28.172814000 : 8=FIXT.1.1|9=81|35=A|34=169|49=INITIATOR|52=20231202-03:53:28.172|56=ACCEPTOR|98=0|108=30|1137=7|10=252|
20231202-03:53:29.148131000 : 8=FIXT.1.1|9=81|35=A|34=170|49=INITIATOR|52=20231202-03:53:29.148|56=ACCEPTOR|98=0|108=30|1137=7|10=248|
20231202-03:53:30.122622000 : 8=FIXT.1.1|9=81|35=A|34=171|49=INITIATOR|52=20231202-03:53:30.122|56=ACCEPTOR|98=0|108=30|1137=7|10=233|
20231202-03:53:31.097024000 : 8=FIXT.1.1|9=81|35=A|34=172|49=INITIATOR|52=20231202-03:53:31.096|56=ACCEPTOR|98=0|108=30|1137=7|10=245|
20231202-03:53:32.071458000 : 8=FIXT.1.1|9=81|35=A|34=173|49=INITIATOR|52=20231202-03:53:32.071|56=ACCEPTOR|98=0|108=30|1137=7|10=240|
20231202-03:53:33.044893000 : 8=FIXT.1.1|9=81|35=A|34=174|49=INITIATOR|52=20231202-03:53:33.044|56=ACCEPTOR|98=0|108=30|1137=7|10=242|
20231202-03:53:34.018457000 : 8=FIXT.1.1|9=81|35=A|34=175|49=INITIATOR|52=20231202-03:53:34.018|56=ACCEPTOR|98=0|108=30|1137=7|10=245|
20231202-03:53:35.964874000 : 8=FIXT.1.1|9=81|35=A|34=176|49=INITIATOR|52=20231202-03:53:35.964|56=ACCEPTOR|98=0|108=30|1137=7|10=001|
20231202-03:53:36.938235000 : 8=FIXT.1.1|9=81|35=A|34=177|49=INITIATOR|52=20231202-03:53:36.938|56=ACCEPTOR|98=0|108=30|1137=7|10=004|
20231202-03:53:37.910833000 : 8=FIXT.1.1|9=81|35=A|34=178|49=INITIATOR|52=20231202-03:53:37.910|56=ACCEPTOR|98=0|108=30|1137=7|10=252|
20231202-03:53:38.883264000 : 8=FIXT.1.1|9=81|35=A|34=179|49=INITIATOR|52=20231202-03:53:38.883|56=ACCEPTOR|98=0|108=30|1137=7|10=007|
20231202-03:53:39.854645000 : 8=FIXT.1.1|9=81|35=A|34=180|49=INITIATOR|52=20231202-03:53:39.854|56=ACCEPTOR|98=0|108=30|1137=7|10=254|
20231202-03:53:40.826155000 : 8=FIXT.1.1|9=81|35=A|34=181|49=INITIATOR|52=20231202-03:53:40.826|56=ACCEPTOR|98=0|108=30|1137=7|10=246|
20231202-03:53:41.797674000 : 8=FIXT.1.1|9=81|35=A|34=182|49=INITIATOR|52=20231202-03:53:41.797|56=ACCEPTOR|98=0|108=30|1137=7|10=255|
20231202-03:53:42.768099000 : 8=FIXT.1.1|9=81|35=A|34=183|49=INITIATOR|52=20231202-03:53:42.768|56=ACCEPTOR|98=0|108=30|1137=7|10=255|
20231202-03:53:43.738586000 : 8=FIXT.1.1|9=81|35=A|34=184|49=INITIATOR|52=20231202-03:53:43.738|56=ACCEPTOR|98=0|108=30|1137=7|10=254|
20231202-03:53:44.709102000 : 8=FIXT.1.1|9=81|35=A|34=185|49=INITIATOR|52=20231202-03:53:44.709|56=ACCEPTOR|98=0|108=30|1137=7|10=254|
20231202-03:53:45.678530000 : 8=FIXT.1.1|9=81|35=A|34=186|49=INITIATOR|52=20231202-03:53:45.678|56=ACCEPTOR|98=0|108=30|1137=7|10=005|
20231202-03:53:46.647915000 : 8=FIXT.1.1|9=81|35=A|34=187|49=INITIATOR|52=20231202-03:53:46.647|56=ACCEPTOR|98=0|108=30|1137=7|10=003|
20231202-03:53:47.617244000 : 8=FIXT.1.1|9=81|35=A|34=188|49=INITIATOR|52=20231202-03:53:47.617|56=ACCEPTOR|98=0|108=30|1137=7|10=002|
20231202-03:53:48.586800000 : 8=FIXT.1.1|9=81|35=A|34=189|49=INITIATOR|52=20231202-03:53:48.586|56=ACCEPTOR|98=0|108=30|1137=7|10=009|
20231202-03:53:49.555152000 : 8=FIXT.1.1|9=81|35=A|34=190|49=INITIATOR|52=20231202-03:53:49.555|56=ACCEPTOR|98=0|108=30|1137=7|10=254|
20231202-03:53:50.523555000 : 8=FIXT.1.1|9=81|35=A|34=191|49=INITIATOR|52=20231202-03:53:50.523|56=ACCEPTOR|98=0|108=30|1137=7|10=242|
20231202-03:53:51.491963000 : 8=FIXT.1.1|9=81|35=A|34=192|49=INITIATOR|52=20231202-03:53:51.491|56=ACCEPTOR|98=0|108=30|1137=7|10=248|
20231202-03:53:52.459316000 : 8=FIXT.1.1|9=81|35=A|34=193|49=INITIATOR|52=20231202-03:53:52.459|56=ACCEPTOR|98=0|108=30|1137=7|10=254|
20231202-03:53:53.426618000 : 8=FIXT.1.1|9=81|35=A|34=194|49=INITIATOR|52=20231202-03:53:53.426|56=ACCEPTOR|98=0|108=30|1137=7|10=250|
20231202-03:53:54.394032000 : 8=FIXT.1.1|9=81|35=A|34=195|49=INITIATOR|52=20231202-03:53:54.394|56=ACCEPTOR|98=0|108=30|1137=7|10=000|
20231202-03:53:55.360483000 : 8=FIXT.1.1|9=81|35=A|34=196|49=INITIATOR|52=20231202-03:53:55.360|56=ACCEPTOR|98=0|108=30|1137=7|10=251|
20231202-03:53:56.326830000 : 8=FIXT.1.1|9=81|35=A|34=197|49=INITIATOR|52=20231202-03:53:56.326|56=ACCEPTOR|98=0|108=30|1137=7|10=255|
20231202-03:53:57.293116000 : 8=FIXT.1.1|9=81|35=A|34=198|49=INITIATOR|52=20231202-03:53:57.293|56=ACCEPTOR|98=0|108=30|1137=7|10=004|
20231202-03:53:58.259485000 : 8=FIXT.1.1|9=81|35=A|34=199|49=INITIATOR|52=20231202-03:53:58.259|56=ACCEPTOR|98=0|108=30|1137=7|10=008|
20231202-03:53:59.224777000 : 8=FIXT.1.1|9=81|35=A|34=200|49=INITIATOR|52=20231202-03:53:59.224|56=ACCEPTOR|98=0|108=30|1137=7|10=240|
20231202-03:54:00.190221000 : 8=FIXT.1.1|9=81|35=A|34=201|49=INITIATOR|52=20231202-03:54:00.190|56=ACCEPTOR|98=0|108=30|1137=7|10=230|
20231202-03:54:01.155728000 : 8=FIXT.1.1|9=81|35=A|34=202|49=INITIATOR|52=20231202-03:54:01.155|56=ACCEPTOR|98=0|108=30|1137=7|10=233|
20231202-03:54:02.120144000 : 8=FIXT.1.1|9=81|35=A|34=203|49=INITIATOR|52=20231202-03:54:02.120|56=ACCEPTOR|98=0|108=30|1137=7|10=227|
20231202-03:54:03.084536000 : 8=FIXT.1.1|9=81|35=A|34=204|49=INITIATOR|52=20231202-03:54:03.084|56=ACCEPTOR|98=0|108=30|1137=7|10=238|
20231202-03:54:04.048837000 : 8=FIXT.1.1|9=81|35=A|34=205|49=INITIATOR|52=20231202-03:54:04.048|56=ACCEPTOR|98=0|108=30|1137=7|10=240|
20231202-03:54:05.013220000 : 8=FIXT.1.1|9=81|35=A|34=206|49=INITIATOR|52=20231202-03:54:05.013|56=ACCEPTOR|98=0|108=30|1137=7|10=234|
20231202-03:54:06.939686000 : 8=FIXT.1.1|9=81|35=A|34=207|49=INITIATOR|52=20231202-03:54:06.939|56=ACCEPTOR|98=0|108=30|1137=7|10=253|
20231202-03:54:07.903086000 : 8=FIXT.1.1|9=81|35=A|34=208|49=INITIATOR|52=20231202-03:54:07.903|56=ACCEPTOR|98=0|108=30|1137=7|10=246|
20231202-03:54:08.866398000 : 8=FIXT.1.1|9=81|35=A|34=209|49=INITIATOR|52=20231202-03:54:08.866|56=ACCEPTOR|98=0|108=30|1137=7|10=000|
20231202-03:54:09.828884000 : 8=FIXT.1.1|9=81|35=A|34=210|49=INITIATOR|52=20231202-03:54:09.828|56=ACCEPTOR|98=0|108=30|1137=7|10=247|
20231202-03:54:10.791384000 : 8=FIXT.1.1|9=81|35=A|34=211|49=INITIATOR|52=20231202-03:54:10.791|56=ACCEPTOR|98=0|108=30|1137=7|10=239|
20231202-03:54:11.754141000 : 8=FIXT.1.1|9=81|35=A|34=212|49=INITIATOR|52=20231202-03:54:11.754|56=ACCEPTOR|98=0|108=30|1137=7|10=240|
20231202-03:54:12.715586000 : 8=FIXT.1.1|9=81|35=A|34=213|49=INITIATOR|52=20231202-03:54:12.715|56=ACCEPTOR|98=0|108=30|1137=7|10=239|
20231202-03:54:13.677107000 : 8=FIXT.1.1|9=81|35=A|34=214|49=INITIATOR|52=20231202-03:54:13.677|56=ACCEPTOR|98=0|108=30|1137=7|10=248|
20231202-03:54:14.638475000 : 8=FIXT.1.1|9=81|35=A|34=215|49=INITIATOR|52=20231202-03:54:14.638|56=ACCEPTOR|98=0|108=30|1137=7|10=247|
20231202-03:54:15.598884000 : 8=FIXT.1.1|9=81|35=A|34=216|49=INITIATOR|52=20231202-03:54:15.598|56=ACCEPTOR|98=0|108=30|1137=7|10=254|
20231202-03:54:16.559303000 : 8=FIXT.1.1|9=81|35=A|34=217|49=INITIATOR|52=20231202-03:54:16.559|56=ACCEPTOR|98=0|108=30|1137=7|10=253|
20231202-03:54:17.519665000 : 8=FIXT.1.1|9=81|35=A|34=218|49=INITIATOR|52=20231202-03:54:17.519|56=ACCEPTOR|98=0|108=30|1137=7|10=251|
20231202-03:54:18.478959000 : 8=FIXT.1.1|9=81|35=A|34=219|49=INITIATOR|52=20231202-03:54:18.478|56=ACCEPTOR|98=0|108=30|1137=7|10=001|
20231202-03:54:19.438775000 : 8=FIXT.1.1|9=81|35=A|34=220|49=INITIATOR|52=20231202-03:54:19.438|56=ACCEPTOR|98=0|108=30|1137=7|10=246|
20231202-03:54:20.398070000 : 8=FIXT.1.1|9=81|35=A|34=221|49=INITIATOR|52=20231202-03:54:20.398|56=ACCEPTOR|98=0|108=30|1137=7|10=244|
20231202-03:54:21.357514000 : 8=FIXT.1.1|9=81|35=A|34=222|49=INITIATOR|52=20231202-03:54:21.357|56=ACCEPTOR|98=0|108=30|1137=7|10=241|
20231202-03:54:22.315883000 : 8=FIXT.1.1|9=81|35=A|34=223|49=INITIATOR|52=20231202-03:54:22.315|56=ACCEPTOR|98=0|108=30|1137=7|10=237|
20231202-03:54:23.274199000 : 8=FIXT.1.1|9=81|35=A|34=224|49=INITIATOR|52=20231202-03:54:23.274|56=ACCEPTOR|98=0|108=30|1137=7|10=243|
20231202-03:54:24.232520000 : 8=FIXT.1.1|9=81|35=A|34=225|49=INITIATOR|52=20231202-03:54:24.232|56=ACCEPTOR|98=0|108=30|1137=7|10=239|
20231202-03:54:25.189996000 : 8=FIXT.1.1|9=81|35=A|34=226|49=INITIATOR|52=20231202-03:54:25.189|56=ACCEPTOR|98=0|108=30|1137=7|10=252|
20231202-03:54:26.147279000 : 8=FIXT.1.1|9=81|35=A|34=227|49=INITIATOR|52=20231202-03:54:26.147|56=ACCEPTOR|98=0|108=30|1137=7|10=248|
20231202-03:54:27.104713000 : 8=FIXT.1.1|9=81|35=A|34=228|49=INITIATOR|52=20231202-03:54:27.104|56=ACCEPTOR|98=0|108=30|1137=7|10=243|
20231202-03:54:28.060976000 : 8=FIXT.1.1|9=81|35=A|34=229|49=INITIATOR|52=20231202-03:54:28.060|56=ACCEPTOR|98=0|108=30|1137=7|10=246|
20231202-03:54:29.017372000 : 8=FIXT.1.1|9=81|35=A|34=230|49=INITIATOR|52=20231202-03:54:29.017|56=ACCEPTOR|98=0|108=30|1137=7|10=241|
20231202-03:54:30.929611000 : 8=FIXT.1.1|9=81|35=A|34=231|49=INITIATOR|52=20231202-03:54:30.929|56=ACCEPTOR|98=0|108=30|1137=7|10=246|
20231202-03:54:31.886067000 : 8=FIXT.1.1|9=81|35=A|34=232|49=INITIATOR|52=20231202-03:54:31.886|56=ACCEPTOR|98=0|108=30|1137=7|10=250|
20231202-03:54:32.841461000 : 8=FIXT.1.1|9=81|35=A|34=233|49=INITIATOR|52=20231202-03:54:32.841|56=ACCEPTOR|98=0|108=30|1137=7|10=243|
20231202-03:54:33.796916000 : 8=FIXT.1.1|9=81|35=A|34=234|49=INITIATOR|52=20231202-03:54:33.796|56=ACCEPTOR|98=0|108=30|1137=7|10=254|
20231202-03:54:34.752282000 : 8=FIXT.1.1|9=81|35=A|34=235|49=INITIATOR|52=20231202-03:54:34.752|56=ACCEPTOR|98=0|108=30|1137=7|10=248|
20231202-03:54:35.707742000 : 8=FIXT.1.1|9=81|35=A|34=236|49=INITIATOR|52=20231202-03:54:35.707|56=ACCEPTOR|98=0|108=30|1137=7|10=250|
20231202-03:54:36.662450000 : 8=FIXT.1.1|9=81|35=A|34=237|49=INITIATOR|52=20231202-03:54:36.662|56=ACCEPTOR|98=0|108=30|1137=7|10=252|
20231202-03:54:37.616869000 : 8=FIXT.1.1|9=81|35=A|34=238|49=INITIATOR|52=20231202-03:54:37.616|56=ACCEPTOR|98=0|108=30|1137=7|10=253|
20231202-03:54:38.571366000 : 8=FIXT.1.1|9=81|35=A|34=239|49=INITIATOR|52=20231202-03:54:38.571|56=ACCEPTOR|98=0|108=30|1137=7|10=255|
20231202-03:54:39.524857000 : 8=FIXT.1.1|9=81|35=A|34=240|49=INITIATOR|52=20231202-03:54:39.524|56=ACCEPTOR|98=0|108=30|1137=7|10=246|
20231202-03:54:40.478253000 : 8=FIXT.1.1|9=81|35=A|34=241|49=INITIATOR|52=20231202-03:54:40.478|56=ACCEPTOR|98=0|108=30|1137=7|10=247|
20231202-03:54:41.431566000 : 8=FIXT.1.1|9=81|35=A|34=242|49=INITIATOR|52=20231202-03:54:41.431|56=ACCEPTOR|98=0|108=30|1137=7|10=238|
20231202-03:54:42.384083000 : 8=FIXT.1.1|9=81|35=A|34=243|49=INITIATOR|52=20231202-03:54:42.384|56=ACCEPTOR|98=0|108=30|1137=7|10=247|
20231202-03:54:43.336446000 : 8=FIXT.1.1|9=81|35=A|34=244|49=INITIATOR|52=20231202-03:54:43.336|56=ACCEPTOR|98=0|108=30|1137=7|10=246|
20231202-03:54:44.288840000 : 8=FIXT.1.1|9=81|35=A|34=245|49=INITIATOR|52=20231202-03:54:44.288|56=ACCEPTOR|98=0|108=30|1137=7|10=254|
20231202-03:54:45.240309000 : 8=FIXT.1.1|9=81|35=A|34=246|49=INITIATOR|52=20231202-03:54:45.240|56=ACCEPTOR|98=0|108=30|1137=7|10=244|
20231202-03:54:46.191664000 : 8=FIXT.1.1|9=81|35=A|34=247|49=INITIATOR|52=20231202-03:54:46.191|56=ACCEPTOR|98=0|108=30|1137=7|10=251|
20231202-03:54:47.143113000 : 8=FIXT.1.1|9=81|35=A|34=248|49=INITIATOR|52=20231202-03:54:47.143|56=ACCEPTOR|98=0|108=30|1137=7|10=250|
20231202-03:54:48.094401000 : 8=FIXT.1.1|9=81|35=A|34=249|49=INITIATOR|52=20231202-03:54:48.094|56=ACCEPTOR|98=0|108=30|1137=7|10=001|
20231202-03:54:49.044855000 : 8=FIXT.1.1|9=81|35=A|34=250|49=INITIATOR|52=20231202-03:54:49.044|56=ACCEPTOR|98=0|108=30|1137=7|10=245|
20231202-03:54:50.945189000 : 8=FIXT.1.1|9=81|35=A|34=251|49=INITIATOR|52=20231202-03:54:50.945|56=ACCEPTOR|98=0|108=30|1137=7|10=248|
20231202-03:54:51.895669000 : 8=FIXT.1.1|9=81|35=A|34=252|49=INITIATOR|52=20231202-03:54:51.895|56=ACCEPTOR|98=0|108=30|1137=7|10=254|
20231202-03:54:52.845091000 : 8=FIXT.1.1|9=81|35=A|34=253|49=INITIATOR|52=20231202-03:54:52.845|56=ACCEPTOR|98=0|108=30|1137=7|10=251|
20231202-03:54:53.794501000 : 8=FIXT.1.1|9=81|35=A|34=254|49=INITIATOR|52=20231202-03:54:53.794|56=ACCEPTOR|98=0|108=30|1137=7|10=000|
20231202-03:54:54.743824000 : 8=FIXT.1.1|9=81|35=A|34=255|49=INITIATOR|52=20231202-03:54:54.743|56=ACCEPTOR|98=0|108=30|1137=7|10=252|
20231202-03:54:55.692154000 : 8=FIXT.1.1|9=81|35=A|34=256|49=INITIATOR|52=20231202-03:54:55.692|56=ACCEPTOR|98=0|108=30|1137=7|10=001|
20231202-03:54:56.640521000 : 8=FIXT.1.1|9=81|35=A|34=257|49=INITIATOR|52=20231202-03:54:56.640|56=ACCEPTOR|98=0|108=30|1137=7|10=252|
20231202-03:54:57.588853000 : 8=FIXT.1.1|9=81|35=A|34=258|49=INITIATOR|52=20231202-03:54:57.588|56=ACCEPTOR|98=0|108=30|1137=7|10=009|
20231202-03:54:58.537194000 : 8=FIXT.1.1|9=81|35=A|34=259|49=INITIATOR|52=20231202-03:54:58.537|56=ACCEPTOR|98=0|108=30|1137=7|10=005|
20231202-03:54:59.484495000 : 8=FIXT.1.1|9=81|35=A|34=260|49=INITIATOR|52=20231202-03:54:59.484|56=ACCEPTOR|98=0|108=30|1137=7|10=255|
20231202-03:55:00.431801000 : 8=FIXT.1.1|9=81|35=A|34=261|49=INITIATOR|52=20231202-03:55:00.431|56=ACCEPTOR|98=0|108=30|1137=7|10=235|
20231202-03:55:01.379125000 : 8=FIXT.1.1|9=81|35=A|34=262|49=INITIATOR|52=20231202-03:55:01.379|56=ACCEPTOR|98=0|108=30|1137=7|10=248|
20231202-03:55:02.326437000 : 8=FIXT.1.1|9=81|35=A|34=263|49=INITIATOR|52=20231202-03:55:02.326|56=ACCEPTOR|98=0|108=30|1137=7|10=242|
20231202-03:55:03.272717000 : 8=FIXT.1.1|9=81|35=A|34=264|49=INITIATOR|52=20231202-03:55:03.272|56=ACCEPTOR|98=0|108=30|1137=7|10=244|
20231202-03:55:04.219126000 : 8=FIXT.1.1|9=81|35=A|34=265|49=INITIATOR|52=20231202-03:55:04.219|56=ACCEPTOR|98=0|108=30|1137=7|10=247|
20231202-03:55:05.165437000 : 8=FIXT.1.1|9=81|35=A|34=266|49=INITIATOR|52=20231202-03:55:05.165|56=ACCEPTOR|98=0|108=30|1137=7|10=249|
20231202-03:55:06.111757000 : 8=FIXT.1.1|9=81|35=A|34=267|49=INITIATOR|52=20231202-03:55:06.111|56=ACCEPTOR|98=0|108=30|1137=7|10=242|
20231202-03:55:07.057249000 : 8=FIXT.1.1|9=81|35=A|34=268|49=INITIATOR|52=20231202-03:55:07.057|56=ACCEPTOR|98=0|108=30|1137=7|10=253|
20231202-03:55:08.947727000 : 8=FIXT.1.1|9=81|35=A|34=269|49=INITIATOR|52=20231202-03:55:08.947|56=ACCEPTOR|98=0|108=30|1137=7|10=007|
20231202-03:55:09.893076000 : 8=FIXT.1.1|9=81|35=A|34=270|49=INITIATOR|52=20231202-03:55:09.893|56=ACCEPTOR|98=0|108=30|1137=7|10=000|
20231202-03:55:10.837787000 : 8=FIXT.1.1|9=81|35=A|34=271|49=INITIATOR|52=20231202-03:55:10.837|56=ACCEPTOR|98=0|108=30|1137=7|10=247|
20231202-03:55:11.787161000 : 8=FIXT.1.1|9=81|35=A|34=272|49=INITIATOR|52=20231202-03:55:11.782|56=ACCEPTOR|98=0|108=30|1137=7|10=248|
20231202-03:55:12.731597000 : 8=FIXT.1.1|9=81|35=A|34=273|49=INITIATOR|52=20231202-03:55:12.731|56=ACCEPTOR|98=0|108=30|1137=7|10=244|
20231202-03:55:13.675015000 : 8=FIXT.1.1|9=81|35=A|34=274|49=INITIATOR|52=20231202-03:55:13.674|56=ACCEPTOR|98=0|108=30|1137=7|10=252|
20231202-03:55:14.618324000 : 8=FIXT.1.1|9=81|35=A|34=275|49=INITIATOR|52=20231202-03:55:14.618|56=ACCEPTOR|98=0|108=30|1137=7|10=252|
20231202-03:55:15.561636000 : 8=FIXT.1.1|9=81|35=A|34=276|49=INITIATOR|52=20231202-03:55:15.561|56=ACCEPTOR|98=0|108=30|1137=7|10=251|
20231202-03:55:16.504999000 : 8=FIXT.1.1|9=81|35=A|34=277|49=INITIATOR|52=20231202-03:55:16.504|56=ACCEPTOR|98=0|108=30|1137=7|10=250|
20231202-03:55:17.447312000 : 8=FIXT.1.1|9=81|35=A|34=278|49=INITIATOR|52=20231202-03:55:17.447|56=ACCEPTOR|98=0|108=30|1137=7|10=002|
20231202-03:55:18.389785000 : 8=FIXT.1.1|9=81|35=A|34=279|49=INITIATOR|52=20231202-03:55:18.389|56=ACCEPTOR|98=0|108=30|1137=7|10=009|
20231202-03:55:19.332225000 : 8=FIXT.1.1|9=81|35=A|34=280|49=INITIATOR|52=20231202-03:55:19.332|56=ACCEPTOR|98=0|108=30|1137=7|10=246|
20231202-03:55:20.273642000 : 8=FIXT.1.1|9=81|35=A|34=281|49=INITIATOR|52=20231202-03:55:20.273|56=ACCEPTOR|98=0|108=30|1137=7|10=243|
20231202-03:55:21.215041000 : 8=FIXT.1.1|9=81|35=A|34=282|49=INITIATOR|52=20231202-03:55:21.215|56=ACCEPTOR|98=0|108=30|1137=7|10=241|
20231202-03:55:22.156370000 : 8=FIXT.1.1|9=81|35=A|34=283|49=INITIATOR|52=20231202-03:55:22.156|56=ACCEPTOR|98=0|108=30|1137=7|10=247|
20231202-03:55:23.096720000 : 8=FIXT.1.1|9=81|35=A|34=284|49=INITIATOR|52=20231202-03:55:23.096|56=ACCEPTOR|98=0|108=30|1137=7|10=252|
20231202-03:55:24.037038000 : 8=FIXT.1.1|9=81|35=A|34=285|49=INITIATOR|52=20231202-03:55:24.037|56=ACCEPTOR|98=0|108=30|1137=7|10=249|
20231202-03:55:25.917415000 : 8=FIXT.1.1|9=81|35=A|34=286|49=INITIATOR|52=20231202-03:55:25.917|56=ACCEPTOR|98=0|108=30|1137=7|10=002|
20231202-03:55:26.857792000 : 8=FIXT.1.1|9=81|35=A|34=287|49=INITIATOR|52=20231202-03:55:26.857|56=ACCEPTOR|98=0|108=30|1137=7|10=007|
20231202-03:55:27.797147000 : 8=FIXT.1.1|9=81|35=A|34=288|49=INITIATOR|52=20231202-03:55:27.797|56=ACCEPTOR|98=0|108=30|1137=7|10=012|
20231202-03:55:28.736535000 : 8=FIXT.1.1|9=81|35=A|34=289|49=INITIATOR|52=20231202-03:55:28.736|56=ACCEPTOR|98=0|108=30|1137=7|10=007|
20231202-03:55:29.675871000 : 8=FIXT.1.1|9=81|35=A|34=290|49=INITIATOR|52=20231202-03:55:29.675|56=ACCEPTOR|98=0|108=30|1137=7|10=002|
20231202-03:55:30.614175000 : 8=FIXT.1.1|9=81|35=A|34=291|49=INITIATOR|52=20231202-03:55:30.614|56=ACCEPTOR|98=0|108=30|1137=7|10=244|
20231202-03:55:31.552538000 : 8=FIXT.1.1|9=81|35=A|34=292|49=INITIATOR|52=20231202-03:55:31.552|56=ACCEPTOR|98=0|108=30|1137=7|10=247|
20231202-03:55:32.490918000 : 8=FIXT.1.1|9=81|35=A|34=293|49=INITIATOR|52=20231202-03:55:32.490|56=ACCEPTOR|98=0|108=30|1137=7|10=250|
20231202-03:55:33.429343000 : 8=FIXT.1.1|9=81|35=A|34=294|49=INITIATOR|52=20231202-03:55:33.429|56=ACCEPTOR|98=0|108=30|1137=7|10=254|
20231202-03:55:34.366719000 : 8=FIXT.1.1|9=81|35=A|34=295|49=INITIATOR|52=20231202-03:55:34.366|56=ACCEPTOR|98=0|108=30|1137=7|10=000|
20231202-03:55:35.304088000 : 8=FIXT.1.1|9=81|35=A|34=296|49=INITIATOR|52=20231202-03:55:35.304|56=ACCEPTOR|98=0|108=30|1137=7|10=250|
20231202-03:55:36.241535000 : 8=FIXT.1.1|9=81|35=A|34=297|49=INITIATOR|52=20231202-03:55:36.241|56=ACCEPTOR|98=0|108=30|1137=7|10=252|
20231202-03:55:37.177991000 : 8=FIXT.1.1|9=81|35=A|34=298|49=INITIATOR|52=20231202-03:55:37.177|56=ACCEPTOR|98=0|108=30|1137=7|10=006|
20231202-03:55:38.114592000 : 8=FIXT.1.1|9=81|35=A|34=299|49=INITIATOR|52=20231202-03:55:38.114|56=ACCEPTOR|98=0|108=30|1137=7|10=255|
20231202-03:55:39.051126000 : 8=FIXT.1.1|9=81|35=A|34=300|49=INITIATOR|52=20231202-03:55:39.051|56=ACCEPTOR|98=0|108=30|1137=7|10=239|
20231202-03:55:40.923587000 : 8=FIXT.1.1|9=81|35=A|34=301|49=INITIATOR|52=20231202-03:55:40.923|56=ACCEPTOR|98=0|108=30|1137=7|10=240|
20231202-03:55:41.858997000 : 8=FIXT.1.1|9=81|35=A|34=302|49=INITIATOR|52=20231202-03:55:41.858|56=ACCEPTOR|98=0|108=30|1137=7|10=249|
20231202-03:55:42.794439000 : 8=FIXT.1.1|9=81|35=A|34=303|49=INITIATOR|52=20231202-03:55:42.794|56=ACCEPTOR|98=0|108=30|1137=7|10=250|
20231202-03:55:43.729819000 : 8=FIXT.1.1|9=81|35=A|34=304|49=INITIATOR|52=20231202-03:55:43.729|56=ACCEPTOR|98=0|108=30|1137=7|10=250|
20231202-03:55:44.664482000 : 8=FIXT.1.1|9=81|35=A|34=305|49=INITIATOR|52=20231202-03:55:44.664|56=ACCEPTOR|98=0|108=30|1137=7|10=250|
20231202-03:55:45.598947000 : 8=FIXT.1.1|9=81|35=A|34=306|49=INITIATOR|52=20231202-03:55:45.598|56=ACCEPTOR|98=0|108=30|1137=7|10=002|
20231202-03:55:46.533352000 : 8=FIXT.1.1|9=81|35=A|34=307|49=INITIATOR|52=20231202-03:55:46.533|56=ACCEPTOR|98=0|108=30|1137=7|10=249|
20231202-03:55:47.466673000 : 8=FIXT.1.1|9=81|35=A|34=308|49=INITIATOR|52=20231202-03:55:47.466|56=ACCEPTOR|98=0|108=30|1137=7|10=000|
20231202-03:55:48.400010000 : 8=FIXT.1.1|9=81|35=A|34=309|49=INITIATOR|52=20231202-03:55:48.399|56=ACCEPTOR|98=0|108=30|1137=7|10=007|
20231202-03:55:49.333341000 : 8=FIXT.1.1|9=81|35=A|34=310|49=INITIATOR|52=20231202-03:55:49.333|56=ACCEPTOR|98=0|108=30|1137=7|10=244|
20231202-03:55:50.266753000 : 8=FIXT.1.1|9=81|35=A|34=311|49=INITIATOR|52=20231202-03:55:50.266|56=ACCEPTOR|98=0|108=30|1137=7|10=242|
20231202-03:55:51.199123000 : 8=FIXT.1.1|9=81|35=A|34=312|49=INITIATOR|52=20231202-03:55:51.199|56=ACCEPTOR|98=0|108=30|1137=7|10=249|
20231202-03:55:52.131535000 : 8=FIXT.1.1|9=81|35=A|34=313|49=INITIATOR|52=20231202-03:55:52.131|56=ACCEPTOR|98=0|108=30|1137=7|10=237|
20231202-03:55:53.063844000 : 8=FIXT.1.1|9=81|35=A|34=314|49=INITIATOR|52=20231202-03:55:53.063|56=ACCEPTOR|98=0|108=30|1137=7|10=243|
20231202-03:55:54.926210000 : 8=FIXT.1.1|9=81|35=A|34=315|49=INITIATOR|52=20231202-03:55:54.926|56=ACCEPTOR|98=0|108=30|1137=7|10=253|
20231202-03:55:55.857589000 : 8=FIXT.1.1|9=81|35=A|34=316|49=INITIATOR|52=20231202-03:55:55.857|56=ACCEPTOR|98=0|108=30|1137=7|10=002|
20231202-03:55:56.789093000 : 8=FIXT.1.1|9=81|35=A|34=317|49=INITIATOR|52=20231202-03:55:56.789|56=ACCEPTOR|98=0|108=30|1137=7|10=008|
20231202-03:55:57.720611000 : 8=FIXT.1.1|9=81|35=A|34=318|49=INITIATOR|52=20231202-03:55:57.720|56=ACCEPTOR|98=0|108=30|1137=7|10=251|
20231202-03:55:58.651000000 : 8=FIXT.1.1|9=81|35=A|34=319|49=INITIATOR|52=20231202-03:55:58.650|56=ACCEPTOR|98=0|108=30|1137=7|10=255|
20231202-03:55:59.581295000 : 8=FIXT.1.1|9=81|35=A|34=320|49=INITIATOR|52=20231202-03:55:59.581|56=ACCEPTOR|98=0|108=30|1137=7|10=251|
20231202-03:56:00.511655000 : 8=FIXT.1.1|9=81|35=A|34=321|49=INITIATOR|52=20231202-03:56:00.511|56=ACCEPTOR|98=0|108=30|1137=7|10=232|
20231202-03:56:01.441023000 : 8=FIXT.1.1|9=81|35=A|34=322|49=INITIATOR|52=20231202-03:56:01.441|56=ACCEPTOR|98=0|108=30|1137=7|10=236|
20231202-03:56:02.370495000 : 8=FIXT.1.1|9=81|35=A|34=323|49=INITIATOR|52=20231202-03:56:02.370|56=ACCEPTOR|98=0|108=30|1137=7|10=239|
20231202-03:56:03.299817000 : 8=FIXT.1.1|9=81|35=A|34=324|49=INITIATOR|52=20231202-03:56:03.299|56=ACCEPTOR|98=0|108=30|1137=7|10=251|
20231202-03:56:04.229155000 : 8=FIXT.1.1|9=81|35=A|34=325|49=INITIATOR|52=20231202-03:56:04.229|56=ACCEPTOR|98=0|108=30|1137=7|10=246|
20231202-03:56:05.157598000 : 8=FIXT.1.1|9=81|35=A|34=326|49=INITIATOR|52=20231202-03:56:05.157|56=ACCEPTOR|98=0|108=30|1137=7|10=248|
20231202-03:56:06.085928000 : 8=FIXT.1.1|9=81|35=A|34=327|49=INITIATOR|52=20231202-03:56:06.085|56=ACCEPTOR|98=0|108=30|1137=7|10=250|
20231202-03:56:07.014232000 : 8=FIXT.1.1|9=81|35=A|34=328|49=INITIATOR|52=20231202-03:56:07.014|56=ACCEPTOR|98=0|108=30|1137=7|10=244|
20231202-03:56:08.870535000 : 8=FIXT.1.1|9=81|35=A|34=329|49=INITIATOR|52=20231202-03:56:08.870|56=ACCEPTOR|98=0|108=30|1137=7|10=000|
20231202-03:56:09.797859000 : 8=FIXT.1.1|9=81|35=A|34=330|49=INITIATOR|52=20231202-03:56:09.797|56=ACCEPTOR|98=0|108=30|1137=7|10=001|
20231202-03:56:10.725175000 : 8=FIXT.1.1|9=81|35=A|34=331|49=INITIATOR|52=20231202-03:56:10.725|56=ACCEPTOR|98=0|108=30|1137=7|10=241|
20231202-03:56:11.652493000 : 8=FIXT.1.1|9=81|35=A|34=332|49=INITIATOR|52=20231202-03:56:11.652|56=ACCEPTOR|98=0|108=30|1137=7|10=242|
20231202-03:56:12.578872000 : 8=FIXT.1.1|9=81|35=A|34=333|49=INITIATOR|52=20231202-03:56:12.578|56=ACCEPTOR|98=0|108=30|1137=7|10=251|
20231202-03:56:13.505183000 : 8=FIXT.1.1|9=81|35=A|34=334|49=INITIATOR|52=20231202-03:56:13.505|56=ACCEPTOR|98=0|108=30|1137=7|10=243|
20231202-03:56:14.431514000 : 8=FIXT.1.1|9=81|35=A|34=335|49=INITIATOR|52=20231202-03:56:14.431|56=ACCEPTOR|98=0|108=30|1137=7|10=243|
20231202-03:56:15.357763000 : 8=FIXT.1.1|9=81|35=A|34=336|49=INITIATOR|52=20231202-03:56:15.357|56=ACCEPTOR|98=0|108=30|1137=7|10=252|
20231202-03:56:16.283223000 : 8=FIXT.1.1|9=81|35=A|34=337|49=INITIATOR|52=20231202-03:56:16.283|56=ACCEPTOR|98=0|108=30|1137=7|10=252|
20231202-03:56:17.208523000 : 8=FIXT.1.1|9=81|35=A|34=338|49=INITIATOR|52=20231202-03:56:17.208|56=ACCEPTOR|98=0|108=30|1137=7|10=251|
20231202-03:56:18.133887000 : 8=FIXT.1.1|9=81|35=A|34=339|49=INITIATOR|52=20231202-03:56:18.133|56=ACCEPTOR|98=0|108=30|1137=7|10=250|
20231202-03:56:19.058222000 : 8=FIXT.1.1|9=81|35=A|34=340|49=INITIATOR|52=20231202-03:56:19.058|56=ACCEPTOR|98=0|108=30|1137=7|10=249|
20231202-03:56:20.906605000 : 8=FIXT.1.1|9=81|35=A|34=341|49=INITIATOR|52=20231202-03:56:20.906|56=ACCEPTOR|98=0|108=30|1137=7|10=244|
20231202-03:56:21.831175000 : 8=FIXT.1.1|9=81|35=A|34=342|49=INITIATOR|52=20231202-03:56:21.831|56=ACCEPTOR|98=0|108=30|1137=7|10=243|
20231202-03:56:22.754613000 : 8=FIXT.1.1|9=81|35=A|34=343|49=INITIATOR|52=20231202-03:56:22.754|56=ACCEPTOR|98=0|108=30|1137=7|10=249|
20231202-03:56:23.677932000 : 8=FIXT.1.1|9=81|35=A|34=344|49=INITIATOR|52=20231202-03:56:23.677|56=ACCEPTOR|98=0|108=30|1137=7|10=255|
20231202-03:56:24.601282000 : 8=FIXT.1.1|9=81|35=A|34=345|49=INITIATOR|52=20231202-03:56:24.601|56=ACCEPTOR|98=0|108=30|1137=7|10=244|
20231202-03:56:25.523649000 : 8=FIXT.1.1|9=81|35=A|34=346|49=INITIATOR|52=20231202-03:56:25.523|56=ACCEPTOR|98=0|108=30|1137=7|10=249|
20231202-03:56:26.446005000 : 8=FIXT.1.1|9=81|35=A|34=347|49=INITIATOR|52=20231202-03:56:26.445|56=ACCEPTOR|98=0|108=30|1137=7|10=254|
20231202-03:56:27.368289000 : 8=FIXT.1.1|9=81|35=A|34=348|49=INITIATOR|52=20231202-03:56:27.368|56=ACCEPTOR|98=0|108=30|1137=7|10=004|
20231202-03:56:28.290669000 : 8=FIXT.1.1|9=81|35=A|34=349|49=INITIATOR|52=20231202-03:56:28.290|56=ACCEPTOR|98=0|108=30|1137=7|10=000|
20231202-03:56:29.212164000 : 8=FIXT.1.1|9=81|35=A|34=350|49=INITIATOR|52=20231202-03:56:29.212|56=ACCEPTOR|98=0|108=30|1137=7|10=243|
20231202-03:56:30.133535000 : 8=FIXT.1.1|9=81|35=A|34=351|49=INITIATOR|52=20231202-03:56:30.133|56=ACCEPTOR|98=0|108=30|1137=7|10=238|
20231202-03:56:31.054882000 : 8=FIXT.1.1|9=81|35=A|34=352|49=INITIATOR|52=20231202-03:56:31.054|56=ACCEPTOR|98=0|108=30|1137=7|10=242|
20231202-03:56:32.895243000 : 8=FIXT.1.1|9=81|35=A|34=353|49=INITIATOR|52=20231202-03:56:32.895|56=ACCEPTOR|98=0|108=30|1137=7|10=001|
20231202-03:56:33.815572000 : 8=FIXT.1.1|9=81|35=A|34=354|49=INITIATOR|52=20231202-03:56:33.815|56=ACCEPTOR|98=0|108=30|1137=7|10=251|
20231202-03:56:34.735969000 : 8=FIXT.1.1|9=81|35=A|34=355|49=INITIATOR|52=20231202-03:56:34.735|56=ACCEPTOR|98=0|108=30|1137=7|10=254|
20231202-03:56:35.656346000 : 8=FIXT.1.1|9=81|35=A|34=356|49=INITIATOR|52=20231202-03:56:35.656|56=ACCEPTOR|98=0|108=30|1137=7|10=002|
20231202-03:56:36.575675000 : 8=FIXT.1.1|9=81|35=A|34=357|49=INITIATOR|52=20231202-03:56:36.575|56=ACCEPTOR|98=0|108=30|1137=7|10=004|
20231202-03:56:37.494988000 : 8=FIXT.1.1|9=81|35=A|34=358|49=INITIATOR|52=20231202-03:56:37.494|56=ACCEPTOR|98=0|108=30|1137=7|10=006|
20231202-03:56:38.414300000 : 8=FIXT.1.1|9=81|35=A|34=359|49=INITIATOR|52=20231202-03:56:38.414|56=ACCEPTOR|98=0|108=30|1137=7|10=000|
20231202-03:56:39.332665000 : 8=FIXT.1.1|9=81|35=A|34=360|49=INITIATOR|52=20231202-03:56:39.332|56=ACCEPTOR|98=0|108=30|1137=7|10=248|
20231202-03:56:40.250926000 : 8=FIXT.1.1|9=81|35=A|34=361|49=INITIATOR|52=20231202-03:56:40.250|56=ACCEPTOR|98=0|108=30|1137=7|10=240|
20231202-03:56:41.169267000 : 8=FIXT.1.1|9=81|35=A|34=362|49=INITIATOR|52=20231202-03:56:41.169|56=ACCEPTOR|98=0|108=30|1137=7|10=251|
20231202-03:56:42.086776000 : 8=FIXT.1.1|9=81|35=A|34=363|49=INITIATOR|52=20231202-03:56:42.086|56=ACCEPTOR|98=0|108=30|1137=7|10=251|
20231202-03:56:43.921137000 : 8=FIXT.1.1|9=81|35=A|34=364|49=INITIATOR|52=20231202-03:56:43.921|56=ACCEPTOR|98=0|108=30|1137=7|10=251|
20231202-03:56:44.838553000 : 8=FIXT.1.1|9=81|35=A|34=365|49=INITIATOR|52=20231202-03:56:44.838|56=ACCEPTOR|98=0|108=30|1137=7|10=004|
20231202-03:56:45.754916000 : 8=FIXT.1.1|9=81|35=A|34=366|49=INITIATOR|52=20231202-03:56:45.754|56=ACCEPTOR|98=0|108=30|1137=7|10=003|
20231202-03:56:46.671287000 : 8=FIXT.1.1|9=81|35=A|34=367|49=INITIATOR|52=20231202-03:56:46.671|56=ACCEPTOR|98=0|108=30|1137=7|10=003|
20231202-03:56:47.587642000 : 8=FIXT.1.1|9=81|35=A|34=368|49=INITIATOR|52=20231202-03:56:47.587|56=ACCEPTOR|98=0|108=30|1137=7|10=011|
20231202-03:56:48.503985000 : 8=FIXT.1.1|9=81|35=A|34=369|49=INITIATOR|52=20231202-03:56:48.503|56=ACCEPTOR|98=0|108=30|1137=7|10=001|
20231202-03:56:49.419593000 : 8=FIXT.1.1|9=81|35=A|34=370|49=INITIATOR|52=20231202-03:56:49.419|56=ACCEPTOR|98=0|108=30|1137=7|10=000|
20231202-03:56:50.334945000 : 8=FIXT.1.1|9=81|35=A|34=371|49=INITIATOR|52=20231202-03:56:50.334|56=ACCEPTOR|98=0|108=30|1137=7|10=245|
20231202-03:56:51.250321000 : 8=FIXT.1.1|9=81|35=A|34=372|49=INITIATOR|52=20231202-03:56:51.250|56=ACCEPTOR|98=0|108=30|1137=7|10=244|
20231202-03:56:52.164646000 : 8=FIXT.1.1|9=81|35=A|34=373|49=INITIATOR|52=20231202-03:56:52.164|56=ACCEPTOR|98=0|108=30|1137=7|10=250|
20231202-03:56:53.078973000 : 8=FIXT.1.1|9=81|35=A|34=374|49=INITIATOR|52=20231202-03:56:53.078|56=ACCEPTOR|98=0|108=30|1137=7|10=000|
20231202-03:56:54.907370000 : 8=FIXT.1.1|9=81|35=A|34=375|49=INITIATOR|52=20231202-03:56:54.907|56=ACCEPTOR|98=0|108=30|1137=7|10=003|
20231202-03:56:55.820642000 : 8=FIXT.1.1|9=81|35=A|34=376|49=INITIATOR|52=20231202-03:56:55.820|56=ACCEPTOR|98=0|108=30|1137=7|10=255|
20231202-03:56:56.734047000 : 8=FIXT.1.1|9=81|35=A|34=377|49=INITIATOR|52=20231202-03:56:56.734|56=ACCEPTOR|98=0|108=30|1137=7|10=005|
20231202-03:56:57.647476000 : 8=FIXT.1.1|9=81|35=A|34=378|49=INITIATOR|52=20231202-03:56:57.647|56=ACCEPTOR|98=0|108=30|1137=7|10=010|
20231202-03:56:58.560855000 : 8=FIXT.1.1|9=81|35=A|34=379|49=INITIATOR|52=20231202-03:56:58.560|56=ACCEPTOR|98=0|108=30|1137=7|10=006|
20231202-03:56:59.473274000 : 8=FIXT.1.1|9=81|35=A|34=380|49=INITIATOR|52=20231202-03:56:59.473|56=ACCEPTOR|98=0|108=30|1137=7|10=002|
20231202-03:57:00.385742000 : 8=FIXT.1.1|9=81|35=A|34=381|49=INITIATOR|52=20231202-03:57:00.385|56=ACCEPTOR|98=0|108=30|1137=7|10=248|
20231202-03:57:01.297945000 : 8=FIXT.1.1|9=81|35=A|34=382|49=INITIATOR|52=20231202-03:57:01.297|56=ACCEPTOR|98=0|108=30|1137=7|10=252|
20231202-03:57:02.209380000 : 8=FIXT.1.1|9=81|35=A|34=383|49=INITIATOR|52=20231202-03:57:02.209|56=ACCEPTOR|98=0|108=30|1137=7|10=247|
20231202-03:57:03.120702000 : 8=FIXT.1.1|9=81|35=A|34=384|49=INITIATOR|52=20231202-03:57:03.120|56=ACCEPTOR|98=0|108=30|1137=7|10=241|
20231202-03:57:04.031988000 : 8=FIXT.1.1|9=81|35=A|34=385|49=INITIATOR|52=20231202-03:57:04.031|56=ACCEPTOR|98=0|108=30|1137=7|10=244|
20231202-03:57:05.854274000 : 8=FIXT.1.1|9=81|35=A|34=386|49=INITIATOR|52=20231202-03:57:05.854|56=ACCEPTOR|98=0|108=30|1137=7|10=003|
20231202-03:57:06.764727000 : 8=FIXT.1.1|9=81|35=A|34=387|49=INITIATOR|52=20231202-03:57:06.764|56=ACCEPTOR|98=0|108=30|1137=7|10=005|
20231202-03:57:07.675068000 : 8=FIXT.1.1|9=81|35=A|34=388|49=INITIATOR|52=20231202-03:57:07.675|56=ACCEPTOR|98=0|108=30|1137=7|10=008|
20231202-03:57:08.585449000 : 8=FIXT.1.1|9=81|35=A|34=389|49=INITIATOR|52=20231202-03:57:08.585|56=ACCEPTOR|98=0|108=30|1137=7|10=010|
20231202-03:57:09.494886000 : 8=FIXT.1.1|9=81|35=A|34=390|49=INITIATOR|52=20231202-03:57:09.494|56=ACCEPTOR|98=0|108=30|1137=7|10=002|
20231202-03:57:10.404319000 : 8=FIXT.1.1|9=81|35=A|34=391|49=INITIATOR|52=20231202-03:57:10.404|56=ACCEPTOR|98=0|108=30|1137=7|10=242|
20231202-03:57:11.313588000 : 8=FIXT.1.1|9=81|35=A|34=392|49=INITIATOR|52=20231202-03:57:11.313|56=ACCEPTOR|98=0|108=30|1137=7|10=243|
20231202-03:57:12.223018000 : 8=FIXT.1.1|9=81|35=A|34=393|49=INITIATOR|52=20231202-03:57:12.222|56=ACCEPTOR|98=0|108=30|1137=7|10=244|
20231202-03:57:13.131571000 : 8=FIXT.1.1|9=81|35=A|34=394|49=INITIATOR|52=20231202-03:57:13.131|56=ACCEPTOR|98=0|108=30|1137=7|10=245|
20231202-03:57:14.039868000 : 8=FIXT.1.1|9=81|35=A|34=395|49=INITIATOR|52=20231202-03:57:14.039|56=ACCEPTOR|98=0|108=30|1137=7|10=254|
20231202-03:57:15.855162000 : 8=FIXT.1.1|9=81|35=A|34=396|49=INITIATOR|52=20231202-03:57:15.855|56=ACCEPTOR|98=0|108=30|1137=7|10=006|
20231202-03:57:16.762557000 : 8=FIXT.1.1|9=81|35=A|34=397|49=INITIATOR|52=20231202-03:57:16.762|56=ACCEPTOR|98=0|108=30|1137=7|10=005|
20231202-03:57:17.669797000 : 8=FIXT.1.1|9=81|35=A|34=398|49=INITIATOR|52=20231202-03:57:17.669|56=ACCEPTOR|98=0|108=30|1137=7|10=013|
20231202-03:57:18.577177000 : 8=FIXT.1.1|9=81|35=A|34=399|49=INITIATOR|52=20231202-03:57:18.577|56=ACCEPTOR|98=0|108=30|1137=7|10=013|
20231202-03:57:19.483463000 : 8=FIXT.1.1|9=81|35=A|34=400|49=INITIATOR|52=20231202-03:57:19.483|56=ACCEPTOR|98=0|108=30|1137=7|10=249|
20231202-03:57:20.389879000 : 8=FIXT.1.1|9=81|35=A|34=401|49=INITIATOR|52=20231202-03:57:20.389|56=ACCEPTOR|98=0|108=30|1137=7|10=247|
20231202-03:57:21.296175000 : 8=FIXT.1.1|9=81|35=A|34=402|49=INITIATOR|52=20231202-03:57:21.296|56=ACCEPTOR|98=0|108=30|1137=7|10=246|
20231202-03:57:22.202673000 : 8=FIXT.1.1|9=81|35=A|34=403|49=INITIATOR|52=20231202-03:57:22.202|56=ACCEPTOR|98=0|108=30|1137=7|10=235|
20231202-03:57:23.108040000 : 8=FIXT.1.1|9=81|35=A|34=404|49=INITIATOR|52=20231202-03:57:23.108|56=ACCEPTOR|98=0|108=30|1137=7|10=242|
20231202-03:57:24.013308000 : 8=FIXT.1.1|9=81|35=A|34=405|49=INITIATOR|52=20231202-03:57:24.013|56=ACCEPTOR|98=0|108=30|1137=7|10=239|
20231202-03:57:25.823644000 : 8=FIXT.1.1|9=81|35=A|34=406|49=INITIATOR|52=20231202-03:57:25.823|56=ACCEPTOR|98=0|108=30|1137=7|10=250|
20231202-03:57:26.727936000 : 8=FIXT.1.1|9=81|35=A|34=407|49=INITIATOR|52=20231202-03:57:26.727|56=ACCEPTOR|98=0|108=30|1137=7|10=255|
20231202-03:57:27.632177000 : 8=FIXT.1.1|9=81|35=A|34=408|49=INITIATOR|52=20231202-03:57:27.632|56=ACCEPTOR|98=0|108=30|1137=7|10=252|
20231202-03:57:28.536484000 : 8=FIXT.1.1|9=81|35=A|34=409|49=INITIATOR|52=20231202-03:57:28.536|56=ACCEPTOR|98=0|108=30|1137=7|10=001|
20231202-03:57:29.440735000 : 8=FIXT.1.1|9=81|35=A|34=410|49=INITIATOR|52=20231202-03:57:29.440|56=ACCEPTOR|98=0|108=30|1137=7|10=244|
20231202-03:57:30.344093000 : 8=FIXT.1.1|9=81|35=A|34=411|49=INITIATOR|52=20231202-03:57:30.344|56=ACCEPTOR|98=0|108=30|1137=7|10=240|
20231202-03:57:31.247354000 : 8=FIXT.1.1|9=81|35=A|34=412|49=INITIATOR|52=20231202-03:57:31.247|56=ACCEPTOR|98=0|108=30|1137=7|10=244|
20231202-03:57:32.150654000 : 8=FIXT.1.1|9=81|35=A|34=413|49=INITIATOR|52=20231202-03:57:32.150|56=ACCEPTOR|98=0|108=30|1137=7|10=239|
20231202-03:57:33.052992000 : 8=FIXT.1.1|9=81|35=A|34=414|49=INITIATOR|52=20231202-03:57:33.052|56=ACCEPTOR|98=0|108=30|1137=7|10=242|
20231202-03:57:34.857239000 : 8=FIXT.1.1|9=81|35=A|34=415|49=INITIATOR|52=20231202-03:57:34.857|56=ACCEPTOR|98=0|108=30|1137=7|10=001|
20231202-03:57:35.759536000 : 8=FIXT.1.1|9=81|35=A|34=416|49=INITIATOR|52=20231202-03:57:35.759|56=ACCEPTOR|98=0|108=30|1137=7|10=004|
20231202-03:57:36.660853000 : 8=FIXT.1.1|9=81|35=A|34=417|49=INITIATOR|52=20231202-03:57:36.660|56=ACCEPTOR|98=0|108=30|1137=7|10=253|
20231202-03:57:37.562251000 : 8=FIXT.1.1|9=81|35=A|34=418|49=INITIATOR|52=20231202-03:57:37.562|56=ACCEPTOR|98=0|108=30|1137=7|10=000|
20231202-03:57:38.463615000 : 8=FIXT.1.1|9=81|35=A|34=419|49=INITIATOR|52=20231202-03:57:38.463|56=ACCEPTOR|98=0|108=30|1137=7|10=002|
20231202-03:57:39.364903000 : 8=FIXT.1.1|9=81|35=A|34=420|49=INITIATOR|52=20231202-03:57:39.364|56=ACCEPTOR|98=0|108=30|1137=7|10=251|
20231202-03:57:40.265266000 : 8=FIXT.1.1|9=81|35=A|34=421|49=INITIATOR|52=20231202-03:57:40.265|56=ACCEPTOR|98=0|108=30|1137=7|10=244|
20231202-03:57:41.165555000 : 8=FIXT.1.1|9=81|35=A|34=422|49=INITIATOR|52=20231202-03:57:41.165|56=ACCEPTOR|98=0|108=30|1137=7|10=245|
20231202-03:57:42.065921000 : 8=FIXT.1.1|9=81|35=A|34=423|49=INITIATOR|52=20231202-03:57:42.065|56=ACCEPTOR|98=0|108=30|1137=7|10=246|
20231202-03:57:43.864415000 : 8=FIXT.1.1|9=81|35=A|34=424|49=INITIATOR|52=20231202-03:57:43.864|56=ACCEPTOR|98=0|108=30|1137=7|10=255|
20231202-03:57:44.763798000 : 8=FIXT.1.1|9=81|35=A|34=425|49=INITIATOR|52=20231202-03:57:44.763|56=ACCEPTOR|98=0|108=30|1137=7|10=255|
20231202-03:57:45.663191000 : 8=FIXT.1.1|9=81|35=A|34=426|49=INITIATOR|52=20231202-03:57:45.663|56=ACCEPTOR|98=0|108=30|1137=7|10=000|
20231202-03:57:46.561533000 : 8=FIXT.1.1|9=81|35=A|34=427|49=INITIATOR|52=20231202-03:57:46.561|56=ACCEPTOR|98=0|108=30|1137=7|10=255|
20231202-03:57:47.460009000 : 8=FIXT.1.1|9=81|35=A|34=428|49=INITIATOR|52=20231202-03:57:47.459|56=ACCEPTOR|98=0|108=30|1137=7|10=007|
20231202-03:57:48.358513000 : 8=FIXT.1.1|9=81|35=A|34=429|49=INITIATOR|52=20231202-03:57:48.358|56=ACCEPTOR|98=0|108=30|1137=7|10=007|
20231202-03:57:49.255953000 : 8=FIXT.1.1|9=81|35=A|34=430|49=INITIATOR|52=20231202-03:57:49.255|56=ACCEPTOR|98=0|108=30|1137=7|10=252|
20231202-03:57:50.153379000 : 8=FIXT.1.1|9=81|35=A|34=431|49=INITIATOR|52=20231202-03:57:50.153|56=ACCEPTOR|98=0|108=30|1137=7|10=242|
20231202-03:57:51.049794000 : 8=FIXT.1.1|9=81|35=A|34=432|49=INITIATOR|52=20231202-03:57:51.049|56=ACCEPTOR|98=0|108=30|1137=7|10=248|
20231202-03:57:52.842182000 : 8=FIXT.1.1|9=81|35=A|34=433|49=INITIATOR|52=20231202-03:57:52.842|56=ACCEPTOR|98=0|108=30|1137=7|10=251|
20231202-03:57:53.738564000 : 8=FIXT.1.1|9=81|35=A|34=434|49=INITIATOR|52=20231202-03:57:53.738|56=ACCEPTOR|98=0|108=30|1137=7|10=001|
20231202-03:57:54.633861000 : 8=FIXT.1.1|9=81|35=A|34=435|49=INITIATOR|52=20231202-03:57:54.633|56=ACCEPTOR|98=0|108=30|1137=7|10=253|
20231202-03:57:55.529098000 : 8=FIXT.1.1|9=81|35=A|34=436|49=INITIATOR|52=20231202-03:57:55.529|56=ACCEPTOR|98=0|108=30|1137=7|10=003|
20231202-03:57:56.424333000 : 8=FIXT.1.1|9=81|35=A|34=437|49=INITIATOR|52=20231202-03:57:56.424|56=ACCEPTOR|98=0|108=30|1137=7|10=255|
20231202-03:57:57.319596000 : 8=FIXT.1.1|9=81|35=A|34=438|49=INITIATOR|52=20231202-03:57:57.319|56=ACCEPTOR|98=0|108=30|1137=7|10=004|
20231202-03:57:58.213996000 : 8=FIXT.1.1|9=81|35=A|34=439|49=INITIATOR|52=20231202-03:57:58.213|56=ACCEPTOR|98=0|108=30|1137=7|10=255|
20231202-03:57:59.108370000 : 8=FIXT.1.1|9=81|35=A|34=440|49=INITIATOR|52=20231202-03:57:59.108|56=ACCEPTOR|98=0|108=30|1137=7|10=251|
20231202-03:58:00.896646000 : 8=FIXT.1.1|9=81|35=A|34=441|49=INITIATOR|52=20231202-03:58:00.896|56=ACCEPTOR|98=0|108=30|1137=7|10=253|
20231202-03:58:01.789966000 : 8=FIXT.1.1|9=81|35=A|34=442|49=INITIATOR|52=20231202-03:58:01.789|56=ACCEPTOR|98=0|108=30|1137=7|10=000|
20231202-03:58:02.683291000 : 8=FIXT.1.1|9=81|35=A|34=443|49=INITIATOR|52=20231202-03:58:02.683|56=ACCEPTOR|98=0|108=30|1137=7|10=251|
20231202-03:58:03.576713000 : 8=FIXT.1.1|9=81|35=A|34=444|49=INITIATOR|52=20231202-03:58:03.576|56=ACCEPTOR|98=0|108=30|1137=7|10=254|
20231202-03:58:04.469118000 : 8=FIXT.1.1|9=81|35=A|34=445|49=INITIATOR|52=20231202-03:58:04.469|56=ACCEPTOR|98=0|108=30|1137=7|10=001|
20231202-03:58:05.361466000 : 8=FIXT.1.1|9=81|35=A|34=446|49=INITIATOR|52=20231202-03:58:05.361|56=ACCEPTOR|98=0|108=30|1137=7|10=250|
20231202-03:58:06.253785000 : 8=FIXT.1.1|9=81|35=A|34=447|49=INITIATOR|52=20231202-03:58:06.253|56=ACCEPTOR|98=0|108=30|1137=7|10=252|
20231202-03:58:07.145099000 : 8=FIXT.1.1|9=81|35=A|34=448|49=INITIATOR|52=20231202-03:58:07.145|56=ACCEPTOR|98=0|108=30|1137=7|10=254|
20231202-03:58:08.036538000 : 8=FIXT.1.1|9=81|35=A|34=449|49=INITIATOR|52=20231202-03:58:08.036|56=ACCEPTOR|98=0|108=30|1137=7|10=255|
20231202-03:58:09.818836000 : 8=FIXT.1.1|9=81|35=A|34=450|49=INITIATOR|52=20231202-03:58:09.818|56=ACCEPTOR|98=0|108=30|1137=7|10=000|
20231202-03:58:10.709111000 : 8=FIXT.1.1|9=81|35=A|34=451|49=INITIATOR|52=20231202-03:58:10.709|56=ACCEPTOR|98=0|108=30|1137=7|10=248|
20231202-03:58:11.599486000 : 8=FIXT.1.1|9=81|35=A|34=452|49=INITIATOR|52=20231202-03:58:11.599|56=ACCEPTOR|98=0|108=30|1137=7|10=001|
20231202-03:58:12.489948000 : 8=FIXT.1.1|9=81|35=A|34=453|49=INITIATOR|52=20231202-03:58:12.489|56=ACCEPTOR|98=0|108=30|1137=7|10=001|
20231202-03:58:13.379285000 : 8=FIXT.1.1|9=81|35=A|34=454|49=INITIATOR|52=20231202-03:58:13.379|56=ACCEPTOR|98=0|108=30|1137=7|10=001|
20231202-03:58:14.268580000 : 8=FIXT.1.1|9=81|35=A|34=455|49=INITIATOR|52=20231202-03:58:14.268|56=ACCEPTOR|98=0|108=30|1137=7|10=000|
20231202-03:58:15.157852000 : 8=FIXT.1.1|9=81|35=A|34=456|49=INITIATOR|52=20231202-03:58:15.157|56=ACCEPTOR|98=0|108=30|1137=7|10=255|
20231202-03:58:16.046149000 : 8=FIXT.1.1|9=81|35=A|34=457|49=INITIATOR|52=20231202-03:58:16.046|56=ACCEPTOR|98=0|108=30|1137=7|10=254|
20231202-03:58:17.822417000 : 8=FIXT.1.1|9=81|35=A|34=458|49=INITIATOR|52=20231202-03:58:17.822|56=ACCEPTOR|98=0|108=30|1137=7|10=002|
20231202-03:58:18.710645000 : 8=FIXT.1.1|9=81|35=A|34=459|49=INITIATOR|52=20231202-03:58:18.710|56=ACCEPTOR|98=0|108=30|1137=7|10=000|
20231202-03:58:19.599028000 : 8=FIXT.1.1|9=81|35=A|34=460|49=INITIATOR|52=20231202-03:58:19.599|56=ACCEPTOR|98=0|108=30|1137=7|10=008|
20231202-03:58:20.486429000 : 8=FIXT.1.1|9=81|35=A|34=461|49=INITIATOR|52=20231202-03:58:20.486|56=ACCEPTOR|98=0|108=30|1137=7|10=252|
20231202-03:58:21.373759000 : 8=FIXT.1.1|9=81|35=A|34=462|49=INITIATOR|52=20231202-03:58:21.373|56=ACCEPTOR|98=0|108=30|1137=7|10=249|
20231202-03:58:22.261238000 : 8=FIXT.1.1|9=81|35=A|34=463|49=INITIATOR|52=20231202-03:58:22.261|56=ACCEPTOR|98=0|108=30|1137=7|10=247|
20231202-03:58:23.147765000 : 8=FIXT.1.1|9=81|35=A|34=464|49=INITIATOR|52=20231202-03:58:23.147|56=ACCEPTOR|98=0|108=30|1137=7|10=252|
20231202-03:58:24.034168000 : 8=FIXT.1.1|9=81|35=A|34=465|49=INITIATOR|52=20231202-03:58:24.034|56=ACCEPTOR|98=0|108=30|1137=7|10=249|
20231202-03:58:25.804402000 : 8=FIXT.1.1|9=81|35=A|34=466|49=INITIATOR|52=20231202-03:58:25.804|56=ACCEPTOR|98=0|108=30|1137=7|10=000|
20231202-03:58:26.689640000 : 8=FIXT.1.1|9=81|35=A|34=467|49=INITIATOR|52=20231202-03:58:26.689|56=ACCEPTOR|98=0|108=30|1137=7|10=013|
20231202-03:58:27.574913000 : 8=FIXT.1.1|9=81|35=A|34=468|49=INITIATOR|52=20231202-03:58:27.574|56=ACCEPTOR|98=0|108=30|1137=7|10=008|
20231202-03:58:28.460164000 : 8=FIXT.1.1|9=81|35=A|34=469|49=INITIATOR|52=20231202-03:58:28.460|56=ACCEPTOR|98=0|108=30|1137=7|10=004|
20231202-03:58:29.344560000 : 8=FIXT.1.1|9=81|35=A|34=470|49=INITIATOR|52=20231202-03:58:29.344|56=ACCEPTOR|98=0|108=30|1137=7|10=254|
20231202-03:58:30.228798000 : 8=FIXT.1.1|9=81|35=A|34=471|49=INITIATOR|52=20231202-03:58:30.228|56=ACCEPTOR|98=0|108=30|1137=7|10=248|
20231202-03:58:31.113020000 : 8=FIXT.1.1|9=81|35=A|34=472|49=INITIATOR|52=20231202-03:58:31.112|56=ACCEPTOR|98=0|108=30|1137=7|10=242|
20231202-03:58:32.881203000 : 8=FIXT.1.1|9=81|35=A|34=473|49=INITIATOR|52=20231202-03:58:32.881|56=ACCEPTOR|98=0|108=30|1137=7|10=001|
20231202-03:58:33.764597000 : 8=FIXT.1.1|9=81|35=A|34=474|49=INITIATOR|52=20231202-03:58:33.764|56=ACCEPTOR|98=0|108=30|1137=7|10=003|
20231202-03:58:34.647989000 : 8=FIXT.1.1|9=81|35=A|34=475|49=INITIATOR|52=20231202-03:58:34.647|56=ACCEPTOR|98=0|108=30|1137=7|10=005|
20231202-03:58:35.530461000 : 8=FIXT.1.1|9=81|35=A|34=476|49=INITIATOR|52=20231202-03:58:35.530|56=ACCEPTOR|98=0|108=30|1137=7|10=254|
20231202-03:58:36.412721000 : 8=FIXT.1.1|9=81|35=A|34=477|49=INITIATOR|52=20231202-03:58:36.412|56=ACCEPTOR|98=0|108=30|1137=7|10=255|
20231202-03:58:37.294977000 : 8=FIXT.1.1|9=81|35=A|34=478|49=INITIATOR|52=20231202-03:58:37.294|56=ACCEPTOR|98=0|108=30|1137=7|10=009|
20231202-03:58:38.177410000 : 8=FIXT.1.1|9=81|35=A|34=479|49=INITIATOR|52=20231202-03:58:38.177|56=ACCEPTOR|98=0|108=30|1137=7|10=011|
20231202-03:58:39.058744000 : 8=FIXT.1.1|9=81|35=A|34=480|49=INITIATOR|52=20231202-03:58:39.058|56=ACCEPTOR|98=0|108=30|1137=7|10=002|
20231202-03:58:40.821068000 : 8=FIXT.1.1|9=81|35=A|34=481|49=INITIATOR|52=20231202-03:58:40.821|56=ACCEPTOR|98=0|108=30|1137=7|10=249|
20231202-03:58:41.702331000 : 8=FIXT.1.1|9=81|35=A|34=482|49=INITIATOR|52=20231202-03:58:41.702|56=ACCEPTOR|98=0|108=30|1137=7|10=249|
20231202-03:58:42.583642000 : 8=FIXT.1.1|9=81|35=A|34=483|49=INITIATOR|52=20231202-03:58:42.583|56=ACCEPTOR|98=0|108=30|1137=7|10=002|
20231202-03:58:43.464006000 : 8=FIXT.1.1|9=81|35=A|34=484|49=INITIATOR|52=20231202-03:58:43.463|56=ACCEPTOR|98=0|108=30|1137=7|10=001|
20231202-03:58:44.344304000 : 8=FIXT.1.1|9=81|35=A|34=485|49=INITIATOR|52=20231202-03:58:44.344|56=ACCEPTOR|98=0|108=30|1137=7|10=001|
20231202-03:58:45.224603000 : 8=FIXT.1.1|9=81|35=A|34=486|49=INITIATOR|52=20231202-03:58:45.224|56=ACCEPTOR|98=0|108=30|1137=7|10=000|
20231202-03:58:46.104023000 : 8=FIXT.1.1|9=81|35=A|34=487|49=INITIATOR|52=20231202-03:58:46.104|56=ACCEPTOR|98=0|108=30|1137=7|10=255|
20231202-03:58:47.862275000 : 8=FIXT.1.1|9=81|35=A|34=488|49=INITIATOR|52=20231202-03:58:47.862|56=ACCEPTOR|98=0|108=30|1137=7|10=012|
20231202-03:58:48.741588000 : 8=FIXT.1.1|9=81|35=A|34=489|49=INITIATOR|52=20231202-03:58:48.741|56=ACCEPTOR|98=0|108=30|1137=7|10=010|
20231202-03:58:49.620089000 : 8=FIXT.1.1|9=81|35=A|34=490|49=INITIATOR|52=20231202-03:58:49.620|56=ACCEPTOR|98=0|108=30|1137=7|10=255|
20231202-03:58:50.498467000 : 8=FIXT.1.1|9=81|35=A|34=491|49=INITIATOR|52=20231202-03:58:50.498|56=ACCEPTOR|98=0|108=30|1137=7|10=005|
20231202-03:58:51.376694000 : 8=FIXT.1.1|9=81|35=A|34=492|49=INITIATOR|52=20231202-03:58:51.376|56=ACCEPTOR|98=0|108=30|1137=7|10=002|
20231202-03:58:52.254098000 : 8=FIXT.1.1|9=81|35=A|34=493|49=INITIATOR|52=20231202-03:58:52.254|56=ACCEPTOR|98=0|108=30|1137=7|10=255|
20231202-03:58:53.131414000 : 8=FIXT.1.1|9=81|35=A|34=494|49=INITIATOR|52=20231202-03:58:53.131|56=ACCEPTOR|98=0|108=30|1137=7|10=251|
20231202-03:58:54.885542000 : 8=FIXT.1.1|9=81|35=A|34=495|49=INITIATOR|52=20231202-03:58:54.885|56=ACCEPTOR|98=0|108=30|1137=7|10=013|
20231202-03:58:55.761882000 : 8=FIXT.1.1|9=81|35=A|34=496|49=INITIATOR|52=20231202-03:58:55.761|56=ACCEPTOR|98=0|108=30|1137=7|10=008|
20231202-03:58:56.638168000 : 8=FIXT.1.1|9=81|35=A|34=497|49=INITIATOR|52=20231202-03:58:56.638|56=ACCEPTOR|98=0|108=30|1137=7|10=013|
20231202-03:58:57.514446000 : 8=FIXT.1.1|9=81|35=A|34=498|49=INITIATOR|52=20231202-03:58:57.514|56=ACCEPTOR|98=0|108=30|1137=7|10=008|
20231202-03:58:58.390741000 : 8=FIXT.1.1|9=81|35=A|34=499|49=INITIATOR|52=20231202-03:58:58.390|56=ACCEPTOR|98=0|108=30|1137=7|10=012|
20231202-03:58:59.266016000 : 8=FIXT.1.1|9=81|35=A|34=500|49=INITIATOR|52=20231202-03:58:59.265|56=ACCEPTOR|98=0|108=30|1137=7|10=253|
20231202-03:59:00.141373000 : 8=FIXT.1.1|9=81|35=A|34=501|49=INITIATOR|52=20231202-03:59:00.141|56=ACCEPTOR|98=0|108=30|1137=7|10=234|
20231202-03:59:01.016641000 : 8=FIXT.1.1|9=81|35=A|34=502|49=INITIATOR|52=20231202-03:59:01.016|56=ACCEPTOR|98=0|108=30|1137=7|10=237|
20231202-03:59:02.764980000 : 8=FIXT.1.1|9=81|35=A|34=503|49=INITIATOR|52=20231202-03:59:02.764|56=ACCEPTOR|98=0|108=30|1137=7|10=249|
20231202-03:59:03.639284000 : 8=FIXT.1.1|9=81|35=A|34=504|49=INITIATOR|52=20231202-03:59:03.639|56=ACCEPTOR|98=0|108=30|1137=7|10=252|
20231202-03:59:04.513812000 : 8=FIXT.1.1|9=81|35=A|34=505|49=INITIATOR|52=20231202-03:59:04.513|56=ACCEPTOR|98=0|108=30|1137=7|10=245|
20231202-03:59:05.387020000 : 8=FIXT.1.1|9=81|35=A|34=506|49=INITIATOR|52=20231202-03:59:05.386|56=ACCEPTOR|98=0|108=30|1137=7|10=255|
20231202-03:59:06.260343000 : 8=FIXT.1.1|9=81|35=A|34=507|49=INITIATOR|52=20231202-03:59:06.260|56=ACCEPTOR|98=0|108=30|1137=7|10=248|
20231202-03:59:07.133709000 : 8=FIXT.1.1|9=81|35=A|34=508|49=INITIATOR|52=20231202-03:59:07.133|56=ACCEPTOR|98=0|108=30|1137=7|10=249|
20231202-03:59:08.877988000 : 8=FIXT.1.1|9=81|35=A|34=509|49=INITIATOR|52=20231202-03:59:08.877|56=ACCEPTOR|98=0|108=30|1137=7|10=010|
20231202-03:59:09.750201000 : 8=FIXT.1.1|9=81|35=A|34=510|49=INITIATOR|52=20231202-03:59:09.750|56=ACCEPTOR|98=0|108=30|1137=7|10=249|
20231202-03:59:10.622500000 : 8=FIXT.1.1|9=81|35=A|34=511|49=INITIATOR|52=20231202-03:59:10.622|56=ACCEPTOR|98=0|108=30|1137=7|10=240|
20231202-03:59:11.494773000 : 8=FIXT.1.1|9=81|35=A|34=512|49=INITIATOR|52=20231202-03:59:11.494|56=ACCEPTOR|98=0|108=30|1137=7|10=249|
20231202-03:59:12.366115000 : 8=FIXT.1.1|9=81|35=A|34=513|49=INITIATOR|52=20231202-03:59:12.366|56=ACCEPTOR|98=0|108=30|1137=7|10=249|
20231202-03:59:13.237492000 : 8=FIXT.1.1|9=81|35=A|34=514|49=INITIATOR|52=20231202-03:59:13.237|56=ACCEPTOR|98=0|108=30|1137=7|10=248|
20231202-03:59:14.108754000 : 8=FIXT.1.1|9=81|35=A|34=515|49=INITIATOR|52=20231202-03:59:14.108|56=ACCEPTOR|98=0|108=30|1137=7|10=247|
20231202-03:59:15.850994000 : 8=FIXT.1.1|9=81|35=A|34=516|49=INITIATOR|52=20231202-03:59:15.850|56=ACCEPTOR|98=0|108=30|1137=7|10=253|
20231202-03:59:16.721325000 : 8=FIXT.1.1|9=81|35=A|34=517|49=INITIATOR|52=20231202-03:59:16.721|56=ACCEPTOR|98=0|108=30|1137=7|10=252|
20231202-03:59:17.591713000 : 8=FIXT.1.1|9=81|35=A|34=518|49=INITIATOR|52=20231202-03:59:17.591|56=ACCEPTOR|98=0|108=30|1137=7|10=003|
20231202-03:59:18.462005000 : 8=FIXT.1.1|9=81|35=A|34=519|49=INITIATOR|52=20231202-03:59:18.461|56=ACCEPTOR|98=0|108=30|1137=7|10=001|
20231202-03:59:19.331219000 : 8=FIXT.1.1|9=81|35=A|34=520|49=INITIATOR|52=20231202-03:59:19.331|56=ACCEPTOR|98=0|108=30|1137=7|10=246|
20231202-03:59:20.200549000 : 8=FIXT.1.1|9=81|35=A|34=521|49=INITIATOR|52=20231202-03:59:20.200|56=ACCEPTOR|98=0|108=30|1137=7|10=234|
20231202-03:59:21.069786000 : 8=FIXT.1.1|9=81|35=A|34=522|49=INITIATOR|52=20231202-03:59:21.069|56=ACCEPTOR|98=0|108=30|1137=7|10=249|
20231202-03:59:22.807967000 : 8=FIXT.1.1|9=81|35=A|34=523|49=INITIATOR|52=20231202-03:59:22.807|56=ACCEPTOR|98=0|108=30|1137=7|10=251|
20231202-03:59:23.676247000 : 8=FIXT.1.1|9=81|35=A|34=524|49=INITIATOR|52=20231202-03:59:23.676|56=ACCEPTOR|98=0|108=30|1137=7|10=001|
20231202-03:59:24.544751000 : 8=FIXT.1.1|9=81|35=A|34=525|49=INITIATOR|52=20231202-03:59:24.544|56=ACCEPTOR|98=0|108=30|1137=7|10=253|
20231202-03:59:25.413158000 : 8=FIXT.1.1|9=81|35=A|34=526|49=INITIATOR|52=20231202-03:59:25.413|56=ACCEPTOR|98=0|108=30|1137=7|10=250|
20231202-03:59:26.280398000 : 8=FIXT.1.1|9=81|35=A|34=527|49=INITIATOR|52=20231202-03:59:26.280|56=ACCEPTOR|98=0|108=30|1137=7|10=254|
20231202-03:59:27.147899000 : 8=FIXT.1.1|9=81|35=A|34=528|49=INITIATOR|52=20231202-03:59:27.147|56=ACCEPTOR|98=0|108=30|1137=7|10=002|
20231202-03:59:28.015152000 : 8=FIXT.1.1|9=81|35=A|34=529|49=INITIATOR|52=20231202-03:59:28.015|56=ACCEPTOR|98=0|108=30|1137=7|10=254|
20231202-03:59:29.747564000 : 8=FIXT.1.1|9=81|35=A|34=530|49=INITIATOR|52=20231202-03:59:29.747|56=ACCEPTOR|98=0|108=30|1137=7|10=003|
20231202-03:59:30.613776000 : 8=FIXT.1.1|9=81|35=A|34=531|49=INITIATOR|52=20231202-03:59:30.613|56=ACCEPTOR|98=0|108=30|1137=7|10=244|
20231202-03:59:31.480131000 : 8=FIXT.1.1|9=81|35=A|34=532|49=INITIATOR|52=20231202-03:59:31.480|56=ACCEPTOR|98=0|108=30|1137=7|10=248|
20231202-03:59:32.345450000 : 8=FIXT.1.1|9=81|35=A|34=533|49=INITIATOR|52=20231202-03:59:32.345|56=ACCEPTOR|98=0|108=30|1137=7|10=250|
20231202-03:59:33.210692000 : 8=FIXT.1.1|9=81|35=A|34=534|49=INITIATOR|52=20231202-03:59:33.210|56=ACCEPTOR|98=0|108=30|1137=7|10=243|
20231202-03:59:34.075952000 : 8=FIXT.1.1|9=81|35=A|34=535|49=INITIATOR|52=20231202-03:59:34.075|56=ACCEPTOR|98=0|108=30|1137=7|10=254|
20231202-03:59:35.806233000 : 8=FIXT.1.1|9=81|35=A|34=536|49=INITIATOR|52=20231202-03:59:35.806|56=ACCEPTOR|98=0|108=30|1137=7|10=002|
20231202-03:59:36.670553000 : 8=FIXT.1.1|9=81|35=A|34=537|49=INITIATOR|52=20231202-03:59:36.670|56=ACCEPTOR|98=0|108=30|1137=7|10=003|
20231202-03:59:37.534912000 : 8=FIXT.1.1|9=81|35=A|34=538|49=INITIATOR|52=20231202-03:59:37.534|56=ACCEPTOR|98=0|108=30|1137=7|10=004|
20231202-03:59:38.399129000 : 8=FIXT.1.1|9=81|35=A|34=539|49=INITIATOR|52=20231202-03:59:38.399|56=ACCEPTOR|98=0|108=30|1137=7|10=015|
20231202-03:59:39.262378000 : 8=FIXT.1.1|9=81|35=A|34=540|49=INITIATOR|52=20231202-03:59:39.262|56=ACCEPTOR|98=0|108=30|1137=7|10=253|
20231202-03:59:40.125702000 : 8=FIXT.1.1|9=81|35=A|34=541|49=INITIATOR|52=20231202-03:59:40.125|56=ACCEPTOR|98=0|108=30|1137=7|10=244|
20231202-03:59:41.852045000 : 8=FIXT.1.1|9=81|35=A|34=542|49=INITIATOR|52=20231202-03:59:41.852|56=ACCEPTOR|98=0|108=30|1137=7|10=253|
20231202-03:59:42.714299000 : 8=FIXT.1.1|9=81|35=A|34=543|49=INITIATOR|52=20231202-03:59:42.714|56=ACCEPTOR|98=0|108=30|1137=7|10=252|
20231202-03:59:43.576575000 : 8=FIXT.1.1|9=81|35=A|34=544|49=INITIATOR|52=20231202-03:59:43.576|56=ACCEPTOR|98=0|108=30|1137=7|10=004|
20231202-03:59:44.438877000 : 8=FIXT.1.1|9=81|35=A|34=545|49=INITIATOR|52=20231202-03:59:44.438|56=ACCEPTOR|98=0|108=30|1137=7|10=003|
20231202-03:59:45.301254000 : 8=FIXT.1.1|9=81|35=A|34=546|49=INITIATOR|52=20231202-03:59:45.301|56=ACCEPTOR|98=0|108=30|1137=7|10=250|
20231202-03:59:46.162598000 : 8=FIXT.1.1|9=81|35=A|34=547|49=INITIATOR|52=20231202-03:59:46.162|56=ACCEPTOR|98=0|108=30|1137=7|10=001|
20231202-03:59:47.023943000 : 8=FIXT.1.1|9=81|35=A|34=548|49=INITIATOR|52=20231202-03:59:47.023|56=ACCEPTOR|98=0|108=30|1137=7|10=255|
20231202-03:59:48.746186000 : 8=FIXT.1.1|9=81|35=A|34=549|49=INITIATOR|52=20231202-03:59:48.746|56=ACCEPTOR|98=0|108=30|1137=7|10=013|
20231202-03:59:49.606508000 : 8=FIXT.1.1|9=81|35=A|34=550|49=INITIATOR|52=20231202-03:59:49.606|56=ACCEPTOR|98=0|108=30|1137=7|10=001|
20231202-03:59:50.466796000 : 8=FIXT.1.1|9=81|35=A|34=551|49=INITIATOR|52=20231202-03:59:50.466|56=ACCEPTOR|98=0|108=30|1137=7|10=254|
20231202-03:59:51.327019000 : 8=FIXT.1.1|9=81|35=A|34=552|49=INITIATOR|52=20231202-03:59:51.326|56=ACCEPTOR|98=0|108=30|1137=7|10=251|
20231202-03:59:52.187258000 : 8=FIXT.1.1|9=81|35=A|34=553|49=INITIATOR|52=20231202-03:59:52.187|56=ACCEPTOR|98=0|108=30|1137=7|10=002|
20231202-03:59:53.046667000 : 8=FIXT.1.1|9=81|35=A|34=554|49=INITIATOR|52=20231202-03:59:53.046|56=ACCEPTOR|98=0|108=30|1137=7|10=254|
20231202-03:59:54.764883000 : 8=FIXT.1.1|9=81|35=A|34=555|49=INITIATOR|52=20231202-03:59:54.764|56=ACCEPTOR|98=0|108=30|1137=7|10=007|
20231202-03:59:55.624222000 : 8=FIXT.1.1|9=81|35=A|34=556|49=INITIATOR|52=20231202-03:59:55.624|56=ACCEPTOR|98=0|108=30|1137=7|10=004|
20231202-03:59:56.482475000 : 8=FIXT.1.1|9=81|35=A|34=557|49=INITIATOR|52=20231202-03:59:56.482|56=ACCEPTOR|98=0|108=30|1137=7|10=008|
20231202-03:59:57.340442000 : 8=FIXT.1.1|9=81|35=A|34=558|49=INITIATOR|52=20231202-03:59:57.340|56=ACCEPTOR|98=0|108=30|1137=7|10=003|
20231202-03:59:58.198733000 : 8=FIXT.1.1|9=81|35=A|34=559|49=INITIATOR|52=20231202-03:59:58.198|56=ACCEPTOR|98=0|108=30|1137=7|10=016|
20231202-03:59:59.057099000 : 8=FIXT.1.1|9=81|35=A|34=560|49=INITIATOR|52=20231202-03:59:59.057|56=ACCEPTOR|98=0|108=30|1137=7|10=003|
20231202-04:00:00.771360000 : 8=FIXT.1.1|9=81|35=A|34=561|49=INITIATOR|52=20231202-04:00:00.771|56=ACCEPTOR|98=0|108=30|1137=7|10=236|
20231202-04:00:01.628469000 : 8=FIXT.1.1|9=81|35=A|34=562|49=INITIATOR|52=20231202-04:00:01.628|56=ACCEPTOR|98=0|108=30|1137=7|10=239|
20231202-04:00:02.484792000 : 8=FIXT.1.1|9=81|35=A|34=563|49=INITIATOR|52=20231202-04:00:02.484|56=ACCEPTOR|98=0|108=30|1137=7|10=241|
20231202-04:00:03.340999000 : 8=FIXT.1.1|9=81|35=A|34=564|49=INITIATOR|52=20231202-04:00:03.340|56=ACCEPTOR|98=0|108=30|1137=7|10=234|
20231202-04:00:04.197400000 : 8=FIXT.1.1|9=81|35=A|34=565|49=INITIATOR|52=20231202-04:00:04.197|56=ACCEPTOR|98=0|108=30|1137=7|10=246|
20231202-04:00:05.053693000 : 8=FIXT.1.1|9=81|35=A|34=566|49=INITIATOR|52=20231202-04:00:05.053|56=ACCEPTOR|98=0|108=30|1137=7|10=239|
20231202-04:00:06.763874000 : 8=FIXT.1.1|9=81|35=A|34=567|49=INITIATOR|52=20231202-04:00:06.763|56=ACCEPTOR|98=0|108=30|1137=7|10=249|
20231202-04:00:07.619155000 : 8=FIXT.1.1|9=81|35=A|34=568|49=INITIATOR|52=20231202-04:00:07.619|56=ACCEPTOR|98=0|108=30|1137=7|10=251|
20231202-04:00:08.474557000 : 8=FIXT.1.1|9=81|35=A|34=569|49=INITIATOR|52=20231202-04:00:08.474|56=ACCEPTOR|98=0|108=30|1137=7|10=252|
20231202-04:00:09.328869000 : 8=FIXT.1.1|9=81|35=A|34=570|49=INITIATOR|52=20231202-04:00:09.328|56=ACCEPTOR|98=0|108=30|1137=7|10=243|
20231202-04:00:10.183135000 : 8=FIXT.1.1|9=81|35=A|34=571|49=INITIATOR|52=20231202-04:00:10.183|56=ACCEPTOR|98=0|108=30|1137=7|10=235|
20231202-04:00:11.037491000 : 8=FIXT.1.1|9=81|35=A|34=572|49=INITIATOR|52=20231202-04:00:11.037|56=ACCEPTOR|98=0|108=30|1137=7|10=235|
20231202-04:00:12.743708000 : 8=FIXT.1.1|9=81|35=A|34=573|49=INITIATOR|52=20231202-04:00:12.743|56=ACCEPTOR|98=0|108=30|1137=7|10=241|
20231202-04:00:13.596919000 : 8=FIXT.1.1|9=81|35=A|34=574|49=INITIATOR|52=20231202-04:00:13.596|56=ACCEPTOR|98=0|108=30|1137=7|10=249|
20231202-04:00:14.450124000 : 8=FIXT.1.1|9=81|35=A|34=575|49=INITIATOR|52=20231202-04:00:14.450|56=ACCEPTOR|98=0|108=30|1137=7|10=240|
20231202-04:00:15.303344000 : 8=FIXT.1.1|9=81|35=A|34=576|49=INITIATOR|52=20231202-04:00:15.303|56=ACCEPTOR|98=0|108=30|1137=7|10=239|
20231202-04:00:16.155579000 : 8=FIXT.1.1|9=81|35=A|34=577|49=INITIATOR|52=20231202-04:00:16.155|56=ACCEPTOR|98=0|108=30|1137=7|10=246|
20231202-04:00:17.859822000 : 8=FIXT.1.1|9=81|35=A|34=578|49=INITIATOR|52=20231202-04:00:17.859|56=ACCEPTOR|98=0|108=30|1137=7|10=003|
20231202-04:00:18.712073000 : 8=FIXT.1.1|9=81|35=A|34=579|49=INITIATOR|52=20231202-04:00:18.712|56=ACCEPTOR|98=0|108=30|1137=7|10=249|
20231202-04:00:19.563320000 : 8=FIXT.1.1|9=81|35=A|34=580|49=INITIATOR|52=20231202-04:00:19.563|56=ACCEPTOR|98=0|108=30|1137=7|10=246|
20231202-04:00:20.414566000 : 8=FIXT.1.1|9=81|35=A|34=581|49=INITIATOR|52=20231202-04:00:20.414|56=ACCEPTOR|98=0|108=30|1137=7|10=234|
20231202-04:00:21.265944000 : 8=FIXT.1.1|9=81|35=A|34=582|49=INITIATOR|52=20231202-04:00:21.265|56=ACCEPTOR|98=0|108=30|1137=7|10=240|
20231202-04:00:22.116260000 : 8=FIXT.1.1|9=81|35=A|34=583|49=INITIATOR|52=20231202-04:00:22.116|56=ACCEPTOR|98=0|108=30|1137=7|10=237|
20231202-04:00:23.816476000 : 8=FIXT.1.1|9=81|35=A|34=584|49=INITIATOR|52=20231202-04:00:23.816|56=ACCEPTOR|98=0|108=30|1137=7|10=246|
20231202-04:00:24.666888000 : 8=FIXT.1.1|9=81|35=A|34=585|49=INITIATOR|52=20231202-04:00:24.666|56=ACCEPTOR|98=0|108=30|1137=7|10=251|
20231202-04:00:25.516148000 : 8=FIXT.1.1|9=81|35=A|34=586|49=INITIATOR|52=20231202-04:00:25.516|56=ACCEPTOR|98=0|108=30|1137=7|10=247|
20231202-04:00:26.365373000 : 8=FIXT.1.1|9=81|35=A|34=587|49=INITIATOR|52=20231202-04:00:26.365|56=ACCEPTOR|98=0|108=30|1137=7|10=251|
20231202-04:00:27.214778000 : 8=FIXT.1.1|9=81|35=A|34=588|49=INITIATOR|52=20231202-04:00:27.214|56=ACCEPTOR|98=0|108=30|1137=7|10=246|
20231202-04:00:28.064107000 : 8=FIXT.1.1|9=81|35=A|34=589|49=INITIATOR|52=20231202-04:00:28.064|56=ACCEPTOR|98=0|108=30|1137=7|10=251|
20231202-04:00:29.760331000 : 8=FIXT.1.1|9=81|35=A|34=590|49=INITIATOR|52=20231202-04:00:29.760|56=ACCEPTOR|98=0|108=30|1137=7|10=247|
20231202-04:00:30.608619000 : 8=FIXT.1.1|9=81|35=A|34=591|49=INITIATOR|52=20231202-04:00:30.608|56=ACCEPTOR|98=0|108=30|1137=7|10=241|
20231202-04:00:31.456996000 : 8=FIXT.1.1|9=81|35=A|34=592|49=INITIATOR|52=20231202-04:00:31.456|56=ACCEPTOR|98=0|108=30|1137=7|10=244|
20231202-04:00:32.304389000 : 8=FIXT.1.1|9=81|35=A|34=593|49=INITIATOR|52=20231202-04:00:32.304|56=ACCEPTOR|98=0|108=30|1137=7|10=238|
20231202-04:00:33.151707000 : 8=FIXT.1.1|9=81|35=A|34=594|49=INITIATOR|52=20231202-04:00:33.151|56=ACCEPTOR|98=0|108=30|1137=7|10=240|
20231202-04:00:34.845850000 : 8=FIXT.1.1|9=81|35=A|34=595|49=INITIATOR|52=20231202-04:00:34.845|56=ACCEPTOR|98=0|108=30|1137=7|10=252|
20231202-04:00:35.692240000 : 8=FIXT.1.1|9=81|35=A|34=596|49=INITIATOR|52=20231202-04:00:35.692|56=ACCEPTOR|98=0|108=30|1137=7|10=254|
20231202-04:00:36.538695000 : 8=FIXT.1.1|9=81|35=A|34=597|49=INITIATOR|52=20231202-04:00:36.538|56=ACCEPTOR|98=0|108=30|1137=7|10=255|
20231202-04:00:37.384993000 : 8=FIXT.1.1|9=81|35=A|34=598|49=INITIATOR|52=20231202-04:00:37.384|56=ACCEPTOR|98=0|108=30|1137=7|10=000|
20231202-04:00:38.231263000 : 8=FIXT.1.1|9=81|35=A|34=599|49=INITIATOR|52=20231202-04:00:38.231|56=ACCEPTOR|98=0|108=30|1137=7|10=249|
20231202-04:00:39.076588000 : 8=FIXT.1.1|9=81|35=A|34=600|49=INITIATOR|52=20231202-04:00:39.076|56=ACCEPTOR|98=0|108=30|1137=7|10=240|
20231202-04:00:40.766900000 : 8=FIXT.1.1|9=81|35=A|34=601|49=INITIATOR|52=20231202-04:00:40.766|56=ACCEPTOR|98=0|108=30|1137=7|10=239|
20231202-04:00:41.612226000 : 8=FIXT.1.1|9=81|35=A|34=602|49=INITIATOR|52=20231202-04:00:41.612|56=ACCEPTOR|98=0|108=30|1137=7|10=231|
20231202-04:00:42.456686000 : 8=FIXT.1.1|9=81|35=A|34=603|49=INITIATOR|52=20231202-04:00:42.456|56=ACCEPTOR|98=0|108=30|1137=7|10=239|
20231202-04:00:43.300938000 : 8=FIXT.1.1|9=81|35=A|34=604|49=INITIATOR|52=20231202-04:00:43.300|56=ACCEPTOR|98=0|108=30|1137=7|10=229|
20231202-04:00:44.145224000 : 8=FIXT.1.1|9=81|35=A|34=605|49=INITIATOR|52=20231202-04:00:44.145|56=ACCEPTOR|98=0|108=30|1137=7|10=238|
20231202-04:00:45.831280000 : 8=FIXT.1.1|9=81|35=A|34=606|49=INITIATOR|52=20231202-04:00:45.831|56=ACCEPTOR|98=0|108=30|1137=7|10=242|
20231202-04:00:46.674498000 : 8=FIXT.1.1|9=81|35=A|34=607|49=INITIATOR|52=20231202-04:00:46.674|56=ACCEPTOR|98=0|108=30|1137=7|10=249|
20231202-04:00:47.517705000 : 8=FIXT.1.1|9=81|35=A|34=608|49=INITIATOR|52=20231202-04:00:47.517|56=ACCEPTOR|98=0|108=30|1137=7|10=247|
20231202-04:00:48.360975000 : 8=FIXT.1.1|9=81|35=A|34=609|49=INITIATOR|52=20231202-04:00:48.360|56=ACCEPTOR|98=0|108=30|1137=7|10=245|
20231202-04:00:49.203326000 : 8=FIXT.1.1|9=81|35=A|34=610|49=INITIATOR|52=20231202-04:00:49.203|56=ACCEPTOR|98=0|108=30|1137=7|10=234|
20231202-04:00:50.045581000 : 8=FIXT.1.1|9=81|35=A|34=611|49=INITIATOR|52=20231202-04:00:50.045|56=ACCEPTOR|98=0|108=30|1137=7|10=231|
20231202-04:00:51.729700000 : 8=FIXT.1.1|9=81|35=A|34=612|49=INITIATOR|52=20231202-04:00:51.729|56=ACCEPTOR|98=0|108=30|1137=7|10=242|
20231202-04:00:52.570956000 : 8=FIXT.1.1|9=81|35=A|34=613|49=INITIATOR|52=20231202-04:00:52.570|56=ACCEPTOR|98=0|108=30|1137=7|10=238|
20231202-04:00:53.412126000 : 8=FIXT.1.1|9=81|35=A|34=614|49=INITIATOR|52=20231202-04:00:53.412|56=ACCEPTOR|98=0|108=30|1137=7|10=235|
20231202-04:00:54.253430000 : 8=FIXT.1.1|9=81|35=A|34=615|49=INITIATOR|52=20231202-04:00:54.253|56=ACCEPTOR|98=0|108=30|1137=7|10=240|
20231202-04:00:55.094693000 : 8=FIXT.1.1|9=81|35=A|34=616|49=INITIATOR|52=20231202-04:00:55.094|56=ACCEPTOR|98=0|108=30|1137=7|10=245|
20231202-04:00:56.774850000 : 8=FIXT.1.1|9=81|35=A|34=617|49=INITIATOR|52=20231202-04:00:56.774|56=ACCEPTOR|98=0|108=30|1137=7|10=252|
20231202-04:00:57.615098000 : 8=FIXT.1.1|9=81|35=A|34=618|49=INITIATOR|52=20231202-04:00:57.615|56=ACCEPTOR|98=0|108=30|1137=7|10=248|
20231202-04:00:58.455548000 : 8=FIXT.1.1|9=81|35=A|34=619|49=INITIATOR|52=20231202-04:00:58.455|56=ACCEPTOR|98=0|108=30|1137=7|10=252|
20231202-04:00:59.294976000 : 8=FIXT.1.1|9=81|35=A|34=620|49=INITIATOR|52=20231202-04:00:59.294|56=ACCEPTOR|98=0|108=30|1137=7|10=246|
20231202-04:01:00.134202000 : 8=FIXT.1.1|9=81|35=A|34=621|49=INITIATOR|52=20231202-04:01:00.134|56=ACCEPTOR|98=0|108=30|1137=7|10=227|
20231202-04:01:01.812440000 : 8=FIXT.1.1|9=81|35=A|34=622|49=INITIATOR|52=20231202-04:01:01.812|56=ACCEPTOR|98=0|108=30|1137=7|10=232|
20231202-04:01:02.651767000 : 8=FIXT.1.1|9=81|35=A|34=623|49=INITIATOR|52=20231202-04:01:02.651|56=ACCEPTOR|98=0|108=30|1137=7|10=235|
20231202-04:01:03.490023000 : 8=FIXT.1.1|9=81|35=A|34=624|49=INITIATOR|52=20231202-04:01:03.489|56=ACCEPTOR|98=0|108=30|1137=7|10=246|
20231202-04:01:04.328304000 : 8=FIXT.1.1|9=81|35=A|34=625|49=INITIATOR|52=20231202-04:01:04.328|56=ACCEPTOR|98=0|108=30|1137=7|10=240|
20231202-04:01:05.166687000 : 8=FIXT.1.1|9=81|35=A|34=626|49=INITIATOR|52=20231202-04:01:05.166|56=ACCEPTOR|98=0|108=30|1137=7|10=242|
20231202-04:01:06.840888000 : 8=FIXT.1.1|9=81|35=A|34=627|49=INITIATOR|52=20231202-04:01:06.840|56=ACCEPTOR|98=0|108=30|1137=7|10=243|
20231202-04:01:07.678219000 : 8=FIXT.1.1|9=81|35=A|34=628|49=INITIATOR|52=20231202-04:01:07.678|56=ACCEPTOR|98=0|108=30|1137=7|10=254|
20231202-04:01:08.515530000 : 8=FIXT.1.1|9=81|35=A|34=629|49=INITIATOR|52=20231202-04:01:08.515|56=ACCEPTOR|98=0|108=30|1137=7|10=246|
20231202-04:01:09.351738000 : 8=FIXT.1.1|9=81|35=A|34=630|49=INITIATOR|52=20231202-04:01:09.351|56=ACCEPTOR|98=0|108=30|1137=7|10=237|
20231202-04:01:10.188061000 : 8=FIXT.1.1|9=81|35=A|34=631|49=INITIATOR|52=20231202-04:01:10.188|56=ACCEPTOR|98=0|108=30|1137=7|10=238|
20231202-04:01:11.024346000 : 8=FIXT.1.1|9=81|35=A|34=632|49=INITIATOR|52=20231202-04:01:11.024|56=ACCEPTOR|98=0|108=30|1137=7|10=229|
20231202-04:01:12.696581000 : 8=FIXT.1.1|9=81|35=A|34=633|49=INITIATOR|52=20231202-04:01:12.696|56=ACCEPTOR|98=0|108=30|1137=7|10=246|
20231202-04:01:13.531984000 : 8=FIXT.1.1|9=81|35=A|34=634|49=INITIATOR|52=20231202-04:01:13.531|56=ACCEPTOR|98=0|108=30|1137=7|10=236|
20231202-04:01:14.367214000 : 8=FIXT.1.1|9=81|35=A|34=635|49=INITIATOR|52=20231202-04:01:14.367|56=ACCEPTOR|98=0|108=30|1137=7|10=245|
20231202-04:01:15.202510000 : 8=FIXT.1.1|9=81|35=A|34=636|49=INITIATOR|52=20231202-04:01:15.202|56=ACCEPTOR|98=0|108=30|1137=7|10=235|
20231202-04:01:16.036868000 : 8=FIXT.1.1|9=81|35=A|34=637|49=INITIATOR|52=20231202-04:01:16.036|56=ACCEPTOR|98=0|108=30|1137=7|10=242|
20231202-04:01:17.705143000 : 8=FIXT.1.1|9=81|35=A|34=638|49=INITIATOR|52=20231202-04:01:17.705|56=ACCEPTOR|98=0|108=30|1137=7|10=247|
20231202-04:01:18.539356000 : 8=FIXT.1.1|9=81|35=A|34=639|49=INITIATOR|52=20231202-04:01:18.539|56=ACCEPTOR|98=0|108=30|1137=7|10=254|
20231202-04:01:19.373699000 : 8=FIXT.1.1|9=81|35=A|34=640|49=INITIATOR|52=20231202-04:01:19.373|56=ACCEPTOR|98=0|108=30|1137=7|10=243|
20231202-04:01:20.206899000 : 8=FIXT.1.1|9=81|35=A|34=641|49=INITIATOR|52=20231202-04:01:20.206|56=ACCEPTOR|98=0|108=30|1137=7|10=231|
20231202-04:01:21.040135000 : 8=FIXT.1.1|9=81|35=A|34=642|49=INITIATOR|52=20231202-04:01:21.040|56=ACCEPTOR|98=0|108=30|1137=7|10=229|
20231202-04:01:22.706294000 : 8=FIXT.1.1|9=81|35=A|34=643|49=INITIATOR|52=20231202-04:01:22.706|56=ACCEPTOR|98=0|108=30|1137=7|10=240|
20231202-04:01:23.538637000 : 8=FIXT.1.1|9=81|35=A|34=644|49=INITIATOR|52=20231202-04:01:23.538|56=ACCEPTOR|98=0|108=30|1137=7|10=245|
20231202-04:01:24.370861000 : 8=FIXT.1.1|9=81|35=A|34=645|49=INITIATOR|52=20231202-04:01:24.370|56=ACCEPTOR|98=0|108=30|1137=7|10=241|
20231202-04:01:25.203358000 : 8=FIXT.1.1|9=81|35=A|34=646|49=INITIATOR|52=20231202-04:01:25.203|56=ACCEPTOR|98=0|108=30|1137=7|10=238|
20231202-04:01:26.034650000 : 8=FIXT.1.1|9=81|35=A|34=647|49=INITIATOR|52=20231202-04:01:26.034|56=ACCEPTOR|98=0|108=30|1137=7|10=242|
20231202-04:01:27.696929000 : 8=FIXT.1.1|9=81|35=A|34=648|49=INITIATOR|52=20231202-04:01:27.696|56=ACCEPTOR|98=0|108=30|1137=7|10=002|
20231202-04:01:28.528274000 : 8=FIXT.1.1|9=81|35=A|34=649|49=INITIATOR|52=20231202-04:01:28.528|56=ACCEPTOR|98=0|108=30|1137=7|10=254|
20231202-04:01:29.358515000 : 8=FIXT.1.1|9=81|35=A|34=650|49=INITIATOR|52=20231202-04:01:29.358|56=ACCEPTOR|98=0|108=30|1137=7|10=248|
20231202-04:01:30.188852000 : 8=FIXT.1.1|9=81|35=A|34=651|49=INITIATOR|52=20231202-04:01:30.188|56=ACCEPTOR|98=0|108=30|1137=7|10=242|
20231202-04:01:31.019202000 : 8=FIXT.1.1|9=81|35=A|34=652|49=INITIATOR|52=20231202-04:01:31.019|56=ACCEPTOR|98=0|108=30|1137=7|10=237|
20231202-04:01:32.679254000 : 8=FIXT.1.1|9=81|35=A|34=653|49=INITIATOR|52=20231202-04:01:32.679|56=ACCEPTOR|98=0|108=30|1137=7|10=251|
20231202-04:01:33.508474000 : 8=FIXT.1.1|9=81|35=A|34=654|49=INITIATOR|52=20231202-04:01:33.508|56=ACCEPTOR|98=0|108=30|1137=7|10=244|
20231202-04:01:34.337805000 : 8=FIXT.1.1|9=81|35=A|34=655|49=INITIATOR|52=20231202-04:01:34.337|56=ACCEPTOR|98=0|108=30|1137=7|10=246|
20231202-04:01:35.167087000 : 8=FIXT.1.1|9=81|35=A|34=656|49=INITIATOR|52=20231202-04:01:35.167|56=ACCEPTOR|98=0|108=30|1137=7|10=249|
20231202-04:01:36.824221000 : 8=FIXT.1.1|9=81|35=A|34=657|49=INITIATOR|52=20231202-04:01:36.824|56=ACCEPTOR|98=0|108=30|1137=7|10=251|
20231202-04:01:37.652005000 : 8=FIXT.1.1|9=81|35=A|34=658|49=INITIATOR|52=20231202-04:01:37.651|56=ACCEPTOR|98=0|108=30|1137=7|10=251|
20231202-04:01:38.480361000 : 8=FIXT.1.1|9=81|35=A|34=659|49=INITIATOR|52=20231202-04:01:38.480|56=ACCEPTOR|98=0|108=30|1137=7|10=253|
20231202-04:01:39.308578000 : 8=FIXT.1.1|9=81|35=A|34=660|49=INITIATOR|52=20231202-04:01:39.308|56=ACCEPTOR|98=0|108=30|1137=7|10=245|
20231202-04:01:40.135779000 : 8=FIXT.1.1|9=81|35=A|34=661|49=INITIATOR|52=20231202-04:01:40.135|56=ACCEPTOR|98=0|108=30|1137=7|10=236|
20231202-04:01:41.789921000 : 8=FIXT.1.1|9=81|35=A|34=662|49=INITIATOR|52=20231202-04:01:41.789|56=ACCEPTOR|98=0|108=30|1137=7|10=253|
20231202-04:01:42.617161000 : 8=FIXT.1.1|9=81|35=A|34=663|49=INITIATOR|52=20231202-04:01:42.617|56=ACCEPTOR|98=0|108=30|1137=7|10=245|
20231202-04:01:43.443406000 : 8=FIXT.1.1|9=81|35=A|34=664|49=INITIATOR|52=20231202-04:01:43.443|56=ACCEPTOR|98=0|108=30|1137=7|10=244|
20231202-04:01:44.269632000 : 8=FIXT.1.1|9=81|35=A|34=665|49=INITIATOR|52=20231202-04:01:44.269|56=ACCEPTOR|98=0|108=30|1137=7|10=252|
20231202-04:01:45.095892000 : 8=FIXT.1.1|9=81|35=A|34=666|49=INITIATOR|52=20231202-04:01:45.095|56=ACCEPTOR|98=0|108=30|1137=7|10=251|
20231202-04:01:46.747994000 : 8=FIXT.1.1|9=81|35=A|34=667|49=INITIATOR|52=20231202-04:01:46.747|56=ACCEPTOR|98=0|108=30|1137=7|10=001|
20231202-04:01:47.573322000 : 8=FIXT.1.1|9=81|35=A|34=668|49=INITIATOR|52=20231202-04:01:47.573|56=ACCEPTOR|98=0|108=30|1137=7|10=000|
20231202-04:01:48.398577000 : 8=FIXT.1.1|9=81|35=A|34=669|49=INITIATOR|52=20231202-04:01:48.398|56=ACCEPTOR|98=0|108=30|1137=7|10=007|
20231202-04:01:49.223771000 : 8=FIXT.1.1|9=81|35=A|34=670|49=INITIATOR|52=20231202-04:01:49.223|56=ACCEPTOR|98=0|108=30|1137=7|10=243|
20231202-04:01:50.048069000 : 8=FIXT.1.1|9=81|35=A|34=671|49=INITIATOR|52=20231202-04:01:50.048|56=ACCEPTOR|98=0|108=30|1137=7|10=241|
20231202-04:01:51.696283000 : 8=FIXT.1.1|9=81|35=A|34=672|49=INITIATOR|52=20231202-04:01:51.696|56=ACCEPTOR|98=0|108=30|1137=7|10=252|
20231202-04:01:52.520562000 : 8=FIXT.1.1|9=81|35=A|34=673|49=INITIATOR|52=20231202-04:01:52.520|56=ACCEPTOR|98=0|108=30|1137=7|10=240|
20231202-04:01:53.344043000 : 8=FIXT.1.1|9=81|35=A|34=674|49=INITIATOR|52=20231202-04:01:53.343|56=ACCEPTOR|98=0|108=30|1137=7|10=245|
20231202-04:01:54.167437000 : 8=FIXT.1.1|9=81|35=A|34=675|49=INITIATOR|52=20231202-04:01:54.167|56=ACCEPTOR|98=0|108=30|1137=7|10=251|
20231202-04:01:55.811634000 : 8=FIXT.1.1|9=81|35=A|34=676|49=INITIATOR|52=20231202-04:01:55.811|56=ACCEPTOR|98=0|108=30|1137=7|10=249|
20231202-04:01:56.633949000 : 8=FIXT.1.1|9=81|35=A|34=677|49=INITIATOR|52=20231202-04:01:56.633|56=ACCEPTOR|98=0|108=30|1137=7|10=253|
20231202-04:01:57.456248000 : 8=FIXT.1.1|9=81|35=A|34=678|49=INITIATOR|52=20231202-04:01:57.456|56=ACCEPTOR|98=0|108=30|1137=7|10=002|
20231202-04:01:58.277429000 : 8=FIXT.1.1|9=81|35=A|34=679|49=INITIATOR|52=20231202-04:01:58.277|56=ACCEPTOR|98=0|108=30|1137=7|10=005|
20231202-04:01:59.098779000 : 8=FIXT.1.1|9=81|35=A|34=680|49=INITIATOR|52=20231202-04:01:59.098|56=ACCEPTOR|98=0|108=30|1137=7|10=255|
20231202-04:02:00.740617000 : 8=FIXT.1.1|9=81|35=A|34=681|49=INITIATOR|52=20231202-04:02:00.740|56=ACCEPTOR|98=0|108=30|1137=7|10=237|
20231202-04:02:01.560927000 : 8=FIXT.1.1|9=81|35=A|34=682|49=INITIATOR|52=20231202-04:02:01.560|56=ACCEPTOR|98=0|108=30|1137=7|10=239|
20231202-04:02:02.380620000 : 8=FIXT.1.1|9=81|35=A|34=683|49=INITIATOR|52=20231202-04:02:02.380|56=ACCEPTOR|98=0|108=30|1137=7|10=241|
20231202-04:02:03.200794000 : 8=FIXT.1.1|9=81|35=A|34=684|49=INITIATOR|52=20231202-04:02:03.200|56=ACCEPTOR|98=0|108=30|1137=7|10=234|
20231202-04:02:04.020219000 : 8=FIXT.1.1|9=81|35=A|34=685|49=INITIATOR|52=20231202-04:02:04.020|56=ACCEPTOR|98=0|108=30|1137=7|10=236|
20231202-04:02:05.658387000 : 8=FIXT.1.1|9=81|35=A|34=686|49=INITIATOR|52=20231202-04:02:05.658|56=ACCEPTOR|98=0|108=30|1137=7|10=255|
20231202-04:02:06.477600000 : 8=FIXT.1.1|9=81|35=A|34=687|49=INITIATOR|52=20231202-04:02:06.477|56=ACCEPTOR|98=0|108=30|1137=7|10=000|
20231202-04:02:07.295862000 : 8=FIXT.1.1|9=81|35=A|34=688|49=INITIATOR|52=20231202-04:02:07.295|56=ACCEPTOR|98=0|108=30|1137=7|10=000|
20231202-04:02:08.114007000 : 8=FIXT.1.1|9=81|35=A|34=689|49=INITIATOR|52=20231202-04:02:08.113|56=ACCEPTOR|98=0|108=30|1137=7|10=247|
20231202-04:02:09.750247000 : 8=FIXT.1.1|9=81|35=A|34=690|49=INITIATOR|52=20231202-04:02:09.750|56=ACCEPTOR|98=0|108=30|1137=7|10=247|
20231202-04:02:10.568510000 : 8=FIXT.1.1|9=81|35=A|34=691|49=INITIATOR|52=20231202-04:02:10.568|56=ACCEPTOR|98=0|108=30|1137=7|10=247|
20231202-04:02:11.385829000 : 8=FIXT.1.1|9=81|35=A|34=692|49=INITIATOR|52=20231202-04:02:11.385|56=ACCEPTOR|98=0|108=30|1137=7|10=246|
20231202-04:02:12.203183000 : 8=FIXT.1.1|9=81|35=A|34=693|49=INITIATOR|52=20231202-04:02:12.203|56=ACCEPTOR|98=0|108=30|1137=7|10=237|
20231202-04:02:13.020470000 : 8=FIXT.1.1|9=81|35=A|34=694|49=INITIATOR|52=20231202-04:02:13.020|56=ACCEPTOR|98=0|108=30|1137=7|10=236|
20231202-04:02:14.652516000 : 8=FIXT.1.1|9=81|35=A|34=695|49=INITIATOR|52=20231202-04:02:14.652|56=ACCEPTOR|98=0|108=30|1137=7|10=249|
20231202-04:02:15.468967000 : 8=FIXT.1.1|9=81|35=A|34=696|49=INITIATOR|52=20231202-04:02:15.468|56=ACCEPTOR|98=0|108=30|1137=7|10=000|
20231202-04:02:16.285249000 : 8=FIXT.1.1|9=81|35=A|34=697|49=INITIATOR|52=20231202-04:02:16.285|56=ACCEPTOR|98=0|108=30|1137=7|10=255|
20231202-04:02:17.100573000 : 8=FIXT.1.1|9=81|35=A|34=698|49=INITIATOR|52=20231202-04:02:17.100|56=ACCEPTOR|98=0|108=30|1137=7|10=243|
20231202-04:02:18.730786000 : 8=FIXT.1.1|9=81|35=A|34=699|49=INITIATOR|52=20231202-04:02:18.730|56=ACCEPTOR|98=0|108=30|1137=7|10=254|
20231202-04:02:19.546029000 : 8=FIXT.1.1|9=81|35=A|34=700|49=INITIATOR|52=20231202-04:02:19.546|56=ACCEPTOR|98=0|108=30|1137=7|10=243|
20231202-04:02:20.360389000 : 8=FIXT.1.1|9=81|35=A|34=701|49=INITIATOR|52=20231202-04:02:20.360|56=ACCEPTOR|98=0|108=30|1137=7|10=230|
20231202-04:02:21.174619000 : 8=FIXT.1.1|9=81|35=A|34=702|49=INITIATOR|52=20231202-04:02:21.174|56=ACCEPTOR|98=0|108=30|1137=7|10=235|
20231202-04:02:22.802767000 : 8=FIXT.1.1|9=81|35=A|34=703|49=INITIATOR|52=20231202-04:02:22.802|56=ACCEPTOR|98=0|108=30|1137=7|10=235|
20231202-04:02:23.615955000 : 8=FIXT.1.1|9=81|35=A|34=704|49=INITIATOR|52=20231202-04:02:23.615|56=ACCEPTOR|98=0|108=30|1137=7|10=239|
20231202-04:02:24.429178000 : 8=FIXT.1.1|9=81|35=A|34=705|49=INITIATOR|52=20231202-04:02:24.429|56=ACCEPTOR|98=0|108=30|1137=7|10=244|
20231202-04:02:25.242498000 : 8=FIXT.1.1|9=81|35=A|34=706|49=INITIATOR|52=20231202-04:02:25.242|56=ACCEPTOR|98=0|108=30|1137=7|10=239|
20231202-04:02:26.054875000 : 8=FIXT.1.1|9=81|35=A|34=707|49=INITIATOR|52=20231202-04:02:26.054|56=ACCEPTOR|98=0|108=30|1137=7|10=242|
20231202-04:02:27.679189000 : 8=FIXT.1.1|9=81|35=A|34=708|49=INITIATOR|52=20231202-04:02:27.679|56=ACCEPTOR|98=0|108=30|1137=7|10=001|
20231202-04:02:28.491686000 : 8=FIXT.1.1|9=81|35=A|34=709|49=INITIATOR|52=20231202-04:02:28.491|56=ACCEPTOR|98=0|108=30|1137=7|10=251|
20231202-04:02:29.302966000 : 8=FIXT.1.1|9=81|35=A|34=710|49=INITIATOR|52=20231202-04:02:29.302|56=ACCEPTOR|98=0|108=30|1137=7|10=235|
20231202-04:02:30.114662000 : 8=FIXT.1.1|9=81|35=A|34=711|49=INITIATOR|52=20231202-04:02:30.114|56=ACCEPTOR|98=0|108=30|1137=7|10=229|
20231202-04:02:31.734435000 : 8=FIXT.1.1|9=81|35=A|34=712|49=INITIATOR|52=20231202-04:02:31.734|56=ACCEPTOR|98=0|108=30|1137=7|10=239|
20231202-04:02:32.544727000 : 8=FIXT.1.1|9=81|35=A|34=713|49=INITIATOR|52=20231202-04:02:32.544|56=ACCEPTOR|98=0|108=30|1137=7|10=240|
20231202-04:02:33.354914000 : 8=FIXT.1.1|9=81|35=A|34=714|49=INITIATOR|52=20231202-04:02:33.354|56=ACCEPTOR|98=0|108=30|1137=7|10=241|
20231202-04:02:34.164222000 : 8=FIXT.1.1|9=81|35=A|34=715|49=INITIATOR|52=20231202-04:02:34.164|56=ACCEPTOR|98=0|108=30|1137=7|10=242|
20231202-04:02:35.782347000 : 8=FIXT.1.1|9=81|35=A|34=716|49=INITIATOR|52=20231202-04:02:35.782|56=ACCEPTOR|98=0|108=30|1137=7|10=250|
20231202-04:02:36.591724000 : 8=FIXT.1.1|9=81|35=A|34=717|49=INITIATOR|52=20231202-04:02:36.591|56=ACCEPTOR|98=0|108=30|1137=7|10=250|
20231202-04:02:37.399997000 : 8=FIXT.1.1|9=81|35=A|34=718|49=INITIATOR|52=20231202-04:02:37.399|56=ACCEPTOR|98=0|108=30|1137=7|10=002|
20231202-04:02:38.208400000 : 8=FIXT.1.1|9=81|35=A|34=719|49=INITIATOR|52=20231202-04:02:38.208|56=ACCEPTOR|98=0|108=30|1137=7|10=249|
20231202-04:02:39.016636000 : 8=FIXT.1.1|9=81|35=A|34=720|49=INITIATOR|52=20231202-04:02:39.016|56=ACCEPTOR|98=0|108=30|1137=7|10=239|
20231202-04:02:40.630886000 : 8=FIXT.1.1|9=81|35=A|34=721|49=INITIATOR|52=20231202-04:02:40.630|56=ACCEPTOR|98=0|108=30|1137=7|10=234|
20231202-04:02:41.438087000 : 8=FIXT.1.1|9=81|35=A|34=722|49=INITIATOR|52=20231202-04:02:41.438|56=ACCEPTOR|98=0|108=30|1137=7|10=242|
20231202-04:02:42.245332000 : 8=FIXT.1.1|9=81|35=A|34=723|49=INITIATOR|52=20231202-04:02:42.245|56=ACCEPTOR|98=0|108=30|1137=7|10=240|
20231202-04:02:43.051588000 : 8=FIXT.1.1|9=81|35=A|34=724|49=INITIATOR|52=20231202-04:02:43.051|56=ACCEPTOR|98=0|108=30|1137=7|10=237|
20231202-04:02:44.663700000 : 8=FIXT.1.1|9=81|35=A|34=725|49=INITIATOR|52=20231202-04:02:44.663|56=ACCEPTOR|98=0|108=30|1137=7|10=248|
20231202-04:02:45.470006000 : 8=FIXT.1.1|9=81|35=A|34=726|49=INITIATOR|52=20231202-04:02:45.469|56=ACCEPTOR|98=0|108=30|1137=7|10=254|
20231202-04:02:46.275277000 : 8=FIXT.1.1|9=81|35=A|34=727|49=INITIATOR|52=20231202-04:02:46.275|56=ACCEPTOR|98=0|108=30|1137=7|10=251|
20231202-04:02:47.080478000 : 8=FIXT.1.1|9=81|35=A|34=728|49=INITIATOR|52=20231202-04:02:47.080|56=ACCEPTOR|98=0|108=30|1137=7|10=247|
20231202-04:02:48.690665000 : 8=FIXT.1.1|9=81|35=A|34=729|49=INITIATOR|52=20231202-04:02:48.690|56=ACCEPTOR|98=0|108=30|1137=7|10=000|
20231202-04:02:49.495977000 : 8=FIXT.1.1|9=81|35=A|34=730|49=INITIATOR|52=20231202-04:02:49.495|56=ACCEPTOR|98=0|108=30|1137=7|10=252|
20231202-04:02:50.300192000 : 8=FIXT.1.1|9=81|35=A|34=731|49=INITIATOR|52=20231202-04:02:50.300|56=ACCEPTOR|98=0|108=30|1137=7|10=230|
20231202-04:02:51.104484000 : 8=FIXT.1.1|9=81|35=A|34=732|49=INITIATOR|52=20231202-04:02:51.104|56=ACCEPTOR|98=0|108=30|1137=7|10=234|
20231202-04:02:52.712681000 : 8=FIXT.1.1|9=81|35=A|34=733|49=INITIATOR|52=20231202-04:02:52.712|56=ACCEPTOR|98=0|108=30|1137=7|10=241|
20231202-04:02:53.515825000 : 8=FIXT.1.1|9=81|35=A|34=734|49=INITIATOR|52=20231202-04:02:53.515|56=ACCEPTOR|98=0|108=30|1137=7|10=244|
20231202-04:02:54.319021000 : 8=FIXT.1.1|9=81|35=A|34=735|49=INITIATOR|52=20231202-04:02:54.318|56=ACCEPTOR|98=0|108=30|1137=7|10=247|
20231202-04:02:55.122209000 : 8=FIXT.1.1|9=81|35=A|34=736|49=INITIATOR|52=20231202-04:02:55.122|56=ACCEPTOR|98=0|108=30|1137=7|10=242|
20231202-04:02:56.728438000 : 8=FIXT.1.1|9=81|35=A|34=737|49=INITIATOR|52=20231202-04:02:56.728|56=ACCEPTOR|98=0|108=30|1137=7|10=000|
20231202-04:02:57.530470000 : 8=FIXT.1.1|9=81|35=A|34=738|49=INITIATOR|52=20231202-04:02:57.530|56=ACCEPTOR|98=0|108=30|1137=7|10=249|
20231202-04:02:58.332825000 : 8=FIXT.1.1|9=81|35=A|34=739|49=INITIATOR|52=20231202-04:02:58.332|56=ACCEPTOR|98=0|108=30|1137=7|10=251|
20231202-04:02:59.135124000 : 8=FIXT.1.1|9=81|35=A|34=740|49=INITIATOR|52=20231202-04:02:59.135|56=ACCEPTOR|98=0|108=30|1137=7|10=245|
20231202-04:03:00.737341000 : 8=FIXT.1.1|9=81|35=A|34=741|49=INITIATOR|52=20231202-04:03:00.737|56=ACCEPTOR|98=0|108=30|1137=7|10=241|
20231202-04:03:01.538540000 : 8=FIXT.1.1|9=81|35=A|34=742|49=INITIATOR|52=20231202-04:03:01.538|56=ACCEPTOR|98=0|108=30|1137=7|10=242|
20231202-04:03:02.339646000 : 8=FIXT.1.1|9=81|35=A|34=743|49=INITIATOR|52=20231202-04:03:02.339|56=ACCEPTOR|98=0|108=30|1137=7|10=243|
