8=FIXT.1.1|9=95|35=A|34=1|49=ACCEPTOR|52=20231201-07:07:16.918|56=INITIATOR|98=0|108=1|141=Y|1137=spec/FIX.5.0|10=223|8=FIXT.1.1|9=60|35=0|34=2|49=ACCEPTOR|52=20231201-07:07:17.918|56=INITIATOR|10=040|8=FIXT.1.1|9=60|35=0|34=3|49=ACCEPTOR|52=20231201-07:07:18.917|56=INITIATOR|10=041|8=FIXT.1.1|9=60|35=0|34=4|49=ACCEPTOR|52=20231201-07:07:19.916|56=INITIATOR|10=042|8=FIXT.1.1|9=60|35=0|34=5|49=ACCEPTOR|52=20231201-07:07:20.915|56=INITIATOR|10=034|8=FIXT.1.1|9=60|35=0|34=6|49=ACCEPTOR|52=20231201-07:07:21.912|56=INITIATOR|10=033|8=FIXT.1.1|9=60|35=0|34=7|49=ACCEPTOR|52=20231201-07:07:22.911|56=INITIATOR|10=034|8=FIXT.1.1|9=60|35=0|34=8|49=ACCEPTOR|52=20231201-07:07:23.908|56=INITIATOR|10=042|8=FIXT.1.1|9=60|35=0|34=9|49=ACCEPTOR|52=20231201-07:07:24.904|56=INITIATOR|10=040|8=FIXT.1.1|9=61|35=0|34=10|49=ACCEPTOR|52=20231201-07:07:25.899|56=INITIATOR|10=095|8=FIXT.1.1|9=61|35=0|34=11|49=ACCEPTOR|52=20231201-07:07:26.894|56=INITIATOR|10=092|8=FIXT.1.1|9=61|35=0|34=12|49=ACCEPTOR|52=20231201-07:07:27.888|56=INITIATOR|10=097|8=FIXT.1.1|9=61|35=0|34=13|49=ACCEPTOR|52=20231201-07:07:28.881|56=INITIATOR|10=092|8=FIXT.1.1|9=61|35=0|34=14|49=ACCEPTOR|52=20231201-07:07:29.873|56=INITIATOR|10=095|8=FIXT.1.1|9=61|35=0|34=15|49=ACCEPTOR|52=20231201-07:07:30.864|56=INITIATOR|10=088|8=FIXT.1.1|9=61|35=0|34=16|49=ACCEPTOR|52=20231201-07:07:31.853|56=INITIATOR|10=088|8=FIXT.1.1|9=61|35=0|34=17|49=ACCEPTOR|52=20231201-07:07:32.842|56=INITIATOR|10=088|8=FIXT.1.1|9=61|35=0|34=18|49=ACCEPTOR|52=20231201-07:07:33.829|56=INITIATOR|10=095|8=FIXT.1.1|9=61|35=0|34=19|49=ACCEPTOR|52=20231201-07:07:34.816|56=INITIATOR|10=093|8=FIXT.1.1|9=61|35=0|34=20|49=ACCEPTOR|52=20231201-07:07:35.801|56=INITIATOR|10=080|8=FIXT.1.1|9=61|35=0|34=21|49=ACCEPTOR|52=20231201-07:07:36.786|56=INITIATOR|10=094|8=FIXT.1.1|9=61|35=0|34=22|49=ACCEPTOR|52=20231201-07:07:37.771|56=INITIATOR|10=090|8=FIXT.1.1|9=61|35=0|34=23|49=ACCEPTOR|52=20231201-07:07:38.755|56=INITIATOR|10=094|8=FIXT.1.1|9=61|35=0|34=24|49=ACCEPTOR|52=20231201-07:07:39.738|56=INITIATOR|10=097|8=FIXT.1.1|9=61|35=0|34=25|49=ACCEPTOR|52=20231201-07:07:40.720|56=INITIATOR|10=081|8=FIXT.1.1|9=61|35=0|34=26|49=ACCEPTOR|52=20231201-07:07:41.701|56=INITIATOR|10=082|8=FIXT.1.1|9=61|35=0|34=27|49=ACCEPTOR|52=20231201-07:07:42.681|56=INITIATOR|10=091|8=FIXT.1.1|9=61|35=0|34=28|49=ACCEPTOR|52=20231201-07:07:43.660|56=INITIATOR|10=090|8=FIXT.1.1|9=61|35=0|34=29|49=ACCEPTOR|52=20231201-07:07:44.637|56=INITIATOR|10=096|8=FIXT.1.1|9=61|35=0|34=30|49=ACCEPTOR|52=20231201-07:07:45.614|56=INITIATOR|10=084|8=FIXT.1.1|9=61|35=0|34=31|49=ACCEPTOR|52=20231201-07:07:46.590|56=INITIATOR|10=089|8=FIXT.1.1|9=61|35=0|34=32|49=ACCEPTOR|52=20231201-07:07:47.565|56=INITIATOR|10=093|8=FIXT.1.1|9=61|35=0|34=33|49=ACCEPTOR|52=20231201-07:07:48.540|56=INITIATOR|10=088|8=FIXT.1.1|9=61|35=0|34=34|49=ACCEPTOR|52=20231201-07:07:49.515|56=INITIATOR|10=092|8=FIXT.1.1|9=61|35=0|34=35|49=ACCEPTOR|52=20231201-07:07:50.488|56=INITIATOR|10=094|8=FIXT.1.1|9=61|35=0|34=36|49=ACCEPTOR|52=20231201-07:07:51.461|56=INITIATOR|10=087|8=FIXT.1.1|9=61|35=0|34=37|49=ACCEPTOR|52=20231201-07:07:52.433|56=INITIATOR|10=088|8=FIXT.1.1|9=61|35=0|34=38|49=ACCEPTOR|52=20231201-07:07:53.405|56=INITIATOR|10=089|8=FIXT.1.1|9=61|35=0|34=39|49=ACCEPTOR|52=20231201-07:07:54.376|56=INITIATOR|10=098|8=FIXT.1.1|9=61|35=0|34=40|49=ACCEPTOR|52=20231201-07:07:55.347|56=INITIATOR|10=089|8=FIXT.1.1|9=61|35=0|34=41|49=ACCEPTOR|52=20231201-07:07:56.317|56=INITIATOR|10=088|8=FIXT.1.1|9=61|35=0|34=42|49=ACCEPTOR|52=20231201-07:07:57.287|56=INITIATOR|10=096|8=FIXT.1.1|9=61|35=0|34=43|49=ACCEPTOR|52=20231201-07:07:58.256|56=INITIATOR|10=094|8=FIXT.1.1|9=61|35=0|34=44|49=ACCEPTOR|52=20231201-07:07:59.224|56=INITIATOR|10=091|8=FIXT.1.1|9=61|35=0|34=45|49=ACCEPTOR|52=20231201-07:08:00.191|56=INITIATOR|10=082|8=FIXT.1.1|9=61|35=0|34=46|49=ACCEPTOR|52=20231201-07:08:01.157|56=INITIATOR|10=086|8=FIXT.1.1|9=61|35=0|34=47|49=ACCEPTOR|52=20231201-07:08:02.123|56=INITIATOR|10=081|8=FIXT.1.1|9=61|35=0|34=48|49=ACCEPTOR|52=20231201-07:08:03.089|56=INITIATOR|10=094|