8=FIXT.1.1|9=95|35=A|34=1|49=ACCEPTOR|52=20231201-06:28:53.710|56=INITIATOR|98=0|108=1|141=Y|1137=spec/FIX.5.0|10=216|8=FIXT.1.1|9=60|35=0|34=2|49=ACCEPTOR|52=20231201-06:28:54.707|56=INITIATOR|10=039|8=FIXT.1.1|9=60|35=0|34=3|49=ACCEPTOR|52=20231201-06:28:55.702|56=INITIATOR|10=036|8=FIXT.1.1|9=60|35=0|34=4|49=ACCEPTOR|52=20231201-06:28:56.697|56=INITIATOR|10=051|8=FIXT.1.1|9=60|35=0|34=5|49=ACCEPTOR|52=20231201-06:28:57.693|56=INITIATOR|10=049|8=FIXT.1.1|9=60|35=0|34=6|49=ACCEPTOR|52=20231201-06:28:58.686|56=INITIATOR|10=053|8=FIXT.1.1|9=60|35=0|34=7|49=ACCEPTOR|52=20231201-06:28:59.680|56=INITIATOR|10=049|8=FIXT.1.1|9=60|35=0|34=8|49=ACCEPTOR|52=20231201-06:29:00.673|56=INITIATOR|10=039|8=FIXT.1.1|9=60|35=0|34=9|49=ACCEPTOR|52=20231201-06:29:01.666|56=INITIATOR|10=043|8=FIXT.1.1|9=61|35=0|34=10|49=ACCEPTOR|52=20231201-06:29:02.657|56=INITIATOR|10=085|8=FIXT.1.1|9=61|35=0|34=11|49=ACCEPTOR|52=20231201-06:29:03.648|56=INITIATOR|10=087|8=FIXT.1.1|9=61|35=0|34=12|49=ACCEPTOR|52=20231201-06:29:04.638|56=INITIATOR|10=088|8=FIXT.1.1|9=61|35=0|34=13|49=ACCEPTOR|52=20231201-06:29:05.628|56=INITIATOR|10=089|8=FIXT.1.1|9=61|35=0|34=14|49=ACCEPTOR|52=20231201-06:29:06.617|56=INITIATOR|10=089|8=FIXT.1.1|9=61|35=0|34=15|49=ACCEPTOR|52=20231201-06:29:07.605|56=INITIATOR|10=088|8=FIXT.1.1|9=61|35=0|34=16|49=ACCEPTOR|52=20231201-06:29:08.592|56=INITIATOR|10=095|8=FIXT.1.1|9=61|35=0|34=17|49=ACCEPTOR|52=20231201-06:29:09.578|56=INITIATOR|10=101|8=FIXT.1.1|9=61|35=0|34=18|49=ACCEPTOR|52=20231201-06:29:10.562|56=INITIATOR|10=087|8=FIXT.1.1|9=61|35=0|34=19|49=ACCEPTOR|52=20231201-06:29:11.547|56=INITIATOR|10=092|8=FIXT.1.1|9=61|35=0|34=20|49=ACCEPTOR|52=20231201-06:29:12.531|56=INITIATOR|10=078|8=FIXT.1.1|9=61|35=0|34=21|49=ACCEPTOR|52=20231201-06:29:13.512|56=INITIATOR|10=079|